:020000040800F2
:10000000400400200101000845350008511F000888
:1000100019220008A5080008EB41000800000000B4
:10002000000000000000000000000000753C000817
:10003000D91B00080000000015360008613D0008CB
:100040001B0100081B0100081B0100081B01000820
:100050001B0100081B0100081B010008F51B00081C
:10006000191C00081B0100081B0100081B010008E7
:100070001B0100081B0100081B0100081B010008F0
:100080001B0100081B0100081B0100081B010008E0
:100090001B0100081B0100081B0100081B010008D0
:1000A0001B0100081B0100081B0100081B010008C0
:1000B000DD3D00081B0100081B0100081B010008B2
:1000C0001B0100081B0100081B0100081B010008A0
:1000D0001B010008014000081B0100081B0100086B
:1000E0001B0100081B0100081B010008DFF80CD0F1
:1000F00000F038FB00480047214B00084004002076
:100100000648804706480047FEE7FEE7FEE7FEE7B1
:10011000FEE7FEE7FEE7FEE7FEE7FEE7653D0008D7
:10012000ED000008F0B480EA0102D40F4200B2EB07
:10013000410F02D20246084611464A0042D0C30D82
:10014000DDB2C1F3C752AD1A202D35DAC1F3160165
:1001500041F4000204B15242C5F1200602FA06F150
:100160002A411044B3EBD05F23D0C4B1012DA0EBE2
:10017000C35009DCF0BC4FF0004202EAC352DBB2CC
:1001800000F5000000F007B9400000F1807000EBBE
:10019000C350A0F1807040EAD170490009E04908DD
:1001A00041EAC071A0EBC35000F50000400800EB2D
:1001B000C350F0BC00F0E6B86142012202EB4101FD
:1001C000001BF6E7F0BC704781F00041AAE780F021
:1001D0000040A7E780EA010210B502F000434000AA
:1001E00022D04A001FD0010E01EB1261C0F356006D
:1001F000C2F3560240F4000042F40002A0FB0220C9
:1002000000047F39140400D0401C50EA124001D48D
:100210004000491EC2B20C0604EBD010401C40083E
:10022000802A02D003E0002010BD20F00100002948
:1002300000DA0020184310BD30B480EA010202F059
:10024000004530F0004221F0004013D090B1C30DC2
:10025000D40DC2F31601C0F31600E41A41F40001F4
:1002600040F400027D34914201D3641C00E0490057
:10027000002C02DA30BC002070474FF4000000234D
:10028000914201D3891A034340084FEA4101F7D153
:1002900051B1914202D14FF0004105E002D24FF03E
:1002A000010101E06FF0010103EBC450284430BCB0
:1002B00000F068B8C10F80EAE0700844CA079623CE
:1002C000002100F068B896230022114600F063B8C0
:1002D00000F0004230F000400AD0C10D01F560711D
:1002E000C0F3160042EA0151C208400711437047AB
:1002F00000200146704730B50B4601460020202201
:10030000012409E021FA02F59D4205D303FA02F522
:10031000491B04FA02F52844151EA2F10102F1DC82
:1003200030BD2DE9F05F0546002092469B46884689
:100330000646814640241BE0284641464746224661
:1003400000F031FA53465A46C01A914110D3114673
:100350001846224600F018FA2D1A67EB01084F469E
:1003600022460120002100F00FFA17EB00094E4150
:10037000201EA4F10104DFDC484631462A464346EC
:10038000BDE8F09F0029A8BF7047401C490008BF86
:1003900020F00100704710B4B0FA80FC00FA0CF0B5
:1003A00050EA010404BF10BC704749B1CCF12004ED
:1003B00021FA04F411FA0CF118BF0121214308437A
:1003C000A3EB0C01CB1D4FEA00614FEA102042BFA6
:1003D000002010BC704700EBC35010440029A4BF9C
:1003E00010BC7047401C490008BF20F0010010BC41
:1003F00070472DE9FE4F804681EA0300C00F0C468E
:10040000009021F0004123F00045B8EB0200A94123
:1004100005D24046214690461C460B46024623F034
:100420000040104347D0270DC7F30A00C3F30A5119
:100430000290401A019040286BDAC3F3130040F495
:10044000801B0098924620B10023D2EB030A63EB95
:100450000B0B01985946C0F14002504600F094F948
:1004600006460D4650465946019A00F0ACF910EB8D
:1004700008006141002487EA115284EAE7731A43B5
:1004800040D0009A62B3019A012A4FEA075215DC64
:10049000001B61EB02014FF0004202EA0752CDE976
:1004A0000042001C41F5801132462B4600F0ACF9A9
:1004B00003B0BDE8F08F40462146F9E7001B61EB31
:1004C0000201001C41F5801300185B412018A2F5C1
:1004D000001747EB030140EAD570B6196D4111E0F2
:1004E0006D084FEA360645EAC0754FEA0752001B11
:1004F00061EB0201001C41F5801149084FEA300010
:100500000019514132462B4603B0BDE8F04F00F0D0
:100510006CB90098012240000023D0EB020263EB8B
:10052000E073009821464FEAE074B8EB000061EBFD
:100530000401E9E783F000435BE781F0004158E7FD
:100540002DE9FE4F81EA030404F0004421F000414C
:1005500000944FF0000B23F0004350EA01045ED0FA
:1005600052EA03045BD0C3F30A54C1F30A552C4486
:10057000A4F2F3340194A0FB0254C1F3130141F43B
:100580008011C3F3130343F4801301FB024400FB07
:10059000034E840A970A44EA815447EA8357A4FB2E
:1005A000076802958D0A05FB07854FEA932C04FB2B
:1005B0000C542705029D4FEA065847EA1637B5EB5B
:1005C00008056EEB070C870E920E47EA811742EA88
:1005D0008312A7FB0201B6EB0B0164EB00042B0DA9
:1005E00043EA0C335E1844EB1C50DA465146E7FBF5
:1005F0000201C5F313044FEA0B3343EA14534FEAE5
:100600000432019C43EA0603A4F10C040294009C0A
:10061000CDE900B400F0F8F803B0BDE8F08F002099
:100620000146F9E72DE9F04D81EA030404F0004B9F
:1006300021F0004514464FF0000A23F0004150EA33
:10064000050220D054EA01021DD0C5F30A57024624
:10065000C5F31303C1F31300C1F30A5640F4801528
:1006600043F48013A7EB0608101BD64608F2FD38AA
:1006700073EB050002D308F1010801E092185B4119
:10068000B8F1000F03DA00200146BDE8F08D00202C
:100690004FF48011064684460EE0171B73EB0507E6
:1006A00005D3121B63EB050306434CEA010C490812
:1006B0004FEA300092185B4150EA0107EDD152EA4F
:1006C000030012D082EA040083EA0501084305D042
:1006D000101BAB4106D20122002306E000224FF09E
:1006E000004302E06FF0010253101AEB06004CEBDE
:1006F000085110EB0A0041EB0B01BDE8F04D00F092
:1007000074B8C1F30A52C1F3130140F2FF3341F44C
:1007100080119A4202DA00200146704740F23343CA
:100720009A42A2F2334202DC524200F03CB800F09E
:100730002BB8000030B5041E71F1000404DB4FF04B
:100740000044404264EB0101141E73F1000405DB18
:100750001C464FF00043524263EB0403994208BF2A
:10076000904230BD064C074D06E0E06840F00103C2
:1007700094E8070098471034AC42F6D3FFF7BAFC70
:10078000704B0008904B0008202A04DB203A00FA46
:1007900002F1002070479140C2F1200320FA03F3D8
:1007A000194390407047202A04DB203A21FA02F0D6
:1007B0000021704721FA02F3D040C2F1200291409B
:1007C000084319467047202A06DBCB17203A41FA26
:1007D00002F043EAE07306E041FA02F3D040C2F1CE
:1007E0002002914008431946704710B5141E73F15A
:1007F000000408DA401C41F1000192185B411A43E1
:1008000001D120F0010010BD2DE9F04D92469B462C
:1008100011B1B1FA81F202E0B0FA80F220329046D2
:10082000FFF7B2FF04460F4640EA0A0041EA0B0117
:1008300053465A46084313D0114653EA010019D0D3
:10084000C8F140025046FFF7AEFF05460E4650463F
:1008500059464246FFF798FF084305D0012004E0BF
:1008600020463946BDE8F08D0020054346EAE07693
:100870002C4337430A986305E40AA0EB08000022E2
:10088000FD0A44EA47540A3002D500200146E9E750
:10089000010510196941DDE9084500196941BDE804
:1008A000F04DA2E700BFFEE7802003F0B1FC02207C
:1008B00001F03EFC3A2001F03BFC602001F038FCE6
:1008C000112001F035FC1021254801F0DEFA01204D
:1008D0002449087043E0012022490870702003F089
:1008E00087FC01F085FC01F08DFC00201E4908709A
:1008F000322001F02FFB00282BD11CA003F094FC28
:10090000B02003F029F805461B49FFF763FC0446B5
:10091000BD2003F06DF8074603F0C2F817A003F0FE
:1009200083FC3846FFF7D4FC05462A460B4616A042
:1009300003F07AFC16A003F077FC2046FFF7C8FC12
:1009400005462A460B4615A003F06EFC15A003F0E1
:100950006BFC05480078012801D100F093F9BAE753
:100960000008014018000020190000206A69616F2A
:100970007A68756E3A00000000007A4420202073E7
:10098000746174653A000000252E306C660000002A
:10099000202020726567303A00000000252E326C5E
:1009A000660000000D0A000086B0802003F030FCD5
:1009B0000B2001F0BDFB3A2001F0BAFB602001F0F2
:1009C000B7FB112001F0B4FB10218A4801F05DFA59
:1009D0000120894908700CE10120874908707020C6
:1009E00003F006FC01F004FC01F00CFC01F00AFC31
:1009F00001F008FC01F006FC01F004FC00207F4936
:100A00000870322001F0A6FA00287DD17CA003F006
:100A10000BFCB02002F0A0FF7C490190FFF7DAFB4D
:100A20000446B12002F098FF78490190FFF7D2FB0D
:100A30000546B22002F090FF74490190FFF7CAFB0F
:100A40000646B32002F088FF70490190FFF7C2FB11
:100A50000746B42002F080FF6C490190FFF7BAFB13
:100A60008046B52002F078FF68490190FFF7B2FB9D
:100A70008146B62002F070FF64490190FFF7AAFB9F
:100A80008246B72002F068FF60490190FFF7A2FBA1
:100A90008346B82002F060FF5C490190FFF79AFBA3
:100AA0000390B92002F058FF58490190FFF792FBDC
:100AB0000290BD2002F09CFF049002F0F1FF54A0D0
:100AC00003F0B2FB0498FFF703FC02460B46CDE9A6
:100AD000000152A003F0A8FB52A003F0A5FB2046A2
:100AE000FFF7F6FB02460B46CDE9000150A003F0EC
:100AF0009BFB51A003F098FB2846FFF7E9FB024659
:100B00000B46CDE9000100E06DE049A003F08CFB4D
:100B10004BA003F089FB3046FFF7DAFB02460B4699
:100B2000CDE9000142A003F07FFB47A003F07CFB6E
:100B30003846FFF7CDFB02460B46CDE900013CA04D
:100B400003F072FB42A003F06FFB4046FFF7C0FBCF
:100B500002460B46CDE9000135A003F065FB3EA03F
:100B600003F062FB4846FFF7B3FB02460B46CDE9B4
:100B700000012FA003F058FB39A003F055FB5046AD
:100B8000FFF7A6FB02460B46CDE9000128A003F0C3
:100B90004BFB35A003F048FB5846FFF799FB024694
:100BA0000B46CDE9000122A003F03EFB30A003F08C
:100BB0003BFB0398FFF78CFB02460B46CDE9000197
:100BC0001BA003F031FB2CA003F02EFB0298FFF7D3
:100BD0007FFB02460B46CDE9000115A003F024FB84
:100BE00027A003F021FB05480078012801D1FFF779
:100BF0005BFEF1E60008014018000020190000200B
:100C00006A69616F7A68756E3A00000000007A4484
:100C100020202073746174653A000000252E306C2A
:100C200066000000202020726567303A0000000056
:100C3000252E326C660000002020726567313A0074
:100C40002020726567323A002020726567333A00CF
:100C50002020726567343A002020726567353A00BB
:100C60002020726567363A002020726567373A00A7
:100C70002020726567383A002020726567393A0093
:100C80000D0A0000802003F0C3FA032001F050FA9F
:100C90003A2001F04DFA602001F04AFA112001F0EB
:100CA00047FA10212F4801F0F0F801202E49087072
:100CB00057E001202C490870702003F099FA01F0E8
:100CC00097FA01F09FFA002028490870322001F0BD
:100CD00041F900283FD126A003F0A6FAB02002F087
:100CE0003BFE06462549FFF775FA0446B12002F09F
:100CF00033FE06462149FFF76DFA0546BD2002F096
:100D000077FE804602F0CCFE1DA003F08DFA40462F
:100D1000FFF7DEFA064632460B461CA003F084FAC3
:100D20001CA003F081FA2046FFF7D2FA06463246AD
:100D30000B461BA003F078FA1BA003F075FA2846B7
:100D4000FFF7C6FA064632460B4615A003F06CFACA
:100D500017A003F069FA05480078012801D100F0D6
:100D600029F8A6E70008014018000020190000201B
:100D70006A69616F7A68756E3A00000000007A4413
:100D800020202073746174653A000000252E306CB9
:100D900066000000202020726567303A00000000E5
:100DA000252E326C660000002020726567313A0003
:100DB0000D0A0000802003F02BFA042001F0B8F99E
:100DC0003A2001F0B5F9602001F0B2F9112001F0EC
:100DD000AFF910213A4801F058F80120394908705C
:100DE0006DE0012037490870702003F001FA01F02E
:100DF000FFF901F007FA01F005FA00203249087006
:100E0000322001F0A7F8002853D130A003F00CFAEB
:100E1000B02002F0A1FD07462F49FFF7DBF9044699
:100E2000B12002F099FD07462B49FFF7D3F905469B
:100E3000B22002F091FD07462749FFF7CBF906469D
:100E4000BD2002F0D5FD814602F02AFE23A003F06A
:100E5000EBF94846FFF73CFA07463A460B4622A014
:100E600003F0E2F922A003F0DFF92046FFF730FAA1
:100E700007463A460B4621A003F0D6F921A003F01D
:100E8000D3F92846FFF724FA07463A460B461BA03B
:100E900003F0CAF91DA003F0C7F93046FFF718FAAE
:100EA00007463A460B4615A003F0BEF919A003F019
:100EB000BBF905480078012801D100F02DF890E732
:100EC0000008014018000020190000206A69616FC5
:100ED0007A68756E3A00000000007A442020207382
:100EE000746174653A000000252E306C66000000C5
:100EF000202020726567303A00000000252E326CF9
:100F0000660000002020726567313A00202072657B
:100F100067323A000D0A0000802003F079F90520BD
:100F200001F006F93A2001F003F9602001F000F920
:100F3000112001F0FDF81021444800F0A6FF012027
:100F40004349087081E0012041490870702003F096
:100F50004FF901F04DF901F055F901F053F9002076
:100F60003C490870322000F0F5FF002867D13AA014
:100F700003F05AF9B02002F0EFFC07463949FFF7B9
:100F800029F90446B12002F0E7FC07463549FFF78E
:100F900021F90546B22002F0DFFC07463149FFF790
:100FA00019F90646B32002F0D7FC07462D49FFF792
:100FB00011F98146BD2002F01BFD824602F070FD52
:100FC00029A003F031F95046FFF782F907463A4667
:100FD0000B4628A003F028F928A003F025F92046A5
:100FE000FFF776F907463A460B4627A003F01CF9AF
:100FF00027A003F019F92846FFF76AF907463A4691
:101000000B4621A003F010F923A003F00DF93046A0
:10101000FFF75EF907463A460B461BA003F004F9BA
:101020001FA003F001F94846FFF752F907463A4678
:101030000B4615A003F0F8F81BA003F0F5F80548DF
:101040000078012801D100F031F87CE70008014068
:1010500018000020190000206A69616F7A68756EB7
:101060003A00000000007A44202020737461746507
:101070003A000000252E306C66000000202020720F
:101080006567303A00000000252E326C66000000D3
:101090002020726567313A002020726567323A007D
:1010A0002020726567333A000D0A0000802003F0AB
:1010B000AFF8062001F03CF83A2001F039F8602042
:1010C00001F036F8112001F033F810214F4800F0FC
:1010D000DCFE01204E49087097E001204C49087061
:1010E000702003F085F801F083F801F08BF801F02F
:1010F00089F801F087F8002046490870322000F096
:1011000029FF00287BD144A003F08EF8B02002F024
:1011100023FC07464349FFF75DF80446B12002F07F
:101120001BFC07463F49FFF755F80546B22002F081
:1011300013FC07463B49FFF74DF80646B32002F083
:101140000BFC07463749FFF745F88146B42002F00B
:1011500003FC07463349FFF73DF88246BD2002F005
:1011600047FC834602F09CFC2FA003F05DF8584634
:10117000FFF7AEF807463A460B462EA003F054F8A8
:101180002EA003F051F82046FFF7A2F807463A4692
:101190000B462DA003F048F82DA003F045F8284693
:1011A000FFF796F807463A460B4627A003F03CF8AF
:1011B00029A003F039F83046FFF78AF807463A4687
:1011C0000B4621A003F030F825A003F02DF8484687
:1011D000FFF77EF807463A460B461BA003F024F8BB
:1011E00021A003F021F85046FFF772F807463A466F
:1011F0000B4615A003F018F81DA003F015F80548DC
:101200000078012801D100F035F866E700080140B8
:1012100018000020190000206A69616F7A68756EF5
:101220003A00000000007A44202020737461746545
:101230003A000000252E306C66000000202020724D
:101240006567303A00000000252E326C6600000011
:101250002020726567313A002020726567323A00BB
:101260002020726567333A002020726567343A00A7
:101270000D0A000008B5802002F0CAFF072000F028
:1012800057FF3A2000F054FF602000F051FF11207A
:1012900000F04EFF10215B4800F0F7FD01205A4995
:1012A0000870ADE0012058490870702002F0A0FFDE
:1012B00000F09EFF00F0A6FF00F0A4FF00F0A2FFE8
:1012C000002052490870322000F044FE00287DD1F1
:1012D0004FA002F0A9FFB02002F03EFB07464F49A5
:1012E000FEF778FF0446B12002F036FB07464B4973
:1012F000FEF770FF0546B22002F02EFB0746474975
:10130000FEF768FF0646B32002F026FB0746434976
:10131000FEF760FF8146B42002F01EFB07463F49FE
:10132000FEF758FF8246B52002F016FB07463B4900
:10133000FEF750FF8346BD2002F05AFB009002F0FA
:10134000AFFB37A002F070FF0098FEF7C1FF074621
:101350003A460B4635A002F067FF36A002F064FF64
:101360002046FEF7B5FF07463A460B4634A002F08A
:101370005BFF35A002F058FF2846FEF7A9FF07469D
:101380003A460B462EA002F04FFF31A002F04CFF70
:101390003046FEF79DFF07463A460B4628A002F06E
:1013A00043FF2DA002F040FF4846FEF791FF07469D
:1013B0003A460B4622A002F037FF29A002F034FF84
:1013C0005046FEF785FF07463A4600E012E00B461E
:1013D0001BA002F029FF24A002F026FF5846FEF7CA
:1013E00077FF07463A460B4615A002F01DFF20A0E6
:1013F00002F01AFF05480078012801D100F03AF800
:1014000050E70000000801401800002019000020EB
:101410006A69616F7A68756E3A00000000007A446C
:1014200020202073746174653A000000252E306C12
:1014300066000000202020726567303A000000003E
:10144000252E326C660000002020726567313A005C
:101450002020726567323A002020726567333A00B7
:101460002020726567343A002020726567353A00A3
:101470000D0A00001CB5802002F0CAFE082000F012
:1014800057FE3A2000F054FE602000F051FE11207B
:1014900000F04EFE10216A4800F0F7FC0120694977
:1014A0000870CBE0012067490870702002F0A0FEB0
:1014B00000F09EFE00F0A6FE00F0A4FE00F0A2FEEA
:1014C00000F0A0FE002060490870322000F042FDCC
:1014D00000287DD15DA002F0A7FEB02002F03CFA0A
:1014E0005D490190FEF776FE0446B12002F034FA21
:1014F00059490190FEF76EFE0546B22002F02CFA23
:1015000055490190FEF766FE0646B32002F024FA24
:1015100051490190FEF75EFE0746B42002F01CFA26
:101520004D490190FEF756FE8046B52002F014FAB0
:1015300049490190FEF74EFE8146B62002F00CFAB2
:1015400045490190FEF746FE8246BD2002F050FA62
:10155000834602F0A5FA41A002F066FE5846FEF767
:10156000B7FE02460B46CDE900013FA002F05CFE4B
:101570003FA002F059FE2046FEF7AAFE02460B46A7
:10158000CDE900013DA002F04FFE3EA002F04CFE6E
:101590002846FEF79DFE02460B46CDE9000137A026
:1015A00002F042FE39A002F03FFE3046FEF790FE08
:1015B00002460B46CDE9000130A002F035FE35A011
:1015C00002F032FE3846FEF783FE02460B4600E08C
:1015D0002EE0CDE9000129A002F026FE2FA002F0A6
:1015E00023FE4046FEF774FE02460B46CDE900019D
:1015F00022A002F019FE2BA002F016FE4846FEF7CC
:1016000067FE02460B46CDE900011CA002F00CFE6D
:1016100026A002F009FE5046FEF75AFE02460B468F
:10162000CDE9000115A002F0FFFD22A002F0FCFDB3
:1016300005480078012801D100F03EF832E70000AB
:101640000008014018000020190000206A69616F3D
:101650007A68756E3A00000000007A4420202073FA
:10166000746174653A000000252E306C660000003D
:10167000202020726567303A00000000252E326C71
:10168000660000002020726567313A0020207265F4
:1016900067323A002020726567333A002020726575
:1016A00067343A002020726567353A002020726561
:1016B00067363A000D0A00000EB5802002F0A8FD42
:1016C000092000F035FD3A2000F032FD602000F0E6
:1016D0002FFD112000F02CFD1021744800F0D5FBE7
:1016E000012073490870E0E0012071490870702002
:1016F00002F07EFD00F07CFD00F084FD00F082FD34
:1017000000F080FD00F07EFD00206A490870642032
:1017100000F020FC00287DD167A002F085FDB020FC
:1017200002F01AF967490190FEF754FD0446B12012
:1017300002F012F963490190FEF74CFD0546B22014
:1017400002F00AF95F490190FEF744FD0646B32016
:1017500002F002F95B490190FEF73CFD0746B42018
:1017600002F0FAF857490190FEF734FD8046B520A3
:1017700002F0F2F853490190FEF72CFD8146B620A5
:1017800002F0EAF84F490190FEF724FD8246B720A7
:1017900002F0E2F84B490190FEF71CFD8346BD20A4
:1017A00002F026F9029002F07BF947A002F03CFD1E
:1017B0000298FEF78DFD02460B46CDE9000145A0DB
:1017C00002F032FD45A002F02FFD2046FEF780FD1D
:1017D00002460B46CDE9000143A002F025FD44A0DE
:1017E00002F022FD2846FEF773FD02460B46CDE9C6
:1017F00000013DA002F018FD3FA002F015FD3046AB
:10180000FEF766FD02460B46CDE9000136A002F068
:101810000BFD00E043E03AA002F006FD3846FEF77B
:1018200057FD02460B46CDE900012FA002F0FCFC5B
:1018300035A002F0F9FC4046FEF74AFD02460B4691
:10184000CDE9000128A002F0EFFC31A002F0ECFC91
:101850004846FEF73DFD02460B46CDE9000122A0B9
:1018600002F0E2FC2CA002F0DFFC5046FEF730FD57
:1018700002460B46CDE900011BA002F0D5FC28A0D2
:1018800002F0D2FC5846FEF723FD02460B46CDE996
:10189000000115A002F0C8FC23A002F0C5FC054819
:1018A0000078012801D100F041F81DE7000801404F
:1018B00018000020190000206A69616F7A68756E4F
:1018C0003A00000000007A4420202073746174659F
:1018D0003A000000252E306C6600000020202072A7
:1018E0006567303A00000000252E326C660000006B
:1018F0002020726567313A002020726567323A0015
:101900002020726567333A002020726567343A0000
:101910002020726567353A002020726567363A00EC
:101920002020726567373A000D0A00001FB580203D
:1019300002F06EFC0A2000F0FBFB3A2000F0F8FBFE
:10194000602000F0F5FB112000F0F2FB1021804830
:1019500000F09BFA01207F490870F7E001207D49E3
:101960000870702002F044FC00F042FC00F04AFCD9
:1019700000F048FC00F046FC00F044FC00F042FCA3
:10198000002075490870322000F0E4FA00287CD16C
:1019900072A002F049FCB02001F0DEFF7249019014
:1019A000FEF718FC0446B12001F0D6FF6E49019005
:1019B000FEF710FC0546B22001F0CEFF6A49019007
:1019C000FEF708FC0646B32001F0C6FF6649019009
:1019D000FEF700FC0746B42001F0BEFF624901900B
:1019E000FEF7F8FB8046B52001F0B6FF5E49019096
:1019F000FEF7F0FB8146B62001F0AEFF5A49019098
:101A0000FEF7E8FB8246B72001F0A6FF5649019099
:101A1000FEF7E0FB8346B82001F09EFF524901909B
:101A2000FEF7D8FB0290BD2001F0E2FF039002F028
:101A300037F84EA002F0F8FB0398FEF749FC024687
:101A40000B46CDE900014CA002F0EEFB4CA002F0E9
:101A5000EBFB2046FEF73CFC02460B46CDE90001BD
:101A60004AA002F0E1FB4BA002F0DEFB2846FEF7A5
:101A70002FFC02460B46CDE9000144A002F0D4FB46
:101A800046A002F0D1FB304600E059E0FEF720FC12
:101A900002460B46CDE900013CA002F0C5FB41A087
:101AA00002F0C2FB3846FEF713FC02460B46CDE9B6
:101AB000000136A002F0B8FB3CA002F0B5FB4046A6
:101AC000FEF706FC02460B46CDE900012FA002F00E
:101AD000ABFB38A002F0A8FB4846FEF7F9FB024634
:101AE0000B46CDE9000129A002F09EFB33A002F0D5
:101AF0009BFB5046FEF7ECFB02460B46CDE900018E
:101B000022A002F091FB2FA002F08EFB5846FEF7B8
:101B1000DFFB02460B46CDE900011CA002F084FB6E
:101B20002AA002F081FB0298FEF7D2FB02460B4688
:101B3000CDE9000115A002F077FB26A002F074FBAE
:101B400005480078012801D1FEF72EFF06E70000C6
:101B50000008014018000020190000206A69616F28
:101B60007A68756E3A00000000007A4420202073E5
:101B7000746174653A000000252E306C6600000028
:101B8000202020726567303A00000000252E326C5C
:101B9000660000002020726567313A0020207265DF
:101BA00067323A002020726567333A002020726560
:101BB00067343A002020726567353A00202072654C
:101BC00067363A002020726567373A002020726538
:101BD00067383A000D0A0000704700000021044AEF
:101BE000116000BF024909688142FBD370470000C1
:101BF0001C00002010B5022000F022F840B10220A5
:101C000000F018F80020034908700846007810BD5D
:101C100000BFFCE71800002010B5042000F010F809
:101C200028B1042000F006F801200149087010BD19
:101C300019000020014908607047000014040140A9
:101C4000014600200022074B1B6803EA0102054BF6
:101C500014331B680B4013B10AB1012000E00020CF
:101C60007047000000040140002123498279002AC6
:101C70003AD00A46126803689A430B461A600A1D56
:101C8000126803689A430B1D1A60027911440A68AE
:101C900003681A430A60184A0832126803689A43B4
:101CA000154B08331A601A1D126803689A43124BC9
:101CB0000C331A604279102A0ED11A1F1268036879
:101CC0001A430D4B08331A601A1D126803681A4331
:101CD000094B0C331A600DE00749427911440A6838
:101CE00003681A430A6005E0027911440A68036830
:101CF0009A430A60704700000004014005490968E2
:101D000021F01001034A1160114609680143116076
:101D1000704700000020024001460020034A10687E
:101D200000F03800084310607047000000200240B7
:101D300030B500228B071C0F0F2303FA04F20B4B64
:101D40008C1053F824309343084C8D1044F8253000
:101D500023468C1053F824308C07240F00FA04F427
:101D60002343024C8D1044F8253030BD080001405B
:101D70002DE9F04102460025002600200023002422
:101D8000002791F803C00CF00F0591F803C00CF088
:101D9000100CBCF1000F03D091F802C04CEA05050D
:101DA00091F800C0BCF1000F31D0146800202BE086
:101DB0004FF0010C0CFA00F3B1F800C00CEA030676
:101DC0009E4220D183004FF00F0C0CFA03F7BC4366
:101DD00005FA03FC4CEA040491F803C0BCF1280F97
:101DE00006D14FF0010C0CFA00FCC2F814C00AE056
:101DF00091F803C0BCF1480F05D14FF0010C0CFA6B
:101E000000FCC2F810C0401C0828D1D31460B1F8FF
:101E100000C0BCF1FF0F34DD546800202EE000F15B
:101E2000080C4FF0010808FA0CF3B1F800C00CEAF6
:101E300003069E4221D183004FF00F0C0CFA03F7EA
:101E4000BC4305FA03FC4CEA040491F803C0BCF15E
:101E5000280F05D100F1080C08FA0CF8C2F814801C
:101E600091F803C0BCF1480F07D100F1080C4FF006
:101E7000010808FA0CF8C2F81080401C0828CED3DC
:101E80005460BDE8F08141617047016170472DE900
:101E9000FC5F81460D4616464FF00008C246C34619
:101EA000002001904FF480374846FEF70CFA01906D
:101EB000082416E006F00100FEF7FCF982463846D9
:101EC000FEF701FA014600905046FEF7B5F9834649
:101ED00059464046FEF726F9804676107F08601E78
:101EE000C4B2002CE6DC082416E005F00100FEF781
:101EF000E1F982463846FEF7E6F901460090504681
:101F0000FEF79AF9834659464046FEF70BF980469C
:101F10006D107F08601EC4B2002CE6DC41460198BB
:101F2000FEF700F980464046BDE8FC9F2DE9F041F0
:101F300005460C4616460027B846290401EB042145
:101F40008819FEF7B7F9804647463846BDE8F08164
:101F500000BFFEE7014603E0491E09B901207047B2
:101F6000024800780128F7D00020F8E71800002088
:101F70000EB5012141F20D0001F05EFB0120ADF82C
:101F800008008DF80A0010208DF80B0002A94948BE
:101F9000FFF7EEFE01214748FFF775FF4FF4805031
:101FA000ADF8080001208DF80A0010208DF80B0014
:101FB00002A94148FFF7DCFE4FF480513E48FFF78D
:101FC00062FF4FF40060ADF8080001208DF80A00B0
:101FD00010208DF80B0002A93748FFF7C9FE4FF417
:101FE00000613548FFF74FFF4FF40040ADF808009F
:101FF00003208DF80A0018208DF80B0002A92D4847
:10200000FFF7B6FE4FF400412A48FFF73EFF0220DB
:10201000ADF8080003208DF80A0004208DF80B00AD
:1020200002A92448FFF7A4FE0420ADF8080003200D
:102030008DF80A0004208DF80B0002A91E48FFF756
:1020400097FE4FF40050ADF8080003208DF80A0009
:1020500018208DF80B0002A91648FFF789FE4FF4EF
:1020600000511448FFF711FF01210846FFF760FEF9
:1020700002210020FFF75CFE0220009000208DF876
:1020800004000C208DF8050001208DF8060068463C
:10209000FFF7EAFD0420009000208DF804000C20DA
:1020A0008DF8050001208DF806006846FFF7DCFD7D
:1020B0000EBD0000000C01400008014010B50121D8
:1020C0000748FFF7E0FE4FF4FA70FFF787FD0121A4
:1020D0000348FFF7DAFEC820FFF780FD10BD0000BF
:1020E000000C014010B5FFF7E9FF502002F080F826
:1020F00010BD08B507208DF8000000208DF8010004
:1021000001208DF802008DF80300684601F036FAD0
:1021100008208DF8000000208DF8010001208DF8C6
:1021200002008DF80300684601F028FA08BD00009F
:1021300010B504462146054801F07CFD00BF022190
:10214000024801F06BFD0028F9D010BD00300140BD
:1021500000B587B0012141F2050001F06DFAE020E1
:10216000ADF8180003208DF81A0018208DF81B0018
:1021700006A91D48FFF7FCFDE0211B48FFF785FE7F
:102180001020ADF8180003208DF81A0010208DF8EB
:102190001B0006A91448FFF7EBFD10211248FFF7BA
:1021A00074FE0020ADF804004FF48270ADF8060014
:1021B0000020ADF80800ADF80A000120ADF80C00D1
:1021C0004002ADF80E000820ADF810000020ADF878
:1021D000120001A9054801F02FFD0121034801F07B
:1021E00011FD07B000BD00000008014000300140B3
:1021F0004FF4006002490860091D08607047000044
:10220000100801404FF4805002490860091D086021
:10221000704700001008014000BFFEE7802001F079
:10222000F7FF0B20FFF784FF3A20FFF781FF4020E4
:10223000FFF77EFF1020FFF77BFF10212D48FFF7EF
:1022400024FE01202C49087053E001202A4908701F
:10225000702001F0CDFF042001F0CAFFBB2001F087
:10226000C7FB0646FFF7C4FFFFF7CCFF002023495A
:1022700008704FF4FA70FFF76DFE002833D120A0EC
:1022800001F0D2FFB02001F0B3FB8046BD2001F089
:10229000AFFB074601F004FC1DA001F0C5FF384666
:1022A000FEF716F8044622460B461CA001F0BCFFC0
:1022B0001CA001F0B9FF3046FEF70AF8044622469A
:1022C0000B4616A001F0B0FF18A001F0ADFF40468C
:1022D000FDF7FEFF044622460B4610A001F0A4FFC6
:1022E00015A001F0A1FF05480078012801D100F0F8
:1022F0007FF9AAE70008014018000020190000201B
:102300006665696A69616F7A68756E3A00000000F7
:1023100020202073746174653A000000252E306C13
:102320006600000020202043414C3A00202020720B
:102330006567303A000000000D0A000086B080207A
:1023400001F066FF0B20FFF7F3FE3A20FFF7F0FEE7
:102350004020FFF7EDFE1020FFF7EAFE1021804835
:10236000FFF793FD01207F490870F7E001207D49C8
:102370000870702001F03CFF042001F039FFBB2001
:1023800001F036FB0646FFF733FFFFF73BFFFFF791
:1023900039FFFFF737FFFFF735FFFFF733FFFFF791
:1023A00031FFFFF72FFFFFF72DFFFFF72BFFFFF7A1
:1023B00029FF00206C4908704FF4FA70FFF7CAFD3E
:1023C00000287DD169A001F02FFFB02001F010FBA3
:1023D0008046B12001F00CFB8146B22001F008FBE1
:1023E0008246B32001F004FB8346B42001F000FBD9
:1023F0000590B52001F0FCFA0490B62001F0F8FA3F
:102400000390B72001F0F4FA0290B82001F0F0FA3E
:102410000190B92001F0ECFA0090BD2001F0E8FA3B
:10242000074601F03DFB55A001F0FEFE3846FDF7E2
:102430004FFF044622460B4653A001F0F5FE54A080
:1024400001F0F2FE3046FDF743FF044622460B46FC
:102450004DA001F0E9FE50A001F0E6FE4046FDF778
:1024600037FF044622460B4647A001F0DDFE4DA093
:1024700001F0DAFE4846FDF72BFF044622460B46E4
:1024800041A001F0D1FE49A001F0CEFE5046FDF77B
:102490001FFF044622460B463BA001F0C5FE45A0A7
:1024A00001F0C2FE5846FDF713FF044622460B46D4
:1024B00035A001F0B9FE41A001F0B6FE059800E09C
:1024C00046E0FDF705FF044622460B462EA001F02C
:1024D000ABFE3CA001F0A8FE0498FDF7F9FE04460F
:1024E00022460B4628A001F09FFE38A001F09CFE7A
:1024F0000398FDF7EDFE044622460B4622A001F0AC
:1025000093FE34A001F090FE0298FDF7E1FE044630
:1025100022460B461CA001F087FE30A001F084FE8D
:102520000198FDF7D5FE044622460B4616A001F0A1
:102530007BFE2CA001F078FE0098FDF7C9FE044652
:1025400022460B4610A001F06FFE28A001F06CFEA1
:1025500005480078012801D1FFF760FE06E700007A
:102560000008014018000020190000206665696A13
:1025700069616F7A68756E3A000000002020207350
:10258000746174653A000000252E306C660000000E
:1025900020202043414C3A00202020726567303AC9
:1025A000000000002020726567313A00202072652B
:1025B00067323A002020726567333A002020726546
:1025C00067343A002020726567353A002020726532
:1025D00067363A002020726567373A00202072651E
:1025E00067383A002020726567393A000D0A00000A
:1025F000802001F00DFE0B20FFF79AFD3A20FFF737
:1026000097FD4020FFF794FD1020FFF791FD10216A
:102610003648FFF73AFC01203549087065E0012093
:1026200033490870702001F0E3FD042001F0E0FD63
:10263000BB2001F0DDF90646FFF7DAFDFFF7E2FD0A
:10264000FFF7E0FD00202B4908704FF4FA70FFF708
:1026500081FC002843D128A001F0E6FDB02001F064
:10266000C7F98046B12001F0C3F98146BD2001F0D1
:10267000BFF9074601F014FA23A001F0D5FD384652
:10268000FDF726FE044622460B4622A001F0CCFDB3
:1026900022A001F0C9FD3046FDF71AFE044622468D
:1026A0000B461CA001F0C0FD1EA001F0BDFD404680
:1026B000FDF70EFE044622460B4616A001F0B4FDBF
:1026C0001BA001F0B1FD4846FDF702FE044622467C
:1026D0000B4610A001F0A8FD17A001F0A5FD0548CC
:1026E0000078012801D100F029F898E7000801409E
:1026F00018000020190000206665696A69616F7A18
:1027000068756E3A000000002020207374617465C3
:102710003A000000252E306C660000002020204387
:10272000414C3A00202020726567303A00000000DA
:102730002020726567313A000D0A0000802001F008
:1027400067FD0B20FFF7F4FC3A20FFF7F1FC402077
:10275000FFF7EEFC1020FFF7EBFC10213F48FFF7DE
:1027600094FB01203E49087077E001203C49087045
:10277000702001F03DFD042001F03AFDBB2001F086
:1027800037F90646FFF734FDFFF73CFDFFF73AFD4A
:10279000FFF738FD0020334908704FF4FA70FFF757
:1027A000D9FB002853D130A001F03EFDB02001F04C
:1027B0001FF98046B12001F01BF98146B22001F0DB
:1027C00017F98246BD2001F013F9074601F068F9B8
:1027D00029A001F029FD3846FDF77AFD044622467E
:1027E0000B4628A001F020FD28A001F01DFD304679
:1027F000FDF76EFD044622460B4622A001F014FDB3
:1028000024A001F011FD4046FDF762FD044622467A
:102810000B461CA001F008FD21A001F005FD484673
:10282000FDF756FD044622460B4616A001F0FCFCBF
:102830001DA001F0F9FC5046FDF74AFD0446224672
:102840000B4610A001F0F0FC19A001F0EDFC0548CA
:102850000078012801D100F02DF886E7000801403A
:1028600018000020190000206665696A69616F7AA6
:1028700068756E3A00000000202020737461746552
:102880003A000000252E306C660000002020204316
:10289000414C3A00202020726567303A0000000069
:1028A0002020726567313A002020726567323A0055
:1028B0000D0A0000802001F0ABFC0B20FFF738FC74
:1028C0003A20FFF735FC4020FFF732FC1020FFF7DD
:1028D0002FFC10214848FFF7D8FA0120474908701B
:1028E00089E0012045490870702001F081FC042036
:1028F00001F07EFCBB2001F07BF80646FFF778FC78
:10290000FFF780FCFFF77EFCFFF77CFCFFF77AFC0B
:1029100000203B4908704FF4FA70FFF71BFB0028BA
:1029200063D138A001F080FCB02001F061F880464E
:10293000B12001F05DF88146B22001F059F88246DD
:10294000B32001F055F88346BD2001F051F8074649
:1029500001F0A6F82FA001F067FC3846FDF7B8FC9F
:10296000044622460B462EA001F05EFC2EA001F08C
:102970005BFC3046FDF7ACFC044622460B4628A023
:1029800001F052FC2AA001F04FFC4046FDF7A0FCEC
:10299000044622460B4622A001F046FC27A001F087
:1029A00043FC4846FDF794FC044622460B461CA017
:1029B00001F03AFC23A001F037FC5046FDF788FCFB
:1029C000044622460B4616A001F02EFC1FA001F083
:1029D0002BFC5846FDF77CFC044622460B4610A013
:1029E00001F022FC1BA001F01FFC05480078012823
:1029F00001D100F031F874E7000801401800002010
:102A0000190000206665696A69616F7A68756E3AB7
:102A10000000000020202073746174653A000000FB
:102A2000252E306C6600000020202043414C3A00E7
:102A3000202020726567303A000000002020726577
:102A400067313A002020726567323A0020207265B3
:102A500067333A000D0A000008B5802001F0D8FB6A
:102A60000B20FFF765FB3A20FFF762FB4020FFF7E2
:102A70005FFB1020FFF75CFB10215248FFF705FABF
:102A80000120514908709BE001204F4908707020D7
:102A900001F0AEFB042001F0ABFBBB2000F0A8FF6F
:102AA0000646FFF7A5FBFFF7ADFBFFF7ABFBFFF714
:102AB000A9FBFFF7A7FBFFF7A5FB00204349087020
:102AC0004FF4FA70FFF746FA002873D140A001F0E6
:102AD000ABFBB02000F08CFF8046B12000F088FFF7
:102AE0008146B22000F084FF8246B32000F080FFD0
:102AF0008346B42000F07CFF0090BD2000F078FFFA
:102B0000074600F0CDFF36A001F08EFB3846FDF7FA
:102B1000DFFB044622460B4634A001F085FB35A0BE
:102B200001F082FB3046FDF7D3FB044622460B46FC
:102B30002EA001F079FB31A001F076FB4046FDF7B5
:102B4000C7FB044622460B4628A001F06DFB2EA0D1
:102B500001F06AFB4846FDF7BBFB044622460B46E4
:102B600022A001F061FB2AA001F05EFB5046FDF7B8
:102B7000AFFB044622460B461CA001F055FB26A0E5
:102B800001F052FB5846FDF7A3FB044622460B46D4
:102B900016A001F049FB22A001F046FB0098FDF7CA
:102BA00097FB044622460B4610A001F03DFB1EA0F9
:102BB00001F03AFB05480078012801D100F036F811
:102BC00062E7000000080140180000201900002002
:102BD0006665696A69616F7A68756E3A000000001F
:102BE00020202073746174653A000000252E306C3B
:102BF0006600000020202043414C3A002020207233
:102C00006567303A000000002020726567313A00A5
:102C10002020726567323A002020726567333A00DF
:102C20002020726567343A000D0A00001CB5802030
:102C300001F0EEFA0B20FFF77BFA3A20FFF778FA63
:102C40004020FFF775FA1020FFF772FA10215C4858
:102C5000FFF71BF901205B490870AFE001205949DB
:102C60000870702001F0C4FA042001F0C1FABB2002
:102C700000F0BEFE0646FFF7BBFAFFF7C3FAFFF708
:102C8000C1FAFFF7BFFAFFF7BDFAFFF7BBFAFFF78C
:102C9000B9FA00204C4908704FF4FA70FFF75AF95E
:102CA00000287DD149A001F0BFFAB02000F0A0FEBD
:102CB0008046B12000F09CFE8146B22000F098FED4
:102CC0008246B32000F094FE8346B42000F090FECC
:102CD0000190B52000F08CFE0090BD2000F088FE31
:102CE000074600F0DDFE3DA001F09EFA3846FDF7F4
:102CF000EFFA044622460B463BA001F095FA3CA0B1
:102D000001F092FA3046FDF7E3FA044622460B46FC
:102D100035A001F089FA38A001F086FA4046FDF7A7
:102D2000D7FA044622460B462FA001F07DFA35A0C3
:102D300001F07AFA4846FDF7CBFA044622460B46E4
:102D400029A001F071FA31A001F06EFA5046FDF7AA
:102D5000BFFA044622460B4623A001F065FA2DA0D7
:102D600001F062FA5846FDF7B3FA044622460B46D4
:102D70001DA001F059FA29A001F056FA0198FDF7BB
:102D8000A7FA044622460B4617A001F04DFA25A0EB
:102D900001F04AFA0098FDF79BFA0446224600E04B
:102DA00006E00B4610A001F03FFA20A001F03CFA2B
:102DB00005480078012801D100F03AF84EE70000FC
:102DC0000008014018000020190000206665696AAB
:102DD00069616F7A68756E3A0000000020202073E8
:102DE000746174653A000000252E306C66000000A6
:102DF00020202043414C3A00202020726567303A61
:102E0000000000002020726567313A0020207265C2
:102E100067323A002020726567333A0020207265DD
:102E200067343A002020726567353A000D0A0000C9
:102E30000EB5802001F0ECF90B20FFF779F93A206C
:102E4000FFF776F94020FFF773F91020FFF770F9CC
:102E500010216548FFF719F8012064490870C1E0A6
:102E6000012062490870702001F0C2F9042001F0CD
:102E7000BFF9BB2000F0BCFD0646FFF7B9F9FFF72C
:102E8000C1F9FFF7BFF9FFF7BDF9FFF7BBF9FFF78E
:102E9000B9F9FFF7B7F9FFF7B5F900205449087001
:102EA0004FF4FA70FFF756F800287DD151A001F0D9
:102EB000BBF9B02000F09CFD8046B12000F098FDE9
:102EC0008146B22000F094FD8246B32000F090FDD0
:102ED0008346B42000F08CFD0290B52000F088FD00
:102EE0000190B62000F084FD0090BD2000F080FD30
:102EF000074600F0D5FD43A001F096F93846FDF7EE
:102F0000E7F9044622460B4641A001F08DF942A0A4
:102F100001F08AF93046FDF7DBF9044622460B46FC
:102F20003BA001F081F93EA001F07EF94046FDF79B
:102F3000CFF9044622460B4635A001F075F93BA0B7
:102F400001F072F94846FDF7C3F9044622460B46E4
:102F50002FA001F069F937A001F066F95046FDF79E
:102F6000B7F9044622460B4629A001F05DF933A0CB
:102F700001F05AF95846FDF7ABF9044622460B46D4
:102F800023A001F051F92FA001F04EF90298FDF7AE
:102F90009FF9044622460B461DA001F045F92BA0DF
:102FA00001F042F9019800E016E0FDF791F90446BE
:102FB00022460B4616A001F037F926A001F034F99D
:102FC0000098FDF785F9044622460B4610A001F053
:102FD0002BF922A001F028F905480078012801D139
:102FE00000F03EF83CE70000000801401800002017
:102FF000190000206665696A69616F7A68756E3AC2
:103000000000000020202073746174653A00000005
:10301000252E306C6600000020202043414C3A00F1
:10302000202020726567303A000000002020726581
:1030300067313A002020726567323A0020207265BD
:1030400067333A002020726567343A0020207265A9
:1030500067353A002020726567363A000D0A000095
:103060001FB5802001F0D4F80B20FFF761F83A205B
:10307000FFF75EF84020FFF75BF81020FFF758F8E5
:1030800010216E48FEF701FF01206D490870D3E062
:1030900001206B490870702001F0AAF8042001F0AB
:1030A000A7F8BB2000F0A4FC0646FFF7A1F8FFF745
:1030B000A9F8FFF7A7F8FFF7A5F8FFF7A3F8FFF7C0
:1030C000A1F8FFF79FF8FFF79DF8FFF79BF80020A6
:1030D0005C4908704FF4FA70FEF73CFF00287DD180
:1030E00059A001F0A1F8B02000F082FC8046B12088
:1030F00000F07EFC8146B22000F07AFC8246B320CC
:1031000000F076FC8346B42000F072FC0390B520FA
:1031100000F06EFC0290B62000F06AFC0190B7202F
:1031200000F066FC0090BD2000F062FC074600F055
:10313000B7FC49A001F078F83846FDF7C9F8044615
:1031400022460B4647A001F06FF848A001F06CF84A
:103150003046FDF7BDF8044622460B4641A001F07B
:1031600063F844A001F060F84046FDF7B1F804466A
:1031700022460B463BA001F057F841A001F054F85D
:103180004846FDF7A5F8044622460B4635A001F057
:103190004BF83DA001F048F85046FDF799F8044679
:1031A00022460B462FA001F03FF839A001F03CF871
:1031B0005846FDF78DF8044622460B4629A001F03B
:1031C00033F835A001F030F80398FDF781F8044694
:1031D00022460B4623A001F027F800E026E030A0AD
:1031E00001F022F80298FDF773F8044622460B46D8
:1031F0001CA001F019F82CA001F016F80198FDF7B9
:1032000067F8044622460B4616A001F00DF828A0E8
:1032100001F00AF80098FDF75BF8044622460B46D9
:1032200010A001F001F824A000F0FEFF054800788E
:10323000012801D100F042F82AE70000000801400F
:1032400018000020190000206665696A69616F7ABC
:1032500068756E3A00000000202020737461746568
:103260003A000000252E306C66000000202020432C
:10327000414C3A00202020726567303A000000007F
:103280002020726567313A002020726567323A006B
:103290002020726567333A002020726567343A0057
:1032A0002020726567353A002020726567363A0043
:1032B0002020726567373A000D0A000086B0802032
:1032C00000F0A6FF0B20FEF733FF3A20FEF730FF99
:1032D0004020FEF72DFF1020FEF72AFF102177482F
:1032E000FEF7D3FD012076490870E5E0012074491E
:1032F0000870702000F07CFF042000F079FFBB20F4
:1033000000F076FB0646FEF773FFFEF77BFFFEF745
:1033100079FFFEF777FFFEF775FFFEF773FFFEF705
:1033200071FFFEF76FFFFEF76DFFFEF76BFF0020EA
:10333000644908704FF4FA70FEF70CFE00287DD146
:1033400061A000F071FFB02000F052FB8046B12078
:1033500000F04EFB8146B22000F04AFB8246B320CB
:1033600000F046FB8346B42000F042FB0590B520F8
:1033700000F03EFB0490B62000F03AFB0390B7202B
:1033800000F036FB0290B82000F032FB0190BD2027
:1033900000F02EFB074600F083FB4FA000F044FF37
:1033A0003846FCF795FF044622460B464DA000F038
:1033B0003BFF4EA000F038FF3046FCF789FF044683
:1033C00022460B4647A000F02FFF4AA000F02CFF3A
:1033D0004046FCF77DFF044622460B4641A000F024
:1033E00023FF47A000F020FF4846FCF771FF04468A
:1033F00022460B463BA000F017FF43A000F014FF4D
:103400005046FCF765FF044622460B4635A000F007
:103410000BFF3FA000F008FF5846FCF759FF044699
:1034200022460B462FA000F0FFFE3BA000F0FCFE62
:103430000598FCF74DFF0446224600E036E00B46B7
:1034400028A000F0F1FE36A000F0EEFE0498FCF794
:103450003FFF044622460B4622A000F0E5FE32A0C4
:1034600000F0E2FE0398FCF733FF044622460B46C9
:103470001CA000F0D9FE2EA000F0D6FE0298FCF7AA
:1034800027FF044622460B4616A000F0CDFE2AA0D8
:1034900000F0CAFE0198FCF71BFF044622460B46CB
:1034A00010A000F0C1FE26A000F0BEFE0548007886
:1034B000012801D1FEF742FF18E700000008014093
:1034C00018000020190000206665696A69616F7A3A
:1034D00068756E3A000000002020207374617465E6
:1034E0003A000000252E306C6600000020202043AA
:1034F000414C3A00202020726567303A00000000FD
:103500002020726567313A002020726567323A00E8
:103510002020726567333A002020726567343A00D4
:103520002020726567353A002020726567363A00C0
:103530002020726567373A002020726567383A00AC
:103540000D0A0000704708B500214FF0006000F040
:1035500057F84FF4C06000F049F81C208DF80000C7
:1035600003208DF801008DF8020001208DF8030082
:10357000684600F003F8FEF7BCFD08BD70B50021F9
:1035800000230F22C47804B3154C246804F4E064CB
:10359000C4F5E064210AC1F10403CA40447804FA86
:1035A00003F184781440214309010E4C0678A1559B
:1035B000047804F01F050124AC4005786D11AD00BE
:1035C00005F1E025C5F8004109E0047804F01F0585
:1035D0000124AC40044D0678761145F8264070BDB4
:1035E0000CED00E000E400E080E100E0024901436E
:1035F000024A1160704700000000FA050CED00E07F
:10360000024A0A400243024B1A60704780FFFF1FC4
:1036100008ED00E07047000029B1064AD269024374
:10362000044BDA6104E0034AD2698243014BDA6158
:10363000704700000010024029B1064A9269024317
:10364000044B9A6104E0034A92698243014B9A61F8
:1036500070470000001002400149C8647047000034
:103660000000424210B500F03BF84FF4803000F00B
:10367000F9F800F055F90446012C2FD11020FEF77F
:103680003DFB0220FEF748FB002000F0DFF80020A1
:1036900000F01AF9A00200F00BF94FF4E011200439
:1036A00000F024F9012000F01BF900BF392000F0E0
:1036B000A7F80028FAD0022000F026F900BF00F099
:1036C000BDF80828FBD10120FFF7C6FF01210846FD
:1036D000FFF7A2FF01213D20FFF7AEFF10BD000064
:1036E0000F48006840F001000D4908600846406836
:1036F0000C4908400A494860084600680A490840E1
:10370000074908600846006820F4802008600846E1
:10371000406820F4FE0048604FF41F008860704746
:10372000001002400000FFF8FFFFF6FE30B5002158
:103730000022002400232D4D6D6805F00C0121B1FD
:10374000042905D0082923D105E0294D056022E090
:10375000274D05601FE0254D6D6805F47012234D5F
:103760006D6805F48034022505EB92421CB9214DA9
:10377000554305600BE01D4D6D6805F400351DB126
:103780001C4D5543056002E0194D5543056002E0AC
:10379000174D056000BF00BF144D6D6805F0F001C6
:1037A0000909154D6B5C0568DD4045600F4D6D687E
:1037B00005F4E061090A104D6B5C4568DD408560E9
:1037C0000A4D6D6805F46051C90A0B4D6B5C456884
:1037D000DD40C560054D6D6805F44041890B074D1E
:1037E0006B5CC568B5FBF3F5056130BD00100240A8
:1037F00000127A0000093D002C0000203C0000204F
:1038000010B501460022002300204A11012A02D1EE
:10381000094C236806E0022A02D1074C236A01E022
:10382000054C636A01F01F02012494401C400CB156
:10383000012000E0002010BD001002400248406856
:1038400000F00C007047000000100240014600200C
:10385000034A506820F0F0000843506070470000B1
:10386000001002401149096821F480310F4A1160AB
:103870001146096821F480211160B0F5803F03D022
:10388000B0F5802F0ED106E00849096841F4803177
:10389000064A116007E00549096841F4A021034A7E
:1038A000116000E000BF00BF704700000010024040
:1038B00001460020034A506820F4E060084350604D
:1038C000704700000010024001460020034A506883
:1038D00020F4605040EAC100506070470010024080
:1038E000014908667047000000004242024600207D
:1038F000044B586820F47C1042EA01031843014B42
:10390000586070470010024001460020034A50688A
:1039100020F0030008435060704700000010024090
:1039200038B5002000900024002500BF3120FFF7AB
:1039300067FF05460098401C00900098B0F5A06F06
:1039400001D0002DF2D03120FFF75AFF08B1012439
:1039500000E00024204638BD10B50446204600F0A3
:1039600057FC0020FEF7E4FB00BF1B48008900F075
:1039700001000028F9D018488089184908700020F3
:10398000FEF7D6FB00BF1448008900F001000028B4
:10399000F9D011488089124908700020FEF7C8FB51
:1039A00000BF0D48008900F001000028F9D00A4846
:1039B00080890C49087010210B48FEF766FA094807
:1039C00002780748017805480078FEF760FA074951
:1039D00008600846006810BD003001400400002067
:1039E000050000200600002000080140140000200F
:1039F00010B50446204600F00BFC234800F017F9F0
:103A0000224908700020FEF793FB00BF1E48008982
:103A100000F001000028F9D01B4880891B4908707C
:103A20000020FEF785FB00BF1748008900F0010069
:103A30000028F9D014488089154908700020FEF745
:103A400077FB00BF1048008900F001000028F9D082
:103A50000D4880890F49087010210F48FEF715FAAC
:103A60000C4802780A48017808480078FEF75EFAA8
:103A70000A49086000200549087005490870054991
:103A800008700648006810BD0030014004000020A6
:103A9000050000200600002000080140140000205E
:103AA00070B5BD2000F0B4FB4B4800F0C0F84B49A6
:103AB00008700020FEF73CFB00BF4748008900F07B
:103AC00001000028F9D0444880894449087000204A
:103AD000FEF72EFB00BF4048008900F001000028DF
:103AE000F9D03D4880893E4908700020FEF720FB50
:103AF00000BF3948008900F001000028F9D036489D
:103B00008089384908700846007800F00F00087076
:103B100010213548FEF7B9F93248027800210846ED
:103B2000FEF704FA3149086031A000F07DFB2F4810
:103B30000068FCF7CDFB05462A460B462EA000F098
:103B400073FB2FA000F070FB26480078032802D1F9
:103B5000B120044670BD23480078022802D1B0206D
:103B60000446F7E71F480078042802D1B220044633
:103B7000F0E71C480078052802D1B3200446E9E7A5
:103B800018480078062802D1B4200446E2E7154818
:103B90000078072802D1B5200446DBE711480078F9
:103BA000082802D1B6200446D4E70E480078092838
:103BB00002D1B7200446CDE70A4800780A2802D18E
:103BC000B8200446C6E7074800780B2802D1B92080
:103BD0000446BFE700BFBDE70030014004000020FD
:103BE000050000200600002000080140140000200D
:103BF00020506C7573653A00252E306C660000000D
:103C00002000000021B1028842F04002028004E05E
:103C100002884FF6BF731A400280704702460020A8
:103C200013890B400BB1012000E0002070470146D2
:103C3000888970478181704710B50022028802F49C
:103C400041520B884C8823438C882343CC882343E0
:103C50000C8923434C8923438C892343CC892343F8
:103C60001A430280838B4FF2FF74234083830B8AB5
:103C7000038210BD704710B500F002F810BD0000BF
:103C80000CB50020019000903348006840F480306B
:103C90003149086000BF3048006800F400300090EF
:103CA0000198401C0190009818B90198B0F5A06FD8
:103CB000F1D12948006800F4003010B101200090D3
:103CC00001E0002000900098012843D123480068BB
:103CD00040F01000214908600846006820F0030009
:103CE00008600846006840F0020008601A48406812
:103CF000194948600846406848600846406840F4F2
:103D0000806048600846406820F47C10486008469F
:103D1000406840F4E81048600846006840F0807051
:103D2000086000BF0C48006800F000700028F9D05F
:103D30000948406820F00300074948600846406889
:103D400040F00200486000BF0348406800F00C00EB
:103D50000828F9D10CBD00000010024000200240EC
:103D60007047000010B51348006840F00100114989
:103D7000086008464068104908400E4948600846F7
:103D800000680E4908400B4908600846006820F4A6
:103D9000802008600846406820F4FE0048604FF428
:103DA0001F008860FFF767FF4FF00060044908605C
:103DB00010BD0000001002400000FFF8FFFFF6FEFB
:103DC00008ED00E010B5FFF74DFCFFF7BCFBFEF778
:103DD000BFF900F099F8FEF7CBF810BD10B501213E
:103DE000880700F024F801280DD10121800700F098
:103DF0000FF805480068401C034908600348006844
:103E0000401C0249086010BD1C000020200000205A
:103E1000CA430282704721B1028842F00102028047
:103E200004E002884FF6FE731A400280704730B5F6
:103E30000246002000230024158A05EA0103958923
:103E400005EA010413B10CB1012000E0002030BDEF
:103E50001AB183890B43838102E083898B43838179
:103E600070470000002202881D4B98420ED01D4B67
:103E700098420BD0B0F1804F08D01B4B984205D030
:103E80001A4B984202D01A4B984204D14FF68F73C6
:103E90001A404B881A43174B984207D0164B98424A
:103EA00004D04FF6FF431A40CB881A4302808B8818
:103EB00083850B8803850A4B98420BD0094B9842A7
:103EC00008D00E4B984205D00D4B984202D00D4BB6
:103ED000984201D10B7A0386012383827047000048
:103EE000002C014000340140000400400008004064
:103EF000000C004000100040001400400040014051
:103F000000440140004801400EB501210846FFF77A
:103F100083FB0920ADF8040041F61F40ADF8000016
:103F20000020ADF80600ADF8020069464FF0804071
:103F3000FFF798FF012211469007FFF789FF012143
:103F40008807FFF768FF0EBD00B587B00121880321
:103F5000FFF772FB01210420FFF76EFB012108200F
:103F6000FFF76AFB4FF40070ADF8180003208DF8DE
:103F70001A0018208DF81B0006A91F48FDF7F8FE4F
:103F80004FF48060ADF8180003208DF81A0004206B
:103F90008DF81B0006A91848FDF7EAFE4FF4E13042
:103FA00002900020ADF80C00ADF80E00ADF8100046
:103FB000ADF814000C20ADF8120002A90F4800F073
:103FC0009FF825208DF8040000208DF805008DF85D
:103FD000060001208DF80700012240F22551074814
:103FE00000F069F801A8FFF7C9FA0121034800F0C1
:103FF0002CF807B000BD0000000801400038014067
:1040000010B540F225510A4800F02BF850B10120BC
:1040100008490870064800F0DFF8C4B22146044899
:1040200000F0DFF840F22551014800F005F810BD1E
:10403000003801402500002001F40072B2F5007F35
:1040400000D100BFCA430280704721B1828942F487
:104050000052828104E082894DF6FF731A4082810A
:10406000704770B50246002400230025002040F66A
:104070006A16B14200D100BFC1F3421501F01F031F
:10408000012606FA03F3012D02D19689334006E09A
:10409000022D02D1168A334001E0968A33400C1279
:1040A000012606FA04F41688344013B10CB101203D
:1040B00000E0002070BDF0B5034600240026002576
:1040C000002040F66A17B94200D100BF1846C1F37C
:1040D000421401F01F06012707FA06F5012C01D151
:1040E0000C3004E0022C01D1103000E014301AB181
:1040F00007682F43076002E00768AF430760F0BD21
:104100002DE9F04786B005460E460024A24600BFC2
:10411000A1460027B08900B100BF2F462C8A4CF67B
:10412000FF700440F08804432C82AC894EF6F310F3
:104130000440B08831890843718908430443AC8145
:10414000AC8A4FF6FF400440B0890443AC8201A81A
:10415000FFF7ECFA1F48874202D1DDF810A001E01A
:10416000DDF80CA0A88900F4004040B10AEBCA00B9
:1041700000EB0A1031684900B0FBF1F807E00AEBE8
:10418000CA0000EB0A1031688900B0FBF1F8642026
:10419000B8FBF0F004012009642101FB1089A88913
:1041A00000F4004040B1322000EBC900B0FBF1F058
:1041B00000F00700044308E0322000EB09106421FE
:1041C000B0FBF1F000F00F0004432C8106B0BDE815
:1041D000F08700000038014001468888C0F30800DD
:1041E0007047C1F308028280704700BFFEE70000FD
:1041F00010B5044610210548FDF745FE2046FDF7A1
:1042000097FF10210148FDF740FE10BD0008014056
:1042100010B5044610210348FDF735FE2046FDF792
:1042200087FF10BD000801400FB4054B10B503A96E
:10423000044A029800F0CAF810BC5DF814FB0000B4
:10424000FD4A00082800002002E008C8121F08C12B
:10425000002AFAD170477047002001E001C1121F07
:10426000002AFBD1704700002DE9FF5FDDE9022045
:10427000010DDDF838B0024318D044F61050A1F219
:10428000FF3141430D140F98012820D0A5EB0B00FE
:10429000401C5FEA000A4FF00004474EDFF81C9113
:1042A000A046504616D5CAF1000728E00F98012411
:1042B00043A2012808D0002100980F9BC0E90021EB
:1042C000C0E90243BDE8FF9F6FEA0B01F4E7CBF1C1
:1042D0000000DEE7074612E0F80707D02246334623
:1042E00040464946FCF72CF980468946224633462B
:1042F00010461946FCF724F904460E467F10002F9D
:10430000EAD1DDE90201BAF1000F42464B4602DA7A
:10431000FCF716F901E0FCF785F904460E46002289
:10432000284BFCF707FA03D84FF0FF30014607E0AF
:104330000022254B20463146FCF75BF8FCF7E1F9FB
:10434000102409E0002C0ADB0A220023FBF7E9FF16
:10435000019B30321A55641E50EA0102F2D1641CEE
:10436000019AC4F1110314440F9A012A03D00122C7
:1043700008430DD10AE0084304D000204FF0110B90
:104380000F9080E7A3EB0B056D1E0DE05B4504DD90
:104390004FF0000205F1010504E003DA4FF00002DE
:1043A000A5F10105002AECD000980F99C0E902316F
:1043B000C0E9004586E70000000024400000F03F0F
:1043C000300000000000F0430000E03F2DE9FF4F07
:1043D00095B09B468946064600250FE2252877D1F1
:1043E00000242746F84A0121059400E0044316F80A
:1043F000013F203B01FA03F01042F7D130782A2820
:1044000011D06FF02F033078A0F13002092A16D8AE
:10441000059A44F0020402EB820203EB42021044CC
:10442000761C0590EFE759F8042B0592002A03DA71
:10443000504244F40054059044F00204761C307855
:104440002E2816D116F8010F44F004042A280DD0A6
:104450006FF02F023078A0F13003092B09D807EB59
:10446000870302EB4303C718761CF3E759F8047B74
:10447000761C30786C280FD006DC4C2817D06828C2
:104480000DD06A2814D104E0742810D07A280FD1F6
:104490000DE044F400140AE044F4801401E044F414
:1044A00040147278824202D104F58014761C761C86
:1044B000307866280BD013DC582877D009DC002828
:1044C00075D04528F6D04628F4D047281AD19DE16A
:1044D00018E0632835D0642879D0652812D195E199
:1044E000702873D008DC6728F1D069286FD06E2857
:1044F0000DD06F2806D1B5E073282CD0752875D063
:10450000782874D05A46179990476D1C75E1C4F30A
:104510000250022809D003280DD0D9F80010042831
:104520000DD00D6009F1040967E1D9F80010EA1710
:10453000C1E90052F6E7D9F800100D80F2E70D70DE
:10454000F0E719F8041B8DF8001000208DF8010029
:10455000EA46012003E059F804AB4FF0FF30610751
:104560004FF0000102D40DE008F101018846B94284
:104570000FDA8045F8DB1AF808100029F4D108E0BA
:1045800008F1010188468142FADB1AF80810002977
:10459000F6D105985B46A0EB080721463846179AE6
:1045A00000F094FA284400EB080507E04DE029E10B
:1045B0000DE01AF8010B5A4617999047B8F1010817
:1045C000F7D25B4621463846179A13E142E00A22A9
:1045D0000092C4F302524FF0000A022A08D059F8A0
:1045E00004CB032A4FEAEC710AD00DE029E02AE05F
:1045F00009F1070121F00702F2E802C1914609E042
:104600000FFA8CFC4FEAEC71042A03D14FFA8CFCB0
:104610004FEAEC71002907DA0A460021DCF1000CB0
:1046200061EB02012D2202E0220504D52B228DF838
:104630000420012203E0E20701D02022F7E79046A0
:1046400059E00A2102E010220DE010214FF0000A8B
:1046500000910BE010224FF0000A44F004040827F8
:10466000009203E008224FF0000A0092C4F30252C5
:10467000022A05D059F804CB0021032A08D009E00A
:1046800009F1070121F00702F2E802C1914605E0B5
:104690001FFA8CFC042A01D10CF0FF0C4FF000082B
:1046A000220728D5702806D0009B83F0100353EA18
:1046B0000A0305D00EE040228DF80420012208E014
:1046C0005CEA010206D030228DF804208DF8050046
:1046D00002229046009B83F0080353EA0A030AD1A2
:1046E0005CEA010201D1620705D530228DF8042071
:1046F0004FF001087F1E582804D034A003900EA864
:1047000002900DE036A0F9E753466046009AFBF7A9
:1047100008FE84460398825C0298401E0290027054
:104720005CEA0100F0D1029806A9081A00F1200AFB
:10473000600702D524F4803400E00127574502DDEC
:10474000A7EB0A0000E0002000EB0A0100900598AA
:104750004144401A0590E00306D45B462146179A6F
:10476000059800F0B3F90544002706E001A85A4671
:10477000C05D179990476D1C7F1C4745F6DBE00331
:104780000CD55B462146179A059800F09FF9054421
:1047900004E030205A46179990476D1C0099481E36
:1047A00000900029F5DC08E0029802995A4600784A
:1047B000491C0291179990476D1CBAF10001AAF1AA
:1047C000010AF1DC65E100000928010030313233D3
:1047D000343536373839616263646566000000003D
:1047E0003031323334353637383941424344454627
:1047F0000000000000F058F90544761C30780028CD
:104800007FF4ECAD19B02846BDE8F08F620700D404
:10481000062709F1070222F0070CFCE80223E14613
:1048200003F000485FEA080C02D00FF2702C0DE094
:104830005FEA045C02D50FF2682C07E05FEAC47CF3
:1048400002D00FF2602C01E0AFF2700C4FF0FF3895
:1048500023F00043CDF850C065280CD006DC452875
:1048600009D046281DD047283DD13DE0662818D004
:1048700067287ED138E00021112F01DB112000E0F4
:10488000781CCDE9000106A90EA8FFF7EDFCDDE9D3
:104890000F010E9A03910021009207F1010A049181
:1048A0004DE04FF000400097CDE9011006A90EA899
:1048B000FFF7DAFCDDE90F0203920E9B119900224B
:1048C000DDF80CA00093049211B9791C00EB010AE9
:1048D000B7EB0A0004D4C0F1FF3007F1010A0490DD
:1048E000AAEB0700019044E0012F00DA0127002124
:1048F000112F01DD112000E03846CDE9000106A9A5
:104900000EA8FFF7B1FCDDE90F010E9A039100211B
:1049100004910092BA4621070CD40399514500DA5C
:104920008A46BAF1010F05DD009AAAF10101515C36
:10493000302908D0B84202DA10F1040F06DA01215A
:10494000CDE9011015E0AAF10101E9E7002805DC35
:10495000049901440491AAEB000102E0411C514575
:1049600000DD8A460499401A401C01904FF0004037
:104970000290200704D40198504501DBCDF8048053
:1049800000208DF84F0002980DF14F07B0F1004F55
:1049900025D02B200E9002984FF0020800280CDA48
:1049A000404202902D200E9007E00A210298FBF76A
:1049B000A2FC3031029007F8011DB8F10001A8F106
:1049C0000108F2DC02980028EFD1791E0E980870D9
:1049D000307800F0200040F0450007F8020D12A8E2
:1049E000C01B00F107081498007800B1012000EB0B
:1049F0000A01019801EBE07105984144401A401EFC
:104A00000590E00306D45B462146179A059800F00E
:104A10005DF805441498007818B15A4617999047E4
:104A20006D1CE00324D55B462146179A059800F0DB
:104A30004DF805441CE00498002807DBDDE903017C
:104A4000884203DD0098405C179901E017993020F7
:104A50005A469047049805F10105401C04900198BE
:104A6000401E019004D12E205A46179990476D1C84
:104A7000BAF10001AAF1010ADDDC05E017F8010B2B
:104A80005A46179990476D1CB8F10001A8F101082A
:104A9000F4DC5B462146179A0598ABE62D00000032
:104AA0002B000000200000002DE9F0410446002505
:104AB0001E461746880404D405E039462020B04736
:104AC0006D1C641EF9D52846BDE8F0812DE9F04142
:104AD000044600251E469046C80301D5302700E055
:104AE0002027880404D505E041463846B0476D1CB0
:104AF000641EF9D52846BDE8F081000070B5044673
:104B00000D4600BF0548008800F080000028F9D05D
:104B1000E1B20248FFF765FB204670BD0038014056
:104B200010B5FFF74FF9FFF70FFAFDF7DBFA0E4864
:104B3000006800F4004038B105E00C480078012816
:104B400001D1FBF7B1FEF8E70748006800F4005018
:104B500038B105E005480078012801D1FDF75EFB7A
:104B6000F8E7002010BD0000080C014019000020EB
:104B7000904B000800000020400000004842000860
:104B8000D04B0008400000200004000058420008FC
:104B90000000000000000000000000000000000015
:104BA0000000000000000000000000000000000005
:104BB00000000000000000000000000000000000F5
:104BC000010203040102030406070809020406089F
:04000005080000ED02
:00000001FF
