:020000040800F2
:10000000C00C0020A10100083502000831020008E0
:10001000330200080D0200089907000800000000E4
:10002000000000000000000000000000550600086D
:100030000F02000800000000370200085706000801
:10004000BB010008BB010008BB010008BB010008A0
:10005000BB010008BB010008BB010008BB01000890
:10006000BB010008BB010008BB010008BB01000880
:10007000BB010008BB010008BB010008BB01000870
:10008000BB010008BB010008BB010008BB01000860
:10009000BB010008BB010008BB010008BB01000850
:1000A000BB010008BB010008BB010008BB01000840
:1000B000BB010008BB010008BB010008BB01000830
:1000C000BB010008BB010008BB010008BB01000820
:1000D000BB010008BB010008BB010008BB01000810
:1000E000BB010008BB010008BB010008BB01000800
:1000F000BB010008BB010008BB010008BB010008F0
:1001000000000000BB010008BB010008BB010008A3
:10011000BB010008BB010008BB010008BB010008CF
:10012000BB010008BB010008BB010008BB010008BF
:10013000BB0100080000000000000000BB01000837
:10014000BB010008BB010008BB010008BB0100089F
:10015000BB010008BB010008BB010008BB0100088F
:10016000BB010008BB010008BB010008BB0100087F
:10017000BB010008BB010008BB0100080000000033
:10018000BB010008BB010008DFF810D000F02CF81C
:1001900000480047450A0008AFF30080C00C00206B
:1001A0000648804706480047FEE7FEE7FEE7FEE711
:1001B000FEE7FEE7FEE7FEE7FEE7FEE75D06000876
:1001C0008901000840EA01039B0703D009E008C940
:1001D000121F08C0042AFAD203E011F8013B00F80C
:1001E000013B521EF9D27047064C074D06E0E0680D
:1001F00040F0010394E8070098471034AC42F6D36E
:10020000FFF7C6FF100C0008300C0008FEE7FEE701
:1002100010B540F6044000F0BDFC08230222BDE802
:1002200010400021014800F0E3BB00000010024034
:10023000FEE7FEE7FEE7FEE72DE9F047174D04462F
:10024000DDF8209028781E4617468846002808BF0B
:1002500000F0A4FA2869A0429CBF4FF0FF30BDE82F
:10026000F087EFF31180202181F311880B4A04EB12
:10027000440102EBC10C44B1CCF81880CCE90776FC
:100280000021CCF82810CCF82410C0B280F31188DB
:10029000CCF82C900020BDE8F0870000080000207A
:1002A0002DE9F04107460B4815460E460078002818
:1002B00008BF00F073FAEFF31184202383F3118851
:1002C0002A463146384600F007F8E1B281F311883A
:1002D000BDE8F081080000202DE9F0411546344AC0
:1002E00000EB400002EBC00000F11804C06A20B12E
:1002F000012829D0022850D055E02069E668B04294
:1003000084BF3246801A02D8A3689A1B1044401E4C
:10031000A84248D3A0688846871BBD4206D26068C1
:100320002A463044FFF74EFF701926E060683A46CF
:100330003044FFF747FFEE1B08EB070132466068C9
:10034000FFF740FFE6602FE02069E768B84284BF0E
:100350003A46801A02D8A368DA1B1044401EA8420D
:1003600038BF05468846A068C61BAE4207D96068FC
:100370002A463844FFF726FF7819E06014E06068E9
:1003800032463844FFF71EFFAF1B08EB06013A4622
:100390006068FFF717FFE76006E02A46204600F096
:1003A000C8FA054600E000252846BDE8F0810000B7
:1003B000080000200FB408B504A900916A4603990B
:1003C00000F004F801B05DF814FB00002DE9F04FD7
:1003D0009DB080460CA8059040200027CDE9060777
:1003E000CDE90878DFF8689216460C464FF0080A07
:1003F00014F8011B002900F01781252904BF0021F2
:10040000012008D005A800F075FA08980028EFDA56
:100410001DB0BDE8F08F2278232A08BF41F0080103
:100420000ED02B2A08BF41F0040109D02D2A08BFA5
:1004300041F0010104D0302A08BF41F0020102D18D
:10044000641C0028E7D100252078A0F130020A2A98
:1004500007D205EB850200EB4200A0F13005641CD9
:10046000F2E70023C2B22E2A08BF641C0CD1207808
:10047000A0F130020A2A07D203EB830200EB42000C
:10048000A0F13003641CF2E76C2814BF682814F84C
:10049000010FF9D0702877D008DC252875D05828AE
:1004A00074D0632809D064280FD0BBE073286ED0C5
:1004B00075286DD0782869D0B4E03068011D3160AE
:1004C000017805A800F016FAACE03068021D326031
:1004D000006805AACDE9020204930A910028B8BF7A
:1004E00040424FF0010B0A2809DB00BF89FB0010D6
:1004F0008110A1EBE0700BF1010B0A28F6DA184627
:100500005B4588BF83463DB102980028A4BF0A9886
:1005100010F0040F18BF6D1E0A9810F0020F00D0E3
:1005200083B10A9810F0010F0CD14DB90AE02021D7
:100530006D1E039800F0DEF90898002872DB0DB1FB
:10054000AB45F4D3089800286CDB0298002806DA43
:10055000404202902D21039800F0CCF907E00A9860
:1005600010F0040F06D02B21039800F0C3F908986F
:10057000002857DB0A9800F00300022804BF049803
:10058000002814D18DB912E03CE047E021E02AE0D8
:1005900015E000BF4FF03001A5F10105039800F010
:1005A000A9F9089800283DDB0DB1AB45F2D30A98B4
:1005B0000A22CDE90050DDE90210049B2BE03068EF
:1005C000021D32600068CDE9005101460A2205A8EB
:1005D00021E03068021D32600068CDE9005101461B
:1005E000102205A817E03068011D3160D0F80050D6
:1005F00015F8011B29B105A800F07CF9089800281E
:10060000F6DA0FE030680823011D31600168CDE99A
:1006100000A7102205A800F0F5F803E0252105A8A1
:1006200000F068F9641CF0E608980028DCBF1DB0F3
:10063000BDE8F08F079820B102460CA94046FFF7AD
:100640002FFEDDE90710084408901DB0BDE8F08FCB
:1006500067666666FEE700F0B9B90000454818B461
:10066000016841F4700101604349086840F00100ED
:100670000860086810F0020FFBD04048026842F0A2
:100680008002026000230093009A521C0092502ABC
:10069000FAD3026842F0900202600093009A521C62
:1006A0000092502AFAD3026822F0030202600A681C
:1006B00022F4102222F080720A600A6822F480225A
:1006C0000A60036002682F4C2D4A22602E4A136094
:1006D0000B68002243F480330B604FF6FF7C0B68FD
:1006E000521C13F4003F01D16245F8D10A6812F49C
:1006F000003F03D10A6812F4003FFBD0234A13687D
:1007000043F080531360224A136843F4404313605C
:1007100003680360036843F400430360036843F421
:10072000A05303601B4B23600B6843F080730B6086
:100730000B6813F0007FFBD0116841F48031116029
:10074000516811F4803FFBD0116841F40031116011
:10075000516811F4003FFBD0016821F003010160F2
:10076000016841F002010160016811F0080FFBD03F
:1007700018BC704788ED00E000380240083802409D
:1007800010300024043802400C3802404038024047
:10079000007000401978400AFEE7000010B5124CC6
:1007A00003202061606111A0A06104F1A800E06154
:1007B0004FF4006020620020A06260620BA12166FD
:1007C000E06204F6A801616610212067A166E06678
:1007D000606709A009A10068C4F80700204600F07E
:1007E000D4F82020A07110BD080000205465726D5F
:1007F000696E616C00000000525454005345474735
:10080000455200002DE9F84F0126DDE90A5B9046CC
:10081000824699460C4608463746414505D300BFF7
:10082000B0FBF8F07F1C4045FAD2B94588BF1F469F
:100830001BF0010F19D1C5B11BF0020F04D0B9F1A3
:10084000000F08BF302000D0202000900BE0504661
:100850006D1E009900F04EF8DAF80C000028B8BFC1
:10086000BDE8F88F0DB1AF42F1D3DAF80C000028E3
:10087000B8BFBDE8F88F00BFB9F1010F96BFB4FB58
:10088000F6F0A9F10109404528BF06FB08F6F3D2AE
:10089000DFF85C90B4FBF6F000FB164419F800108A
:1008A000504600F027F8DAF80C00002803DBB6FB0E
:1008B000F8F6002EEED11BF0010F14BF002DBDE89D
:1008C000F88F10E04FF020015046A5F1010500F02F
:1008D00011F8DAF80C000028B8BFBDE8F88F002D39
:1008E00008BFBDE8F88FBD42ECD8BDE8F88F000026
:1008F000FE0B000810B50446D4E90130421C9342B7
:1009000005D323681954A260E068401CE060D4E974
:100910000102824218BF10BD21682069FFF7C0FCA8
:10092000A168884219BF4FF0FF30E0600020A0604E
:1009300010BD2DE9F047C4681746894606464FF0BA
:1009400000083069A0428FBF001BB168201A081A46
:10095000451EB068001BA84298BF0546BD4228BF8F
:100960003D4670682A4620444946FFF72BFCB06894
:100970007F1B2C44A844A944A04208BF0024F46073
:10098000002FDED14046BDE8F0870A6802608B8800
:10099000838091F806C080F806C0704702E008C85E
:1009A000121F08C1002AFAD170477047002001E0E9
:1009B00001C1121F002AFBD17047000002490860E4
:1009C00008680028FCD17047000000200448016836
:1009D000002908BF70470168491E01607047000088
:1009E000000000200069084018BF01207047000087
:1009F0002DE9F00F0568C6684FF0000C10244FF089
:100A0000010A4FF0030800BF0AFA0CF71F420ED08C
:100A10004FEA4C0708FA07F901FA07FB25EA09052E
:100A200026EA090602FA07F74BEA05053E43641E6B
:100A300024040CF1010C240CE6D10560C660BDE86D
:100A4000F00F704782B0002400F0B4F801200023BA
:100A500000901A462CA11846FFF7EEFB27232C4ADC
:100A60002CA10020FFF7A6FC2CA22EA10020FFF74E
:100A7000A1FC33A10020FFF79DFCFFF7C9FB132366
:100A8000304A24A10020FFF795FC2FA10020FFF79A
:100A900091FC2BA10020FFF78DFC2F4D082128464B
:100AA000FFF7A0FF00282BD00120FFF787FF0821C8
:100AB0002846FFF797FF002822D01923214A15A1C5
:100AC0000020FFF777FC2246641C24A10020FFF7DA
:100AD00071FC1BA10020FFF76DFC08212846FFF7E1
:100AE00081FF0028F9D11B23164A0AA1FFF762FCF7
:100AF00023A10020FFF75EFC11A10020FFF75AFCA4
:100B00000120FFF75BFFC9E7525454555000000025
:100B1000F50B00082573282564293A00312E302E64
:100B20003000000052756E20524742204170702004
:100B300056657273696F6E2025730D0A0000000000
:100B40000D0A0000F00B0008494E50555420544542
:100B500053540D0A0000000000100240494E505549
:100B600054203234562025642C2077616974696ED4
:100B7000672072656C656173652E2E2E0D0A00006C
:100B8000494E5055542072656C656173652E2E2E4A
:100B90000D0A0000810901F1804101F50C31D1F805
:100BA000002800F01F00012303FA00F01043C1F8F1
:100BB000000870470C484FF47A710068B0FBF1F000
:100BC000411EB1F1807F0DD24FF0E0204161074915
:100BD000F02281F8142D002282610723036181F83D
:100BE000142D7047FEE70000040000200FE000E035
:100BF0006D61696E004253505F496E697400303117
:100C000032333435363738394142434445460000A3
:100C1000300C000800000020080000009C090008BB
:100C2000380C000808000020B80C0000AC090008CF
:080C300000000000001C4E0E44
:040000050800018965
:00000001FF
