:020000040800F2
:10000000C80E0020A101000879020008750200084E
:100010007702000831020008890A00080000000089
:10002000000000000000000000000000450900087A
:100030003302000800000000E1030008470900083F
:10004000BB010008BB010008BB010008BB010008A0
:10005000BB010008BB010008BB010008BB01000890
:10006000BB010008BB010008BB010008BB01000880
:10007000BB010008BB010008BB010008BB01000870
:10008000BB010008BB010008BB010008BB01000860
:10009000BB010008BB010008BB010008BB01000850
:1000A000BB010008BB010008BB010008BB01000840
:1000B000BB010008BB010008BB010008BB01000830
:1000C000BB010008BB010008BB010008BB01000820
:1000D000BB010008BB010008BB010008BB01000810
:1000E000BB010008BB010008BB010008BB01000800
:1000F000BB010008BB010008BB010008BB010008F0
:1001000000000000BB010008BB010008BB010008A3
:10011000BB010008BB010008BB010008BB010008CF
:10012000BB010008BB010008BB010008BB010008BF
:10013000BB0100080000000000000000BB01000837
:10014000BB010008BB010008BB010008BB0100089F
:10015000BB010008BB010008BB010008BB0100088F
:10016000BB010008BB010008BB010008BB0100087F
:10017000BB010008BB010008BB0100080000000033
:10018000BB010008BB010008DFF810D000F03EF80A
:100190000048004731100008AFF30080C80E00206F
:1001A0000648804706480047FEE7FEE7FEE7FEE711
:1001B000FEE7FEE7FEE7FEE7FEE7FEE74D09000883
:1001C0008901000840EA01039B0703D009E008C940
:1001D000121F08C0042AFAD203E011F8013B00F80C
:1001E000013B521EF9D27047D2B201E000F8012B58
:1001F000491EFBD270470022F6E710B513460A46A7
:1002000004461946FFF7F0FF204610BD064C074D87
:1002100006E0E06840F0010394E8070098471034D6
:10022000AC42F6D3FFF7B4FFAC140008CC140008BE
:10023000FEE7FEE72DE9F0410D4F002407F1180518
:10024000A5F1100637F8140000F038FF55F82430F7
:1002500056F824000022012100F09AFE56F82410DE
:1002600055F824008862641C042CEBD3BDE8F081AF
:1002700074140008FEE7FEE7FEE7000010B5024632
:1002800082B04FF400710D48FFF7AEFF0CA14FF4A0
:100290008054D1E90001CDE900010B4968460C60AA
:1002A000082100F02FFB00F019FB084903480C60FF
:1002B00002B04915BDE8104000F024BB0C0000203E
:1002C000200021007F22000328040240180402407D
:1002D00030B50D4983B00446D1E90001CDE90001F4
:1002E0000A494FF4805568460D60082100F00AFB6A
:1002F00000F0F4FA064920460D6003B04915BDE848
:10030000304000F0FFBA0000C0020008280402409C
:100310001804024030B589B0032000F055F80020E1
:1003200000F046F8642000F0C1FC002000F04CF81A
:10033000012000F0BBFC14A4194D94E81F108DE8B7
:100340001F104FF4805468462C60172100F0DAFA31
:1003500000F0C4FAF022E1101248FFF745FF1249FD
:10036000D1E90001CDE9060106A82C60082100F0C2
:10037000C9FA00F0B3FA0D490A480C60491500F0BB
:10038000C1FA09B030BD0000AED58000F0D6FF4004
:100390008D14A1CFDA128158D922DB20A4A0AF009E
:1003A000280402400C000020C0020008180402408B
:1003B0000349044A51F8201052F820008162704726
:1003C0008C1400087C1400080349044A51F82010DA
:1003D00052F82000816170478C1400087C140008DA
:1003E000FEE700002DE9F047174D0446DDF82090A8
:1003F00028781E4617468846002808BF00F046FBAE
:100400002869A0429CBF4FF0FF30BDE8F087EFF3B2
:100410001180202181F311880B4A04EB440102EB87
:10042000C10C44B1CCF81880CCE907760021CCF897
:100430002810CCF82410C0B280F31188CCF82C908E
:100440000020BDE8F08700000C0200202DE9F041FB
:1004500007460B4815460E460078002808BF00F0F6
:1004600015FBEFF31184202383F311882A463146CC
:10047000384600F007F8E1B281F31188BDE8F08159
:100480000C0200202DE9F0411546344A00EB4000F3
:1004900002EBC00000F11804C06A20B1012829D085
:1004A000022850D055E02069E668B04284BF324649
:1004B000801A02D8A3689A1B1044401EA84248D351
:1004C000A0688846871BBD4206D260682A46304431
:1004D000FFF778FE701926E060683A463044FFF76F
:1004E00071FEEE1B08EB070132466068FFF76AFEFB
:1004F000E6602FE02069E768B84284BF3A46801A78
:1005000002D8A368DA1B1044401EA84238BF054633
:100510008846A068C61BAE4207D960682A463844A0
:10052000FFF750FE7819E06014E060683246384406
:10053000FFF748FEAF1B08EB06013A466068FFF77D
:1005400041FEE76006E02A46204600F06AFB0546C9
:1005500000E000252846BDE8F08100000C020020E4
:100560000FB408B504A900916A46039900F004F895
:1005700001B05DF814FB00002DE9F04F9DB08046FE
:100580000CA8059040200027CDE90607CDE90878A2
:10059000DFF8689216460C464FF0080A14F8011B63
:1005A000002900F01781252904BF0021012008D06F
:1005B00005A800F017FB08980028EFDA1DB0BDE889
:1005C000F08F2278232A08BF41F008010ED02B2A91
:1005D00008BF41F0040109D02D2A08BF41F00101F4
:1005E00004D0302A08BF41F0020102D1641C002867
:1005F000E7D100252078A0F130020A2A07D205EBC6
:10060000850200EB4200A0F13005641CF2E70023F4
:10061000C2B22E2A08BF641C0CD12078A0F130028F
:100620000A2A07D203EB830200EB4200A0F1300359
:10063000641CF2E76C2814BF682814F8010FF9D085
:10064000702877D008DC252875D0582874D0632806
:1006500009D064280FD0BBE073286ED075286DD008
:10066000782869D0B4E03068011D3160017805A8B0
:1006700000F0B8FAACE03068021D3260006805AAEC
:10068000CDE9020204930A910028B8BF40424FF01E
:10069000010B0A2809DB00BF89FB00108110A1EBC8
:1006A000E0700BF1010B0A28F6DA18465B4588BFAB
:1006B00083463DB102980028A4BF0A9810F0040FA9
:1006C00018BF6D1E0A9810F0020F00D083B10A986F
:1006D00010F0010F0CD14DB90AE020216D1E0398D6
:1006E00000F080FA0898002872DB0DB1AB45F4D316
:1006F000089800286CDB0298002806DA4042029035
:100700002D21039800F06EFA07E00A9810F0040F0C
:1007100006D02B21039800F065FA0898002857DBD3
:100720000A9800F00300022804BF0498002814D19E
:100730008DB912E03CE047E021E02AE015E000BF7F
:100740004FF03001A5F10105039800F04BFA08982D
:1007500000283DDB0DB1AB45F2D30A980A22CDE962
:100760000050DDE90210049B2BE03068021D32606E
:100770000068CDE9005101460A2205A821E0306851
:10078000021D32600068CDE900510146102205A823
:1007900017E03068011D3160D0F8005015F8011BDA
:1007A00029B105A800F01EFA08980028F6DA0FE033
:1007B00030680823011D31600168CDE900A71022CF
:1007C00005A800F097F903E0252105A800F00AFA32
:1007D000641CF0E608980028DCBF1DB0BDE8F08F6F
:1007E000079820B102460CA94046FFF72FFEDDE92D
:1007F0000710084408901DB0BDE8F08F6766666674
:1008000070B58AB040F6014000F058FC41F20E008D
:1008100000F054FC40F6154000F050FC2A4D4FF417
:10082000204422460521284600F02EFB23460022C4
:100830000221284600F0ACFB234602220021284674
:1008400000F0D0FB214D0421284600F060FA20483A
:10085000009020480290012140200024CDE90601AB
:1008600008940191059104946A4603940421284652
:1008700000F0C1FA00220421284600F03DFA164E8D
:10088000304600F05BFC684600F0C7FC4FF4404087
:1008900001904FF48270009068150390029410202C
:1008A000CDE9054069463046049400F09FFC30468F
:1008B00000F03EFC0421284600F015FA00213046E5
:1008C00000F02DFC0AB070BD000402400060024040
:1008D0000C380040080000200038004010B5084CDB
:1008E00020220421204600F05DFA0028F8D000BF45
:1008F00000BF022000BF401C9C28FBDB10BD000095
:100900000060024070B50E4C0D460646042120469C
:1009100000F0E0F920220421204600F026FA3346B8
:1009200000220421204600F05DFA2A4604212046D8
:1009300000F0A4FA2046BDE87040042100F0D3B9CD
:1009400000600240FEE700F0B9B90000454818B465
:10095000016841F4700101604349086840F00100FA
:100960000860086810F0020FFBD04048026842F0AF
:100970008002026000230093009A521C0092502AC9
:10098000FAD3026842F0900202600093009A521C6F
:100990000092502AFAD3026822F0030202600A6829
:1009A00022F4102222F080720A600A6822F4802267
:1009B0000A60036002682F4C2D4A22602E4A1360A1
:1009C0000B68002243F480330B604FF6FF7C0B680A
:1009D000521C13F4003F01D16245F8D10A6812F4A9
:1009E000003F03D10A6812F4003FFBD0234A13688A
:1009F00043F080531360224A136843F4404313606A
:100A000003680360036843F400430360036843F42E
:100A1000A05303601B4B23600B6843F080730B6093
:100A20000B6813F0007FFBD0116841F48031116036
:100A3000516811F4803FFBD0116841F4003111601E
:100A4000516811F4003FFBD0016821F003010160FF
:100A5000016841F002010160016811F0080FFBD04C
:100A600018BC704788ED00E00038024008380240AA
:100A700010300024043802400C3802404038024054
:100A8000007000401978400AFEE7000010B5124CD3
:100A900003202061606111A0A06104F1A800E06161
:100AA0004FF4006020620020A06260620BA121660A
:100AB000E06204F6A801616610212067A166E06685
:100AC000606709A009A10068C4F80700204600F08B
:100AD000D4F82020A07110BD0C0200205465726D66
:100AE000696E616C00000000525454005345474742
:100AF000455200002DE9F84F0126DDE90A5B9046DA
:100B0000824699460C4608463746414505D300BF04
:100B1000B0FBF8F07F1C4045FAD2B94588BF1F46AC
:100B20001BF0010F19D1C5B11BF0020F04D0B9F1B0
:100B3000000F08BF302000D0202000900BE050466E
:100B40006D1E009900F04EF8DAF80C000028B8BFCE
:100B5000BDE8F88F0DB1AF42F1D3DAF80C000028F0
:100B6000B8BFBDE8F88F00BFB9F1010F96BFB4FB65
:100B7000F6F0A9F10109404528BF06FB08F6F3D2BB
:100B8000DFF85C90B4FBF6F000FB164419F8001097
:100B9000504600F027F8DAF80C00002803DBB6FB1B
:100BA000F8F6002EEED11BF0010F14BF002DBDE8AA
:100BB000F88F10E04FF020015046A5F1010500F03C
:100BC00011F8DAF80C000028B8BFBDE8F88F002D46
:100BD00008BFBDE8F88FBD42ECD8BDE8F88F000033
:100BE0009C14000810B50446D4E90130421C93421D
:100BF00005D323681954A260E068401CE060D4E982
:100C00000102824218BF10BD21682069FFF71EFC57
:100C1000A168884219BF4FF0FF30E0600020A0605B
:100C200010BD2DE9F047C4681746894606464FF0C7
:100C300000083069A0428FBF001BB168201A081A53
:100C4000451EB068001BA84298BF0546BD4228BF9C
:100C50003D4670682A4620444946FFF7B3FAB0681B
:100C60007F1B2C44A844A944A04208BF0024F46080
:100C7000002FDED14046BDE8F0870A6802608B880D
:100C8000838091F806C080F806C0704702E008C86B
:100C9000121F08C1002AFAD170477047002001E0F6
:100CA00001C1121F002AFBD17047000002490860F1
:100CB00008680028FCD17047000000200448016843
:100CC000002908BF70470168491E01607047000095
:100CD0000000002001EB410100EBC100016921F09F
:100CE00001010161704701EB410100EBC1000169A5
:100CF00041F001010161704701EB410100EBC100CE
:100D0000016921F0606141EA42610161704701EBD4
:100D1000410200EBC202136923F0010313610023B7
:100D2000136153619361D3611362212353623D22A6
:100D300004290CD201EB41035B00C1F3400103EB3A
:100D4000810102FA01F18268114381607047091F35
:100D500001EB41035B00C1F3400103EB810102FAA7
:100D600001F1C2681143C160704704290CD201EB44
:100D700041035B00C1F3400103EB810102FA01F181
:100D80008268114381607047091F01EB41035B00DA
:100D9000C1F3400103EB810102FA01F1C268114382
:100DA000C160704704290DD201EB41035B00C1F320
:100DB000400103EB8101006802FA01F1084008BF1D
:100DC00070470DE0091F01EB41035B00C1F34001D7
:100DD00003EB8101406802FA01F1084008BF704747
:100DE0000120704701EB410100EBC100002A14BF54
:100DF0000362C361704701EB410110B400EBC10015
:100E0000416A21F004014162116881619168C16108
:100E1000D16941610169D2F820C01369946943EA3C
:100E20000C0C21F4635144EA830321F450314CEA61
:100E30000303194301615168D9B1012901690CBF4C
:100E400021F4007141F400410161D1680029016978
:100E50000CBF41F4806121F4806101615169002976
:100E600001690CBF41F4807121F48071016110BCF3
:100E70007047016941F400710161E6E701EB41014E
:100E800000EBC100426170472DE9F00F036AD0F812
:100E900024C012F0010F1CBF23F00F030B4312F00C
:100EA000020F4FEA011A1CBF23F0F0034AEA0303C2
:100EB00012F0040F4FEA01291CBF23F4706349EAC2
:100EC000030312F0080F4FEA01381CBF23F47043EC
:100ED00048EA030312F0100F4FEA01471CBF23F446
:100EE00070233B4312F0200F4FEA01561CBF23F43E
:100EF0007003334312F0400F4FEA01651CBF23F02B
:100F000070632B4312F0800F4FEA01741CBF23F073
:100F10007043234312F4807F1CBF2CF00F0C41EA76
:100F20000C0C12F4007F1CBF2CF0F0014AEA010CFB
:100F300012F4806F1CBF2CF4706149EA010C12F4AA
:100F4000006F1CBF2CF4704148EA010C12F4805F62
:100F50001CBF2CF4702147EA010C12F4005F1CBF87
:100F60002CF4700146EA010C12F4804F1CBF2CF0E7
:100F7000706145EA010C12F4004F1CBF2CF0704167
:100F800044EA010C0362C0F824C0BDE8F00F7047CA
:100F90002DE9F00F0568C6684FF0000C10244FF0E3
:100FA000010A4FF0030800BF0AFA0CF71F420ED0E7
:100FB0004FEA4C0708FA07F901FA07FB25EA090589
:100FC00026EA090602FA07F74BEA05053E43641EC6
:100FD00024040CF1010C240CE6D10560C660BDE8C8
:100FE000F00F70472DE9F001012941680CBF19434A
:100FF00099434160D0F808C000211024012603273E
:1010000006FA01F51D4208D04D0007FA05F82CEA52
:10101000080C02FA05F545EA0C0C491C641E240470
:10102000240CEDD1C0F808C0BDE8F0017047000005
:1010300082B000F0FBF80120002300901A4610A1B6
:101040001846FFF7CFF921230F4A10A10020FFF720
:1010500087FA10A211A10020FFF782FA15A1002043
:10106000FFF77EFAFFF7E6F8FFF7CAFBFFF752F942
:10107000C820FFF71BFE1048FFF72AF9FEE7000023
:10108000525454555000000068120008257328255A
:1010900064293A00312E302E3000000052756E2047
:1010A0004170702056657273696F6E2025730D0A4A
:1010B000000000000D0A000071120008810901F112
:1010C000804101F50C31D1F8002800F01F00012308
:1010D00003FA00F01043C1F800087047810901F1DC
:1010E000804101F50C31D1F8002800F01F000123E8
:1010F00003FA00F022EA0000C1F8000870478109F5
:1011000001F1804101F50C31D1F8002800F01F00F9
:10111000012303FA00F01043C1F8000870470029CA
:1011200041680CBF41F0020141F00101416070478C
:10113000016841F040010160704700002A4A10B583
:10114000811A90423BD015DCA0F56050B0F1804090
:1011500021D0B0F5806F28D0B0F5784F18BF10BD02
:1011600040F60C10FFF7CBFFBDE8104040F60C1026
:10117000FFF7B4BFB1F5E05F2BD0B1F5005F18BF4A
:1011800010BD40F61510FFF7BAFFBDE8104040F65D
:101190001510FFF7A3BF40F60E00FFF7B0FFBDE844
:1011A000104040F60E00FFF799BF40F60F00FFF722
:1011B000A6FFBDE8104040F60F00FFF78FBF40F6D6
:1011C0000D10FFF79CFFBDE8104040F60D10FFF733
:1011D00085BF40F61410FFF792FFBDE8104040F6BF
:1011E0001410FFF77BBF00000034014002680B6859
:1011F00002F441521A434B681A438B681A43CB6876
:101200001A430B691A434B6989691A4311430160F8
:10121000C16921F40061C161704700210160416032
:101220008160C16041618161016170470C484FF488
:101230007A710068B0FBF1F0411EB1F1807F0DD2F0
:101240004FF0E02041610749F02281F8142D00227F
:1012500082610723036181F8142D7047FEE70000C7
:10126000040000200FE000E04253505F496E6974B3
:10127000000000000000000000000000000000006E
:10128000000000000000000000000000000000005E
:10129000000020202020202020202020202020208E
:1012A000202000FEFEC0808080C0FEFE0000FEFE0A
:1012B00000C0F83E3EF8E000FEFE00202020202086
:1012C00020202020202020202020200000000000BE
:1012D000000000000000000000000000000000000E
:1012E00000000000000000000000000000000000FE
:1012F00000000000000000000000000000000000EE
:1013000000000000000000000000000000000000DD
:1013100000000000000000808000000000000000CD
:101320000000001F8F8000000080DFCF80001F1FA3
:101330009F8701000000038F9F9F000000000000B6
:10134000008080808080800000000000000000009D
:10135000000000000000000000000000000000008D
:10136000000000000000000000000000000000007D
:10137000000000000000000000000000000000006D
:10138000000000000000000000000000000000005D
:10139000000404E4F4C4C49F9FE6242424E4E4008D
:1013A000FCFE6664FDFFFFFC989898FFFF0030E0AC
:1013B000FFFF8080F6F29393979E98900019FFE6C6
:1013C000F7FFD1FDF7B9F3F3FEFF73000000000053
:1013D000000000000000000000000000000000000D
:1013E00000000000000000000000000000000000FD
:1013F00000000000000000000000000000000000ED
:1014000000000000000000000000000000000000DC
:1014100000000103070C0000010F0303060C00008D
:10142000030706060703070F0D0D0D0F0F00000041
:10143000030F0D0507070F0F05050505000007073A
:1014400007070707070F0F0E0F0F0400000000002B
:10145000000000000000000000000000000000008C
:10146000000000000000000000000000000000007C
:1014700000000000030C030C010C040C000C0240E3
:10148000000C024000040240001002400020000056
:101490000004000000100000000200003031323370
:1014A000343536373839414243444546CC14000878
:1014B000000000200C0000008C0C0008D81400086C
:1014C0000C000020BC0E00009C0C00080000000076
:0814D000001C4E0E000000009C
:040000050800018965
:00000001FF
