:020000040800F2
:10000000602400209D010008D10200081D020008A4
:1000100021020008F1010008F506000800000000B8
:100020000000000000000000000000007503000850
:10003000F501000800000000D5020008790300085F
:10004000B7010008B7010008B7010008B7010008B0
:10005000B7010008B7010008B7010008B7010008A0
:10006000B7010008B7010008B7010008B701000890
:10007000B7010008B7010008B7010008B701000880
:10008000B7010008B7010008B7010008B701000870
:10009000B7010008B7010008B7010008B701000860
:1000A000B7010008B7010008B7010008B701000850
:1000B000B7010008B7010008B7010008B701000840
:1000C000B7010008B7010008B7010008B701000830
:1000D000B7010008B7010008C5060008B70100080D
:1000E000B7010008B7010008B7010008B701000810
:1000F000B7010008B7010008B7010008B701000800
:1001000000000000B7010008B7010008B7010008AF
:10011000B7010008B7010008B7010008B7010008DF
:10012000B7010008B7010008B7010008B7010008CF
:10013000B70100080000000000000000B70100083F
:10014000B7010008B7010008B7010008B7010008AF
:10015000B7010008B7010008B7010008B70100089F
:10016000B7010008B7010008B7010008B70100088F
:10017000B7010008B7010008B7010008000000003F
:10018000B7010008B7010008DFF80CD000F018F83C
:10019000004800470D0A00086024002006488047F8
:1001A00006480047FEE7FEE7FEE7FEE7FEE7FEE75C
:1001B000FEE7FEE7FEE7FEE77D0300088901000891
:1001C0001CB509480090094801900546009C06E0CE
:1001D000E06840F0010394E8070098471034AC420F
:1001E000F6D3FFF7D5FF0000580F0008780F00087E
:1001F000FEE70000FEE70000B0B54FF4406000F0FD
:10020000FBFC0024C4F20204204601210022012349
:10021000012500F0ADFBA562B0BD0000FEE70000C7
:10022000FEE70000B0B540F6014000F0E5FC40F20A
:100230000044C4F2020420460121002204230425C4
:1002400000F096FB204600210222042300F0BAFBB6
:1002500040F60140A56200F0CFFC204601210022BB
:100260000823082500F084FB2046002102220823F1
:1002700000F0A8FB40F60140A56200F0BDFC20465E
:10028000012100221023102500F072FB20460021DE
:100290000222102300F096FBA562B0BD40F2184088
:1002A000C4F20200042101600161704781B040F294
:1002B0001840C4F202000821016000220092009A56
:1002C0001AB900BF009A0132F8E7016101B0704726
:1002D000FEE70000FEE70000332822D0322823D0BA
:1002E000312824D182B040F21840C4F20200042127
:1002F0000160016100210091009AF92A07D800BF2E
:1003000000BF009A01320092009AFA2AF8D308221C
:10031000026000BF0191019961B900BF01990131EB
:10032000F8E706A000F002BE06A000F0FFBD07A09F
:1003300000F0FCBD026102B0704700BF74687265D6
:1003400065210D0074776F210D0000004F4B210DCA
:1003500000000000002908BF7047B0B50C46451EDC
:1003600015F8010FFFF7B8FF013CF9D1BDE8B04027
:1003700070470000FEE7000000F0C8B981B04EF6FB
:100380008851CEF200010A6843F6080042F4700278
:10039000C4F202000A6050F8081C41F0010140F864
:1003A000081C00BF50F8081C8907FBD5016841F004
:1003B0008001016000210091009A4F2A06D800BFF9
:1003C000009A01320092009A502AF9D3026842F052
:1003D00090020260009100994F2905D800990131DF
:1003E000009100995029F9D301684FF6FF7221F06E
:1003F0000301016050F8081CCFF6F662114040F886
:10040000081C50F8081C4FF0000C21F4802140F823
:10041000081CC0F800C0026843F21002C2F2004299
:1004200040F8042CC0F804C050F8082C42F4803284
:1004300040F8082C4FF6FE7250F8081C013A4CF1B7
:100440000003890302D4002BF6D100BF50F8081C2A
:100450008903FBD5826B47F2000142F08052C4F25F
:10046000000182630A6842F440420A600268026046
:10047000026842F400420260026842F4A052026044
:1004800047F61902C0F6402240F8042C50F8082C18
:1004900042F0807240F8082C50F8082C9201FBD5ED
:1004A0000A6842F480320A604A68D203FCD50A68BE
:1004B00042F400320A6000BF4A689203FCD501682A
:1004C00021F003010160016841F00201016000BFF9
:1004D00001680907FCD501B0704700002DE9F04123
:1004E00046F20004C4F202042046052100F0F0F9AF
:1004F00040F20C07C2F2000742F2480640F20548FB
:10050000B959A8EB000085B207EB810042F228013F
:100510004550B8590521013000F00700B851204678
:1005200000F014F920460521202200F061F9204650
:10053000052140F2054200F0C5F9B859052100FB3C
:1005400008732046002200F06FF92046052100F0D4
:1005500007F92846BDE8F08170B58AB040F615402D
:1005600000F04AFB46F20004C4F2020420460521D2
:1005700000F016F940F20C000026C2F20000CDE9AE
:10058000030640F20540089044F20440C4F2000023
:100590000190012002904FF4403001AD09902046B7
:1005A00005212A460796059600F048F920460521C0
:1005B00000F0ECF820460521042200F0DBF820468C
:1005C000052100F0CDF82046062100F0E9F8402092
:1005D000CDE90706204606212A46039600F02EF9AB
:1005E0002046062100F0D2F820460621042200F021
:1005F000C1F82046062100F0B3F80AB070BD000033
:1006000070B504464FF440600D4600F0F5FA4FF423
:10061000406000F0F1FA41F2110000F0EDFA00261E
:10062000C4F2020630460721042200F069F9304680
:100630000721082200F064F9304602210122042338
:1006400000F096F9304600210222042300F0BAF9A6
:10065000304602210122082300F08AF930460021A9
:100660000222082300F0AEF9204600F07FFB20466E
:10067000294600F017FB2046042100F027FC204605
:10068000082100F03DFC2046802100F0DDFB2046E3
:10069000402100F0CFFB204600F0E0FB26200021A7
:1006A000002200F0F9F9204600F016FC204628212F
:1006B00000F01AFC204642F20401BDE8704000F050
:1006C000DBBB0000B0B544F2004442F20405C4F2C2
:1006D0000004C2F20B252046294600F0E5FB012864
:1006E00018BFB0BD2046294600F0D2FBBDE8B0409F
:1006F000FFF7F4BEFEE7000040F20801C2F200017D
:10070000086000BF08680028FCD1704740F208006C
:10071000C2F200000168002908BF70470168013972
:100720000160704781B0002100910099C0EB00107A
:10073000B1EB001F07D2000100BF00990131009109
:1007400000998142F8D301B07047000001EB4101EC
:1007500000EBC100016921F0010101617047000057
:1007600001EB410100EBC100016941F001010161B0
:100770007047000001EB410100EBC100016921F06D
:10078000606141EA426101617047000001EB410193
:1007900000EBC100016921F4807101617047000024
:1007A00001EB410200EBC20213694FF03D0C23F054
:1007B000010313610023136153619361D3611362D9
:1007C000212353620A1F28BFD1B201EB410301F07C
:1007D00002014FF00C024FEA410138BF082201EB41
:1007E000430113580CFA01F11943115070470000EE
:1007F0000B1F38BF0B46D9B24FEA410151FA83F1C2
:1008000003F002034FF00C0C4FEA430338BF4FF0E4
:10081000080C03EB41015CF8003002FA01F11943C6
:100820004CF800107047000001EB410C2021002A19
:1008300008BF1C21084440F83C30704780B501EBEC
:10084000410100EBC100416A48F23F7321F004010D
:1008500041621168CFF6FC7381619168C161D16911
:1008600041610169D2F818E001EA030C116A1369C9
:1008700041EA0C0141EA830141EA0E011943016199
:100880005168012907D00029016914BF41F40041D2
:1008900041F4007102E0016921F400710161D16845
:1008A0000369002923F4806308BF03F580630361B3
:1008B00051690269002922F4807208BF02F5807232
:1008C000026180BD01EB410100EBC1004261704754
:1008D00001EB410100EBC10040697047B0B544F243
:1008E0000045C4F200050446C1B2284600F03AFAB9
:1008F0002846072100F0B8FA0028F9D02046B0BDFC
:10090000F0B5D0F820E0D0F824C000230F27002550
:1009100005E000BF0135082D03F104030CD022FAD5
:1009200005F6F607F6D007FA03F62EEA060601FAF0
:1009300003F446EA040EEDE7082300240F2504E043
:100940000133102B04F104040CD022FA03F6F6074D
:10095000F6D005FA04F62CEA060701FA04F647EA8F
:10096000060CEDE7C0F820E0C0F824C0F0BD0000A0
:100970002DE9F041D0F800E0D0F80CC000244FF091
:100980000308002605E000BF0136102E04F1020422
:1009900012D023FA06F7FF07F6D008FA04F72EEA7A
:1009A000070E01FA04F54EEA050E2CEA070702FAD3
:1009B00004F547EA050CE7E7C0F800E0C0F80CC012
:1009C000BDE8F0810129416814BF99431943416092
:1009D000B0B5D0F808C000214FF0030E002404E0A9
:1009E0000134102C01F102010CD023FA04F5ED07BB
:1009F000F6D00EFA01F52CEA050C02FA01F54CEAE4
:100A0000050CEDE7C0F808C0B0BD000000F024F907
:100A1000FFF7F2FB44F20040C4F200004FF4E13172
:100A2000FFF7EEFDFFF798FD0A20FFF765FEFFF7E1
:100A3000F9FB16A000F07AFA40F20C04C2F20004AE
:100A400042F24C0542F2480640F2054842F22807BD
:100A500009E000BFFFF722FCFFF728FCFFF726FCA8
:100A60000520FFF75FFE6059A1598842F2D0605916
:100A7000615900FB084004EB8101C959FFF76AFC8A
:100A80006059013000F007006051E3E7544443200F
:100A9000546573742E0D00004EF60C5CCEF2000C03
:100AA000DCF8003003F4E063B3F5E06F01D1042318
:100AB00028E0DCF8003003F4E063B3F5C06F01D147
:100AC00003231FE0DCF8003003F4E063B3F5A06F0C
:100AD00017D0DCF8003003F4E063B3F5806F01D188
:100AE00001230FE0DCF8003003F4E063B3F5407F4E
:100AF00001D1002306E040F20053C0F2FA53CCF8D3
:100B00000030022301FA03FCC3F104030F21D94092
:100B100011404EF2001241EA0C01CEF2000209012E
:100B200040EA020383F8001300F01F01012303FAD7
:100B300001F11C2303EAD0008150704710B543F641
:100B40000402C4F2020253680146C3F3810342F275
:100B50000040022BC0F2F40006D0012B1FD147F653
:100B60004000C0F27D101AE0D2F800C013680CF00B
:100B70003F0CC3F3881E13681468C3F30143640277
:100B800047F64004C0F27D1458BF0446B4FBFCF4A1
:100B9000022000EB430004FB0EF3B3FBF0F05368BC
:100BA00011A4C3F30313E35C546840F6507CC4F310
:100BB0008224C0F6000C1CF804E05268032907D810
:100BC00020FA03F3DFE801F00F020609184610BD12
:100BD000002010BD23FA0EF010BDC2F342301CF805
:100BE000000023FA00F010BD00000000000000002B
:100BF000010203040607080943F6000300F01F0181
:100C00008009C4F202034FF0010CC2580CFA01F142
:100C10001143C1507047000043F6000300F01F016C
:100C20008009C4F202034FF0010CC2580CFA01F122
:100C300022EA0101C150704743F6000300F01F0192
:100C40008009C4F202034FF0010CC2580CFA01F102
:100C50001143C1507047000040F20400C2F200008E
:100C6000006844F6D351C1F26201A0FB01014FF0CC
:100C7000FF3000EB9110B0F1807F11D24EF21001E5
:100C8000CEF2000148604EF62350CEF20000F02272
:100C90000270002207238A600B600270704700BF59
:100CA000FEE70000B0B5044647F2FF70C4F2000052
:100CB0000D4684424FF000000EDC44F6FF31C4F2D2
:100CC00000018C4217DC44F20041C4F200018C4266
:100CD0001DD044F6000116E040F6FF71C4F2010198
:100CE0008C422FDC47F60001C4F200018C420ED08A
:100CF00047F6004107E044F60041C4F200018C428F
:100D000005D045F20001C4F200018C4203D102215A
:100D10000846FFF713FFE168090406D400EB55000D
:100D2000B0FBF5F080B2A060B0BD400000EB550014
:100D3000B0FBF5F04FF6F0710140C0F342000844FB
:100D4000A060B0BD41F20001C4F201018C424FF03D
:100D50000301DDD041F20042C4F201029442D7D037
:100D6000D9E700006FF35F214160704710B547F28B
:100D7000FF71C4F20001884214DC44F6FF31C4F272
:100D80000001884224DC44F20041C4F200018842A0
:100D90003CD044F60001C4F20001884249D140F63B
:100DA00012043EE040F6FF71C4F2010188421EDCED
:100DB00047F60001C4F2000188422AD047F60041FC
:100DC000C4F20001884218BF10BD40F61F0428E09D
:100DD00044F60041C4F2000188421DD045F20001F2
:100DE000C4F20001884224D140F6140419E041F213
:100DF0000001C4F20101884211D041F20041C4F265
:100E00000101884215D140F605140AE040F61104AC
:100E100007E040F61E0404E040F6130401E040F64B
:100E200004142046FFF708FF2046BDE81040FFF7F6
:100E3000F3BE10BD426901F0400122F04002426160
:100E40004269114341617047426901F0800122F01B
:100E5000800242614269114341617047C16841F4B7
:100E60000051C160704700008A09105801F01F014D
:100E7000C84000F00100704701F01F0289094FF0DF
:100E8000010C0B580CFA02F21A430A50704700008A
:100E9000C1F30442890D4FF0010C0B580CFA02F219
:100EA00023EA02020A507047C1F3891252F800C0C7
:100EB0008A0D105801F01F03C1F30441C8402CFAF9
:100EC00003F1084000F0010070470000C26822F002
:100ED00004021143C1607047D0F8801041F0010155
:100EE000C0F8801070470000D0F8842002F07F42E4
:100EF000C0F88420D0F884201143C0F884107047D3
:100F0000C26822F008021143C160704702E008C8BD
:100F1000121F08C1002AFAD170477047002001E073
:100F200001C1121F002AFBD17047000010B5044612
:100F300001E0FFF7D3FC14F8010B04490028F8D1B5
:100F4000BDE810400A20FFF7C9BC000000000020E7
:100F50000000000001020304780F000800000020D8
:100F6000080000000C0F0008800F00080800002097
:100F7000582400001C0F000800000000001C4E0E4A
:040000050800018965
:00000001FF
