:020000040800F2
:1000000058120020F10100085B410008853C0008FF
:1000100059410008AD090008395D000800000000E2
:10002000000000000000000000000000D14A0008AD
:100030009B0A0008000000005D410008D34A000848
:100040000B0200080B0200080B0200080B0200085C
:100050000B0200080B0200080B0200080B0200084C
:100060000B0200080B0200080B020008B10900088F
:10007000BD090008C9090008D5090008E109000800
:10008000ED090008000000000B0200080B02000848
:100090000B0200080B0200080B0200080B0200080C
:1000A000454D00080B020008514D00080B020008E6
:1000B0000B0200080B0200080B0200080B020008EC
:1000C0000B0200080B0200080B0200080B020008DC
:1000D0000B0200082D5D00080B0200080B0200084F
:1000E0000B0200080B0200080B0200080B020008BC
:1000F0000B0200080B0200080B02000800000000C1
:10010000000000000B020008000000000B020008C5
:100110000B020008000000000B0200080B020008A0
:100120000B0200080B0200080B0200080B0200087B
:100130000B02000800000000000000000B02000895
:100140000B0200080B020008000000000000000085
:10015000000000000000000000000000000000009F
:100160000000000000000000000000000B0200087A
:100170000B0200080000000000000000000000006A
:10018000000000000B02000800000000000000005A
:10019000000000000000000000000000000000005F
:1001A00000000000000000000B0200080B02000825
:1001B0000B0200080B0200080B0200080000000000
:1001C000000000000B02000800000000000000001A
:1001D0000B0200080B020008DFF810D000F08CFBC7
:1001E00000480047296B0008AFF300805812002038
:1001F0000648804706480047FEE7FEE7FEE7FEE7C1
:10020000FEE7FEE7FEE7FEE7FEE7FEE7894B0008B4
:10021000D90100082DE9F05F0546002092469B4673
:1002200088460646814640241BE02846414647460C
:10023000224600F042FA53465A46C01A914110D362
:1002400011461846224600F029FA2D1A67EB0108DC
:100250004F4622460120002100F020FA17EB00094A
:100260004E41201EA4F10104DFDC484631462A46F7
:100270004346BDE8F09F2DE9FE4399461546884662
:10028000074601AC022942D3002D40D00020029045
:10029000A8F101004FF0FF36009022E000FB05724C
:1002A00001FB057011464A469047002805DC54F8CA
:1002B0002600304444F8260013E060682A4600FB1C
:1002C000057154F8040C00FB057007E00B7890F8FA
:1002D00000C001F801CB00F8013B521E002AF5D105
:1002E000764254F8040C61688842D7DC4B462A46B3
:1002F0003846FFF7C0FF54F8040C4B46A8EB00014A
:10030000401C00FB05702A46491EFFF7B4FFBDE8FC
:10031000FE8340EA01039B0703D009E008C9121FCE
:1003200008C0042AFAD203E011F8013B00F8013BAF
:10033000521EF9D27047D2B201E000F8012B491EDB
:10034000FBD270470022F6E710B513460A46044672
:100350001946FFF7F0FF204610BD421C10F8011BA4
:100360000029FBD1801A7047034611F8012B00F8D1
:10037000012B002AF9D1184670472DE9FE4F80461F
:1003800081EA0300C00F0C46009021F0004123F0E9
:100390000045B8EB0200A94105D2404621469046EF
:1003A0001C460B46024623F00040104347D0270D61
:1003B000C7F30A00C3F30A510290401A0190402883
:1003C0006BDAC3F3130040F4801B0098924620B10F
:1003D0000023D2EB030A63EB0B0B01985946C0F1E3
:1003E0004002504600F05AF906460D46504659461E
:1003F000019A00F072F910EB08006141002487EACD
:10040000115284EAE7731A4340D0009A62B3019A0A
:10041000012A4FEA075215DC001B61EB02014FF085
:10042000004202EA0752CDE90042001C41F580116A
:1004300032462B4600F072F903B0BDE8F08F40461B
:100440002146F9E7001B61EB0201001C41F5801316
:1004500000185B412018A2F5001747EB030140EAA2
:10046000D570B6196D4111E06D084FEA360645EAC0
:10047000C0754FEA0752001B61EB0201001C41F5F9
:10048000801149084FEA30000019514132462B468D
:1004900003B0BDE8F04F00F032B9009801224000EF
:1004A0000023D0EB020263EBE073009821464FEA91
:1004B000E074B8EB000061EB0401E9E783F000436E
:1004C0005BE781F0004158E72DE9FE4F81EA030424
:1004D00004F0004421F0004100944FF0000B23F0A1
:1004E000004350EA01045ED052EA03045BD0C3F338
:1004F0000A54C1F30A552C44A4F2F3340194A0FB2E
:100500000254C1F3130141F48011C3F3130343F404
:10051000801301FB024400FB034E840A970A44EA5D
:10052000815447EA8357A4FB076802958D0A05FBAF
:1005300007854FEA932C04FB0C542705029D4FEAD4
:10054000065847EA1637B5EB08056EEB070C870E21
:10055000920E47EA811742EA8312A7FB0201B6EB2B
:100560000B0164EB00042B0D43EA0C335E1844EBE3
:100570001C50DA465146E7FB0201C5F313044FEA6B
:100580000B3343EA14534FEA0432019C43EA060357
:10059000A4F10C040294009CCDE900B400F0BEF874
:1005A00003B0BDE8F08F00200146F9E70EB5C10F9A
:1005B00080EAE0700844CA07002140F233438DE826
:1005C0000E000A460B4600F0A9F803B000BD70B556
:1005D000C1F30A5201F000450024C1F3130140F2B7
:1005E000FF3341F480119A4201DA002070BD40F2DD
:1005F00033439A42A2F2334203DC524200F05DF8E8
:1006000000E090402C43F1D0404270BDC1F30A524B
:1006100010B5C1F3130140F2FF3341F480119A4247
:1006200001DA002010BD40F233439A42A2F2334275
:1006300003DC524200F041F810BD904010BD0000B4
:1006400030B5041E71F1000404DB4FF00044404259
:1006500064EB0101141E73F1000405DB1C464FF02E
:100660000043524263EB04038B4208BF824230BD19
:1006700030B50B46014600202022012409E021FA72
:1006800002F59D4205D303FA02F5491B04FA02F56F
:100690002844151EA2F10102F1DC30BD202A04DB42
:1006A000203A00FA02F1002070479140C2F1200385
:1006B00020FA03F3194390407047202A04DB203AC4
:1006C00021FA02F00021704721FA02F3D040C2F172
:1006D00020029140084319467047202A06DBCB17B9
:1006E000203A41FA02F043EAE07306E041FA02F3ED
:1006F000D040C2F12002914008431946704710B51E
:10070000141E73F1000408DA401C41F10001921834
:100710005B411A4301D120F0010010BD2DE9F04DDD
:1007200092469B4611B1B1FA81F202E0B0FA80F232
:1007300020329046FFF7B2FF04460F4640EA0A0017
:1007400041EA0B0153465A46084313D0114653EA77
:10075000010019D0C8F140025046FFF7AEFF054630
:100760000E46504659464246FFF798FF084305D0CB
:10077000012004E020463946BDE8F08D0020054305
:1007800046EAE0762C4337430A986305E40AA0EB77
:1007900008000022FD0A44EA47540A3002D500202E
:1007A0000146E9E7010510196941DDE9084500192D
:1007B0006941BDE8F04DA2E72DE9F04D81EA03045F
:1007C00004F0004B21F0004514464FF0000A23F0DE
:1007D000004150EA050220D054EA01021DD0C5F3C1
:1007E0000A570246C5F31303C1F31300C1F30A56B7
:1007F00040F4801543F48013A7EB0608101BD6467F
:1008000008F2FD3873EB050002D308F1010801E09E
:1008100092185B41B8F1000F03DA00200146BDE8F1
:10082000F08D00204FF48011064684460EE0171B21
:1008300073EB050705D3121B63EB050306434CEA74
:10084000010C49084FEA300092185B4150EA010759
:10085000EDD152EA030012D082EA040083EA0501D6
:10086000084305D0101BAB4106D20122002306E04D
:1008700000224FF0004302E06FF0010253101AEB28
:1008800006004CEB085110EB0A0041EB0B01BDE8F0
:10089000F04DFFF734BFC1F30A52C1F3130140F228
:1008A000FF3341F480119A4202DA0020014670477A
:1008B00040F233439A42A2F2334202DC5242FFF743
:1008C000FCBEFFF7EBBE000030B5041E71F1000462
:1008D00004DB4FF00044404264EB0101141E73F14D
:1008E000000405DB1C464FF00043524263EB040357
:1008F000994208BF904230BD064C074D06E0E068C3
:1009000040F0010394E8070098471034AC42F6D356
:10091000FFF766FC206C0008406C0008F0B58BB057
:1009200000240E4607461546079408941C21684685
:100930000994FFF707FD17484FF080410160C0E9B7
:100940000164C0E90374846102F06EFC18B12F21C8
:1009500011A006F06FF8079407A90E48099402F059
:10096000D9F818B134210CA006F064F8602000908A
:10097000CDE90154002269460648049402F0EAFADF
:1009800018B13C2104A006F055F8024802F0A4FA80
:100990000BB0F0BD180300202E2E2F436F72652F71
:1009A0005372632F74696D2E63000000FEE7000030
:1009B000014800F0E4B80000DC040020014800F029
:1009C000DEB800003C050020014800F0D8B8000067
:1009D0007C040020014800F0D2B80000B0000020E4
:1009E000014800F0CCB8000074010020014800F07C
:1009F000C6B80000D40100200D4902688A4201D225
:100A00000C4901E00B492031D2B21423083AB2FB61
:100A1000F3F2436C02F01F0223F0030319448164D4
:100A200004498031C1640121914001657047000093
:100A300008040240000802400179074A02EB8102E3
:100A40004265054A4432491E826501F01F020121B8
:100A50009140C16570470000FC08024030B5D0E904
:100A600013456560446D14B1D0E91645656090F892
:100A7000444004F01F050124AC40056C6C60046820
:100A800063608368102B036803D099600068C260BC
:100A900030BD9A600068C16030BD704710B590F8F5
:100AA000252000210123022A03D00421C163012152
:100AB00022E00268146824F00E041460826C14684A
:100AC00024F4807414600268146824F00104146033
:100AD00090F84420046C02F01F0203FA02F26260F4
:100AE000D0E913245460426D32B1146824F4807448
:100AF0001460D0E91624546080F82530002280F874
:100B00002420084610BD70B590F82510002401225D
:100B10002346022907D00421C16380F8252080F8EC
:100B20002430012429E001680D6825F00E050D60D0
:100B300001680D6825F001050D60816C0D6825F4D4
:100B400080750D6090F84410154601F01F018A4031
:100B5000016C4A60D0E913124A60416D31B10A68F4
:100B600022F480720A60D0E916124A6080F825509B
:100B700080F82430816B01B18847204670BDF0B405
:100B8000016C0B6801680A6890F84440042504F081
:100B90001F0405FA04F61E4211D056070FD50A6845
:100BA000920603D40A6822F004020A6090F8441006
:100BB00001F01F018D40016C4D60016B1DE00226AC
:100BC00006FA04F71F424FF0000C4FF0010518D051
:100BD000970716D50A68920605D40A6822F00A0219
:100BE0000A6080F8255090F8441001F01F018E40F3
:100BF000016C4E6080F824C0C16A00291AD0F0BC94
:100C000008470826A6401E4214D0120712D50A68CB
:100C100022F00E020A6090F84410026C01F01F01ED
:100C200005FA01F15160C56380F8255080F824C0B1
:100C3000416BE2E7F0BC704770B504007ED06E49AE
:100C400020686E4D88422DD06B491431884229D0DE
:100C500069492831884225D067493C31884221D0F2
:100C60006549503188421DD063496431884219D0AA
:100C7000A84217D061491431884213D05F49283106
:100C800088420FD05D493C3188420BD05B495031DE
:100C9000884207D059496431884203D0A32158A023
:100CA00005F0C8FEA0684FF4804638B1102805D082
:100CB000B04203D0A42152A005F0BCFEE068402859
:100CC00004D018B1A5214EA005F0B4FE20698028FB
:100CD00004D018B1A6214AA005F0ACFE606948B165
:100CE000B0F5807F06D0B0F5007F03D0A72144A0E7
:100CF00005F0A0FEA06948B1B0F5806F06D0B0F550
:100D0000006F03D0A8213EA005F094FEE06928B151
:100D1000202803D0A9213AA005F08CFE206A60B1FA
:100D2000B0F5805F09D0B0F5005F06D0B0F5405F48
:100D300003D0AA2132A005F07DFE00E014E0606837
:100D4000732803D9AC212EA005F074FE206814216D
:100D5000A8420BD2284A52420244B2FBF1F1890068
:100D60006164254908390AE0012070BD234A5242D6
:100D70000244B2FBF1F18900616420490839216421
:100D8000022184F82510016847F6F0729143D4E9F6
:100D900002231A43D4E904352B431A43A3691A43A7
:100DA000E3691A43236A1A430A4302602046FFF7A5
:100DB00023FEA0680025B04200D16560A16C2079B7
:100DC0000860D4E9130141606068401E032808D818
:100DD0002046FFF731FE606D0560D4E916014160E1
:100DE00002E06565A565E565E563012084F82500F9
:100DF00084F82450002070BD08000240080402401E
:100E00002E2E2F447269766572732F53544D3332F0
:100E1000473478785F48414C5F4472697665722F39
:100E20005372632F73746D3332673478785F6861FF
:100E30006C5F646D612E63002DE9F04188460446C5
:100E400029490025581E1E461746884204D340F201
:100E5000AB1126A005F0EEFD94F8240001280DD07A
:100E6000012084F8240094F825100020012907D0DF
:100E700084F8240002252846BDE8F0810220FBE723
:100E8000022184F82510E0632068016821F0010147
:100E9000016033463A4641462046FFF7DFFD206BAE
:100EA00000282068016802D041F00E0106E021F020
:100EB000040101602068016841F00A010160A06C32
:100EC0000168C90303D5016841F480710160606D58
:100ED00018B1016841F4807101602068016841F037
:100EE00001010160C7E70000FFFF03002E2E2F4421
:100EF0007269766572732F53544D33324734787864
:100F00005F48414C5F4472697665722F5372632F5C
:100F100073746D3332673478785F68616C5F646DC9
:100F2000612E63002DE9F84F0026DFF858A2DFF8A4
:100F300058B20D460446B0F1904F13D0544511D02D
:100F40005C450FD0914884420CD09148844209D02E
:100F50009048844206D09048844203D0B1218FA0AB
:100F600005F068FD28680104090C01D0000C03D0CD
:100F7000B2218AA005F05EFD6868F8B101281DD095
:100F800011281BD0022819D0122817D09249884264
:100F900014D09249884211D0914988420ED091498B
:100FA00088420BD09049884208D09049884205D0A9
:100FB000032803D0B32179A005F03CFDA8680028E0
:100FC00007D00128FCD00228FAD0B42173A005F084
:100FD00031FDCFE0012000FA06F817EA08077DD0BE
:100FE0006868012805D0022803D0112801D01228F2
:100FF0001DD1E86848B1012807D0022805D0032890
:1010000003D0C42165A005F015FDA168700003227E
:1010100082409143EA6882400A43A260606829796D
:1010200020EA0800C1F30011B14001436160E268A9
:101030007000032101FA00F8A968814622EA08023B
:1010400001FA09F11143E1606868022801D0122811
:101050002AD1B4F1904F13D0544511D05C450FD034
:101060004A4884420CD04A48844209D049488442C4
:1010700006D04948844203D0DC2148A005F0DAFCC0
:1010800028690F2803D9DD2144A005F0D3FCF0081E
:1010900004EB8000026A7107C90E0F238B409A434C
:1010A0002B698B40134303622068297920EA0800EA
:1010B00001F0030101FA09F1014321606868C000F1
:1010C00057D54B48016E41F001010166006E26F0D4
:1010D000030100F001000090464800E049E00144AF
:1010E0008B68B007020F0F2090408343B4F1904FFC
:1010F00003D0544503D1012015E0002013E05C45E6
:1011000001D102200FE02148844201D103200AE0EE
:101110001F48844201D1042005E01E48844201D1C9
:10112000052000E006209040184388603249086896
:101130006A68B843D20300D5384308602E49091DB8
:1011400008686A68B843920300D5384308602A49A2
:10115000083108686A68B843D20200D5384308608D
:1011600025490C3108686A68B843920200D53843B3
:101170000860761C2F6837FA06F07FF42BAFBDE8C5
:10118000F88F00000004004800080048000C0048E8
:101190000010004800140048001800482E2E2F446C
:1011A0007269766572732F53544D333247347878B1
:1011B0005F48414C5F4472697665722F5372632FAA
:1011C00073746D3332673478785F68616C5F677011
:1011D000696F2E6300000000000011100000211054
:1011E0000000311000001210000022100000321028
:1011F00000100240000001400004014070B5154697
:101200000C00064604D140F29D1107A005F012FC27
:1012100045B1012D04D04FF4CF7103A005F00AFCB5
:10122000B46170BDB46270BD2E2E2F4472697665B4
:1012300072732F53544D3332473478785F48414CA2
:101240005F4472697665722F5372632F73746D33C6
:1012500032673478785F68616C5F6770696F2E639E
:101260000000000001488068704700002000002056
:101270000248816842681144816070472000002064
:1012800010B50024032000F0CDF8002000F008F88D
:1012900008B1012401E000F025F8204610BD00004F
:1012A00070B50E4E05460024706898B14FF47A71FF
:1012B000B1FBF0F00A490968B1FBF0F001F010FC55
:1012C00040B9102D06D200222946501E00F05CF8CD
:1012D000356000E00124204670BD000020000020A1
:1012E0002C0000200E4882B0016E41F00101016621
:1012F000016E01F001010091816D41F08051816525
:10130000816D01F080510091816D41F080518165C6
:10131000806D00F08050009002B000F047B90000EE
:101320000010024010B5040003D5D32107A005F03A
:1013300081FB002C09DB04F01F01012088406109BA
:10134000890001F1E021C1F8000110BD2E2E2F44CB
:101350007269766572732F53544D333247347878FF
:101360005F48414C5F4472697665722F5372632FF8
:1013700073746D3332673478785F68616C5F636F64
:10138000727465782E63000070B514460D460646EB
:10139000102A03D3BF2113A005F04CFB102D03D35B
:1013A000C02110A005F046FB1D480068C0F30223D1
:1013B000C3F10700042800D90420191D072901D210
:1013C000002300E0DB1E012202FA00F1491E294041
:1013D00099409A40521E22403046BDE87040114369
:1013E00004F05CBE2E2E2F447269766572732F5303
:1013F000544D3332473478785F48414C5F447269CA
:101400007665722F5372632F73746D33326734783D
:10141000785F68616C5F636F727465782E6300003B
:101420000CED00E010B5044607280BD0062C09D0BF
:10143000052C07D0042C05D0032C03D0A72108A02D
:1014400005F0F8FA154A04F0070110684FF6FF039B
:10145000184040EA012012490843106010BD000006
:101460002E2E2F447269766572732F53544D33328A
:10147000473478785F48414C5F4472697665722FD3
:101480005372632F73746D3332673478785F686199
:101490006C5F636F727465782E6300000CED00E082
:1014A0000000FA052F4910B509682F4A32232F4C46
:1014B000594378B1B0F5007F31D0B0F5806F03D0DB
:1014C0009E212BA005F0B6FA206820F4C06040F4FD
:1014D00080602DE02068C0F34120022804D054F839
:1014E000800F20F4807023E0D4F8800020F4807016
:1014F000C4F88000206820F4C06040F400702060D0
:10150000B1FBF2F0401C00E0401E6169490501D5C5
:101510000028F9D1606940050BD5032010BD206873
:10152000C0F34120022806D054F8800F40F48070A8
:101530002060002010BDD4F8800040F48070C4F812
:101540008000206820F4C06040F400702060B1FB8F
:10155000F2F0401C00E0401E61694905DAD5002820
:10156000F9D1D7E72C00002040420F000070004066
:101570002E2E2F447269766572732F53544D333279
:10158000473478785F48414C5F4472697665722FC2
:101590005372632F73746D3332673478785F686188
:1015A0006C5F7077725F65782E6300000248816817
:1015B00041F4804181607047007000402DE9F84F90
:1015C000044600260068FF4D3746C10721D1810738
:1015D0001FD441071DD401071BD4810619D441062D
:1015E00017D4010615D4C10513D4810511D44105C2
:1015F0000FD401050DD4C1040BD4810409D44104D6
:1016000007D4010405D4000306D48521EEA005F01B
:1016100011FA206800036CD5206C4FF0000960B10E
:10162000B0F5807F09D0B0F5007F06D0B0F5407FDF
:1016300003D08D21E4A005F0FDF9A86DC00009D408
:10164000A86D40F08050A865A86D4FF0010900F02A
:1016500080500090DFF8ACA3DAF8001041F48071FC
:10166000CAF80010FFF7FEFD804607E0FFF7FAFD1D
:10167000A0EB0800022801D9032632E0DAF80000C6
:10168000C005F3D56EBBD5F8900010F4407014D0AF
:10169000216C814211D0D5F89000D5F8901020F43B
:1016A000407041F48031C5F89010D5F8901021F4C5
:1016B0008031C5F89010C5F89000C0077ED0FFF7C4
:1016C000D1FD804641F2883A05E0FFF7CBFDA0EB63
:1016D00008015145D0D8D5F890008007F5D5002EE7
:1016E000ECD03746B9F1000F03D0A86D20F0805040
:1016F000A8652078C00713D0606848B1012807D0DA
:10170000032805D0022803D0E221AFA005F092F90A
:10171000D5F88800616820F003000843C5F8880008
:101720002078800713D5A06848B1042807D00C287A
:1017300005D0082803D0EC21A3A005F07BF9D5F84B
:101740008800A16820F00C000843C5F888002078C4
:10175000400713D5E06848B1102807D0302805D0DD
:10176000202803D0F62198A005F064F9D5F8880068
:10177000E16820F030000843C5F8880020780007B1
:1017800014D5206950B1402808D0C02806D0802840
:1017900004D040F201118CA005F04CF9D5F8880076
:1017A000216920F0C0000843C5F888002078800631
:1017B00019D5606978B1B0F5806F00E05DE10AD0BD
:1017C000B0F5406F07D0B0F5006F04D04FF48D71C5
:1017D0007DA005F02FF9D5F88800616920F44060FC
:1017E0000843C5F888002078400614D5A06950B198
:1017F000B0F5805F07D0B0F5005F04D04FF4927170
:1018000071A005F017F9D5F88800A16920F44050BF
:101810000843C5F888002078000614D5E06950B167
:10182000B0F5804F07D0B0F5004F04D04FF497715A
:1018300065A005F0FFF8D5F88800E16920F4404084
:101840000843C5F888002088C00514D5206A50B127
:10185000B0F5803F07D0B0F5003F04D04FF49C7145
:1018600059A005F0E7F8D5F88800216A20F4403047
:101870000843C5F888002088800517D5606A68B1DC
:10188000B0F5802F0AD0B0F5002F07D0B0F5402F6B
:1018900004D04FF4A8714CA005F0CCF8D5F888001E
:1018A000616A20F440200843C5F88800208840057C
:1018B0001FD5A06A4FF4801660B1B0420AD0B0F5CF
:1018C000001F07D0B0F5401F04D04FF4AD713EA00B
:1018D00005F0B0F8D5F88800A16A20F4401008435C
:1018E000C5F88800A06AB04203D1E86840F48010CF
:1018F000E860208800051FD5E06A4FF4800660B1DB
:10190000B0420AD0B0F5000F07D0B0F5400F04D0B8
:101910004FF4B5712CA005F08DF8D5F88800E16A78
:1019200020F440000843C5F88800E06AB04203D1C3
:10193000E86840F48010E8602088C0041CD5206B63
:101940004FF0807648B1B04207D0B0F1007F04D0AC
:1019500040F27B111CA005F06DF8D5F88800216BD2
:1019600020F040700843C5F88800206BB04203D1D6
:10197000E86840F48010E86020884FF0006680043A
:1019800017D5606B30B1B04204D040F28D110EA07B
:1019900005F050F8D5F88800616B20F040600843EE
:1019A000C5F88800606BB04203D1E86840F480104D
:1019B000E860208840043CD5A06B10B1B04229D02B
:1019C00022E027E0001002402E2E2F447269766537
:1019D00072732F53544D3332473478785F48414CFB
:1019E0005F4472697665722F5372632F73746D331F
:1019F00032673478785F68616C5F7263635F6578C3
:101A00002E630000007000404FF4CE71AFF248002A
:101A100005F010F8D5F88800A16B20F0406008436D
:101A2000C5F88800A06BB04203D1E86840F480108C
:101A3000E860208800041DD5E06B4FF0805650B15F
:101A4000B04208D0B0F1005F05D04FF4D571AFF2CD
:101A5000880004F0EFFFD5F88800E16B20F04050DB
:101A60000843C5F88800E06BB04203D1E86840F451
:101A70008030E8603846BDE8F88FD5F89000216CDA
:101A800020F440700843C5F890002BE62DE9F0479C
:101A90000C4605004FF000075FD02868010701D011
:101AA000000904D040F20A31A3A004F0C3FF14B32C
:101AB000012C20D0022C1ED0032C1CD0042C1AD0B8
:101AC000052C18D0062C16D0072C14D0082C12D0B8
:101AD000092C10D00A2C0ED00B2C0CD00C2C0AD0B8
:101AE0000D2C08D00E2C06D00F2C04D040F20B3158
:101AF00091A004F09FFFDFF87892D9F8000000F081
:101B00000F00A0420CD2D9F8001021F00F012143A0
:101B1000C9F80010D9F8000000F00F00A0421CD155
:101B20002878944EC00741F2883A66D06868DFF89A
:101B3000488201280DD002283AD0032810D040F264
:101B400022317DA004F076FF6868032808D00228BF
:101B50002ED03068400500282DDB0120BDE8F0873D
:101B600030688001F9D5F06800F00301F068C0F337
:101B70000310401C032919D08049B1FBF0F0F16833
:101B8000C1F306214843F168C1F34161491C490092
:101B9000B0FBF1F0404519D9B06810F0F00F0ED04D
:101BA0002878800712D5A86848B10FE07449E4E7A7
:101BB00030688003CFE700F00FF9404506D9B068E0
:101BC00020F0F00040F08000B0608027B0686968C5
:101BD00020F003000843B060FFF744FB804605E0B7
:101BE000FFF740FBA0EB0801514552D8B068696887
:101BF00000F00C00B0EB810FF2D1286881072BD5E3
:101C0000400703D5B06840F4E060B0602878000772
:101C100005D5B06820F4605040F4E060B060A8687A
:101C2000A0B1802812D0902810D0A0280ED0B028C3
:101C30000CD0C0280AD0D02808D0E02806D0F02840
:101C400004D040F279313CA004F0F4FEB068A968F9
:101C500020F0F000084304E0802F03D1B06820F0AA
:101C6000F000B060D9F80010484601F00F01A14221
:101C700017D90168C84621F00F0121430160FFF721
:101C8000F1FA0746D14606E0FFF7ECFAC11B4945D9
:101C900001D9032062E7D8F8000000F00F00A0424D
:101CA000F2D128784FF4806440074FF4A0674FF4D6
:101CB000C0684FF4E06914D5E86860B1A0420AD06A
:101CC000B84208D0404506D0484504D040F29B3188
:101CD00019A004F0AFFEB068E96820F4E0600843A2
:101CE000B0602878000715D5286960B1A0420AD0F5
:101CF000B84208D0404506D0484504D040F2A23151
:101D00000DA004F097FEB068296920F4605040EA05
:101D1000C100B06000F060F8B1681A4AC1F3031165
:101D2000515C01F01F01C84017490860174800685E
:101D3000BDE8F047FFF7B4BA2E2E2F4472697665DE
:101D400072732F53544D3332473478785F48414C87
:101D50005F4472697665722F5372632F73746D33AB
:101D600032673478785F68616C5F7263632E6300FA
:101D7000002002400010024000B4C4040024F4001B
:101D800000127A00F86B00082C00002020000020D0
:101D90000548064900688968054AC1F30221515C7B
:101DA00001F01F01C84070472C00002000100240C5
:101DB000086C00080548064900688968054AC1F3AF
:101DC000C221515C01F01F01C84070472C00002067
:101DD00000100240086C0008184A10B59068C0F363
:101DE0008101174801290BD091684410C1F381018A
:101DF000022906D09168C1F38101032903D0002094
:101E000010BD204610BDD16801F00303D168C1F3B5
:101E10000311491C032B02D0B0FBF1F001E0B4FB2D
:101E2000F1F0D168C1F306214843D168C1F34161A3
:101E3000491C4900B0FBF1F010BD00000010024049
:101E40000024F4002DE9F84304007DD0FE4D206805
:101E500070B1C1070FD1810763D4810675D4010722
:101E600074D4400773D440F24311F8A004F0E2FDAB
:101E70002078C00752D060684FF480364FF4A02716
:101E800040B1B04206D0B84204D040F24911EFA0B0
:101E900004F0D0FDA868E96800F00C0001F003012F
:101EA0000C2802D0082809D001E0032906D0606878
:101EB000B0420AD1286840F4803013E028688003DB
:101EC0002CD560680028C0D028E0B842286803D12B
:101ED00040F480202860EDE720F4803028602868F6
:101EE00020F480202860606860B1FFF7BBF90646E7
:101EF00004E0FFF7B7F9801B64287CD828688003CA
:101F0000F7D50BE0FFF7AEF9064604E0FFF7AAF9B4
:101F1000801B6428F1D828688003F7D420788007D4
:101F200061D5E06838B1B0F5807F04D04FF4BF715F
:101F3000C6A004F07FFD20697F2804D940F27F11FC
:101F4000C2A004F077FD03E0ACE04CE04EE084E09A
:101F5000A868E96800F00C0001F003010C2802D029
:101F600004280DD001E002290AD0E0680028286882
:101F70002AD040F480702860FFF774F9064618E014
:101F80002868400502D5E06800289CD06868217C5C
:101F900020F0FE4040EA01606860BA480068FFF740
:101FA0007FF900287ED11EE0FFF75CF9801B022834
:101FB000A3D828684005F7D56868217C20F0FE404A
:101FC00040EA016068600EE020F480702860FFF74E
:101FD00049F9064604E0FFF745F9801B02288CD832
:101FE00028684005F7D42078000733D56069F0B140
:101FF000012808D000E0AFE14FF4E37193A004F0B2
:1020000019FD606998B1D5F8940040F00100C5F859
:102010009400FFF727F9064604E0FFF723F9801B39
:102020000228C5D8D5F894008007F6D512E0D5F877
:10203000940020F00100C5F89400FFF713F906465C
:1020400004E0FFF70FF9801B0228B1D8D5F89400FF
:102050008007F6D4207840076DD5A068002740B1EE
:10206000012806D0052804D04FF4F97177A004F0B8
:10207000E1FCA86DC00008D4A86D40F08050A865B0
:10208000A86D012700F0805000907F480168C905C5
:1020900012D40168804641F480710160FFF7E2F8D4
:1020A000064605E08EE1FFF7DDF8801B022896D892
:1020B000D8F80000C005F6D5A068012815D005287D
:1020C000D5F8900016D020F00100C5F89000D5F8A2
:1020D000900020F00400C5F89000A06841F2883814
:1020E000B8B1FFF7BFF806460EE0D5F8900040F013
:1020F0000100F0E740F00400C5F89000F5E7FFF7B5
:10210000B1F8811B41458CD8D5F890008007F6D5F1
:102110000CE0FFF7A7F8064604E0FFF7A3F8811BE1
:10212000414592D8D5F890008007F6D41FB1A86D2C
:1021300020F08050A8652078800631D5A069E0B1F4
:10214000012806D040F2392140A004F073FCA069B8
:1021500098B1D5F8980040F00100C5F89800FFF755
:1021600081F8064604E0FFF77DF8801B02289ED820
:10217000D5F898008007F6D512E0D5F8980020F041
:102180000100C5F89800FFF76DF8064604E0FFF778
:1021900069F8801B02288AD8D5F898008007F6D401
:1021A000E069002874D0012809D0022807D040F245
:1021B000622126A004F03EFCE0690028F2D0A86865
:1021C000C0F381000328E0697DD002280FD0286881
:1021D00020F080702860E86820F00300E860E8687C
:1021E0002A490840E860FFF73DF80446B7E0206A56
:1021F00040B1022806D0032804D04FF41B7113A06D
:1022000004F018FC606A401E0F2804D940F26D21CA
:102210000EA004F00FFCA06A0838772804D940F219
:102220006E210AA004F006FCE06A801E1D2804D975
:1022300040F26F2105A004F0FDFB206B022831D095
:1022400004282FD0062824E0001002402E2E2F4410
:102250007269766572732F53544D333247347878F0
:102260005F48414C5F4472697665722F5372632FE9
:1022700073746D3332673478785F68616C5F726352
:10228000632E63002000002000700040FFFFEEFE80
:102290009AE007D0082805D04FF41C71AFF2540023
:1022A00004F0C8FB606B02280BD0042809D0062874
:1022B00007D0082805D040F27121AFF2700004F079
:1022C000B9FB286800E04EE020F080702860FEF73F
:1022D000C9FF064604E0FEF7C5FF801B02283BD875
:1022E00028688001F7D4F4E908016FF00F0202EBCF
:1022F00001110843218A5204490802EB4151A268A6
:1023000041EA02210843217D4FF07E42490802EB59
:1023100041610843217B40EAC160E9682B4A1140D2
:102320000843E860286840F080702860E86840F062
:102330008070E860FEF796FF044604E0FEF792FF27
:10234000001B022808D828688001F7D53CE0FEF77A
:1023500089FF001B022802D90320BDE8F883286802
:102360008001F4D430E00128F7D0E868226A00F058
:102370000301914226D1616A00F0F002090110398F
:1023800091421FD1A26A00F4FE41B1EB022F19D194
:1023900094F82C2000F07841B1EBC26F12D1218E5D
:1023A00000F4C00249084905A1F50011914209D184
:1023B00094F8341000F0C06049084906A1F100719A
:1023C000814201D00120C8E70020C6E70C809F01B0
:1023D00070B50446406D002538B1FEF75FFB20B1B3
:1023E000206E40F0100020660125A06D38B1FEF788
:1023F00055FB20B1206E40F01000206601252068BA
:10240000416821F003014160012084F85D00284605
:1024100070BD00000349884202D10349FF200870C3
:102420007047000010010020140000202DE9F04149
:1024300004007CD0A149206888420AD0A049884283
:1024400007D0A049884204D040F247119EA004F072
:10245000F1FA60684FF4827630B1B04204D04FF4A4
:10246000A47199A004F0E6FAA0684FF4806748B11F
:10247000B84207D0B0F5004F04D040F2491192A005
:1024800004F0D8FAE0684FF470684FF4E065404516
:1024900026D0B0F5606F23D0B0F5506F20D0B0F5E6
:1024A000406F1DD0B0F5306F1AD0B0F5206F17D047
:1024B000B0F5106F14D0B0F5006F11D0A8420FD056
:1024C000B0F5C06F0CD0B0F5A06F09D0B84207D0FE
:1024D000B0F5407F04D04FF4A5717BA004F0AAFAB8
:1024E000A069B0F5007F08D038B1B0F5802F04D0D6
:1024F00040F24B1174A004F09DFA606B082805D0DF
:1025000020B14FF4A67170A004F094FAE069A0B174
:10251000082812D0102810D018280ED020280CD04F
:1025200028280AD0302808D0382806D000E036E025
:1025300040F24D1164A004F07DFA206A30B1802889
:1025400004D04FF4A77160A004F074FA606A002709
:1025500040B3102806D040F24F115BA004F06AFA95
:10256000606AF8B1E06990B1082810D010280ED048
:1025700018280CD020280AD0282808D0302806D0C7
:10258000382804D040F261114FA004F053FA2761BB
:102590006761A76294F85D00002831D035E0012022
:1025A000BDE8F081206930B1022804D04FF4A97150
:1025B00045A004F03FFA606930B1012804D040F230
:1025C000531141A004F036FA6068B04216D1E069B8
:1025D0000028DED00828DCD01028DAD01828D8D07F
:1025E0002028D6D02828D4D03028D2D03828D0D00F
:1025F00040F2571134A004F01DFACAE7E761C8E7BA
:1026000084F85C70204600F07BF8022084F85D00BE
:102610002068016821F040010160E068A84203D908
:102620000021404502D104E04FF48051A84200D07F
:10263000A762A088228900F4827002F40442104349
:10264000227C02F002021043227D02F001021043BC
:10265000228B02F400721043227F02F038021043F2
:1026600094F8202002F080021043228D02F40052E0
:10267000104322681060A069042202EA104094F816
:10268000242001F4805102F01002104394F8342009
:1026900002F008021043A28902F47062104308435A
:1026A000216848602068C16921F40061C161276622
:1026B000012084F85D00002072E700000030014036
:1026C00000380040003C00402E2E2F447269766591
:1026D00072732F53544D3332473478785F48414CEE
:1026E0005F4472697665722F5372632F73746D3312
:1026F00032673478785F68616C5F7370692E63004D
:102700002DE9F04186B0044614216846FDF71AFE13
:102710003949206888426CD13848016E41F48051B3
:102720000166016E01F480510591C16C41F0020116
:10273000C164C06C022500F002000590182001273A
:102740008DE8A1000526DFF8B880CDE9035669467B
:102750004046FEF7E7FB20208DE8A100CDE90356B7
:1027600069464046FEF7DEFB274D264800262860D6
:102770000A20C5E901064FF08008C5E903686E61CB
:102780004FF44057AE612846C5E90767FEF754FA93
:1027900018B162211DA004F04DF9A565AC621A4D77
:1027A00018486035143028600B20686005F1080176
:1027B000102081E841016E61AE612846C5E90767D6
:1027C000FEF73AFA18B1712110A004F033F96565EB
:1027D000002201210F20AC62FEF7D6FD0F20FEF78C
:1027E000A1FD002201211020FEF7CEFD1020FEF7F2
:1027F00099FD06B0BDE8F0810030014000100240B4
:102800000004004858000240740100202E2E2F437F
:102810006F72652F5372632F7370692E630000000F
:10282000704770472DE9F0470446806D1E4692467A
:102830008946002520B94FF4046176A004F0FAF827
:10284000606D20B940F6410172A004F0F3F8A06871
:1028500020B140F644016FA004F0ECF894F85C005D
:1028600001280DD0012784F85C7094F85D00616840
:102870004FF0000801280CD0B1F5827F07D102E0AB
:102880000220BDE8F087A16809B9042801D002251B
:10289000BBE0B9F1000F29D0BAF1000F26D02EB35A
:1028A00094F85D00042802D0052084F85D00C4F887
:1028B0006080C4F83890A687E687C4F840A0A4F8E2
:1028C0004460A4F84660C4F84C80C4F85080206886
:1028D000416821F4C0414160E068B0F5E06F2068D4
:1028E000416805D921F4805141602FE001258CE039
:1028F00041F480514160606D4FF48061806988428D
:102900000CD194F83C00C0072068426838D042F4EB
:1029100080424260E08F07EB5000E087A06D806945
:10292000884213D12068416821F480514160B4F895
:102930004600C0072068416828D041F4005141603A
:10294000B4F8460007EB5000A4F8460094F85D0088
:10295000042822D0A16D3D4808633D48A16DC8629E
:10296000A16D3C484863A06DC0F83880B4F846308B
:102970002168226C0C31A06DFEF75EFA58BB11E0A5
:1029800022F480424260E08F4008C6E721F4005103
:102990004160B4F846004008D6E7A16D2E480863B0
:1029A0002E48DBE72068416841F001014160606D1D
:1029B000C0F83080606DC0F82C80606DC0F8348045
:1029C000606DC0F83880E38F2268A16B0C32606DB7
:1029D000FEF732FA38B1206E40F010002066012573
:1029E00084F85D7011E020680168490603D401682D
:1029F00041F0400101602068416841F020014160E0
:102A00002068416841F00201416084F85C802846FA
:102A100037E700002E2E2F447269766572732F53AC
:102A2000544D3332473478785F48414C5F44726983
:102A30007665722F5372632F73746D3332673478F7
:102A4000785F68616C5F7370692E63007D47000872
:102A5000F3470008514700087347000887470008FC
:102A60000349884202D103490120087070470000E1
:102A700010010020140000207047000010B54FF036
:102A8000E02404280AD020B14FF4C27105A003F05D
:102A9000D1FF206920F00400206110BD206940F0C2
:102AA0000400F9E72E2E2F447269766572732F5356
:102AB000544D3332473478785F48414C5F447269F3
:102AC0007665722F5372632F73746D333267347867
:102AD000785F68616C5F636F727465782E63000065
:102AE00010B5401EB0F1807F01D3012010BD4FF022
:102AF000E02460610F21601703F0D0FA0020A0618C
:102B000007202061002010BD704770477047704754
:102B1000704770472DE9F05F04460068DFF85C916C
:102B2000DFF85CB1574F0D46484517D0B0F1804FE4
:102B300014D0584512D0544988420FD05349884286
:102B40000CD05349884209D0B84207D05149884235
:102B500004D040F6360150A003F06CFF2868A8B1FD
:102B6000102813D0202811D030280FD040280DD0A5
:102B700050280BD0602809D0702807D0B0F1007F12
:102B800004D040F6370144A003F054FFA868802821
:102B900005D020B140F638013FA003F04BFF94F878
:102BA0003C00012868D04FF0010A84F83CA00220C4
:102BB00084F83D0020684668D0F80880484501D078
:102BC000B84237D1686888B3B0F5801F2ED0B0F511
:102BD000001F2BD0B0F5401F28D0B0F5800F25D0B6
:102BE000B0F5A00F22D0B0F5C00F1FD0B0F5E00FA8
:102BF0001CD0B0F5000F19D0B0F5100F16D0B0F5FD
:102C0000200F13D0B0F5300F10D0B0F5400F0DD01D
:102C1000B0F5500F0AD0B0F5600F07D0B0F5700FC7
:102C200004D040F64A011CA003F004FF26F4700013
:102C30006E6806432748216806402868304348608C
:102C4000206848450CD0B0F1804F09D0584507D0D6
:102C50000D49884204D0B84202D00E49884204D1BE
:102C6000AA6828F080010A43826084F83DA0002011
:102C700084F83C00BDE8F09F0220FBE7002C0140F7
:102C800000040040003401400008004000100040F3
:102C900000140040004001402E2E2F4472697665DA
:102CA00072732F53544D3332473478785F48414C18
:102CB0005F4472697665722F5372632F73746D333C
:102CC00032673478785F68616C5F74696D5F6578CE
:102CD0002E6300008FFFFFFD7047704770B50446FC
:102CE000006801694FF00005C943890715D4C16820
:102CF000C943890711D4E91E0161012020772068AA
:102D000080698007204602D0FFF7E7FF04E000F06B
:102D10001FF9204600F042FB257720680169C9436E
:102D2000490717D4C168C943490713D46FF0040198
:102D30000161022020772068806910F4407F2046DE
:102D400002D0FFF7CAFF04E000F002F9204600F0CD
:102D500025FB257720680169C943090716D4C16896
:102D6000C943090712D46FF00801016104202077DC
:102D70002068C0698007204602D0FFF7AEFF04E05C
:102D800000F0E6F8204600F009FB2577206801698D
:102D9000C943C90617D4C168C943C90613D46FF023
:102DA00010010161082020772068C06910F4407F7D
:102DB000204602D0FFF791FF04E000F0C9F820465A
:102DC00000F0ECFA257720680169C943C90708D1EA
:102DD000C168C943C90704D1891E0161204600F0BA
:102DE000CFFB20680169C943090609D4C168C943FA
:102DF000090605D46FF0800101612046FFF785FECA
:102E000020680169C943C90509D4C168C9430906D5
:102E100005D46FF4807101612046FFF775FE2068CC
:102E20000169C943490609D4C168C943490605D4A3
:102E30006FF040010161204600F0A3FB20680169AA
:102E4000C943890609D4C168C943890605D46FF00E
:102E5000200101612046FFF759FE20680169C9433E
:102E6000C90209D4C168C943C90205D46FF48011ED
:102E700001612046FFF74CFE20680169C9438902C1
:102E800009D4C168C943890205D46FF400110161F6
:102E90002046FFF73CFE20680169C943490209D476
:102EA000C168C943490205D46FF48001016120461D
:102EB000FFF72FFE20680169C94309020BD4C168DE
:102EC000C943090207D46FF4000101612046BDE83F
:102ED0007040FFF701BF70BD10B586B004461421E5
:102EE0006846FDF72FFA2068B0F1804F21D11249D2
:102EF000C86C40F00100C864C86C002100F00100FB
:102F00000590202000900220CDE901010120CDE9AB
:102F1000031069464FF09040FEF704F80021204668
:102F200000F03EFA002804D04FF4867103A003F0AD
:102F300081FD06B010BD0000001002402E2E2F4370
:102F40006F72652F5372632F74696D2E63000000DA
:102F5000704700002DE9F04116000D46044610D0E0
:102F6000042E0ED0082E0CD00C2E0AD0102E08D015
:102F7000142E06D03C2E04D041F26C0195A003F033
:102F800059FD2868602816D0702814D0A0F580312B
:102F9000403910D0A0F5803150390CD0A0F58031E7
:102FA000603908D0A0F58031703904D041F26D014C
:102FB00088A003F03FFDA86830B1022804D041F298
:102FC0006E0184A003F036FD286930B1042804D0D6
:102FD00041F26F017FA003F02DFD94F83C00012821
:102FE00013D0012089498A4B8A4F8B4A84F83C00D0
:102FF0004FF0804C0C2E7DD00ADCDFF820E266B169
:10300000042E35D0082E59D159E00220BDE8F081B8
:10301000102E70D0142EF6D1B9E02068884214D05A
:10302000604512D0984210D0B8420ED090420CD0D9
:1030300070450AD07A49884207D07A49884204D03C
:1030400041F2790163A003F0F5FC2946206801F004
:1030500047FF2068816941F008018161206881692A
:1030600021F004018161206881692A69114324E00B
:10307000206888420ED060450CD098420AD0B842F1
:1030800008D0904206D0704504D041F28A0151A088
:1030900003F0D0FC2946206801F0B0FF2068816968
:1030A00041F4006181612068816921F4806181615E
:1030B000206881692A6941EA0221816185E02068EE
:1030C00088420CD060450AD0984208D0B84206D059
:1030D000904204D041F29B013EA003F0ABFC294694
:1030E000206802F013F82068C16941F00801C1614D
:1030F000206801E009E02DE0C16921F00401C1610F
:103100002068C1692A69114322E0206888420CD0F6
:1031100060450AD0984208D0B84206D0904204D008
:1031200041F2AC012BA003F085FC2946206802F097
:1031300075F82068C16941F40061C1612068C16906
:1031400021F48061C1612068C1692A6941EA0221D4
:10315000C1613AE02068884206D0904204D041F232
:10316000BD011CA003F066FC2946206802F0DEF8D1
:103170002068016D41F0080101652068016D21F0B2
:10318000040101652068016D2A6911431CE0206873
:10319000884206D0904204D041F2CE010DA003F047
:1031A00049FC2946206802F0F9F82068016D41F4D5
:1031B000006101652068016D21F48061016520686E
:1031C000016D2A6941EA02210165002084F83C0072
:1031D0001CE700002E2E2F447269766572732F5300
:1031E000544D3332473478785F48414C5F447269BC
:1031F0007665722F5372632F73746D333267347830
:10320000785F68616C5F74696D2E6300002C01400B
:10321000000400400008004000340140004001402C
:10322000004401400048014010B504004CD03B4927
:10323000206888421FD0B0F1804F1CD038498842A6
:1032400019D03849884216D03749884213D03749B7
:10325000884210D0364988420DD0364988420AD07B
:103260003549884207D03549884204D040F216518A
:1032700033A003F0DFFBA06860B110280AD020283B
:1032800008D0402806D0602804D040F217512CA066
:1032900003F0D0FB206950B1B0F5807F07D0B0F5C6
:1032A000007F04D04FF4A36125A003F0C3FBA06905
:1032B00030B1802804D040F2195121A003F0BAFBAC
:1032C00094F83D0010B107E0012010BD002084F803
:1032D0003C00204600F050F8022084F83D00211DFB
:1032E000206801F03BFD012084F8480084F83E008E
:1032F00084F83F0084F8400084F8410084F84200DC
:1033000084F8430084F8440084F8450084F84600BB
:1033100084F8470084F83D00002010BD002C0140D7
:10332000000400400008004000100040001400406D
:103330000034014000400140004401400048014089
:103340002E2E2F447269766572732F53544D33328B
:10335000473478785F48414C5F4472697665722FD4
:103360005372632F73746D3332673478785F68619A
:103370006C5F74696D2E630008B50068B0F1804F12
:1033800008D10548816D41F001018165806D00F033
:103390000100009008BD00000010024070470000CE
:1033A0002DE9F05F05460068DFF87C81DFF87CA13D
:1033B000DFF87CB1DFF87C915F4E604F0C464045F2
:1033C0000BD1002C57D0042C58D0082C59D00C2CE1
:1033D0004ED0102C58D0142C3BD0B0F1804F40D0A0
:1033E000504506D1E4B3042C48D0082C49D00C2C0D
:1033F0003ED05349884206D194B3042C3ED0082CC9
:103400003FD00C2C34D0B0420AD14CB3042C35D070
:10341000082C36D00C2C2BD0102C35D0142C18D0D6
:10342000B84202D1E4B1042C28D0584500D1BCB137
:10343000484500D1A4B140F29E5142A003F0FAFAEF
:1034400074B1042C1AD0082C1BD00C2C10D0102CCA
:103450001AD095F84300012819D00120BDE8F09F4B
:1034600009E044B1042C09D0082C0AD00C2CE2D17C
:1034700095F84100EFE795F83E00ECE795F83F003E
:10348000E9E795F84000E6E795F84200E3E7022017
:10349000D4B3042C3CD0082C3DD00C2C3ED0102CA6
:1034A0003FD085F8430001222146286801F0AEFC98
:1034B0002868404507D0B04205D0B84203D05845EF
:1034C00001D0484503D1426C42F40042426428686E
:1034D00040450BD0B0F1804F08D0504506D0184978
:1034E000884203D0B04201D0B84207D18168234A54
:1034F0001140062906D0B1F5803F03D0016841F0A4
:10350000010101600020A9E7FFE785F83E00CAE756
:1035100085F83F00C7E785F84000C4E785F841001B
:10352000C1E785F84200BEE7002C014000040040DE
:103530000044014000480140003401400040014087
:10354000000800402E2E2F447269766572732F5347
:10355000544D3332473478785F48414C5F44726948
:103560007665722F5372632F73746D3332673478BC
:10357000785F68616C5F74696D2E630007000100FD
:103580007047704710B5044600681949884210D04A
:10359000184988420DD0184988420AD017498842F4
:1035A00007D01749884204D040F2112115A003F03A
:1035B00041FA94F87C00012818D0012084F87C009E
:1035C0002420C4F8800054F8600B0168026822F0DF
:1035D0000102026021F000500021616054F8602C6B
:1035E0001060202020622177084610BD022010BD07
:1035F000003801400044004000480040004C0040BA
:10360000008000402E2E2F447269766572732F530E
:10361000544D3332473478785F48414C5F44726987
:103620007665722F5372632F73746D3332673478FB
:10363000785F68616C5F756172745F65782E630096
:103640007047000070B50D46044600682649884260
:1036500010D0264988420DD0254988420AD02549F4
:10366000884207D02449884204D04FF41C7123A01B
:1036700003F0E0F99DB1B5F1007F10D0B5F1806F96
:103680000DD0B5F1C06F0AD0B5F1006F07D0B5F11C
:10369000206F04D040F2712118A003F0CBF994F808
:1036A0007C0001281DD0012084F87C002420C4F86F
:1036B000800020680668016821F00101016020682F
:1036C000816821F0606129438160204601F06CFF30
:1036D000206806602020C4F88000002084F87C0068
:1036E00070BD022070BD0000003801400044004061
:1036F00000480040004C0040008000402E2E2F4427
:103700007269766572732F53544D3332473478782B
:103710005F48414C5F4472697665722F5372632F24
:1037200073746D3332673478785F68616C5F75618C
:1037300072745F65782E630070B50D4604460068AC
:103740002649884210D0264988420DD02549884212
:103750000AD02549884207D02449884204D040F243
:103760003F2123A003F066F99DB1B5F1005F10D0B1
:10377000B5F1804F0DD0B5F1C04F0AD0B5F1004F73
:1037800007D0B5F1204F04D04FF4107118A003F00A
:1037900051F994F87C0001281DD0012084F87C00A8
:1037A0002420C4F8800020680668016821F0010127
:1037B00001602068816821F06041294381602046D2
:1037C00001F0F2FE206806602020C4F8800000208E
:1037D00084F87C0070BD022070BD000000380140FC
:1037E0000044004000480040004C00400080004081
:1037F0002E2E2F447269766572732F53544D3332D7
:10380000473478785F48414C5F4472697665722F1F
:103810005372632F73746D3332673478785F6861E5
:103820006C5F756172745F65782E630070477047D6
:10383000704700002DE9F04102680446D069116824
:10384000936840F60F0528424FF0000507D1C606E1
:103850007ED5CE067CD510201062E16E9DE0614ED3
:10386000614F1E400F40374372D0C70709D0CF05C4
:1038700007D501271762D4F8882042F00102C4F866
:10388000882082070AD5DA0708D0276802223A6220
:10389000D4F8882042F00402C4F8882042070AD5F0
:1038A000DA0708D0276804223A62D4F8882042F068
:1038B0000202C4F8882002070CD501F0200232432E
:1038C00008D0266808223262D4F8882042F0080224
:1038D000C4F8882002050BD54A0109D526684FF4A3
:1038E00000623262D4F8882042F02002C4F88820B6
:1038F000D4F88820002A33D0800609D501F02000B2
:1039000003F08051084303D0E16E09B12046884797
:10391000D4F8880021688968490602D410F0280F7D
:1039200020D0204601F0B2FF20688168490614D5F6
:10393000816821F040018160A06F70B12B498163E3
:10394000A06FFDF7E0F800280AD0A06F816B01E0BE
:103950000EE02046BDE8F04108472046FFF768FF2B
:10396000BDE8F0812046FFF763FFC4F88850F7E711
:10397000C60209D55E0207D54FF4801010622046BA
:10398000BDE8F041FFF753BF060609D501F08006F8
:1039900003F400031E4303D0216F0029D9D1DFE7D0
:1039A00043060DD54B060BD51168204621F040018A
:1039B00011602021C4F88010256700F057F9CFE787
:1039C000020206D54A0004D52046BDE8F041FFF7C3
:1039D0002DBFC001C4D50029C2DA2046BDE8F041A0
:1039E000FFF72EBE010000102001000477580008E8
:1039F00070B5040015D0A0692A4900282A4A2B4B2B
:103A00002B4D2C4E20680ED088421BD0904219D0EE
:103A1000984217D0A84215D0B04213D040F23511C9
:103A20000DE0012070BD88420CD090420AD098422F
:103A300008D0A84206D0B04204D04FF49D711EA019
:103A400002F0F8FFD4F8800028B9002084F87C0048
:103A5000204600F04FF82420C4F880002068016858
:103A600021F001010160204601F022FF0128D9D098
:103A7000A06A10B1204601F0C9FD2068416821F418
:103A8000904141602068816821F02A0181602068AE
:103A9000016841F0010101602046BDE8704001F07D
:103AA000BBBE000000380140004400400048004018
:103AB000004C0040008000402E2E2F447269766535
:103AC00072732F53544D3332473478785F48414CEA
:103AD0005F4472697665722F5372632F73746D330E
:103AE00032673478785F68616C5F756172742E63D9
:103AF000000000002DE9F04387B004461421684619
:103B0000FCF720FC4F4A21684F4807261027002564
:103B10004FF0020C4FF001084FF090434FF0800936
:103B2000914234D1816D41F400318165816D01F4A0
:103B300000310591C16C41F00101C164C06CCDF848
:103B4000088000F0010005900C20CDE9000CCDE9C3
:103B5000035669461846FDF7E5F93D4E3B4830608F
:103B60001B207060C6E90275C6E904953802B5618C
:103B7000C6E907503046FDF75FF818B1A22135A01D
:103B800002F058FF6667B46207B0BDE8F083364ABA
:103B90009142F9D1016E41F480410166016E01F458
:103BA00080410591C16C41F00101C164C06CCDF848
:103BB000088000F0010005904FF4C060CDE9000CD2
:103BC000CDE9035669461846FDF7ACF9204E1F486B
:103BD000C036143830601920C6E90107C6E9035918
:103BE0007561B561F5614F4630463562FDF724F8E1
:103BF00018B1C82117A002F01DFF6667B462144E09
:103C000012486036283830601820C6E90105C6E938
:103C1000035720207561C6E9065000023062304625
:103C2000FDF70AF818B1D8210AA002F003FFA66731
:103C3000002211462520B462FDF7A6FB2520FDF7E2
:103C400071FBA1E700440040001002403000024038
:103C50007C0400202E2E2F436F72652F5372632F2A
:103C600075736172742E6300003801400068034967
:103C7000884202D102490120087070470038014093
:103C800000000020FEE70000214808B5816C41F0EB
:103C900004018164816C01F004010091816C41F0A8
:103CA00001018164806C002200F001000090114647
:103CB0000B20FDF769FB0B20FDF734FB00220421EC
:103CC0000C20FDF761FB0C20FDF72CFB00220221EC
:103CD0000D20FDF759FB0D20FDF724FB00220521E7
:103CE0000E20FDF751FB0E20FDF71CFB00220121E9
:103CF0000F20FDF749FB0F20FDF714FB00220121E7
:103D00001020FDF741FBBDE808401020FDF70ABB7D
:103D1000001002402DE9F04387B014216846FCF7FB
:103D200011FB3948C16C41F02001C164C16C01F044
:103D300020010591C16C41F04001C164C16C01F0EA
:103D400040010591C16C41F00101C164C16C01F0F9
:103D500001010591C16C41F00201C164C06C4FF4D6
:103D6000004700F002004FF09048059000223946CD
:103D70004046FDF743FADFF8949000228021484640
:103D8000FDF73CFA78110326CDE9000600256946C7
:103D900002951F48FDF7C6F84FF41760CDE90006FD
:103DA000694602954046FDF7BDF8012440F2011036
:103DB000CDE90004CDE9024669464846FDF7B2F870
:103DC0002003CDE90004694640460294FDF7AAF8B5
:103DD000CDE9007469464046CDE90245FDF7A2F8F9
:103DE0004020CDE90005694602944846FDF79AF85F
:103DF0008020CDE9000469464846CDE90245FDF73B
:103E000091F807B0BDE8F0830010024000040048BC
:103E100000180048134810B5114901604FF4827131
:103E2000416000214FF4E062C0E902120122C0E9C2
:103E30000412520282610822C0E90721072241626E
:103E4000C0E90A1201634163FEF7F0FA18B13221AA
:103E500005A002F0EFFDBDE81040642002F024BE92
:103E600000300140100100202E2E2F436F72652F6D
:103E70005372632F7370692E630000002DE9FE4FAB
:103E8000834644F62060834500D9834600200746D8
:103E9000804605464FF0FF3A8146064617E000F09F
:103EA00057F884B2224618A1002000F0A1FAA4F528
:103EB0007F40FF380AD014EB080847F100076D1C5B
:103EC000544500D2A2464C4500D9A146761C5E4519
:103ED000E5D39DB12A46002340463946FCF79AF9BE
:103EE00075B149465246CDE9000202912B465A4629
:103EF00007A1002000F07CFABDE8FE8F0020EFE76C
:103F000000210A46EFE7000025640D0A00000000CA
:103F100052657065617453696D706C653A207265A5
:103F2000713D256C752C2076616C69643D256C753E
:103F30002C206D65616E3D256C752C206D696E3D84
:103F4000256C752C206D61783D256C750D0A00007F
:103F50002DE9FC4102F0C2FD194F7C68684600F073
:103F600021FE9DED010ADFED170A0098B8EE400A28
:103F700049F269214843000C20EE200ADFED120AC5
:103F800060F30F0511A620EE200ABCEEC00A10EE69
:103F9000100A60F31F457868124A041B1048126823
:103FA000A4FB00010023FCF735F9009023463246BC
:103FB0000DA1002000F01CFA2846BDE8FC8100009D
:103FC000001000E00000803700401C454D65617323
:103FD0005F53696E676C65506F696E740000000016
:103FE00040420F002C00002025733A20256C7520DC
:103FF0006379636C65732C20256C752075730D0ACD
:10400000000000002DE9F35F002683463546344664
:1040100002F064FD274FD7F80490DFF89CA0D7F892
:104020000480FFF795FF7868A0EB08018E19786887
:1040300045F10005DAF80010A0EB0900641C884285
:10404000EDD3BBF1000F01D0CBF80040019880B157
:1040500064B32246002330462946FCF7DBF81749B3
:104060000023A0FB0101DAF80020FCF7D3F8019946
:104070000860ECB12246002330462946FCF7CAF816
:104080000E4A0023A0FB025601FB026100FB031154
:104090002846DAF80020FCF7BDF802B02246BDE859
:1040A000F05F034606A1002000F0A2B90020D6E789
:1040B0000020F2E7001000E02C00002040420F003A
:1040C0004D6561735F53746174735F31733A20633C
:1040D0006F756E743D256C752C206176673D256C7F
:1040E000752075730D0A000000210846FFF78ABF8E
:1040F00030B5E5B01049002000F07AF900246D4693
:10410000FFF726FF83B205EB840125F82430000C6D
:104110004880224609A1002000F06AF90A2002F036
:10412000B5FC641CA4B2642CEAD33C22642168462A
:1041300002F024FC65B030BDBC41000873616D70B5
:104140006C6520256420202064697374616E63654A
:104150003A2025640A000000FEE77047704700001F
:1041600010B5312809D0322822D0332824D1BDE817
:10417000104041F28830FFF781BE10A1002000F00E
:1041800037F9FFF7B5FF124CA0F57F41FF392080CA
:1041900012D010A1002000F02BF9228817A10020D6
:1041A00000F026F9BDE810400AA1002000F020B977
:1041B000BDE81040FFF798BF10BD00004D6561736A
:1041C0007572656D656E742053746172740D0A00AA
:1041D000040000201B5B323B33326D3D3D3D3D3DD5
:1041E0003D3D3D3D3D3D3D3D3D3D3D3D3D3D3D3DFF
:1041F0003D3D3D3D3D3D3D3D0D0A00001B5B323BDD
:1042000033326D417665726167652044697374610C
:104210006E63653A2025640D0A00000010B5EFF3C7
:104220001184202383F3118800F004F8E1B281F3B4
:10423000118810BD2DE9F0471B4D0446164628781D
:104240000F4608B901F07AFD04EB440005EBC00508
:10425000B846D5E91B94002760354C4511D9A868AC
:10426000071BB74200D3374668683A4601194046F3
:10427000FCF74FF8A868F61B3C44B844A04200D1B4
:104280000024A9EB0400B04200D206463EB16868A3
:10429000324601194046FCF73CF83744344407B134
:1042A0002C613846BDE8F0879C0500202DE9F05FC1
:1042B000824628488B46007808B901F03FFD4FF050
:1042C000FF37BAF1100F40D2DFF88890584609F155
:1042D0001809FCF742F80546EFF31188202080F317
:1042E0001188484601F05EFD044699F814001A4E04
:1042F00010F0030004D0012807D0022807D11FE0E6
:10430000281D84421CD2002415E0042C01D23C4616
:1043100011E05146484601F051FD201F854200D36F
:1043200005462A465946484601F03FFE0446317884
:10433000484601F043FD08F0FF0080F3118805E0D6
:104340005146484601F03AFDEBE73C462046BDE8C1
:10435000F09F00009C050020300000202DE9F04176
:1043600007460B4815460E46007808B901F0E6FCF2
:10437000EFF31184202080F311882A463146384615
:1043800000F008F8E1B281F31188BDE8F081000087
:104390009C05002070B50E46144900EB400001EB6F
:1043A000C0051446E86A183520B101280FD002284C
:1043B00005D113E0284601F0F5FCA04201D200240B
:1043C00011E022463146284601F01CFE0BE028464B
:1043D00001F0E8FCA042F4D20446F2E73146284658
:1043E00001F0E3FD0446204670BD00009C0500205E
:1043F0000FB408B504A900916A46039900F004F8C7
:1044000001B05DF814FB00002DE9F74F16462DEDC5
:10441000068B98B007A80C4602904020039000201D
:1044200004909FEDA4AB1E99CDE9050114F8011B82
:10443000002973D025290AD002A801F097FD05981C
:104440000028F3DA18B0BDEC068BBDE8FE8F00251E
:1044500001212078232820D02B281BD02D2802D002
:10446000302808D102E045F0010501E045F00205E1
:10447000641C0029EDD14FF000082078A0F1300134
:104480000A290DD208EB880100EB4100A0F13008A9
:10449000641CF2E745F00405EAE745F00805E7E7A4
:1044A0000027C1B22E290CD1641C2078A0F1300164
:1044B0000A2906D207EB870100EB4107641C303F55
:1044C000F3E76C280DD068280BD066285AD00BDC97
:1044D000252852D0582829D063280ED064281CD112
:1044E00010E014F8010FECE770283AD0732829D0B7
:1044F000752814D0782810D118E03068011D31607B
:1045000001783BE030683B46011D31600168CDE930
:1045100000850A2202A801F061FCB9E0BAE0306827
:104520003B46011D31600A22016805E030683B46C8
:10453000011D316001681022CDE9008502A801F05B
:10454000AFFCA5E03068011D3160056815F8011B5E
:10455000002905D002A801F009FD05980028F5DA28
:1045600096E030680022011D316001680820CDE925
:1045700000020346102202A8E1E7252102A801F06B
:10458000F5FC85E04FF001094FF00A0A07B9022750
:104590003068C01D20F0070000F10801316090ED87
:1045A000008B51EC180BFCF712F81790FBF7FEFF8D
:1045B00053EC182BFBF785FFB0EE4A0AF0EE6A0ABF
:1045C00041EC180B53EC102BFCF73AF80CD251ECE1
:1045D000180B81F0004141EC180B05E00AEB8A0052
:1045E00009F101094FEA400A179890FBFAF00028F8
:1045F000F4D182469FED319B09E053EC192B51EC2D
:10460000180BFBF761FF41EC180B0AF1010ABA45E0
:10461000F3D309EB070000F1010BD8450FD9E807E8
:104620000DD18246A8EB0B00009006E0202102A8E5
:1046300001F09CFC00980AF1010A5045F6D84FF0B1
:10464000000ACDE9009A4B460A2202A8179901F008
:10465000C5FB2E2102A801F089FC51EC180BFBF7D9
:10466000D5FFCDE9007A01463B460A2202A801F0B7
:1046700017FCD8450CD9E8070AD00025A8EB0B0792
:1046800004E0202102A801F071FC6D1CAF42F8D8B3
:10469000641CD4E600287FF7D5AE049820B102460A
:1046A00007A91E98FFF75AFEDDE90410084405909B
:1046B000C8E600000000000000000000000000004C
:1046C000000024401C4810B51A4901604FF4E13144
:1046D0004160002181600C22C160C0E90412816147
:1046E000C161016241628162FFF782F918B16D21F7
:1046F00012A002F09FF900210F48FFF71DF818B132
:1047000071210EA002F096F900210B48FEF79AFFE6
:1047100018B1742109A002F08DF90748FEF732FFA5
:10472000002805D0BDE81040772104A002F082B92E
:1047300010BD000000380140F00300202E2E2F4352
:104740006F72652F5372632F75736172742E6300DD
:1047500010B5806A01684A6822F003024A60016E5F
:1047600041F010010166012180F85D10FDF752FE55
:1047700010BD10B5806AFEF754F810BD10B5806A00
:10478000FEF77AF910BD70B50546846AFCF76AFD3C
:10479000024628680068800627D42068416821F016
:1047A00020014160A06818B96068B0F5827F17D019
:1047B0002068416821F0010141606421204600F039
:1047C00046F808B1202020660020A4F84600012009
:1047D00084F85D00206E40B12046FDF71BFE70BDE1
:1047E0002068416821F00301E6E72046FEF718F84B
:1047F00070BD70B50546846AFCF734FD0246286832
:10480000006880061FD42068416821F020014160C3
:104810006421204600F055F818B1206E40F02000C9
:1048200020662068416821F0030141600020E08794
:10483000A4F84600012084F85D00206E18B12046DF
:10484000FDF7E8FD70BD2046FEF70AF970BD2DE9C1
:10485000F843044640684FF48276154689464FF483
:1048600000474FF48068B04209D1A068B84201D037
:10487000404504D12068016821F0400101604B46A9
:10488000002280212046009500F0C6F880B96068BB
:10489000B04214D1A068B84201D040450FD14B4678
:1048A00000224FF4C0612046009500F051F830B16D
:1048B000206E40F0200020660320BDE8F883002031
:1048C000FBE7F8B515460E460B460092044600225B
:1048D0004FF4C05100F03CF888B9334600228021E3
:1048E0002046009500F098F848B9334600224FF46E
:1048F000C0612046009500F02BF8002804D0206EFF
:1049000040F0200020660320F8BD000010B50146ED
:1049100002A001F099FB002010BD00003C3C2D538B
:1049200050492D4552524F522D3E3E205350492062
:10493000E7AD89E5BE85E8B685E697B62165727272
:104940006F72436F6465203D2025640A00000000FB
:104950002DE9F84F994616460F4604460A9DFCF786
:1049600081FC411BA9EB0105FCF77CFC8046294832
:104970004FF4C06A0068C0EBC00000EB8000000D7F
:10498000684300903FE0574501D106B9007BB9F17B
:10499000FF3F38D0FCF766FCA0EB0800A84203D22A
:1049A00015B1009860B32CE02068416821F0E00167
:1049B00041606068B0F5827F0BD1A068B0F5004F10
:1049C00002D0B0F5806F04D12068016821F0400169
:1049D0000160A06AB0F5005F09D12068016821F488
:1049E000005101602068016841F40051016001201C
:1049F00084F85D00002084F85C000320BDE8F88F97
:104A00000025401E0090206881683940B142BAD12B
:104A10000020F3E72C0000202DE9F8431E469146C4
:104A200088460446089DFCF71DFC401B351AFCF720
:104A300019FC074625480068C0F3CB30684338E0CE
:104A4000701C37D0FCF70EFCC01BA84203D215B176
:104A5000009860B32CE02068416821F0E0014160DB
:104A60006068B0F5827F0BD1A068B0F5004F02D02E
:104A7000B0F5806F04D12068016821F04001016029
:104A8000A06AB0F5005F09D12068016821F40051E7
:104A900001602068016841F400510160012084F840
:104AA0005D00002084F85C000320BDE8F883002549
:104AB000401E00902068816838EA010004D0002080
:104AC0004845BDD10020F0E70120F9E72C00002087
:104AD0007047FCF7CDBB000010B5A4B03821684684
:104AE000FBF730FC14211FA8FBF72CFC44210EA877
:104AF000FBF728FC0020FCF7D5FC01200090000407
:104B0000019002200324CDE907045021CDE90901D9
:104B10000B900C900D906846FDF794F920B140F28F
:104B2000391114A001F086FF0F20CDE91F040024E5
:104B30002194229404211FA82394FCF7A7FF20B1FD
:104B40004FF4A2710BA001F075FF48F20300CDE90C
:104B50000E044FF000501D9010940EA8FCF72EFD8F
:104B6000002804D040F24D1102A001F063FF24B0F0
:104B700010BD00002E2E2F436F72652F5372632FCE
:104B80006D61696E2E6300000548016841F4700193
:104B9000016003494FF000608039086070470000F1
:104BA00088ED00E02DE9F0414FF400544FF09045BE
:104BB000A7000646AF62702000F082F8AF610820BF
:104BC000A862A861A861A86219480AE02146641E8B
:104BD0000A2906D86FF07F400021C6E90001BDE830
:104BE000F08101684906F1D4AF62BB2000F068F89B
:104BF000002000F01FF8AF61AF62B02000F060F855
:104C0000002000F017F80446AF6100BF00BF00BFEE
:104C1000AF62C02000F054F8002000F00BF8AF6144
:104C200000BF00BF00BF001BC6E90040D7E700007F
:104C3000100400481CB500210091010C8DF80410EF
:104C4000010A8DF805108DF806000322694601A8B7
:104C500000F04AF820B10020FFF758FE00201CBDEC
:104C60009DF800009DF80110000440EA01209DF825
:104C7000021008431CBD1CB500210191010E8DF8E6
:104C80000010010C8DF80110010A8DF802108DF84A
:104C90000300042201A9684600F026F820B1002094
:104CA000FFF734FE00201CBDBDF804009DF806107F
:104CB00040BA000440EA01209DF8071008431CBDDB
:104CC0001CB501228DF8040000208DF80000694613
:104CD00001A800F009F820B10020FFF717FEC0B2CC
:104CE0001CBD9DF800001CBD70B5144D0C46002184
:104CF00029701346014622461148FDF793FD4FF0F7
:104D0000FF3608B12E7015E0FCF7ACFA04460AE055
:104D1000FCF7A8FA001B0A2805D90948FDF758FB3B
:104D20002E70032070BD28780028F1D095F900007E
:104D3000002801DC012070BD002070BD140000209F
:104D4000100100200148FDF7C9BF00003402002017
:104D50000148FDF7C3BF0000CC0200202DE9F0435D
:104D60000268234C234D244E244B4FF08049A0422F
:104D700007D0484505D0A84203D0B04201D09842A0
:104D800003D122F070074A683A431D4FDFF874C020
:104D9000DFF87480A0420DD048450BD0A84209D05E
:104DA000B04207D0984205D0B84203D0604501D048
:104DB000404503D122F44075CA682A434D6922F068
:104DC00080022A4302608A68C2620A688262A04244
:104DD00007D0984205D0B84203D0604501D0404585
:104DE00001D10969016301214161BDE8F08300003F
:104DF000002C014000040040000800400034014045
:104E000000400140004401400048014070B50446A4
:104E10001E4816460D46844219D0B4F1804F16D074
:104E20001B48844213D01B48844210D01A48844245
:104E30000DD01A4884420AD01948844207D0194834
:104E4000844204D041F6856117A001F0F3FD85B1DD
:104E5000042D0ED0082D0CD00C2D0AD0102D08D00A
:104E6000142D06D03C2D04D041F686610EA001F031
:104E7000E1FD05F01F000121226A81408A43226280
:104E8000216A86403143216270BD0000002C014040
:104E90000004004000080040003401400040014090
:104EA00000440140004801402E2E2F44726976656F
:104EB00072732F53544D3332473478785F48414CE6
:104EC0005F4472697665722F5372632F73746D330A
:104ED00032673478785F68616C5F74696D2E630047
:104EE0002DE9F05F0446006A0D4620F001002062C3
:104EF000216A6768A0692D4AAE6810402A6820F0D0
:104F0000030042EA000821F00200DFF8A490064303
:104F1000DFF8A0A0DFF8A0B04C4509D0544507D079
:104F20005C4505D02548844202D0254884420ED1F4
:104F3000E86830B1082804D041F6243121A001F0FE
:104F400079FDE86826F00801084320F004064C4586
:104F500009D0544507D05C4505D01848844202D09A
:104F60001748844219D1A869B0F5007F05D020B157
:104F700041F6313113A001F05DFD6869B0F5807F25
:104F800005D020B141F632310EA001F053FD27F4D7
:104F900040716869AF69084307436760C4F81880C7
:104FA000686860632662BDE8F09F00008FFFFEFF27
:104FB000002C014000340140004001400044014009
:104FC000004801402E2E2F447269766572732F536C
:104FD000544D3332473478785F48414C5F447269AE
:104FE0007665722F5372632F73746D333267347822
:104FF000785F68616C5F74696D2E63002DE9F0471E
:105000000446006A0D4620F010002062216A67689D
:10501000A0692A4ADFF8A89010402A6820F440705E
:1050200040EA022821F02000A968DFF898A040EAB1
:1050300001164C4501D054450FD1E86830B108281D
:1050400004D041F66F3120A001F0F4FCE96826F0AD
:10505000800040EA011020F040064C450AD054453B
:1050600008D02748844205D02648844202D02648EA
:1050700084421BD1A869B0F5007F05D020B141F66C
:105080007D3111A001F0D6FC6869B0F5807F05D0B4
:1050900020B141F67E310CA001F0CCFC696927F407
:1050A000406040EA8100A96940EA81076760C4F86E
:1050B00018806868A0632662BDE8F087FF8FFFFE56
:1050C000002C0140003401402E2E2F447269766579
:1050D00072732F53544D3332473478785F48414CC4
:1050E0005F4472697665722F5372632F73746D33E8
:1050F00032673478785F68616C5F74696D2E630025
:105100000040014000440140004801402DE9F047C3
:105110000446006A0D4620F480702062216A6768A8
:10512000E0692A4ADFF8A89010402A6820F00300BE
:1051300042EA000821F40070A968DFF898A040EA6C
:1051400001264C4501D054450FD1E86830B10828FC
:1051500004D041F6BA3120A001F06CFCE96826F4D5
:10516000006040EA012020F480664C450AD0544596
:1051700008D02748844205D02648844202D02648D9
:1051800084421BD1A869B0F5007F05D020B141F65B
:10519000C73111A001F04EFC6869B0F5807F05D0E1
:1051A00020B141F6C8310CA001F044FC696927F434
:1051B000405040EA0110A96940EA01176760C4F84D
:1051C0001C806868E0632662BDE8F0878FFFFEFF01
:1051D000002C0140003401402E2E2F447269766568
:1051E00072732F53544D3332473478785F48414CB3
:1051F0005F4472697665722F5372632F73746D33D7
:1052000032673478785F68616C5F74696D2E630013
:105210000040014000440140004801402DE9F047B2
:105220000446006A0D4620F480502062216A6768B7
:10523000E0692A4ADFF8A89010402A6820F44070FC
:1052400040EA022821F40050A968DFF898A040EA5B
:1052500001364C4501D054450FD1E86830B10828DB
:1052600004D041F6054120A001F0E4FBE96826F4F2
:10527000004040EA013020F480464C450AD05445B5
:1052800008D02748844205D02648844202D02648C8
:1052900084421BD1A869B0F5007F05D020B141F64A
:1052A000124111A001F0C6FB6869B0F5807F05D0FE
:1052B00020B141F613410CA001F0BCFB696927F451
:1052C000404040EA8110A96940EA81176760C4F84C
:1052D0001C80686820642662BDE8F087FF8FFFFEAF
:1052E000002C0140003401402E2E2F447269766557
:1052F00072732F53544D3332473478785F48414CA2
:105300005F4472697665722F5372632F73746D33C5
:1053100032673478785F68616C5F74696D2E630002
:1053200000400140004401400048014030B5026A9D
:1053300022F480320262056A4268036D114C2340F8
:105340000C681C4325F400330D8943EA05430E4DD8
:10535000A8420BD00D4DA84208D00D4DA84205D053
:105360000C4DA84202D00C4DA84204D14D6922F444
:10537000803242EA05224260046549688164036222
:1053800030BD00008FFFFEFF002C014000340140C3
:1053900000400140004401400048014030B5026A2D
:1053A00022F480120262056A4268036D114C2340A8
:1053B0000C6843EA042425F400130D8943EA0553DD
:1053C0000D4DA8420BD00D4DA84208D00C4DA8425F
:1053D00005D00C4DA84202D00B4DA84204D14D6916
:1053E00022F4802242EA8522426004654968C16451
:1053F000036230BDFF8FFFFE002C014000340140EE
:1054000000400140004401400048014070B500F0F8
:1054100083F81148802404604FF47A75284601F01F
:1054200043FB0D4910390C60284601F03DFB0BA0F1
:1054300000F00AFEFEF7EEFC0CA000F005FE10489E
:105440000068016841F04001016000F025F8BDE806
:1054500070400CA000F0F8BD28040048746463207C
:105460006861732072657365740A00007464632058
:1054700073706920696E6974206F6B0A0000000008
:10548000100100207464632072657320696E697472
:10549000206F6B0A0000000070B54FF09045154E6C
:1054A0004FF40044AC625020FFF70AFCAC6100BF2F
:1054B00000BF00BFAC628020FFF702FC3046FFF760
:1054C000DAFBAC6100BF00BF00BFAC627020FFF729
:1054D000F7FBAC61AC62BC20FFF7F2FB0020FFF7EA
:1054E000EFFB0146AC61BDE87040102202A000F065
:1054F000ABBD000010245822636F6E66696720728E
:1055000065676973743A20307825303278203078B6
:10551000253032780A0000002DE9F04186B01421D0
:105520006846FAF70FFF1E48C16C41F00201C164E2
:10553000C16C01F002010591C16C41F00101C1642F
:10554000C06C012400F00100059003200827CDE97C
:105550000240CDE900744FF0904669463046FBF7B3
:10556000E1FC02208025CDE90240CDE90054DFF8BE
:10557000348069464046FBF7D5FC4020009000206F
:10558000CDE9010469464046FBF7CCFCE003B0617D
:10559000B76204482830056006B0BDE8F08100001D
:1055A00000100240000400483FB514A1D1E90021D9
:1055B000CDE9002113A1D1E90021CDE90221416EFD
:1055C000B9B1026891689268C1F34261520F1DF847
:1055D0000240E50002ACA25CB5FBF2F2A0F86A2042
:1055E0001DF80120615CD200B2FBF1F1A0F8681057
:1055F0003FBD0121A0F86A10F8E700000101010396
:1056000007010000080402040801010170B5044606
:10561000806AFF2804D940F624416CA001F00AFA00
:1056200094F82800C00710D0E06A38B1B0F5003F08
:1056300004D040F6294165A001F0FCF920684168DA
:10564000E26A21F400311143416094F82800800798
:1056500010D5206B38B1B0F5803F04D04FF44361D2
:105660005AA001F0E7F920684168226B21F48031EB
:105670001143416094F82800400710D5606B38B1A1
:10568000B0F5802F04D040F6374150A001F0D2F998
:1056900020684168626B21F480211143416094F8D5
:1056A0002800000710D5A06B38B1B0F5004F04D02A
:1056B00040F63E4145A001F0BDF920684168A26B6B
:1056C00021F400411143416094F82800C00610D530
:1056D000E06B38B1B0F5805F04D040F645413BA0A7
:1056E00001F0A8F920688168E26B21F48051114330
:1056F000816094F82800800610D5206C38B1B0F590
:10570000005F04D040F64C4130A001F093F92068CE
:105710008168226C21F400511143816094F82800C3
:1057200040063DD53849206888420DD03749884227
:105730000AD03749884207D03649884204D040F61B
:10574000534122A001F076F9606C4FF4801530B11E
:10575000A84204D040F654411CA001F06BF9206827
:105760004168626C21F4801111434160606CA84271
:1057700016D1A06C68B1B0F5001F0AD0B0F5800F4B
:1057800007D0B0F5C00F04D040F659410FA001F08A
:1057900051F920684168A26C21F4C00111434160B5
:1057A00094F82800000610D5E06C38B1B0F5002F51
:1057B00004D040F6614105A001F03CF92068416841
:1057C000E26C21F400211143416070BD2E2E2F4464
:1057D0007269766572732F53544D3332473478783B
:1057E0005F48414C5F4472697665722F5372632F34
:1057F00073746D3332673478785F68616C5F75619C
:1058000072742E6300000000003801400044004024
:1058100000480040004C0040F8B500250446C0F8A0
:105820008850FBF71FFD0746206800686FF07E4632
:10583000000708D53B4600224FF400112046009691
:1058400000F024FA60B92068006840070AD53B469A
:1058500000224FF480012046009600F017FA08B1AC
:105860000320F8BD2020C4F88000C4F8840084F828
:105870007C500020F8BD10B5806A0021A0F85E10B1
:10588000A0F85610FDF7D4FF10BD000001680A68AB
:1058900022F490720A6001688A68044B1A408A6098
:1058A0002021C0F884100021C1667047FEFFFFEF81
:1058B0002DE9F04704464068D9490025884204D3C1
:1058C00040F65231D7A001F0B5F8A0684FF48056E9
:1058D000B0F1805F07D030B1B04204D040F6533110
:1058E000D0A001F0A7F8DFF8788320684FF40051CA
:1058F0004045E0684FF4006906D100281AD088427C
:1059000018D040F6563112E0B0420AD048B1B0F596
:10591000405F06D0884204D040F65A31C1A001F061
:1059200089F8206A30B1484504D040F65B31BDA00B
:1059300001F080F820694FF4806648B1B04207D08A
:10594000B0F5C06F04D040F65E31B6A001F072F839
:10595000606930F00C0100D120B940F65F31B1A090
:1059600001F068F8A06968B1B0F5807F0AD0B0F5A1
:10597000007F07D0B0F5407F04D04FF43661A9A076
:1059800001F058F8E0694FF4004730B1B84204D054
:1059900040F66131A3A001F04DF8606AD0B1012852
:1059A00018D0022816D0032814D0042812D00528B5
:1059B00010D006280ED007280CD008280AD00928B5
:1059C00008D00A2806D00B2804D040F6623195A0F2
:1059D00001F030F82169A068E26908436169114368
:1059E0000843616E0143206802689E4B1A400A43D7
:1059F000026020684168E26821F44051114341602F
:105A00002168A069414501D0226A10438A68964BFB
:105A10001A4002438A602068C16A626A21F00F015D
:105A20001143C162914A2168914891420DD1D0F849
:105A3000880010F0030006D0012852D0022840D080
:105A400003283DD14FE001203BE08A4A91420BD12F
:105A5000D0F8880010F00C0033D0042831D008288A
:105A60003DD00C282CD13EE0834A91420BD1D0F896
:105A7000880010F0300024D0102832D020282ED0FA
:105A800030281DD12FE07D4A91420BD1D0F88800FB
:105A900010F0C00015D0402823D080281FD0C02887
:105AA0000ED120E041450BD1D0F8880010F44060C1
:105AB00007D0B04215D0484511D0B0F5406F12D094
:105AC00010206F4A6F4E4FF0000941453BD160B145
:105AD00002280DD004280DD0082831D131E0022051
