:020000040800F2
:10000000C00C0020A10100082D03000825030008F2
:10001000290300089D020008DD0700080000000019
:10002000000000000000000000000000FD060008C5
:10003000A1020008000000005903000801070008A1
:10004000BB010008BB010008BB010008BB010008A0
:10005000BB010008BB010008BB010008BB01000890
:10006000BB010008BB010008BB010008BB01000880
:10007000BB010008BB010008BB010008BB01000870
:10008000BB010008BB010008BB010008BB01000860
:10009000BB010008BB010008BB010008BB01000850
:1000A000BB010008BB010008BB010008BB01000840
:1000B000BB010008BB010008BB010008BB01000830
:1000C000BB010008BB010008BB010008BB01000820
:1000D000BB010008BB010008BB010008BB01000810
:1000E000BB010008BB010008BB010008BB01000800
:1000F000BB010008BB010008BB010008BB010008F0
:1001000000000000BB010008BB010008BB010008A3
:10011000BB010008BB010008BB010008BB010008CF
:10012000BB010008BB010008BB010008BB010008BF
:10013000BB0100080000000000000000BB01000837
:10014000BB010008BB010008BB010008BB0100089F
:10015000BB010008BB010008BB010008BB0100088F
:10016000BB010008BB010008BB010008BB0100087F
:10017000BB010008BB010008BB0100080000000033
:10018000BB010008BB010008DFF810D000F036F812
:1001900000480047CB0B0008AFF30080C00C0020E4
:1001A0000648804706480047FEE7FEE7FEE7FEE711
:1001B000FEE7FEE7FEE7FEE7FEE7FEE709070008C9
:1001C0008901000840EA01039B0703D009E008C940
:1001D000121F08C0042AFAD203E011F8013B00F80C
:1001E000013B521EF9D27047034611F8012B00F86B
:1001F000012B002AF9D1184670470000064C074D24
:1002000006E0E06840F0010394E8070098471034E6
:10021000AC42F6D3FFF7BCFF8C0D0008AC0D000814
:1002200008B500F071FD012000231A460CA10090D2
:10023000184600F093F800BF2B230B4A0BA10020B7
:1002400000F046F90BA20DA1002000F041F912A127
:10025000002000F03DF900BF00F024F808BD0000C8
:100260005254545550000000580D0008257328259D
:1002700064293A00312E302E3000000052756E2075
:10028000524742204170702056657273696F6E202C
:1002900025730D0A000000000D0A000000BFFEE7F4
:1002A00000BFFEE710B500242CE0184931F8140017
:1002B00000F090FC164951F82430164951F82400FA
:1002C0000022012100F05AFC114850F82400114985
:1002D00051F824108862104931F8140000F07AFCBB
:1002E0000E4951F824300E4951F824000022012112
:1002F00000F044FC094850F82400094951F8241042
:100300008862641C002CD0D010BD00006C0D000869
:10031000680D0008640D0008780D0008740D0008D1
:10032000700D000800BFFEE700BFFEE700BFFEE75C
:1003300010B5002807DA0A07140E054A00F00F036B
:100340001B1FD45403E00A07130E024A135410BDB6
:1003500018ED00E000E400E000BFFEE72DE9F04703
:1003600004460E4617469846DDF8209000BF244804
:10037000007808B900F034FA00BF21480069A042B3
:1003800039D9EFF311810846202181F3118800BF8C
:1003900000BF0CB304EB44021949183141F8326034
:1003A00004EB440201EBC2014F6004EB4402144928
:1003B000183101EBC201C1F80880002204EB4403AC
:1003C0000F49183101EBC3010A6104EB44030C49E6
:1003D000183101EBC301CA6004EB4402084918312B
:1003E00001EBC201C1F81490C1B281F3118800BFC2
:1003F00000BF002501E04FF0FF352846BDE8F0873B
:10040000080000202DE9F04104460D46164600BFC5
:100410000D48007808B900F0E3F900BFEFF3118050
:100420000746202080F3118800BF00BF32462946CE
:10043000204600F00BF88046F8B280F3118800BF28
:1004400000BF4046BDE8F081080000202DE9F047DC
:10045000074688461646C24607EB47011B4800EB95
:10046000C109D9F8140020B1012811D0022826D1E1
:100470001EE0484600F0ECF90546B54201D20024E2
:1004800005E0344632465146484600F036FB18E057
:10049000484600F0DDF90546B54201D2284600E0A5
:1004A0003046044622465146484600F026FB08E006
:1004B00032465146484600F0E7FA044601E000247F
:1004C00000BF00BF2046BDE8F087000020000020EC
:1004D0000FB438B5044606A800906A462046059930
:1004E00000F007F8054600200090284638BC5DF86B
:1004F00014FB2DE9F04F99B082460D46144603A82F
:1005000014904020159000201690CDF860A0179010
:1005100000BF2E786D1C06B9DDE0252E79D10027AD
:100520004FF0010900BF2E78232E12D02B2E0CD0B5
:100530002D2E02D0302E10D103E047F001076D1CA4
:100540000EE047F002076D1C0AE047F004076D1C3F
:1005500006E047F008076D1C02E04FF0000900BFFD
:1005600000BFB9F1000FDED14FF0000800BF2E78B8
:10057000302E01DB392E00DD07E06D1CA6F13000C6
:1005800008EB880100EB4108F1E700BF0020139061
:100590002E782E2E12D16D1C00BF2E78302E01DB4E
:1005A000392E00DD09E06D1CA6F13000139901EB36
:1005B000810100EB41001390EFE700BF2E7800BFF0
:1005C0006C2E01D0682E02D16D1C2E7800E000E068
:1005D000F6E700BF702E5DD008DC252E6AD0582EBD
:1005E00035D0632E09D0642E69D113E0732E3CD030
:1005F000752E1DD0782E62D128E02168081D20605C
:10060000D1F8009009F0FF0B594614A800F01AFA2F
:1006100056E058E02168081D2060D1F80090CDE92F
:1006200000870A22494614A8139B00F01FF947E0EF
:100630002168081D2060D1F80090CDE900870A22CA
:10064000494614A8139B00F087F939E000BF2168E0
:10065000081D2060D1F80090CDE90087102249469E
:1006600014A8139B00F078F92AE02168081D206087
:10067000D1F800B000BF9BF800600BF1010B06B988
:1006800006E0314614A800F0DDF917980028F2DAE8
:1006900000BF15E02168081D2060D1F800900020FF
:1006A00008210B461022CDE90010494614A800F09D
:1006B00053F905E0252114A800F0C4F900E000BFBB
:1006C00000BF6D1C03E0314614A800F0BBF9179879
:1006D0000028BFF61EAF00BF179800280ADD169845
:1006E00020B103A95046169AFFF78CFEDDE91610DB
:1006F00008441790179819B0BDE8F08F00BFFEE7C7
:1007000010B500F02FFA10BD08B53048006840F46D
:1007100070002E4908602E48006840F001002C4906
:10072000086000BF2A48006800F002000028F9D0E5
:1007300000BF27480830006840F080002449083195
:1007400008600020009002E00098401C0090009893
:100750005028F9D31E480830006840F090001C492A
:10076000083108600020009002E00098401C0090D2
:1007700000985028F9D300BF15480830006820F0D1
:100780000300134908310860114800681149084006
:100790000F4908600846006820F4802008600020A7
:1007A0000B490831086000BF094808300068002084
:1007B0000028F9D108480649091D086000200449AD
:1007C0000C31086000F09CFA08BD000088ED00E0E4
:1007D00000380240FFFFF6FE1030002400BFFEE7A5
:1007E00010B5124C03202061606111A0A061134973
:1007F000E1614FF4006121620021A1626162E16266
:100800000BA020660E4961661021A16600212167B8
:10081000E16661670BA1E01DFFF7E6FC0AA1204637
:10082000FFF7E2FC2020A07110BD000008000020AE
:100830005465726D696E616C00000000B0000020AC
:10084000B008002052545400534547474552000019
:1008500010B501460A69CB689A4204D88C68641EB8
:10086000E41AA01801E0D41A601E10BD2DE9FC5F47
:1008700006460F4692469846DDE90C45002F01DA00
:10088000784200E0384683464FF0010903E09BFBC5
:10089000FAFB09F10109D345F9DAC84500D9C14687
:1008A00034B1002F03DB05F00400042800D1641EDE
:1008B00005F0020010B1B8F1000F11D005F00100F1
:1008C00070B96CB108E0641E2021304600F0BAF81F
:1008D000F068002800DA02E00CB1A145F3D300BFB4
:1008E000F068002836DB002F05DA7F422D213046E4
:1008F00000F0A8F807E005F00400042803D12B213C
:10090000304600F09FF8F068002823DB05F0020075
:10091000022814D105F0010088B9B8F1000F0ED1FA
:100920006CB108E0641E3021304600F08BF8F068AE
:10093000002800DA02E00CB1A145F3D300BFF06853
:10094000002807DB4346524639463046CDE900458C
:1009500000F002F8BDE8FC9F2DE9FC5F8046894667
:1009600015461E460C9CCDF804900127BB4605E0B9
:100970000198B0FBF5F001900BF1010B0198A84232
:10098000F6D25E4500D9B3460D9800F00100D0B90B
:10099000CCB10D9800F00200022803D116B9302026
:1009A000009001E02020009009E0641E404600997C
:1009B00000F048F8D8F80C00002800DA02E00CB18A
:1009C000A345F2D300BFD8F80C00002835DB09E0BE
:1009D000012E01D9761E04E0B9FBF7FAAA4500D230
:1009E00001E06F43F4E700BF00BFB9FBF7FA0AFB71
:1009F0001799134810F80A10404600F023F8D8F869
:100A00000C00002800DA03E0B7FBF5F7002FECD16B
:100A100000BF0D9800F0010078B174B109E0641EC8
:100A20002021404600F00EF8D8F80C00002800DA2B
:100A300002E00CB1A345F2D300BFBDE8FC9F00006B
:100A40007A0D000870B504460E46A568681C6168FA
:100A5000814206D320684655681CA060E068401CAF
:100A6000E060D4E9011088420DD1A26821682069B4
:100A7000FFF7C8FCA168884203D04FF0FF30E06068
:100A800001E00020A06070BD2DE9F04704468946D2
:100A900017464FF0000AE56800BFD4F81080A8455B
:100AA00003D9A8EB0500461E04E0A5EB0800401C96
:100AB000A1680E1AA068401BB04201D9304601E07F
:100AC000A068401B0646BE4201D2304600E03846D0
:100AD00006466168481932464946FFF773FBB2443F
:100AE000B144BF1B3544A068A84200D10025E56091
:100AF000002FD2D15046BDE8F0872DE9F0470446DB
:100B000089461546E668A068871BAF4208D9616828
:100B100088192A464946FFF755FB7019E06010E036
:100B2000B8466168881942464946FFF74BFBA5EB7A
:100B3000070809EB070142466068FFF743FBC4F86A
:100B40000C80BDE8F08702E008C8121F08C1002A27
:100B5000FAD170477047002001E001C1121F002A3E
:100B6000FBD170470448006820B103480068401E6C
:100B7000014908607047000000000020F0B50446FD
:100B80000D4616462168E268002019E001278740DB
:100B90001F409FB14FEA400C032707FA0CF7B943F7
:100BA000470005FA07F739434FEA400C032707FAD5
:100BB0000CF7BA43470006FA07F73A43471CB8B2A6
:100BC0001028E3D32160E260F0BDFFF729FB00BFEE
:100BD000FEE70000074A02EB9011D1F8001800F080
:100BE0001F0301229A401143024B03EB9012C2F8FB
:100BF0000018704700300240002000213D4A126872
:100C000042F480323B4B1A6000BF401C394A1268E4
:100C100002F4003119B94FF6FF729042F5D1354A0E
:100C2000126802F4003232B900BF324A126802F48C
:100C30000032002AF9D02F4A4032126842F0805226
:100C40002C4B40331A602C4A126842F440422A4B23
:100C50001A60284A08321268264B08331A601A466E
:100C6000126842F400421A601A46126842F4A05216
:100C70001A60224A1B1F1A601A1F126842F0807203
:100C80001B1F1A6000BF1B4A126802F00072002A84
:100C9000F9D0194A126842F48032174B1A6000BF2B
:100CA000154A526802F48032002AF9D0124A1268BA
:100CB00042F40032104B1A6000BF0F4A526802F42F
:100CC0000032002AF9D00B4A0832126822F00302DF
:100CD000084B08331A601A46126842F002021A6082
:100CE00000BF044A0832126802F00802002AF8D055
:100CF0007047000000380240007000401978400A38
:100D000010B5FFF779FF10BD10B5124800684FF419
:100D10007A71B0FBF1F4601EB0F1807F01D3012045
:100D20000FE0601E4FF0E02148610F214FF0FF30CF
:100D3000FFF7FEFA00204FF0E021886107200861EC
:100D4000002008B100BFFEE70021481EFFF7F0FABF
:100D500010BD0000040000204253505F496E6974CA
:100D6000000000000010024002000000040C00001F
:100D70000008024000200000020C303132333435CC
:100D8000363738394142434445460000AC0D00082F
:100D90000000002008000000460B0008B40D000809
:100DA00008000020B80C0000560B000800000000EE
:040DB000001C4E0EC7
:040000050800018965
:00000001FF
