:020000040800F2
:1000000068080020050100083D0F00085F0E000889
:10001000390F0008A9080008F31B000800000000C1
:100020000000000000000000000000003D14000877
:10003000CD0B000800000000091000082915000879
:100040001F0100081F0100081F0100081F01000810
:100050001F0100081F0100081F010008E90B00082C
:100060001F0100081F0100081F0100081F010008F0
:100070001F0100081F0100081F0100081F010008E0
:100080001F0100081F0100081F0100081F010008D0
:100090001F0100081F0100081F0100081F010008C0
:1000A0001F0100081F0100081F0100081F010008B0
:1000B000A91700081F0100081F0100081F01000800
:1000C0001F0100081F0100081F0100081F01000890
:1000D0001F010008C11900081F0100081F010008C6
:1000E0001F0100081F0100081F010008DFF810D0E1
:1000F00000F03AFB00480047E9240008AFF3008015
:10010000680800200648804706480047FEE7FEE7EB
:10011000FEE7FEE7FEE7FEE7FEE7FEE7FEE7FEE7B7
:100120002D150008ED000008F0B480EA0102D40F9C
:100130004200B2EB410F02D20246084611464A0085
:1001400042D0C30DDDB2C1F3C752AD1A202D35DA4E
:10015000C1F3160141F4000204B15242C5F1200678
:1001600002FA06F12A411044B3EBD05F23D0C4B1A8
:10017000012DA0EBC35009DCF0BC4FF0004202EAB5
:10018000C352DBB200F5000000F007B9400000F1F7
:10019000807000EBC350A0F1807040EAD17049003C
:1001A00009E0490841EAC071A0EBC35000F5000026
:1001B000400800EBC350F0BC00F0E6B861420122F9
:1001C00002EB4101001BF6E7F0BC704781F00041F3
:1001D000AAE780F00040A7E780EA010210B502F02C
:1001E0000043400022D04A001FD0010E01EB1261F3
:1001F000C0F35600C2F3560240F4000042F400027D
:10020000A0FB022000047F39140400D0401C50EAF7
:10021000124001D44000491EC2B20C0604EBD010BB
:10022000401C4008802A02D003E0002010BD20F0CE
:100230000100002900DA0020184310BD30B480EA24
:10024000010202F0004530F0004221F0004013D0DE
:1002500090B1C30DD40DC2F31601C0F31600E41A19
:1002600041F4000140F400027D34914201D3641C4A
:1002700000E04900002C02DA30BC002070474FF447
:1002800000000023914201D3891A034340084FEA3A
:100290004101F7D151B1914202D14FF0004105E047
:1002A00002D24FF0010101E06FF0010103EBC450F5
:1002B000284430BC00F068B8C10F80EAE070084400
:1002C000CA079623002100F068B896230022114641
:1002D00000F063B800F0004230F000400AD0C10DD9
:1002E00001F56071C0F3160042EA0151C2084007EF
:1002F0001143704700200146704730B50B46014658
:1003000000202022012409E021FA02F59D4205D3B4
:1003100003FA02F5491B04FA02F52844151EA2F15E
:100320000102F1DC30BD2DE9F05F05460020924668
:100330009B4688460646814640241BE028464146A7
:100340004746224600F031FA53465A46C01A9141B8
:1003500010D311461846224600F018FA2D1A67EB02
:1003600001084F4622460120002100F00FFA17EB4A
:1003700000094E41201EA4F10104DFDC484631464D
:100380002A464346BDE8F09F0029A8BF7047401C9D
:10039000490008BF20F00100704710B4B0FA80FC9B
:1003A00000FA0CF050EA010404BF10BC704749B1D8
:1003B000CCF1200421FA04F411FA0CF118BF012148
:1003C00021430843A3EB0C01CB1D4FEA00614FEA28
:1003D000102042BF002010BC704700EBC3501044F7
:1003E0000029A4BF10BC7047401C490008BF20F082
:1003F000010010BC70472DE9FE4F804681EA0300E2
:10040000C00F0C46009021F0004123F00045B8EBEE
:100410000200A94105D24046214690461C460B46A3
:10042000024623F00040104347D0270DC7F30A00CF
:10043000C3F30A510290401A019040286BDAC3F3CB
:10044000130040F4801B0098924620B10023D2EBA9
:10045000030A63EB0B0B01985946C0F1400250466A
:1004600000F094F906460D4650465946019A00F0B0
:10047000ACF910EB08006141002487EA115284EACC
:10048000E7731A4340D0009A62B3019A012A4FEAF7
:10049000075215DC001B61EB02014FF0004202EA3B
:1004A0000752CDE90042001C41F5801132462B462F
:1004B00000F0ACF903B0BDE8F08F40462146F9E703
:1004C000001B61EB0201001C41F5801300185B4129
:1004D0002018A2F5001747EB030140EAD570B619C2
:1004E0006D4111E06D084FEA360645EAC0754FEAE6
:1004F0000752001B61EB0201001C41F58011490805
:100500004FEA30000019514132462B4603B0BDE896
:10051000F04F00F06CB90098012240000023D0EBAE
:10052000020263EBE073009821464FEAE074B8EBF7
:10053000000061EB0401E9E783F000435BE781F031
:10054000004158E72DE9FE4F81EA030404F000441E
:1005500021F0004100944FF0000B23F0004350EADB
:1005600001045ED052EA03045BD0C3F30A54C1F322
:100570000A552C44A4F2F3340194A0FB0254C1F3B5
:10058000130141F48011C3F3130343F4801301FBFF
:10059000024400FB034E840A970A44EA815447EA66
:1005A0008357A4FB076802958D0A05FB07854FEA70
:1005B000932C04FB0C542705029D4FEA065847EA8A
:1005C0001637B5EB08056EEB070C870E920E47EA5F
:1005D000811742EA8312A7FB0201B6EB0B0164EB21
:1005E00000042B0D43EA0C335E1844EB1C50DA4632
:1005F0005146E7FB0201C5F313044FEA0B3343EA0C
:1006000014534FEA0432019C43EA0603A4F10C049C
:100610000294009CCDE900B400F0F8F803B0BDE806
:10062000F08F00200146F9E72DE9F04D81EA03043F
:1006300004F0004B21F0004514464FF0000A23F06F
:10064000004150EA050220D054EA01021DD0C5F352
:100650000A570246C5F31303C1F31300C1F30A5648
:1006600040F4801543F48013A7EB0608101BD64610
:1006700008F2FD3873EB050002D308F1010801E030
:1006800092185B41B8F1000F03DA00200146BDE883
:10069000F08D00204FF48011064684460EE0171BB3
:1006A00073EB050705D3121B63EB050306434CEA06
:1006B000010C49084FEA300092185B4150EA0107EB
:1006C000EDD152EA030012D082EA040083EA050168
:1006D000084305D0101BAB4106D20122002306E0DF
:1006E00000224FF0004302E06FF0010253101AEBBA
:1006F00006004CEB085110EB0A0041EB0B01BDE882
:10070000F04D00F074B8C1F30A52C1F3130140F286
:10071000FF3341F480119A4202DA0020014670470B
:1007200040F233439A42A2F2334202DC524200F0DA
:100730003CB800F02BB8000030B5041E71F1000485
:1007400004DB4FF00044404264EB0101141E73F1DE
:10075000000405DB1C464FF00043524263EB0403E8
:10076000994208BF904230BD064C074D06E0E06854
:1007700040F0010394E8070098471034AC42F6D3E8
:10078000FFF7B8FC8C280008AC280008202A04DBFE
:10079000203A00FA02F1002070479140C2F1200394
:1007A00020FA03F3194390407047202A04DB203AD3
:1007B00021FA02F00021704721FA02F3D040C2F181
:1007C00020029140084319467047202A06DBCB17C8
:1007D000203A41FA02F043EAE07306E041FA02F3FC
:1007E000D040C2F12002914008431946704710B52D
:1007F000141E73F1000408DA401C41F10001921844
:100800005B411A4301D120F0010010BD2DE9F04DEC
:1008100092469B4611B1B1FA81F202E0B0FA80F241
:1008200020329046FFF7B2FF04460F4640EA0A0026
:1008300041EA0B0153465A46084313D0114653EA86
:10084000010019D0C8F140025046FFF7AEFF05463F
:100850000E46504659464246FFF798FF084305D0DA
:10086000012004E020463946BDE8F08D0020054314
:1008700046EAE0762C4337430A986305E40AA0EB86
:1008800008000022FD0A44EA47540A3002D500203D
:100890000146E9E7010510196941DDE9084500193C
:1008A0006941BDE8F04DA2E700BFFEE72DE9F04F3A
:1008B0008DB0044600F074FE01207A490870254688
:1008C000ACE001207749087000F0FCFE76484068F3
:1008D0000A900BE0744846680A98301A73498842B7
:1008E00003D373A001F088F904E000BF6D480078DD
:1008F0000028EFD100BF6B48007800287ED1B020DF
:1009000000F006FF73490990FFF766FC0746B12027
:1009100000F0FEFE6F490990FFF75EFC8046B020B4
:1009200000F0F6FE6B490990FFF756FC8146C020A7
:1009300000F0EEFE67490990FFF74EFC8246B120B9
:1009400000F0E6FE63490990FFF746FC8346C120AC
:1009500000F0DEFE5F490990FFF73EFC0B9000F0CF
:10096000F8FE064606F4C04060B15BA001F044F911
:1009700031465DA001F040F95CA001F03DF90DB0F9
:10098000BDE8F08F39464046FFF720FC0390FFF7A3
:10099000A1FCCDE908014046FFF79CFCCDE906012A
:1009A0003846FFF797FCCDE90401DDE90801CDE900
:1009B0000201DDE90601CDE90001601B411E4CA0EA
:1009C000DDE9042301F018F959460B98FFF7FEFB07
:1009D0000590FFF77FFCCDE9080149465046FFF737
:1009E000F5FB0590FFF776FCCDE90601DDE908018E
:1009F000CDE90001601B411E49A000E00DE0DDE9EA
:100A0000062301F0F9F839464046FFF7DFFB611B8A
:100A1000491E4C4A42F8210000BF00BF281EA5F124
:100A200001057FF44EAF002C3ADD002D38DC611B50
:100A300045A001F0E1F84BA001F0DEF800200A909B
:100A4000012614E03F4951F82600FFF743FC024617
:100A50000B46CDE90801314648A001F0CDF83948F0
:100A600050F826100A98FFF75FFB0A90761C601B6F
:100A7000401EB042E6DC611B881EFFF71DFC0646E7
:100A800031460A98FFF7DAFB0A900A98FFF722FC32
:100A900002460B46CDE908013EA001F0ADF800BFCB
:100AA00000BF6CE710000020001000E040190100BA
:100AB000494E544E2074696D656F75742E20536BCA
:100AC000697020746869732073616D706C652E0D98
:100AD0000A00000000007A444572726F722073743D
:100AE0006174653A00000000256400000D0A0000F2
:100AF00053616D706C65202564202D3E2042303A94
:100B0000252E3366202020202042313A252E3366C0
:100B100020202020544F463A252E3366200D0A000F
:100B2000506C75736557202564202D3E205057303A
:100B30003A252E3366202020205057313A252E3377
:100B4000660D0A006800002025752074696D6573C4
:100B50002053616D706C6573207375636365737387
:100B60003A0D0A00417665726167656420544F460C
:100B700020286E73293A0D0A0000000053616D7041
:100B80006C652025643A20252E3366206E730D0A8D
:100B900000000000252E33660D0A00000948006899
:100BA00000F0807028B90748006840F0807005495F
:100BB00008600020044948600846006840F00100D1
:100BC00008607047FCED00E0001000E07047000096
:100BD0000021044A116000BF024909688142FBD329
:100BE000704700000000002010B5022000F010F84F
:100BF00028B1022000F006F800200149087010BD5D
:100C000010000020014908607047000014040140F2
:100C1000014600200022074B1B6803EA0102054B36
:100C200014331B680B4013B10AB1012000E000200F
:100C30007047000000040140002123498279002A06
:100C40003AD00A46126803689A430B461A600A1D96
:100C5000126803689A430B1D1A60027911440A68EE
:100C600003681A430A60184A0832126803689A43F4
:100C7000154B08331A601A1D126803689A43124B09
:100C80000C331A604279102A0ED11A1F12680368B9
:100C90001A430D4B08331A601A1D126803681A4371
:100CA000094B0C331A600DE00749427911440A6878
:100CB00003681A430A6005E0027911440A68036870
:100CC0009A430A6070470000000401400549096822
:100CD00021F01001034A11601146096801431160B7
:100CE000704700000020024001460020034A1068BF
:100CF00000F03800084310607047000000200240F8
:100D000030B500228B071C0F0F2303FA04F20B4BA4
:100D10008C1053F824309343084C8D1044F8253040
:100D200023468C1053F824308C07240F00FA04F467
:100D30002343024C8D1044F8253030BD080001409B
:100D40002DE9F04102460025002600200023002462
:100D5000002791F803C00CF00F0591F803C00CF0C8
:100D6000100CBCF1000F03D091F802C04CEA05054D
:100D700091F800C0BCF1000F31D0146800202BE0C6
:100D80004FF0010C0CFA00F3B1F800C00CEA0306B6
:100D90009E4220D183004FF00F0C0CFA03F7BC43A6
:100DA00005FA03FC4CEA040491F803C0BCF1280FD7
:100DB00006D14FF0010C0CFA00FCC2F814C00AE096
:100DC00091F803C0BCF1480F05D14FF0010C0CFAAB
:100DD00000FCC2F810C0401C0828D1D31460B1F840
:100DE00000C0BCF1FF0F34DD546800202EE000F19C
:100DF000080C4FF0010808FA0CF3B1F800C00CEA37
:100E000003069E4221D183004FF00F0C0CFA03F72A
:100E1000BC4305FA03FC4CEA040491F803C0BCF19E
:100E2000280F05D100F1080C08FA0CF8C2F814805C
:100E300091F803C0BCF1480F07D100F1080C4FF046
:100E4000010808FA0CF8C2F81080401C0828CED31C
:100E50005460BDE8F081416170470161704700BF97
:100E6000FEE710B500F010FC00BF502000F076FC4B
:100E700000BF10BD08B507208DF8000000208DF8D8
:100E8000010001208DF802008DF80300684600F093
:100E90006FF808BD00B587B0012141F2050000F0F0
:100EA000C5F8E020ADF8180003208DF81A001820CE
:100EB0008DF81B0006A91E48FFF742FFE0211C48E1
:100EC000FFF7CBFF0121042000F0B0F81020ADF8AF
:100ED00018008DF81B0003208DF81A0006A914488D
:100EE000FFF72EFF10211248FFF7B7FF0020ADF8E3
:100EF00004004FF48270ADF806000020ADF8080041
:100F0000ADF80A000120ADF80C004002ADF80E006B
:100F10000820ADF810000020ADF8120001A9054826
:100F200000F02EFA0121034800F010FA07B000BDCE
:100F3000000801400030014000BFFEE7704708B5DF
:100F400000214FF0006000F055F84FF4C06000F051
:100F500047F81C208DF8000003208DF801008DF863
:100F6000020001208DF80300684600F001F808BD7A
:100F700070B5002100230F22C47804B3154C2468F7
:100F800004F4E064C4F5E064210AC1F10403CA403A
:100F9000447804FA03F184781440214309010E4C8B
:100FA0000678A155047804F01F050124AC400578AB
:100FB0006D11AD0005F1E025C5F8004109E00478A8
:100FC00004F01F050124AC40044D0678761145F865
:100FD000264070BD0CED00E000E400E080E100E0A0
:100FE00002490143024A1160704700000000FA05FF
:100FF0000CED00E0024A0A400243024B1A607047BF
:1010000080FFFF1F08ED00E07047000029B1064A8D
:10101000D2690243044BDA6104E0034AD269824395
:10102000014BDA61704700000010024029B1064A06
:1010300092690243044B9A6104E0034A9269824335
:10104000014B9A6170470000001002400149C864DA
:10105000704700000000424210B500F03BF84FF42A
:10106000803000F0F9F800F055F90446012C2FD13A
:101070001020FFF72BFE0220FFF736FE002000F0C5
:10108000DFF8002000F01AF9A00200F00BF94FF48D
:10109000E011200400F024F9012000F01BF900BF4A
:1010A000392000F0A7F80028FAD0022000F026F935
:1010B00000BF00F0BDF80828FBD10120FFF7C6FFF4
:1010C00001210846FFF7A2FF01213D20FFF7AEFFF7
:1010D00010BD00000F48006840F001000D49086095
:1010E000084640680C4908400A49486008460068BC
:1010F0000A490840074908600846006820F4802033
:1011000008600846406820F4FE0048604FF41F0065
:1011100088607047001002400000FFF8FFFFF6FEF5
:1011200030B500210022002400232D4D6D6805F00C
:101130000C0121B1042905D0082923D105E0294D4E
:10114000056022E0274D05601FE0254D6D6805F420
:101150007012234D6D6805F48034022505EB924230
:101160001CB9214D554305600BE01D4D6D6805F41C
:1011700000351DB11C4D5543056002E0194D554326
:10118000056002E0174D056000BF00BF144D6D689B
:1011900005F0F0010909154D6B5C0568DD404560FF
:1011A0000F4D6D6805F4E061090A104D6B5C4568F0
:1011B000DD4085600A4D6D6805F46051C90A0B4D2C
:1011C0006B5C4568DD40C560054D6D6805F44041C8
:1011D000890B074D6B5CC568B5FBF3F5056130BD48
:1011E0000010024000127A0000093D0011000020AA
:1011F0002100002010B501460022002300204A11E2
:10120000012A02D1094C236806E0022A02D1074CC8
:10121000236A01E0054C636A01F01F020124944037
:101220001C400CB1012000E0002010BD0010024065
:101230000248406800F00C007047000000100240B7
:1012400001460020034A506820F0F0000843506037
:1012500070470000001002401149096821F48031F4
:101260000F4A11601146096821F480211160B0F520
:10127000803F03D0B0F5802F0ED106E00849096801
:1012800041F48031064A116007E00549096841F4DC
:10129000A021034A116000E000BF00BF70470000BA
:1012A0000010024001460020034A506820F4E0602C
:1012B00008435060704700000010024001460020C3
:1012C000034A506820F4605040EAC1005060704703
:1012D00000100240014908667047000000004242C9
:1012E00002460020044B586820F47C1042EA0103B7
:1012F0001843014B5860704700100240014600201F
:10130000034A506820F00300084350607047000013
:101310000010024038B5002000900024002500BFD6
:101320003120FFF767FF05460098401C00900098A9
:10133000B0F5A06F01D0002DF2D03120FFF75AFF99
:1013400008B1012400E00024204638BD21B1028804
:1013500042F04002028004E002884FF6BF731A4058
:10136000028070470246002013890B400BB1012018
:1013700000E00020704701468889704781817047EE
:1013800010B50022028802F441520B884C88234396
:101390008C882343CC8823430C8923434C892343E3
:1013A0008C892343CC8923431A430280838B4FF2D9
:1013B000FF74234083830B8A038210BD10B5002085
:1013C00000E0401C0A28FCDB10210448FFF745FD23
:1013D000002000E0401C1428FCDB10BD0008014088
:1013E00010B5002000E0401C1428FCDB102104484C
:1013F000FFF731FD002000E0401C0A28FCDB10BD97
:101400000008014010B5044621460B48FFF7B6FF1F
:1014100000BF02210848FFF7A5FF0028F9D000BF50
:1014200001210548FFF79EFF0028F9D00248FFF789
:10143000A2FFC0B210BD000000300140704710B5DF
:1014400000F002F810BD00000CB5002001900090E3
:101450003348006840F480303149086000BF3048AC
:10146000006800F4003000900198401C0190009842
:1014700018B90198B0F5A06FF1D12948006800F4BF
:10148000003010B10120009001E000200090009891
:10149000012843D12348006840F01000214908602A
:1014A0000846006820F0030008600846006840F025
:1014B000020008601A4840681949486008464068B8
:1014C00048600846406840F48060486008464068CC
:1014D00020F47C1048600846406840F4E8104860FA
:1014E0000846006840F08070086000BF0C48006843
:1014F00000F000700028F9D00948406820F003008F
:10150000074948600846406840F00200486000BF54
:101510000348406800F00C000828F9D10CBD000019
:1015200000100240002002407047000010B5134830
:10153000006840F001001149086008464068104901
:1015400008400E494860084600680E4908400B49AB
:1015500008600846006820F480200860084640685B
:1015600020F4FE0048604FF41F008860FFF767FF1B
:101570004FF000600449086010BD000000100240F8
:101580000000FFF8FFFFF6FE08ED00E010B5FFF7E2
:1015900063FDFFF703FBFFF7D2FC00F095F910BDE8
:1015A00010B50249802000F0E3F810BD20643A3302
:1015B0000EB501210846FFF739FD01210820FFF78C
:1015C00035FD0120ADF8080010208DF80B00032038
:1015D0008DF80A0002A92B48FFF7B2FB0121294828
:1015E000FFF739FC01210820FFF720FD0220ADF8AC
:1015F000080004208DF80B0002A92248FFF7A0FB89
:1016000001210820FFF712FD4FF40040ADF808005B
:1016100010208DF80B0003208DF80A0002A919484C
:10162000FFF78EFB4FF400411648FFF716FC01212F
:101630000820FFF7FBFC4FF40050ADF80800102025
:101640008DF80B0003208DF80A0002A90D48FFF762
:1016500077FB4FF400510B48FFF7FFFB01210846D1
:10166000FFF74EFB0220009000208DF804000C20B4
:101670008DF8050001208DF806006846FFF7DCFABA
:101680000EBD0000000C014010B501210748FFF716
:10169000E2FB4FF4FA70FFF79BFA01210348FFF7D2
:1016A000DCFBC820FFF794FA10BD0000000C0140DD
:1016B00010B5FFF77DFFFFF7DDFBFFF7EBFBFFF753
:1016C000D0FB10BD10B5702000F048F810BD2DE91A
:1016D000F0410746FFF784FE3846FFF793FE0020EF
:1016E00000E0401C0A28FCDB0020FFF78BFE0446CC
:1016F0000020FFF787FE05460020FFF783FE064621
:10170000FFF75CFE200440EA05203043BDE8F0818D
:101710002DE9F84F05462846FFF7D9FF0446C4F3E4
:101720000746C4F3072704F0FF0848EA072948469C
:10173000FEF7CBFD83464FF08F41FEF77FFD8246DB
:101740003046FEF7C2FD51460090FEF7EDFCBDE8C5
:10175000F88F10B5BD20FFF7BAFF10BD10B50446D5
:10176000FFF73EFE2046FFF74DFEFFF727FE10BDB8
:1017700038B505460C460094FFF732FE2846FFF7C1
:1017800041FE9DF80300FFF73DFE9DF80200FFF7C4
:1017900039FE9DF80100FFF735FE9DF80000FFF7C8
:1017A00031FEFFF70BFE38BD10B50121880700F0B0
:1017B0001EF8012808D10121800700F009F803482C
:1017C0000068401C0149086010BD000000000020B6
:1017D000CA430282704721B1028842F001020280AE
:1017E00004E002884FF6FE731A400280704730B55D
:1017F0000246002000230024158A05EA010395898A
:1018000005EA010413B10CB1012000E0002030BD55
:101810001AB183890B43838102E083898B438381DF
:1018200070470000002202881D4B98420ED01D4BCD
:1018300098420BD0B0F1804F08D01B4B984205D096
:101840001A4B984202D01A4B984204D14FF68F732C
:101850001A404B881A43174B984207D0164B9842B0
:1018600004D04FF6FF431A40CB881A4302808B887E
:1018700083850B8803850A4B98420BD0094B98420D
:1018800008D00E4B984205D00D4B984202D00D4B1C
:10189000984201D10B7A03860123838270470000AE
:1018A000002C0140003401400004004000080040CA
:1018B000000C0040001000400014004000400140B7
:1018C00000440140004801400EB501210846FFF7E1
:1018D0009DFB0920ADF8040041F61F40ADF8000063
:1018E0000020ADF80600ADF8020069464FF08040D8
:1018F000FFF798FF012211469007FFF789FF0121AA
:101900008807FFF768FF0EBD00B587B00121880387
:10191000FFF78CFB01210420FFF788FB0121082041
:10192000FFF784FB4FF40070ADF8180003208DF82A
:101930001A0018208DF81B0006A91F48FFF700FAAF
:101940004FF48060ADF8180003208DF81A000420D1
:101950008DF81B0006A91848FFF7F2F94FF4E130A3
:1019600002900020ADF80C00ADF80E00ADF81000AC
:10197000ADF814000C20ADF8120002A90F4800F0D9
:10198000C3F825208DF8040000208DF805008DF89F
:10199000060001208DF80700012240F2255107487A
:1019A00000F08DF801A8FFF7E3FA0121034800F0E9
:1019B00043F807B000BD00000008014000380140B6
:1019C00010B540F225510F4800F04FF860B10D48B6
:1019D00000F006F9C4B2204600F01AFF40F225518B
:1019E000084800F01AF800BF0821064800F030F857
:1019F000012806D1034800F0F3F80821014800F05F
:101A000003F810BD0038014001F40072B2F5007F08
:101A100000D100BFCA430280704710B500220023E6
:101A200040F66A14A14200D100BF0A12012494407A
:101A3000A3B2DC43048010BD21B1828942F400527C
:101A4000828104E082894DF6FF731A4082817047DB
:101A500002460020B1F5007F00D100BF13880B4083
:101A60000BB1012000E00020704770B50246002451
:101A700000230025002040F66A16B14200D100BFC5
:101A8000C1F3421501F01F03012606FA03F3012DED
:101A900002D19689334006E0022D02D1168A3340E6
:101AA00001E0968A33400C12012606FA04F41688E7
:101AB000344013B10CB1012000E0002070BDF0B53E
:101AC0000346002400260025002040F66A17B9428C
:101AD00000D100BF1846C1F3421401F01F060127D0
:101AE00007FA06F5012C01D10C3004E0022C01D1DB
:101AF000103000E014301AB107682F43076002E08D
:101B00000768AF430760F0BD2DE9F04786B0054692
:101B10000E460024A24600BFA1460027B08900B1AE
:101B200000BF2F462C8A4CF6FF700440F088044317
:101B30002C82AC894EF6F3100440B08831890843FA
:101B4000718908430443AC81AC8A4FF6FF400440DE
:101B5000B0890443AC8201A8FFF7E2FA1F4887422C
:101B600002D1DDF810A001E0DDF80CA0A88900F496
:101B7000004040B10AEBCA0000EB0A10316849008E
:101B8000B0FBF1F807E00AEBCA0000EB0A1031687D
:101B90008900B0FBF1F86420B8FBF0F004012009E3
:101BA000642101FB1089A88900F4004040B1322073
:101BB00000EBC900B0FBF1F000F00700044308E0BF
:101BC000322000EB09106421B0FBF1F000F00F00AF
:101BD00004432C8106B0BDE8F087000000380140C6
:101BE00001468888C0F308007047C1F3080282806C
:101BF000704700BFFEE700000FB4054B10B503A906
:101C0000044A029800F0DAF810BC5DF814FB0000FA
:101C1000C52400080C00002002E008C8121F08C1FB
:101C2000002AFAD170477047002001E001C1121F5D
:101C3000002AFBD1704700002DE9FF5F82B0002130
:101C4000DDE90430020DDDF840B0034318D044F65E
:101C50001050A2F2FF3242431514119801281FD0F0
:101C6000A5EB0B00401C5FEA000A4FF000064E4F48
:101C7000DFF83891B046504615D5CAF1000413E09C
:101C8000119801244AA3012801D16FEA0B0102989F
:101C9000119AC0E90031C0E9024206B0BDE8F09FE8
:101CA000CBF10000DFE704460021404A491842EB2F
:101CB0000450CDE9001012E0E00707D032463B4661
:101CC00040464946FEF73EFC8046894632463B4642
:101CD00010461946FEF736FC06460F466410002CE7
:101CE000EAD1DDE90401DDE90023BAF1000F06DAEB
:101CF000FEF728FC42464B46FEF724FC05E0FEF7C3
:101D000093FC42464B46FEF78FFC04460E460022EB
:101D1000284BFEF711FD03D84FF0FF30014607E0D6
:101D20000022254B20463146FEF765FBFEF7EBFC13
:101D3000102409E0002C0ADB0A220023FEF7F3FA44
:101D4000039B30321A55641E50EA0102F2D1641C22
:101D5000039AC4F111031444119A012A03D00122F9
:101D600008430DD10AE0084304D000204FF0110BC6
:101D7000119072E7A3EB0B056D1E0DE05B4504DDD2
:101D80004FF0000205F1010504E003DA4FF0000214
:101D9000A5F10105002AECD002981199C0E90231A1
:101DA000C0E9004579E70000000014400000F03F62
:101DB000300000000000F0430000E03F2DE9FF4F3D
:101DC00095B09A46884606460025EEE1252877D14B
:101DD00000242746F94A0121039400E0044316F841
:101DE000013F203B01FA03F01042F7D130782A2856
:101DF00011D06FF02F033078A0F13002092A16D8E5
:101E0000039A44F0020402EB820203EB4202104404
:101E1000761C0390EFE758F8042B0392002A03DAAC
:101E2000504244F40054039044F00204761C30788D
:101E30002E2816D116F8010F44F004042A280DD0DC
:101E40006FF02F023078A0F13003092B09D807EB8F
:101E5000870302EB4303C718761CF3E758F8047BAB
:101E6000761C30786C280FD006DC4C2817D06828F8
:101E70000DD06A2814D104E0742810D07A280FD12C
:101E80000DE044F400140AE044F4801401E044F44A
:101E900040147278824202D104F58014761C761CBC
:101EA000307866280BD013DC582877D009DC00285E
:101EB00075D04528F6D04628F4D047281AD193E1AA
:101EC00018E0632835D0642879D0652812D18BE1D9
:101ED000702873D008DC6728F1D069286FD06E288D
:101EE0000DD06F2806D1ACE073282CD0752874D0A3
:101EF000782853D05246179990476D1C54E1C4F38B
:101F00000250022809D003280DD0D8F80010042868
:101F10000DD00D6008F1040846E1D8F80010EA176A
:101F2000C1E90052F6E7D8F800100D80F2E70D7015
:101F3000F0E718F8041B8DF8001000208DF8010060
:101F4000EB46012003E058F804BB4FF0FF30610777
:101F50004FF0000102D40DE009F101018946B942B8
:101F60000FDA8145F8DB1BF809100029F4D108E0ED
:101F700009F1010189468142FADB1BF809100029A9
:101F8000F6D103985346A0EB090721463846179A25
:101F900000F080FA284400EB090507E044E008E17E
:101FA0000DE01BF8010B524617999047B9F1010952
:101FB000F7D2534621463846179AF2E039E00A2113
:101FC000C4F302524FF0000B0091022A06D058F8D9
:101FD000040BC117032A09D00AE023E008F1070027
:101FE00020F00702F2E80201904605E000B2C117B6
:101FF000042A01D140B2C117002906DA0A4600219D
:10200000404261EB02012D2202E0220504D52B2281
:102010008DF80420012203E0E20701D02022F7E737
:10202000914657E00A2100E010214FF0000B00918B
:102030000BE010214FF0000B44F00404082700913E
:1020400003E008204FF0000B0090C4F30252022A74
:1020500005D058F8040B0021032A08D008E008F145
:10206000070020F00702F2E80201904603E080B288
:10207000042A00D1C0B24FF0000922072AD53278D5
:10208000702A07D0DDF800C08CF0100C5CEA0B0C55
:1020900005D00EE040228DF80420012208E050EA2D
:1020A000010306D030238DF804308DF8052002227C
:1020B0009146009B83F0080353EA0B030AD150EAD0
:1020C000010201D1620705D530228DF804204FF0BE
:1020D00001097F1E3278582A04D039A20C920CAA2A
:1020E00002920BE03BA2F9E75B46009AFEF71BF970
:1020F0000C9B9B5C029A521E0292137050EA0102E2
:10210000F2D1029804A9081A00F1200B600702D549
:1021100024F4803400E001275F4502DDA7EB0B00CB
:1021200000E0002000EB0B01009003984944401AA6
:102130000390E00306D453462146179A039800F013
:10214000A9F90544002706E001A85246C05D179989
:1021500090476D1C7F1C4F45F6DBE0030CD55346C2
:102160002146179A039800F095F9054404E03020C1
:102170005246179990476D1C0099481E00900029FF
:10218000F5DC08E00298029952460078491C029159
:10219000179990476D1CBBF10001ABF1010BF1DC0D
:1021A0005BE100F065F90544761C307800287FF487
:1021B0000DAE19B02846BDE8F08F000009280100D7
:1021C00030313233343536373839616263646566AD
:1021D000000000003031323334353637383941426F
:1021E0004344454600000000600700D4062708F17C
:1021F000070020F00700F0E80223804603F0004CBF
:102200005FEA0C0001D097A009E0200501D596A057
:1022100005E0E00701D095A001E0AFF24C0013907B
:10222000307823F0004365280CD006DC452809D01F
:1022300046281DD047287FD13BE0662818D0672864
:102240007AD136E00021112F01DB112000E0781C4B
:10225000CDE9000104A90CA8FFF7EEFCDDE90D01B2
:102260000C9A4FF0000B07F10109109200914EE01B
:102270004FF000400097CDE9011004A90CA8FFF72A
:10228000DBFCDDE90D020C9B0F994FF0000B914632
:102290001093009211B9791C00EB0109B7EB09000A
:1022A00003D4C0F1FF3B07F10109A9EB070001903E
:1022B00042E0012F00DA01270021112F01DD11205A
:1022C00000E03846CDE9000104A90CA8FFF7B4FCF2
:1022D000DDE90D010C9A00914FF0000BB946109208
:1022E00021070FD4009A4A4503DA914601E0A9F18B
:1022F0000109B9F1010F05DD109AA9F10101515C45
:102300003029F4D0B84202DA10F1040F03DA0121C7
:10231000CDE9011010E0002803DC8344A9EB0001A3
:1023200002E0411C494500DD8946A0EB0B00401C42
:1023300001904FF000400290200705D401984845D5
:1023400002DB4FF0FF30019000208DF84B00029827
:102350000DF14B07B0F1004F25D002200C902B203F
:102360000D90029800280CDA404202902D200D902A
:1023700007E00A210298FDF7C0FF3031029007F80C
:10238000011D0C99481E0C900029F2DC02980028CF
:10239000EFD1791E0D980870307800F0200040F0E1
:1023A000450007F8020D11A8C01BC01D029013982C
:1023B000007800B1012000EB0901019801EBE07108
:1023C000029801440398401A401E0390E00306D48B
:1023D00053462146179A039800F05CF80544139879
:1023E000007818B15246179990476D1CE00323D529
:1023F00053462146179A039800F04CF805441BE019
:10240000BBF1000F07DB0098584504DD10981799C1
:1024100010F80B0001E017993020524690470198C0
:102420000BF1010B401E05F10105019004D12E2096
:102430005246179990476D1CB9F10001A9F10109A5
:10244000DEDC05E017F8010B5246179990476D1C2A
:102450000299481E02900029F4DC53462146179A3F
:1024600003989EE62D0000002B00000020000000D5
:102470002DE9F041044600251E461746880404D481
:1024800005E039462020B0476D1C641EF9D528466A
:10249000BDE8F0812DE9F041044600251E46904636
:1024A000C80301D5302700E02027880404D505E0C3
:1024B00041463846B0476D1C641EF9D52846BDE834
:1024C000F081000070B504460D4600BF0548008845
:1024D00000F080000028F9D0E1B20248FFF785FB48
:1024E000204670BD0038014008B5FFF74FF8FFF7F0
:1024F0000BFAFFF7DDF84C48FFF77EFB00240025C0
:102500000026A0468FE0684600F064F980B974B1F7
:1025100046484768A7EB08004549884206D345A0CE
:10252000FFF76AFB002400250026A04600BF7AE0E2
:10253000002C22D19DF80000312810DB9DF800000E
:1025400034280CDC9DF80040002500263748D0F8E0
:1025500004809DF8001045A0FFF74EFB0CE09DF8AD
:1025600000000D2808D09DF800000A2804D09DF82E
:1025700000104EA0FFF740FB55E09DF800000D282D
:1025800003D09DF800000A282DD11DB950A0FFF7F7
:1025900033FB48E0B6F5803F05D357A0FFF72CFB8F
:1025A000002500263FE0B7B23A4621465DA0FFF77E
:1025B00023FB312C06D0322C08D0332C07D0342CFE
:1025C00007D105E03846FEF771F903E002E001E0CB
:1025D00000E000BF00BF002400250026A0465BA04D
:1025E000FFF70AFB1FE09DF80000302815DB9DF87F
:1025F0000000392811DC052D09DA9DF8000030387B
:1026000006EB860100EB4106681CC5B20AE057A044
:10261000FFF7F2FA0025002604E09DF8001061A003
:10262000FFF7EAFA00BF6EE748280008001000E054
:1026300000E6DF0C54696D656F757420776169740D
:10264000696E672073616D706C6520636F756E7461
:102650002E2053656E64206D6F646520616761692B
:102660006E2028312D33292E0D0A00004D6F646530
:102670002025632073656C65637465642E20456E48
:102680007465722073616D706C6520636F756E7414
:102690002028302D363535333529207468656E2075
:1026A000456E7465723A0D0A00000000496E76614D
:1026B0006C6964206D6F646520272563272E205385
:1026C000656E6420312F322F332F342E0D0A000017
:1026D00053616D706C6520636F756E742069732033
:1026E000656D7074792E20456E7465722061676126
:1026F000696E3A0D0A00000053616D706C652063CD
:102700006F756E7420657863656564732036353542
:1027100033352E20456E74657220616761696E3AAB
:102720000D0A00005374617274206D6561737572D7
:10273000653A206D6F64652025632C2073616D7090
:102740006C65732025750D0A00000000446F6E65EE
:102750002E2053656E64206E657874206D6F6465FD
:102760002028312D34293A0D0A00000053616D7084
:102770006C6520636F756E7420746F6F206C6F6E64
:102780006720286D61782035206469676974732932
:102790002E2052652D656E74657220636F756E74A0
:1027A0003A0D0A00556E6578706563746564206340
:1027B00068617220272563272E20456E746572207C
:1027C000646967697473206F7220456E7465722E38
:1027D0000D0A000001460B4800780B4A127890421F
:1027E00001D1002070470948074A1278805C0870C0
:1027F00005480078401C00F03F00034A107001209B
:10280000F0E700000600002007000020280000205C
:10281000094A1278521C02F03F01084A127891428C
:1028200006D0074A044B1B78D054034A117002E0CB
:102830000122044B1A707047060000200700002098
:10284000280000200800002053656E64206D6F642E
:10285000652028312D33292C207468656E20736122
:102860006D706C6520636F756E742028302D363561
:10287000353335292C2066696E6973682077697451
:102880006820456E7465722E0D0A0000AC280008A1
:102890000000002028000000181C0008D4280008B0
:1028A0002800002040080000281C0008000000004C
:1028B0000000000000000000000000000000000018
:1028C00000010203040102030406070809020406CA
:0428D00008000000FC
:04000005080000ED02
:00000001FF
