:020000040800F2
:1000000078110020F1010008A34900089546000876
:10001000A149000869090008E95F00080000000024
:10002000000000000000000000000000DD4D00089E
:10003000010A000800000000A5490008DF4D000883
:100040000B0200080B0200080B0200080B0200085C
:100050000B0200080B0200080B0200080B0200084C
:100060000B0200080B0200080B0200086D090008D3
:100070007909000885090008910900080B020008A9
:100080000B020008000000000B0200080B02000831
:100090000B0200080B0200080B0200080B0200080C
:1000A000C14F00080B020008CD4F00080B020008EA
:1000B0000B0200080B0200080B0200080B020008EC
:1000C0000B0200080B0200080B0200080B020008DC
:1000D0000B020008DD5F00080B0200080B0200089D
:1000E0000B0200080B0200080B0200080B020008BC
:1000F0000B0200080B0200080B02000800000000C1
:10010000000000000B020008000000000B020008C5
:100110000B020008000000000B0200080B020008A0
:100120000B0200080B0200080B0200080B0200087B
:100130000B02000800000000000000000B02000895
:100140000B0200080B020008000000000000000085
:10015000000000000000000000000000000000009F
:100160000000000000000000000000000B0200087A
:100170000B0200080000000000000000000000006A
:10018000000000000B02000800000000000000005A
:10019000000000000000000000000000000000005F
:1001A00000000000000000000B0200080B02000825
:1001B0000B0200080B0200080B0200080000000000
:1001C000000000000B02000800000000000000001A
:1001D0000B0200080B020008DFF810D000F036FB1D
:1001E000004800477D6C0008AFF3008078110020C4
:1001F0000648804706480047FEE7FEE7FEE7FEE7C1
:10020000FEE7FEE7FEE7FEE7FEE7FEE7914E0008A9
:10021000D90100082DE9F05F0546002092469B4673
:1002200088460646814640241BE02846414647460C
:10023000224600F0ECF953465A46C01A914110D3B9
:1002400011461846224600F0D3F92D1A67EB010833
:100250004F4622460120002100F0CAF917EB0009A1
:100260004E41201EA4F10104DFDC484631462A46F7
:100270004346BDE8F09F40EA01039B0703D009E035
:1002800008C9121F08C0042AFAD203E011F8013B82
:1002900000F8013B521EF9D27047D2B201E000F8DB
:1002A000012B491EFBD270470022F6E710B513461A
:1002B0000A4604461946FFF7F0FF204610BD0346E4
:1002C00011F8012B00F8012B002AF9D118467047CC
:1002D0002DE9FE4F804681EA0300C00F0C460090D6
:1002E00021F0004123F00045B8EB0200A94105D2FE
:1002F0004046214690461C460B46024623F00040ED
:10030000104347D0270DC7F30A00C3F30A510290E8
:10031000401A019040286BDAC3F3130040F4801BAD
:100320000098924620B10023D2EB030A63EB0B0B3B
:1003300001985946C0F14002504600F059F906466E
:100340000D4650465946019A00F071F910EB08002D
:100350006141002487EA115284EAE7731A4340D0CE
:10036000009A62B3019A012A4FEA075215DC001B7A
:1003700061EB02014FF0004202EA0752CDE9004270
:10038000001C41F5801132462B4600F071F903B094
:10039000BDE8F08F40462146F9E7001B61EB020102
:1003A000001C41F5801300185B412018A2F50017CE
:1003B00047EB030140EAD570B6196D4111E06D08B5
:1003C0004FEA360645EAC0754FEA0752001B61EB5B
:1003D0000201001C41F5801149084FEA3000001964
:1003E000514132462B4603B0BDE8F04F00F031B921
:1003F0000098012240000023D0EB020263EBE0737F
:10040000009821464FEAE074B8EB000061EB04016C
:10041000E9E783F000435BE781F0004158E72DE90D
:10042000FE4F81EA030404F0004421F000410094EF
:100430004FF0000B23F0004350EA01045ED052EA73
:1004400003045BD0C3F30A54C1F30A552C44A4F24D
:10045000F3340194A0FB0254C1F3130141F4801161
:10046000C3F3130343F4801301FB024400FB034E68
:10047000840A970A44EA815447EA8357A4FB076831
:1004800002958D0A05FB07854FEA932C04FB0C545B
:100490002705029D4FEA065847EA1637B5EB0805CF
:1004A0006EEB070C870E920E47EA811742EA831221
:1004B000A7FB0201B6EB0B0164EB00042B0D43EA32
:1004C0000C335E1844EB1C50DA465146E7FB020140
:1004D000C5F313044FEA0B3343EA14534FEA0432D3
:1004E000019C43EA0603A4F10C040294009CCDE9AC
:1004F00000B400F0BDF803B0BDE8F08F0020014665
:10050000F9E70EB5C10F80EAE0700844CA07002180
:1005100040F233438DE80E000A460B4600F0A8F87F
:1005200003B000BD70B5C1F30A5201F000450024CC
:10053000C1F3130140F2FF3341F480119A4201DA12
:10054000002070BD40F233439A42A2F2334203DCF2
:10055000524200F05CF800E090402C43F1D0404261
:1005600070BDC1F30A5210B5C1F3130140F2FF335D
:1005700041F480119A4201DA002010BD40F2334369
:100580009A42A2F2334203DC524200F040F810BD1E
:10059000904010BD30B5041E71F1000404DB4FF033
:1005A0000044404264EB0101141E73F1000405DBBA
:1005B0001C464FF00043524263EB04038B4208BFDA
:1005C000824230BD30B50B46014600202022012476
:1005D00009E021FA02F59D4205D303FA02F5491B11
:1005E00004FA02F52844151EA2F10102F1DC30BD27
:1005F000202A04DB203A00FA02F1002070479140E3
:10060000C2F1200320FA03F3194390407047202AD7
:1006100004DB203A21FA02F00021704721FA02F3AC
:10062000D040C2F120029140084319467047202A69
:1006300006DBCB17203A41FA02F043EAE07306E00A
:1006400041FA02F3D040C2F120029140084319461A
:10065000704710B5141E73F1000408DA401C41F114
:10066000000192185B411A4301D120F0010010BD36
:100670002DE9F04D92469B4611B1B1FA81F202E0AC
:10068000B0FA80F220329046FFF7B2FF04460F46E0
:1006900040EA0A0041EA0B0153465A46084313D088
:1006A000114653EA010019D0C8F140025046FFF745
:1006B000AEFF05460E46504659464246FFF798FFA4
:1006C000084305D0012004E020463946BDE8F08DFE
:1006D0000020054346EAE0762C4337430A98630539
:1006E000E40AA0EB08000022FD0A44EA47540A305D
:1006F00002D500200146E9E7010510196941DDE94D
:10070000084500196941BDE8F04DA2E72DE9F04D1B
:1007100081EA030404F0004B21F0004514464FF039
:10072000000A23F0004150EA050220D054EA0102F9
:100730001DD0C5F30A570246C5F31303C1F31300D6
:10074000C1F30A5640F4801543F48013A7EB060862
:10075000101BD64608F2FD3873EB050002D308F1F2
:10076000010801E092185B41B8F1000F03DA0020A4
:100770000146BDE8F08D00204FF480110646844606
:100780000EE0171B73EB050705D3121B63EB050384
:1007900006434CEA010C49084FEA300092185B41CD
:1007A00050EA0107EDD152EA030012D082EA0400B8
:1007B00083EA0501084305D0101BAB4106D2012294
:1007C000002306E000224FF0004302E06FF0010238
:1007D00053101AEB06004CEB085110EB0A0041EBEA
:1007E0000B01BDE8F04DFFF734BFC1F30A52C1F36E
:1007F000130140F2FF3341F480119A4202DA0020E3
:100800000146704740F233439A42A2F2334202DC7F
:100810005242FFF7FCBEFFF7EBBE000030B5041EEE
:1008200071F1000404DB4FF00044404264EB01012D
:10083000141E73F1000405DB1C464FF000435242C6
:1008400063EB0403994208BF904230BD064C074D4C
:1008500006E0E06840F0010394E807009847103490
:10086000AC42F6D3FFF7BCFC2C6D00084C6D0008C1
:1008700070B5044600688168C1F3400503F015FFB8
:1008800028B325BB2068816801F00D01012910D132
:100890008168104A1140891C81602168032008602A
:1008A00001F09AFB05460EE001F096FB401B022882
:1008B00009D9E06D40F01000E065206E40F00100C5
:1008C0002066012070BD20688068C007ECD1002040
:1008D00070BD0000C0FFFF7FF0B58BB000240E4656
:1008E00007461546079408941C2168460994FFF7AB
:1008F000DBFC17484FF080410160C0E90164C0E9AA
:100900000374846103F098F918B1302111A006F046
:1009100059F9079407A90E48099402F003FE18B18B
:1009200036210CA006F04EF960200090CDE901546C
:10093000002269460648049403F014F818B13F21D8
:1009400004A006F03FF9024802F0CEFF0BB0F0BD64
:10095000380200202E2E2F436F72652F5372632FA3
:1009600074696D2E63000000FEE70000014801F08D
:1009700035B80000FC030020014801F02FB800004A
:100980005C040020014801F029B800009C0300200D
:10099000014801F023B80000900000200D490268D2
:1009A0008A4201D20C4901E00B492031D2B2142312
:1009B000083AB2FBF3F2436C02F01F0223F0030388
:1009C0001944816404498031C16401219140016569
:1009D0007047000008040240000802400179074AFD
:1009E00002EB81024265054A4432491E826501F0EC
:1009F0001F0201219140C16570470000FC080240C0
:100A000070470000F8B500250446009500680E46C2
:100A1000B0F1A04F06D02849884203D08E2127A0EC
:100A200006F0D0F87F2E06D03348864203D08F21BF
:100A300022A006F0C7F894F8580001280BD0012036
:100A400084F858002046FFF713FF0200E06D04D041
:100A500040F010002AE00220F8BD20F4885040F059
:100A60000200E06520688168244B194006F080434D
:100A7000194341F000418160214B20680EE000994C
:100A8000491C0091994209D3E06D20F0020040F02A
:100A90001000E06584F858500120F8BD8168C90F46
:100AA000EDD1E06D20F0020040F00100E06584F837
:100AB00058501046F8BD0000000100502E2E2F4463
:100AC0007269766572732F53544D33324734787898
:100AD0005F48414C5F4472697665722F5372632F91
:100AE00073746D3332673478785F68616C5F61640A
:100AF000635F65782E63000000007F40C0FFFF3F0A
:100B000002DE04002DE9F047044600684FF0A046DD
:100B10009CB00D464FF00008B04204D040F62701CB
:100B200056A006F04FF8286800284AD0012813D0B4
:100B3000022811D003280FD005280DD006280BD08D
:100B4000072809D0092807D040F628014BA006F055
:100B500039F82868002834D0686850B1B0F5004FE3
:100B600007D0B0F5404F04D040F62B0143A006F06B
:100B700029F8A86828B3B0F5807F22D0B0F5007FAF
:100B80001FD0B0F5407F1CD0B0F5806F19D0B0F504
:100B9000A06F16D0B0F5C06F13D0B0F5E06F10D0D5
:100BA000B0F5006F0DD0B0F5106F0AD0B0F5206F22
:100BB00007D0B0F5306F04D040F62C012FA006F01E
:100BC00001F894F85800012812D0012084F8580048
:100BD00020684FF00009B0420ED1374F00973846D9
:100BE00003F06BFD8246206803F067FD60B10EE004
:100BF00002201CB0BDE8F087E16D41F02001E16505
:100C000084F858900120F4E7BAF1000F09D0E06DA4
:100C100040F02000E0654FF0010884F8589040460D
:100C2000E7E72648296840F61F720029816821F409
:100C3000604115D094F8383041EA43316B6819436C
:100C40008160B168BB68C1F30001C3F300031943BD
:100C5000E3D1AB68296819438368934319430AE0D9
:100C60008160B168BB68C1F30001C3F3000319439D
:100C7000D3D1816891438160CFE700002E2E2F44AD
:100C80007269766572732F53544D333247347878D6
:100C90005F48414C5F4472697665722F5372632FCF
:100CA00073746D3332673478785F68616C5F616448
:100CB000635F65782E630000000100500003005060
:100CC0002DE9F84F4FF0000A0446CDF800A0006867
:100CD0004FF0A049FD4E0D46484506D0B04204D025
:100CE0004FF42D61FAA005F06DFF6868062831D039
:100CF0000C282FD012282DD018282BD0B0F5807FAB
:100D000028D0B0F5837F25D0B0F5867F22D0B0F50E
:100D1000897F1FD0B0F58C7F1CD0B0F5007F19D033
:100D2000A0F50071063915D0B0F5037F12D0A0F5FB
:100D3000007112390ED0B0F5067F0BD0B0F5407FB0
:100D400008D0A0F54071063904D040F6D121E0A0CA
:100D500005F038FFA868A8B1B0F1004F12D0012803
:100D600010D002280ED003280CD004280AD0052861
:100D700008D0062806D0072804D040F6D221D4A0F7
:100D800005F020FFE868E04F7F2806D0B84204D085
:100D900040F6D321CEA005F015FF286904280BD01A
:100DA00050B1012808D0022806D0032804D040F60C
:100DB000D421C7A005F006FF2068C06800F0180025
:100DC000810840F6FF70C8406969884204D240F645
:100DD000D521BFA005F0F6FE2869042808D094F8B4
:100DE0004000012804D140F6D921B9A005F0EAFE5F
:100DF000B846E868C5494045C54AC64BC64FDFF806
:100E00001CB3DFF81CE328684FEA610C41D0604551
:100E10006AD0884268D0904266D0984264D0B84286
:100E200062D0584560D070455ED0BE4988425BD0E4
:100E3000BD49884258D0BD49884255D0BC498842F6
:100E400052D0BC4988424FD0BB4988424CD0BB49A4
:100E5000884249D0216849450AD1B949884243D0DE
:100E6000B849884240D0B84988423DD0B7490BE0E4
:100E7000B1420BD1B649884236D0B649884233D008
:100E8000B549884230D0B54988422DD040F6DE21A0
:100E900027E0604528D0884226D0904224D098424E
:100EA00022D0B84220D058451ED070451CD09D4954
:100EB000884219D09C49884216D09C49884213D058
:100EC0009B49884210D09C4988420DD02168B1428C
:100ED00005D19849884207D09D49884204D040F600
:100EE000E2217BA005F06EFE94F85800012811D095
:100EF000012784F85870206803F0DBFB60B1E06DD7
:100F000040F02000E065BA46002084F858005046C2
:100F1000BDE8F88F0220FBE7D5E900210C2320680B
:100F200003EA91131844036B01F01F014FF01F0CEB
:100F30000CFA01FCC2F3846223EA0C038A401343D7
:100F40000363206803F0B5FB8346206803F0A9FB28
:100F50005BEA00014FD1AA6829682068B2F1004F0E
:100F60004AD003F0AEFB2068416921F000414161A5
:100F700020686A69C168C1F3C10149008A402969D2
:100F8000042944D000EB81002B68016EDFF8D0C14A
:100F900003F0F84301EA0C011343194341F0004107
:100FA0000166A86938B1B0F1807F04D040F61A31EB
:100FB00047A005F007FE287F30B1012804D040F695
:100FC0001B3143A005F0FEFD22682869A96902EBE8
:100FD0008000026E22F080720A430266297F226836
:100FE0002869012910D0002102EB8000026E22F056
:100FF00000720A430266CFE0002203F062FB206821
:10100000416941F00041B2E74FF00071ECE7002187
:1010100003F041FB400320684FF0000153D003F080
:101020003AFB90FAA0F0B0FA80F1286842034BD066
:1010300090FAA0F0B0FA80F0814204D1002211466B
:10104000206803F04DFB0121206803F024FB4003DE
:1010500020684FF0010138D003F01DFB90FAA0F09A
:10106000B0FA80F1286842037CD090FAA0F0B0FA80
:1010700080F0814204D100220121206803F030FB7E
:101080000221206803F007FB400320684FF00201B3
:1010900069D003F000FB90FAA0F0B0FA80F1286864
:1010A00042037DD090FAA0F0B0FA80F0814204D1E2
:1010B00000220221206803F013FB0321206803F0C3
:1010C000EAFA400350E06EE072E074E00001005084
:1010D0002E2E2F447269766572732F53544D33321E
:1010E000473478785F48414C5F4472697665722F67
:1010F0005372632F73746D3332673478785F68612D
:101100006C5F6164632E630000007F400400600830
:101110000800900C1000C0102000F01440002019AE
:101120008000501D000180210002B0250004002A2B
:101130000008302E001060320040C03A0080F03EBF
:10114000002090B6000021C3000052C7000084CBED
:1011500000209036000029C30000524700008CCBCD
:1011600000F0FF032CE02EE020684FF0030132D0A6
:1011700003F091FA90FAA0F0B0FA80F128684203E7
:101180002ED090FAA0F0B0FA80F0814204D1002273
:101190000321206803F0A4FA206803F086FA00E037
:1011A00016E000B3A8E003F076FAC0F384613CE7F0
:1011B000C0F3846040E703F06EFAC0F3846151E746
:1011C000C0F3846055E703F066FAC0F3846166E714
:1011D000C0F384606AE703F05EFAC0F38461CDE790
:1011E000C0F38460D1E721682A7B286851F8B03FBA
:1011F000C0F3120C23EA0C0302F0180C614A22FA25
:101200000CF2024013430B60E968414574D1286831
:1012100041031AD090FAA0F1B1FA81F1491C01F012
:101220001F0109294FEA403130D8002910D090FA27
:10123000A0F1B1FA81F101F1010101F01F0107FAFA
:1012400001F708D1C0F3846109E0C0F38461E5E7E8
:10125000C0F38461EFE790FAA0F1B1FA81F101F1F6
:10126000010101F01F0147EA816102D1C0F38460EE
:1012700003E090FAA0F0B0FA80F000F1010000F075
:101280001F0000EB400041EA005131E000290DD081
:1012900090FAA0F1B1FA81F101F1010101F01F0111
:1012A00007FA01F705D1C0F3846106E0C0F3846159
:1012B000F2E790FAA0F1B1FA81F101F1010101F038
:1012C0001F0147EA816102D1C0F3846003E090FA14
:1012D000A0F0B0FA80F000F1010000F01F002A4AEF
:1012E00000EB400002EB005041EA000141F00071C8
:1012F000AA68206803F0E5F92448296801423FF410
:1013000003AE234A9068234B00F0E070994202D06C
:10131000214B99421AD1030218D4216849457FF420
:10132000F3AD916840F4000021F0E0710143916059
:101330001A481B490068B0FBF1F000EB4000800048
:1013400000E0401E00900028FBD1DDE5154B9942DE
:1013500007D1C30105D42168B142F6D040F08070B6
:1013600009E0114B9942F0D14102EED42168B1421B
:10137000EBD040F48000916821F0E071014391606E
:10138000C2E50000FFFF0700000020FE000008800B
:1013900000030050000021C31000C0902000002076
:1013A000400D0300000052C7000084CB2DE9F84334
:1013B0004FF0000504002E4600957DD020684FF0C8
:1013C000A048FE4F404506D0B84204D04FF4D27139
:1013D000FBA005F0F7FB6068B0F5803F2CD0B0F5BE
:1013E000003F29D0B0F5403F26D028B3B0F5802F7C
:1013F00022D0B0F5002F1FD0B0F5402F1CD0B0F593
:10140000801F19D0B0F5A01F16D0B0F5C01F13D0A3
:10141000B0F5E01F10D0B0F5001F0DD0B0F5101FD3
:101420000AD0B0F5201F07D0B0F5301F04D040F22D
:10143000A511E3A005F0C6FBA06850B1082808D0AC
:10144000102806D0182804D04FF4D371DCA005F082
:10145000B9FBE06838B1B0F5004F04D040F2A711F5
:10146000D7A005F0AFFB206944F20901884204D9F6
:101470004FF4D471D2A005F0A5FB606930B101280A
:1014800004D040F2A911CEA005F09CFB607F30B1E2
:10149000012804D04FF4D571C9A005F093FB206B4F
:1014A0004FF4806970B148450CD0B0F5006F09D099
:1014B000B0F5406F06D000E098E040F2AB11C0A05C
:1014C00005F080FBE06AB0F5A46F37D0B0F5A86FE7
:1014D00034D0484532D0B0F5846F2FD0B0F5886F46
:1014E0002CD0B0F5AC6F29D0B0F58C6F26D0B0F50C
:1014F000906F23D0B0F5BC6F20D0B0F5B06F1DD089
:10150000B0F5946F1AD0B0F5B46F17D0B0F5F86F8E
:1015100014D0B0F59C6F11D0B0F5A06F0ED0B0F51F
:10152000B86F0BD0B0F5F46F08D0B0F5986F05D058
:1015300020B14FF4D671A2A005F044FB606B50B10E
:10154000B0F1806F07D0B0F1006F04D040F2AD1160
:101550009BA005F037FB94F8380030B1012804D087
:101560004FF4D77196A005F02DFBA069042806D092
:10157000082804D040F2AF1191A005F023FBE06BE6
:1015800038B1B0F5805F04D04FF4D8718CA005F06D
:1015900019FB207F30B1012804D040F2B11188A09E
:1015A00005F010FB94F8400030B1012804D04FF44E
:1015B000D97183A005F006FB606918B3206A401E4C
:1015C0000F2804D94FF4DB717DA005F0FBFA94F8E5
:1015D000240018B301280CD040F2B71178A005F010
:1015E000F1FA94F82400012803D017E00120BDE8A7
:1015F000F883A06A401E072808D940F2BB1170A0EA
:1016000005F0E0FA94F82400012807D1607F012852
:1016100004D14FF4E0716AA005F0D4FAE06D28B966
:10162000204600F04DF9266684F8586020688168ED
:10163000C1F3407119B181686F4A1140816020681F
:101640008168C1F3007179B981686C4A114041F039
:10165000805181606A486B490068B0FBF1F000E09E
:10166000401E00900028FBD120688168C1F3007102
:1016700041B9E16D41F01001E165216E41F00101D8
:101680002166012503F015F8E16DC90600D430B1DB
:10169000E06D40F01000E06501252846A7E7E06D09
:1016A00020F4807040F00200E065206802F0FDFF49
:1016B00078B9D8F80800B968C0F30000C1F3000198
:1016C000084306D1504960688A6822F47C120243BC
:1016D0008A60E168E06B627F0843A16841EA4231B9
:1016E000084394F8241040EA0140012904D1218DD7
:1016F000464A02EB41410843E16A29B101F478719D
:10170000226B014342EA01002168CA68404B1A403B
:101710000243CA6020680169626B21F04061114395
:101720000161206802F0C5FF0646206802F0B9FF9B
:1017300006436FD1207F94F83810800340EA4101BE
:101740002068C26844F202039A430A43C2602069D7
:101750000028206801690AD041F4803101612068C5
:1017600050F8C01F22696FF30D01114307E021F407
:1017700080310161206850F8C01F6FF30D010160D6
:1017800094F84000012804D02068016921F001018B
:1017900083E0606C88B104283FD008283DD00C2835
:1017A0003BD0102839D0142837D0182835D01C2821
:1017B00033D04FF4207102A02DE02EE00001005044
:1017C0002E2E2F447269766572732F53544D333227
:1017D000473478785F48414C5F4472697665722F70
:1017E0005372632F73746D3332673478785F686136
:1017F0006C5F6164632E6300C0FFFF5FC0FFFF7F0B
:1018000020000020400D0300000300500000FEFFF8
:101810000740F0FF42E005F0D5F9A06CB0B12028F8
:1018200014D0402812D0602810D080280ED0A028D4
:101830000CD0C0280AD0E02808D0B0F5807F05D0B1
:1018400040F28121AFF2880005F0BCF9E06C40B1B4
:10185000B0F5007F05D040F28221AFF29C0005F088
:10186000B1F9206D012809D0A0F58061013905D0BA
:1018700040F28321AFF2B80005F0A4F9D4E91110C9
:101880000143D4E91302104301432068026940F286
:10189000FC739A43114341F0010101616069012821
:1018A0002068016B21F00F0102D1226A521E114300
:1018B0000163E06D20F0020040F00100E065ECE61D
:1018C00070B586B0064614216846FEF7EDFC306818
:1018D000B0F1A04F34D11B49C86C40F40050C8642B
:1018E000C86C00F400500590C86C40F00100C8645A
:1018F000C86C002500F0010005900720009003202F
:10190000CDE9010569464FF0904000F0C5F90F4C54
:101910000D4820600520C4E901058020C4E903507A
:10192000400060618000C4E906052046256200F0A1
:10193000B3F818B1872106A005F044F97465A662D2
:1019400006B070BD0010024044000240900000202C
:101950002E2E2F436F72652F5372632F6164632E97
:101960006300000070B590F8251000240122234682
:10197000022907D00421C16380F8252080F8243093
:10198000012429E001680D6825F00E050D6001684D
:101990000D6825F001050D60816C0D6825F48075DA
:1019A0000D6090F84410154601F01F018A40016C4B
:1019B0004A60D0E913124A60416D31B10A6822F4DD
:1019C00080720A60D0E916124A6080F8255080F8CB
:1019D0002430816B01B18847204670BDF0B4016CA2
:1019E0000B6801680A6890F84440042504F01F045D
:1019F00005FA04F61E4211D056070FD50A68920662
:101A000003D40A6822F004020A6090F8441001F03E
:101A10001F018D40016C4D60016B1DE0022606FA2E
:101A200004F71F424FF0000C4FF0010518D0970744
:101A300016D50A68920605D40A6822F00A020A60DE
:101A400080F8255090F8441001F01F018E40016C81
:101A50004E6080F824C0C16A00291AD0F0BC084743
:101A60000826A6401E4214D0120712D50A6822F09A
:101A70000E020A6090F84410026C01F01F0105FA92
:101A800001F15160C56380F8255080F824C0416B96
:101A9000E2E7F0BC7047000070B504007ED06E49EC
:101AA00020686E4D88422DD06B491431884229D070
:101AB00069492831884225D067493C31884221D084
:101AC0006549503188421DD063496431884219D03C
:101AD000A84217D061491431884213D05F49283198
:101AE00088420FD05D493C3188420BD05B49503170
:101AF000884207D059496431884203D0A32158A0B5
:101B000005F060F8A0684FF4804638B1102805D081
:101B1000B04203D0A42152A005F054F8E068402858
:101B200004D018B1A5214EA005F04CF820698028FA
:101B300004D018B1A6214AA005F044F8606948B164
:101B4000B0F5807F06D0B0F5007F03D0A72144A078
:101B500005F038F8A06948B1B0F5806F06D0B0F54F
:101B6000006F03D0A8213EA005F02CF8E06928B151
:101B7000202803D0A9213AA005F024F8206A60B1FA
:101B8000B0F5805F09D0B0F5005F06D0B0F5405FDA
:101B900003D0AA2132A005F015F800E014E0606837
:101BA000732803D9AC212EA005F00CF8206814216D
:101BB000A8420BD2284A52420244B2FBF1F18900FA
:101BC0006164254908390AE0012070BD234A524268
:101BD0000244B2FBF1F189006164204908392164B3
:101BE000022184F82510016847F6F0729143D4E988
:101BF00002231A43D4E904352B431A43A3691A4339
:101C0000E3691A43236A1A430A4302602046FEF737
:101C1000C5FEA0680025B04200D16560A16C2079A6
:101C20000860D4E9130141606068401E032808D8A9
:101C30002046FEF7D3FE606D0560D4E916014160D1
:101C400002E06565A565E565E563012084F825008A
:101C500084F82450002070BD0800024008040240AF
:101C60002E2E2F447269766572732F53544D333282
:101C7000473478785F48414C5F4472697665722FCB
:101C80005372632F73746D3332673478785F686191
:101C90006C5F646D612E63002DE9F84F0026DFF85C
:101CA00058A2DFF858B20D460446B0F1904F13D059
:101CB000544511D05C450FD0914884420CD09148D6
:101CC000844209D09048844206D09048844203D090
:101CD000B1218FA004F076FF28680104090C01D01F
:101CE000000C03D0B2218AA004F06CFF6868F8B140
:101CF00001281DD011281BD0022819D0122817D076
:101D00009249884214D09249884211D09149884220
:101D10000ED0914988420BD09049884208D0904912
:101D2000884205D0032803D0B32179A004F04AFFEC
:101D3000A868002807D00128FCD00228FAD0B421D6
:101D400073A004F03FFFCFE0012000FA06F817EA85
:101D500008077DD06868012805D0022803D0112823
:101D600001D012281DD1E86848B1012807D0022807
:101D700005D0032803D0C42165A004F023FFA16887
:101D80007000032282409143EA6882400A43A260C5
:101D90006068297920EA0800C1F30011B1400143CD
:101DA0006160E2687000032101FA00F8A9688146C9
:101DB00022EA080201FA09F11143E1606868022889
:101DC00001D012282AD1B4F1904F13D0544511D02C
:101DD0005C450FD04A4884420CD04A48844209D01E
:101DE0004948844206D04948844203D0DC2148A0B7
:101DF00004F0E8FE28690F2803D9DD2144A004F08F
:101E0000E1FEF00804EB8000026A7107C90E0F239F
:101E10008B409A432B698B401343036220682979D6
:101E200020EA080001F0030101FA09F101432160F1
:101E30006868C00057D54B48016E41F0010101664A
:101E4000006E26F0030100F001000090464800E01B
:101E500049E001448B68B007020F0F209040834394
:101E6000B4F1904F03D0544503D1012015E0002078
:101E700013E05C4501D102200FE02148844201D1EA
:101E800003200AE01F48844201D1042005E01E48D7
:101E9000844201D1052000E006209040184388606C
:101EA000324908686A68B843D20300D538430860ED
:101EB0002E49091D08686A68B843920300D5384363
:101EC00008602A49083108686A68B843D20200D518
:101ED0003843086025490C3108686A68B8439202A3
:101EE00000D538430860761C2F6837FA06F07FF477
:101EF0002BAFBDE8F88F0000000400480008004840
:101F0000000C004800100048001400480018004869
:101F10002E2E2F447269766572732F53544D3332CF
:101F2000473478785F48414C5F4472697665722F18
:101F30005372632F73746D3332673478785F6861DE
:101F40006C5F6770696F2E63000000000000111065
:101F500000002110000031100000121000002210BB
:101F60000000321000100240000001400004014057
:101F700070B515460C00064604D140F29D1107A02D
:101F800004F020FE45B1012D04D04FF4CF7103A021
:101F900004F018FEB46170BDB46270BD2E2E2F44E3
:101FA0007269766572732F53544D333247347878A3
:101FB0005F48414C5F4472697665722F5372632F9C
:101FC00073746D3332673478785F68616C5F677003
:101FD000696F2E63000000000148806870470000B0
:101FE00014000020024881684268114481607047F3
:101FF0001400002010B50024032000F0CDF80020CC
:1020000000F008F808B1012401E000F025F82046AE
:1020100010BD000070B50E4E05460024706898B1E2
:102020004FF47A71B1FBF0F00A490968B1FBF0F0A6
:1020300001F05EFA40B9102D06D200222946501E4A
:1020400000F05CF8356000E00124204670BD00001F
:1020500014000020200000200E4882B0016E41F0E4
:1020600001010166016E01F001010091816D41F0F5
:1020700080518165816D01F080510091816D41F049
:1020800080518165806D00F08050009002B000F0BA
:1020900047B900000010024010B5040003D5D32159
:1020A00007A004F08FFD002C09DB04F01F010120C4
:1020B00088406109890001F1E021C1F8000110BDEB
:1020C0002E2E2F447269766572732F53544D33321E
:1020D000473478785F48414C5F4472697665722F67
:1020E0005372632F73746D3332673478785F68612D
:1020F0006C5F636F727465782E63000070B5144670
:102100000D460646102A03D3BF2113A004F05AFD42
:10211000102D03D3C02110A004F054FD1D48006809
:10212000C0F30223C3F10700042800D90420191DBD
:10213000072901D2002300E0DB1E012202FA00F190
:10214000491E294099409A40521E22403046BDE81F
:102150007040114304F0D0B82E2E2F44726976657A
:1021600072732F53544D3332473478785F48414C63
:102170005F4472697665722F5372632F73746D3387
:1021800032673478785F68616C5F636F727465780A
:102190002E6300000CED00E010B5044607280BD0BC
:1021A000062C09D0052C07D0042C05D0032C03D015
:1021B000A72108A004F006FD154A04F007011068E5
:1021C0004FF6FF03184040EA01201249084310600F
:1021D00010BD00002E2E2F447269766572732F5346
:1021E000544D3332473478785F48414C5F447269CC
:1021F0007665722F5372632F73746D333267347840
:10220000785F68616C5F636F727465782E6300003D
:102210000CED00E00000FA052F4910B509682F4ABF
:1022200032232F4C594378B1B0F5007F31D0B0F54F
:10223000806F03D09E212BA004F0C4FC206820F402
:10224000C06040F480602DE02068C0F34120022887
:1022500004D054F8800F20F4807023E0D4F880007C
:1022600020F48070C4F88000206820F4C06040F43E
:1022700000702060B1FBF2F0401C00E0401E61697C
:10228000490501D50028F9D1606940050BD5032027
:1022900010BD2068C0F34120022806D054F8800FFA
:1022A00040F480702060002010BDD4F8800040F41D
:1022B0008070C4F88000206820F4C06040F4007092
:1022C0002060B1FBF2F0401C00E0401E616949054E
:1022D000DAD50028F9D1D7E72000002040420F00CE
:1022E000007000402E2E2F447269766572732F5352
:1022F000544D3332473478785F48414C5F447269BB
:102300007665722F5372632F73746D33326734782E
:10231000785F68616C5F7077725F65782E6300002C
:102320000248816841F4804181607047007000403C
:102330002DE9F84F044600260068FF4D3746C107D7
:1023400021D181071FD441071DD401071BD4810669
:1023500019D4410617D4010615D4C10513D481053B
:1023600011D441050FD401050DD4C1040BD481044F
:1023700009D4410407D4010405D4000306D48521FF
:10238000EEA004F01FFC206800036CD5206C4FF019
:10239000000960B1B0F5807F09D0B0F5007F06D0AC
:1023A000B0F5407F03D08D21E4A004F00BFCA86DB4
:1023B000C00009D4A86D40F08050A865A86D4FF00A
:1023C000010900F080500090DFF8ACA3DAF80010AB
:1023D00041F48071CAF80010FFF7FEFD804607E067
:1023E000FFF7FAFDA0EB0800022801D9032632E02E
:1023F000DAF80000C005F3D56EBBD5F8900010F4F4
:10240000407014D0216C814211D0D5F89000D5F8DD
:10241000901020F4407041F48031C5F89010D5F848
:10242000901021F48031C5F89010C5F89000C007D5
:102430007ED0FFF7D1FD804641F2883A05E0FFF7F4
:10244000CBFDA0EB08015145D0D8D5F8900080070E
:10245000F5D5002EECD03746B9F1000F03D0A86DAA
:1024600020F08050A8652078C00713D0606848B17C
:10247000012807D0032805D0022803D0E221AFA00D
:1024800004F0A0FBD5F88800616820F00300084341
:10249000C5F888002078800713D5A06848B10428C3
:1024A00007D00C2805D0082803D0EC21A3A004F005
:1024B00089FBD5F88800A16820F00C000843C5F816
:1024C00088002078400713D5E06848B1102807D06D
:1024D000302805D0202803D0F62198A004F072FB04
:1024E000D5F88800E16820F030000843C5F888007E
:1024F0002078000714D5206950B1402808D0C028A2
:1025000006D0802804D040F201118CA004F05AFBC0
:10251000D5F88800216920F0C0000843C5F888007C
:102520002078800619D5606978B1B0F5806F00E039
:102530005DE10AD0B0F5406F07D0B0F5006F04D070
:102540004FF48D717DA004F03DFBD5F888006169E2
:1025500020F440600843C5F888002078400614D570
:10256000A06950B1B0F5805F07D0B0F5005F04D02E
:102570004FF4927171A004F025FBD5F88800A16991
:1025800020F440500843C5F888002078000614D590
:10259000E06950B1B0F5804F07D0B0F5004F04D0DE
:1025A0004FF4977165A004F00DFBD5F88800E16940
:1025B00020F440400843C5F888002088C00514D5A1
:1025C000206A50B1B0F5803F07D0B0F5003F04D08D
:1025D0004FF49C7159A004F0F5FAD5F88800216AEF
:1025E00020F440300843C5F888002088800517D5BE
:1025F000606A68B1B0F5802F0AD0B0F5002F07D01F
:10260000B0F5402F04D04FF4A8714CA004F0DAFAD2
:10261000D5F88800616A20F440200843C5F8880096
:10262000208840051FD5A06A4FF4801660B1B042E3
:102630000AD0B0F5001F07D0B0F5401F04D04FF40A
:10264000AD713EA004F0BEFAD5F88800A16A20F46E
:1026500040100843C5F88800A06AB04203D1E8687A
:1026600040F48010E860208800051FD5E06A4FF430
:10267000800660B1B0420AD0B0F5000F07D0B0F5C7
:10268000400F04D04FF4B5712CA004F09BFAD5F89C
:102690008800E16A20F440000843C5F88800E06A39
:1026A000B04203D1E86840F48010E8602088C0049C
:1026B0001CD5206B4FF0807648B1B04207D0B0F106
:1026C000007F04D040F27B111CA004F07BFAD5F807
:1026D0008800216B20F040700843C5F88800206B0B
:1026E000B04203D1E86840F48010E86020884FF0E1
:1026F0000066800417D5606B30B1B04204D040F260
:102700008D110EA004F05EFAD5F88800616B20F000
:1027100040600843C5F88800606BB04203D1E868A8
:1027200040F48010E860208840043CD5A06B10B1D4
:10273000B04229D022E027E0001002402E2E2F4484
:102740007269766572732F53544D333247347878FB
:102750005F48414C5F4472697665722F5372632FF4
:1027600073746D3332673478785F68616C5F72635D
:10277000635F65782E630000007000404FF4CE71F7
:10278000AFF2480004F01EFAD5F88800A16B20F0E3
:1027900040600843C5F88800A06BB04203D1E868E8
:1027A00040F48010E860208800041DD5E06B4FF0F5
:1027B000805650B1B04208D0B0F1005F05D04FF460
:1027C000D571AFF2880004F0FDF9D5F88800E16B0F
:1027D00020F040500843C5F88800E06BB04203D1B8
:1027E000E86840F48030E8603846BDE8F88FD5F8F6
:1027F0009000216C20F440700843C5F890002BE64F
:102800002DE9F0470C4605004FF000075FD028681F
:10281000010701D0000904D040F20A31A3A004F05E
:10282000D1F914B3012C20D0022C1ED0032C1CD0C3
:10283000042C1AD0052C18D0062C16D0072C14D036
:10284000082C12D0092C10D00A2C0ED00B2C0CD036
:102850000C2C0AD00D2C08D00E2C06D00F2C04D036
:1028600040F20B3191A004F0ADF9DFF87892D9F87D
:10287000000000F00F00A0420CD2D9F8001021F0A7
:102880000F012143C9F80010D9F8000000F00F0033
:10289000A0421CD12878944EC00741F2883A66D0F5
:1028A0006868DFF8488201280DD002283AD0032852
:1028B00010D040F222317DA004F084F9686803282A
:1028C00008D002282ED03068400500282DDB0120DA
:1028D000BDE8F08730688001F9D5F06800F00301A9
:1028E000F068C0F30310401C032919D08049B1FBE4
:1028F000F0F0F168C1F306214843F168C1F341618A
:10290000491C4900B0FBF1F0404519D9B06810F0FE
:10291000F00F0ED02878800712D5A86848B10FE0D4
:102920007449E4E730688003CFE700F00FF94045D1
:1029300006D9B06820F0F00040F08000B060802739
:10294000B068696820F003000843B060FFF744FBFB
:10295000804605E0FFF740FBA0EB0801514552D847
:10296000B068696800F00C00B0EB810FF2D1286804
:1029700081072BD5400703D5B06840F4E060B06014
:102980002878000705D5B06820F4605040F4E06076
:10299000B060A868A0B1802812D0902810D0A028DC
:1029A0000ED0B0280CD0C0280AD0D02808D0E028FB
:1029B00006D0F02804D040F279313CA004F002F9AE
:1029C000B068A96820F0F000084304E0802F03D12C
:1029D000B06820F0F000B060D9F80010484601F06F
:1029E0000F01A14217D90168C84621F00F01214308
:1029F0000160FFF7F1FA0746D14606E0FFF7ECFA6F
:102A0000C11B494501D9032062E7D8F8000000F056
:102A10000F00A042F2D128784FF4806440074FF4B1
:102A2000A0674FF4C0684FF4E06914D5E86860B15E
:102A3000A0420AD0B84208D0404506D0484504D04C
:102A400040F29B3119A004F0BDF8B068E96820F4A9
:102A5000E0600843B0602878000715D5286960B1A8
:102A6000A0420AD0B84208D0404506D0484504D01C
:102A700040F2A2310DA004F0A5F8B068296920F455
:102A8000605040EAC100B06000F060F8B1681A4AD6
:102A9000C1F30311515C01F01F01C84017490860E0
:102AA00017480068BDE8F047FFF7B4BA2E2E2F4450
:102AB0007269766572732F53544D33324734787888
:102AC0005F48414C5F4472697665722F5372632F81
:102AD00073746D3332673478785F68616C5F7263EA
:102AE000632E6300002002400010024000B4C404C2
:102AF0000024F40000127A00046D00082000002079
:102B0000140000200548064900688968054AC1F399
:102B10000221515C01F01F01C840704720000020D5
:102B200000100240146D00080548064900688968D5
:102B3000054AC1F3C221515C01F01F01C840704732
:102B40002000002000100240146D0008184A10B543
:102B50009068C0F38101174801290BD09168441097
:102B6000C1F38101022906D09168C1F381010329D3
:102B700003D0002010BD204610BDD16801F0030332
:102B8000D168C1F30311491C032B02D0B0FBF1F053
:102B900001E0B4FBF1F0D168C1F306214843D168EC
:102BA000C1F34161491C4900B0FBF1F010BD0000C8
:102BB000001002400024F4002DE9F84304007DD009
:102BC000FE4D206870B1C1070FD1810763D4810623
:102BD00075D4010774D4400773D440F24311F8A0B0
:102BE00003F0F0FF2078C00752D060684FF48036C1
:102BF0004FF4A02740B1B04206D0B84204D040F212
:102C00004911EFA003F0DEFFA868E96800F00C00AE
:102C100001F003010C2802D0082809D001E00329A3
:102C200006D06068B0420AD1286840F4803013E0D2
:102C3000286880032CD560680028C0D028E0B842FE
:102C4000286803D140F480202860EDE720F480302C
:102C50002860286820F480202860606860B1FFF751
:102C6000BBF9064604E0FFF7B7F9801B64287CD85F
:102C700028688003F7D50BE0FFF7AEF9064604E0BD
:102C8000FFF7AAF9801B6428F1D828688003F7D4DD
:102C90002078800761D5E06838B1B0F5807F04D036
:102CA0004FF4BF71C6A003F08DFF20697F2804D9BF
:102CB00040F27F11C2A003F085FF03E0ACE04CE0DE
:102CC0004EE084E0A868E96800F00C0001F0030120
:102CD0000C2802D004280DD001E002290AD0E068B7
:102CE000002828682AD040F480702860FFF774F923
:102CF000064618E02868400502D5E06800289CD008
:102D00006868217C20F0FE4040EA01606860BA48B3
:102D10000068FFF77FF900287ED11EE0FFF75CF91D
:102D2000801B0228A3D828684005F7D56868217C55
:102D300020F0FE4040EA016068600EE020F4807000
:102D40002860FFF749F9064604E0FFF745F9801BC4
:102D500002288CD828684005F7D42078000733D59E
:102D60006069F0B1012808D000E0AFE14FF4E371F1
:102D700093A003F027FF606998B1D5F8940040F064
:102D80000100C5F89400FFF727F9064604E0FFF7B5
:102D900023F9801B0228C5D8D5F894008007F6D502
:102DA00012E0D5F8940020F00100C5F89400FFF778
:102DB00013F9064604E0FFF70FF9801B0228B1D88B
:102DC000D5F894008007F6D4207840076DD5A06828
:102DD000002740B1012806D0052804D04FF4F9712E
:102DE00077A003F0EFFEA86DC00008D4A86D40F0F6
:102DF0008050A865A86D012700F0805000907F48A2
:102E00000168C90512D40168804641F480710160EF
:102E1000FFF7E2F8064605E08EE1FFF7DDF8801BDC
:102E2000022896D8D8F80000C005F6D5A068012879
:102E300015D00528D5F8900016D020F00100C5F86F
:102E40009000D5F8900020F00400C5F89000A0682C
:102E500041F28838B8B1FFF7BFF806460EE0D5F862
:102E6000900040F00100F0E740F00400C5F8900049
:102E7000F5E7FFF7B1F8811B41458CD8D5F89000F4
:102E80008007F6D50CE0FFF7A7F8064604E0FFF749
:102E9000A3F8811B414592D8D5F890008007F6D45D
:102EA0001FB1A86D20F08050A8652078800631D52C
:102EB000A069E0B1012806D040F2392140A003F01A
:102EC00081FEA06998B1D5F8980040F00100C5F8DE
:102ED0009800FFF781F8064604E0FFF77DF8801BB5
:102EE00002289ED8D5F898008007F6D512E0D5F8CC
:102EF000980020F00100C5F89800FFF76DF806462D
:102F000004E0FFF769F8801B02288AD8D5F89800FA
:102F10008007F6D4E069002874D0012809D002287F
:102F200007D040F2622126A003F04CFEE0690028A1
:102F3000F2D0A868C0F381000328E0697DD00228A0
:102F40000FD0286820F080702860E86820F0030027
:102F5000E860E8682A490840E860FFF73DF8044661
:102F6000B7E0206A40B1022806D0032804D04FF40D
:102F70001B7113A003F026FE606A401E0F2804D9BF
:102F800040F26D210EA003F01DFEA06A08387728DC
:102F900004D940F26E210AA003F014FEE06A801EFC
:102FA0001D2804D940F26F2105A003F00BFE206B11
:102FB000022831D004282FD0062824E00010024037
:102FC0002E2E2F447269766572732F53544D33320F
:102FD000473478785F48414C5F4472697665722F58
:102FE0005372632F73746D3332673478785F68611E
:102FF0006C5F7263632E6300140000200070004059
:10300000FFFFEEFE9AE007D0082805D04FF41C71B0
:10301000AFF2540003F0D6FD606B02280BD00428F9
:1030200009D0062807D0082805D040F27121AFF258
:10303000700003F0C7FD286800E04EE020F08070CB
:103040002860FEF7C9FF064604E0FEF7C5FF801BB7
:1030500002283BD828688001F7D4F4E908016FF012
:103060000F0202EB01110843218A5204490802EBC6
:103070004151A26841EA02210843217D4FF07E427E
:10308000490802EB41610843217B40EAC160E968DD
:103090002B4A11400843E860286840F0807028609F
:1030A000E86840F08070E860FEF796FF044604E0B0
:1030B000FEF792FF001B022808D828688001F7D588
:1030C0003CE0FEF789FF001B022802D90320BDE87F
:1030D000F88328688001F4D430E00128F7D0E8684C
:1030E000226A00F00301914226D1616A00F0F002E9
:1030F0000901103991421FD1A26A00F4FE41B1EBDF
:10310000022F19D194F82C2000F07841B1EBC26F56
:1031100012D1218E00F4C00249084905A1F5001121
:10312000914209D194F8341000F0C0604908490672
:10313000A1F10071814201D00120C8E70020C6E75B
:103140000C809F012DE9F04104007CD0A14920684A
:1031500088420AD0A049884207D0A049884204D0BA
:1031600040F247119EA003F02DFD60684FF4827677
:1031700030B1B04204D04FF4A47199A003F022FD05
:10318000A0684FF4806748B1B84207D0B0F5004F4F
:1031900004D040F2491192A003F014FDE0684FF40E
:1031A00070684FF4E065404526D0B0F5606F23D0DD
:1031B000B0F5506F20D0B0F5406F1DD0B0F5306F36
:1031C0001AD0B0F5206F17D0B0F5106F14D0B0F54D
:1031D000006F11D0A8420FD0B0F5C06F0CD0B0F581
:1031E000A06F09D0B84207D0B0F5407F04D04FF4AB
:1031F000A5717BA003F0E6FCA069B0F5007F08D0C4
:1032000038B1B0F5802F04D040F24B1174A003F018
:10321000D9FC606B082805D020B14FF4A67170A0CE
:1032200003F0D0FCE069A0B1082812D0102810D01B
:1032300018280ED020280CD028280AD0302808D0F2
:10324000382806D000E036E040F24D1164A003F0CB
:10325000B9FC206A30B1802804D04FF4A77160A077
:1032600003F0B0FC606A002740B3102806D040F29B
:103270004F115BA003F0A6FC606AF8B1E06990B161
:10328000082810D010280ED018280CD020280AD0DA
:10329000282808D0302806D0382804D040F2611100
:1032A0004FA003F08FFC27616761A76294F85D006F
:1032B000002831D035E00120BDE8F081206930B12F
:1032C000022804D04FF4A97145A003F07BFC60698B
:1032D00030B1012804D040F2531141A003F072FC38
:1032E0006068B04216D1E0690028DED00828DCD042
:1032F0001028DAD01828D8D02028D6D02828D4D022
:103300003028D2D03828D0D040F2571134A003F062
:1033100059FCCAE7E761C8E784F85C70204600F012
:103320007BF8022084F85D002068016821F04001EC
:103330000160E068A84203D90021404502D104E0C1
:103340004FF48051A84200D0A762A088228900F4DF
:10335000827002F404421043227C02F00202104305
:10336000227D02F001021043228B02F4007210430E
:10337000227F02F03802104394F8202002F08002ED
:103380001043228D02F40052104322681060A0699D
:10339000042202EA104094F8242001F4805102F043
:1033A0001002104394F8342002F008021043A2895E
:1033B00002F4706210430843216848602068C169C4
:1033C00021F40061C1612766012084F85D000020BE
:1033D00072E700000030014000380040003C00402F
:1033E0002E2E2F447269766572732F53544D3332EB
:1033F000473478785F48414C5F4472697665722F34
:103400005372632F73746D3332673478785F6861F9
:103410006C5F7370692E6300F0B587B004461421A9
:103420006846FCF741FF16492068884226D11548B6
:10343000016E41F480510166016E01F480510591E5
:10344000C16C41F00201C164C06C022400F00200B2
:103450000590182001258DE8310005260A4FCDE999
:10346000034669463846FEF717FC20208DE83100F8
:10347000CDE9034669463846FEF70EFC07B0F0BDBD
:1034800000300140001002400004004810B54FF029
:10349000E02404280AD020B14FF4C27105A003F043
:1034A00091FB206920F00400206110BD206940F0EC
:1034B0000400F9E72E2E2F447269766572732F533C
:1034C000544D3332473478785F48414C5F447269D9
:1034D0007665722F5372632F73746D33326734784D
:1034E000785F68616C5F636F727465782E6300004B
:1034F00010B5401EB0F1807F01D3012010BD4FF008
:10350000E02460610F21601702F0F6FE0020A06148
:1035100007202061002010BD70477047704770473A
:10352000704770472DE9F05F04460068DFF85C9152
:10353000DFF85CB1574F0D46484517D0B0F1804FCA
:1035400014D0584512D0544988420FD0534988426C
:103550000CD05349884209D0B84207D0514988421B
:1035600004D040F6360150A003F02CFB2868A8B127
:10357000102813D0202811D030280FD040280DD08B
:1035800050280BD0602809D0702807D0B0F1007FF8
:1035900004D040F6370144A003F014FBA86880284B
:1035A00005D020B140F638013FA003F00BFB94F8A2
:1035B0003C00012868D04FF0010A84F83CA00220AA
:1035C00084F83D0020684668D0F80880484501D05E
:1035D000B84237D1686888B3B0F5801F2ED0B0F5F7
:1035E000001F2BD0B0F5401F28D0B0F5800F25D09C
:1035F000B0F5A00F22D0B0F5C00F1FD0B0F5E00F8E
:103600001CD0B0F5000F19D0B0F5100F16D0B0F5E2
:10361000200F13D0B0F5300F10D0B0F5400F0DD003
:10362000B0F5500F0AD0B0F5600F07D0B0F5700FAD
:1036300004D040F64A011CA003F0C4FA26F470003E
:103640006E68064327482168064028683043486072
:10365000206848450CD0B0F1804F09D0584507D0BC
:103660000D49884204D0B84202D00E49884204D1A4
:10367000AA6828F080010A43826084F83DA00020F7
:1036800084F83C00BDE8F09F0220FBE7002C0140DD
:1036900000040040003401400008004000100040D9
:1036A00000140040004001402E2E2F4472697665C0
:1036B00072732F53544D3332473478785F48414CFE
:1036C0005F4472697665722F5372632F73746D3322
:1036D00032673478785F68616C5F74696D5F6578B4
:1036E0002E6300008FFFFFFD7047704770B50446E2
:1036F000006801694FF00005C943890715D4C16806
:10370000C943890711D4E91E01610120207720688F
:1037100080698007204602D0FFF7E7FF04E000F051
:103720001FF9204600F042FB257720680169C94354
:10373000490717D4C168C943490713D46FF004017E
:103740000161022020772068806910F4407F2046C4
:1037500002D0FFF7CAFF04E000F002F9204600F0B3
:1037600025FB257720680169C943090716D4C1687C
:10377000C943090712D46FF00801016104202077C2
:103780002068C0698007204602D0FFF7AEFF04E042
:1037900000F0E6F8204600F009FB25772068016973
:1037A000C943C90617D4C168C943C90613D46FF009
:1037B00010010161082020772068C06910F4407F63
:1037C000204602D0FFF791FF04E000F0C9F8204640
:1037D00000F0ECFA257720680169C943C90708D1D0
:1037E000C168C943C90704D1891E0161204600F0A0
:1037F000CFFB20680169C943090609D4C168C943E0
:10380000090605D46FF0800101612046FFF785FEAF
:1038100020680169C943C90509D4C168C9430906BB
:1038200005D46FF4807101612046FFF775FE2068B2
:103830000169C943490609D4C168C943490605D489
:103840006FF040010161204600F0A3FB2068016990
:10385000C943890609D4C168C943890605D46FF0F4
:10386000200101612046FFF759FE20680169C94324
:10387000C90209D4C168C943C90205D46FF48011D3
:1038800001612046FFF74CFE20680169C9438902A7
:1038900009D4C168C943890205D46FF400110161DC
:1038A0002046FFF73CFE20680169C943490209D45C
:1038B000C168C943490205D46FF480010161204603
:1038C000FFF72FFE20680169C94309020BD4C168C4
:1038D000C943090207D46FF4000101612046BDE825
:1038E0007040FFF701BF70BD10B586B004461421CB
:1038F0006846FCF7D9FC2068B0F1804F21D112490D
:10390000C86C40F00100C864C86C002100F00100E0
:103910000590202000900220CDE901010120CDE991
:10392000031069464FF09040FEF7B6F9002120469B
:1039300000F03EFA002804D040F21F1103A003F06B
:1039400041F906B010BD0000001002402E2E2F439A
:103950006F72652F5372632F74696D2E63000000C0
:10396000704700002DE9F04116000D46044610D0C6
:10397000042E0ED0082E0CD00C2E0AD0102E08D0FB
:10398000142E06D03C2E04D041F26C0195A003F019
:1039900019F92868602816D0702814D0A0F5803155
:1039A000403910D0A0F5803150390CD0A0F58031CD
:1039B000603908D0A0F58031703904D041F26D0132
:1039C00088A003F0FFF8A86830B1022804D041F2C3
:1039D0006E0184A003F0F6F8286930B1042804D001
:1039E00041F26F017FA003F0EDF894F83C0001284C
:1039F00013D0012089498A4B8A4F8B4A84F83C00B6
:103A00004FF0804C0C2E7DD00ADCDFF820E266B14E
:103A1000042E35D0082E59D159E00220BDE8F0819E
:103A2000102E70D0142EF6D1B9E02068884214D040
:103A3000604512D0984210D0B8420ED090420CD0BF
:103A400070450AD07A49884207D07A49884204D022
:103A500041F2790163A003F0B5F82946206801F02E
:103A60007DFB2068816941F00801816120688169DE
:103A700021F004018161206881692A69114324E0F1
:103A8000206888420ED060450CD098420AD0B842D7
:103A900008D0904206D0704504D041F28A0151A06E
:103AA00003F090F82946206801F0E6FB2068816960
:103AB00041F4006181612068816921F48061816144
:103AC000206881692A6941EA0221816185E02068D4
:103AD00088420CD060450AD0984208D0B84206D03F
:103AE000904204D041F29B013EA003F06BF82946BE
:103AF000206801F049FC2068C16941F00801C161FA
:103B0000206801E009E02DE0C16921F00401C161F4
:103B10002068C1692A69114322E0206888420CD0DC
:103B200060450AD0984208D0B84206D0904204D0EE
:103B300041F2AC012BA003F045F82946206801F0C2
:103B4000ABFC2068C16941F40061C1612068C169B2
:103B500021F48061C1612068C1692A6941EA0221BA
:103B6000C1613AE02068884206D0904204D041F218
:103B7000BD011CA003F026F82946206801F014FDC1
:103B80002068016D41F0080101652068016D21F098
:103B9000040101652068016D2A6911431CE0206859
:103BA000884206D0904204D041F2CE010DA003F02D
:103BB00009F82946206801F02FFD2068016D41F4C5
:103BC000006101652068016D21F480610165206854
:103BD000016D2A6941EA02210165002084F83C0058
:103BE0001CE700002E2E2F447269766572732F53E6
:103BF000544D3332473478785F48414C5F447269A2
:103C00007665722F5372632F73746D333267347815
:103C1000785F68616C5F74696D2E6300002C0140F1
:103C20000004004000080040003401400040014012
:103C3000004401400048014010B504004CD03B490D
:103C4000206888421FD0B0F1804F1CD0384988428C
:103C500019D03849884216D03749884213D037499D
:103C6000884210D0364988420DD0364988420AD061
:103C70003549884207D03549884204D040F2165170
:103C800033A002F09FFFA06860B110280AD020285E
:103C900008D0402806D0602804D040F217512CA04C
:103CA00002F090FF206950B1B0F5807F07D0B0F5E9
:103CB000007F04D04FF4A36125A002F083FFA06928
:103CC00030B1802804D040F2195121A002F07AFFCF
:103CD00094F83D0010B107E0012010BD002084F8E9
:103CE0003C00204600F050F8022084F83D00211DE1
:103CF000206801F071F9012084F8480084F83E0042
:103D000084F83F0084F8400084F8410084F84200C1
:103D100084F8430084F8440084F8450084F84600A1
:103D200084F8470084F83D00002010BD002C0140BD
:103D30000004004000080040001000400014004053
:103D4000003401400040014000440140004801406F
:103D50002E2E2F447269766572732F53544D333271
:103D6000473478785F48414C5F4472697665722FBA
:103D70005372632F73746D3332673478785F686180
:103D80006C5F74696D2E630008B50068B0F1804FF8
:103D900008D10548816D41F001018165806D00F019
:103DA0000100009008BD00000010024070470000B4
:103DB0002DE9F05F05460068DFF87C81DFF87CA123
:103DC000DFF87CB1DFF87C915F4E604F0C464045D8
:103DD0000BD1002C57D0042C58D0082C59D00C2CC7
:103DE0004ED0102C58D0142C3BD0B0F1804F40D086
:103DF000504506D1E4B3042C48D0082C49D00C2CF3
:103E00003ED05349884206D194B3042C3ED0082CAE
:103E10003FD00C2C34D0B0420AD14CB3042C35D056
:103E2000082C36D00C2C2BD0102C35D0142C18D0BC
:103E3000B84202D1E4B1042C28D0584500D1BCB11D
:103E4000484500D1A4B140F29E5142A002F0BAFE12
:103E500074B1042C1AD0082C1BD00C2C10D0102CB0
:103E60001AD095F84300012819D00120BDE8F09F31
:103E700009E044B1042C09D0082C0AD00C2CE2D162
:103E800095F84100EFE795F83E00ECE795F83F0024
:103E9000E9E795F84000E6E795F84200E3E70220FD
:103EA000D4B3042C3CD0082C3DD00C2C3ED0102C8C
:103EB0003FD085F8430001222146286801F0E4F84C
:103EC0002868404507D0B04205D0B84203D05845D5
:103ED00001D0484503D1426C42F400424264286854
:103EE00040450BD0B0F1804F08D0504506D018495E
:103EF000884203D0B04201D0B84207D18168234A3A
:103F00001140062906D0B1F5803F03D0016841F089
:103F1000010101600020A9E7FFE785F83E00CAE73C
:103F200085F83F00C7E785F84000C4E785F8410001
:103F3000C1E785F84200BEE7002C014000040040C4
:103F4000004401400048014000340140004001406D
:103F5000000800402E2E2F447269766572732F532D
:103F6000544D3332473478785F48414C5F4472692E
:103F70007665722F5372632F73746D3332673478A2
:103F8000785F68616C5F74696D2E630007000100E3
:103F90007047704710B5044600681949884210D030
:103FA000184988420DD0184988420AD017498842DA
:103FB00007D01749884204D040F2112115A002F021
:103FC00001FE94F87C00012818D0012084F87C00C0
:103FD0002420C4F8800054F8600B0168026822F0C5
:103FE0000102026021F000500021616054F8602C51
:103FF0001060202020622177084610BD022010BDED
:10400000003801400044004000480040004C00409F
:10401000008000402E2E2F447269766572732F53F4
:10402000544D3332473478785F48414C5F4472696D
:104030007665722F5372632F73746D3332673478E1
:10404000785F68616C5F756172745F65782E63007C
:104050007047000070B50D46044600682649884246
:1040600010D0264988420DD0254988420AD02549DA
:10407000884207D02449884204D04FF41C7123A001
:1040800002F0A0FD9DB1B5F1007F10D0B5F1806FB9
:104090000DD0B5F1C06F0AD0B5F1006F07D0B5F102
:1040A000206F04D040F2712118A002F08BFD94F82B
:1040B0007C0001281DD0012084F87C002420C4F855
:1040C000800020680668016821F001010160206815
:1040D000816821F0606129438160204601F0BCFBCA
:1040E000206806602020C4F88000002084F87C004E
:1040F00070BD022070BD0000003801400044004047
:1041000000480040004C0040008000402E2E2F440C
:104110007269766572732F53544D33324734787811
:104120005F48414C5F4472697665722F5372632F0A
:1041300073746D3332673478785F68616C5F756172
:1041400072745F65782E630070B50D460446006892
:104150002649884210D0264988420DD025498842F8
:104160000AD02549884207D02449884204D040F229
:104170003F2123A002F026FD9DB1B5F1005F10D0D4
:10418000B5F1804F0DD0B5F1C04F0AD0B5F1004F59
:1041900007D0B5F1204F04D04FF4107118A002F0F1
:1041A00011FD94F87C0001281DD0012084F87C00CA
:1041B0002420C4F8800020680668016821F001010D
:1041C00001602068816821F06041294381602046B8
:1041D00001F042FB206806602020C4F88000002027
:1041E00084F87C0070BD022070BD000000380140E2
:1041F0000044004000480040004C00400080004067
:104200002E2E2F447269766572732F53544D3332BC
:10421000473478785F48414C5F4472697665722F05
:104220005372632F73746D3332673478785F6861CB
:104230006C5F756172745F65782E630070477047BC
:10424000704700002DE9F04102680446D06911680A
:10425000936840F60F0528424FF0000507D1C606C7
:104260007ED5CE067CD510201062E16E9DE0614EB9
:10427000614F1E400F40374372D0C70709D0CF05AA
:1042800007D501271762D4F8882042F00102C4F84C
:10429000882082070AD5DA0708D0276802223A6206
:1042A000D4F8882042F00402C4F8882042070AD5D6
:1042B000DA0708D0276804223A62D4F8882042F04E
:1042C0000202C4F8882002070CD501F02002324314
:1042D00008D0266808223262D4F8882042F008020A
:1042E000C4F8882002050BD54A0109D526684FF489
:1042F00000623262D4F8882042F02002C4F888209C
:10430000D4F88820002A33D0800609D501F0200097
:1043100003F08051084303D0E16E09B1204688477D
:10432000D4F8880021688968490602D410F0280F63
:1043300020D0204601F002FC20688168490614D58F
:10434000816821F040018160A06F70B12B498163C9
:10435000A06FFDF707FB00280AD0A06F816B01E07A
:104360000EE02046BDE8F04108472046FFF768FF11
:10437000BDE8F0812046FFF763FFC4F88850F7E7F7
:10438000C60209D55E0207D54FF4801010622046A0
:10439000BDE8F041FFF753BF060609D501F08006DE
:1043A00003F400031E4303D0216F0029D9D1DFE7B6
:1043B00043060DD54B060BD51168204621F0400170
:1043C00011602021C4F88010256700F057F9CFE76D
:1043D000020206D54A0004D52046BDE8F041FFF7A9
:1043E0002DBFC001C4D50029C2DA2046BDE8F04186
:1043F000FFF72EBE0100001020010004275B00081B
:1044000070B5040015D0A0692A4900282A4A2B4B10
:104410002B4D2C4E20680ED088421BD0904219D0D4
:10442000984217D0A84215D0B04213D040F23511AF
:104430000DE0012070BD88420CD090420AD0984215
:1044400008D0A84206D0B04204D04FF49D711EA0FF
:1044500002F0B8FBD4F8800028B9002084F87C0072
:10446000204600F04FF82420C4F88000206801683E
:1044700021F001010160204601F072FB0128D9D032
:10448000A06A10B1204601F019FA2068416821F4B1
:10449000904141602068816821F02A018160206894
:1044A000016841F0010101602046BDE8704001F063
:1044B0000BBB0000003801400044004000480040B1
:1044C000004C0040008000402E2E2F44726976651B
:1044D00072732F53544D3332473478785F48414CD0
:1044E0005F4472697665722F5372632F73746D33F4
:1044F00032673478785F68616C5F756172742E63BF
:10450000000000002DE9F04387B0044614216846FE
:10451000FBF7CAFE4F4A21684F480726102700259F
:104520004FF0020C4FF001084FF090434FF080091C
:10453000914234D1816D41F400318165816D01F486
:1045400000310591C16C41F00101C164C06CCDF82E
:10455000088000F0010005900C20CDE9000CCDE9A9
:10456000035669461846FDF797FB3D4E3B483060C1
:104570001B207060C6E90275C6E904953802B56172
:10458000C6E907503046FDF787FA18B1AD2135A0CE
:1045900002F018FB6667B46207B0BDE8F083364AE4
:1045A0009142F9D1016E41F480410166016E01F43E
:1045B00080410591C16C41F00101C164C06CCDF82E
:1045C000088000F0010005904FF4C060CDE9000CB8
:1045D000CDE9035669461846FDF75EFB204E1F489D
:1045E000C036143830601920C6E90107C6E90359FE
:1045F0007561B561F5614F4630463562FDF74CFA9D
:1046000018B1D62117A002F0DDFA6667B462144E25
:1046100012486036283830601820C6E90105C6E91E
:10462000035720207561C6E906500002306230460B
:10463000FDF732FA18B1E7210AA002F0C3FAA66723
:10464000002211462520B462FDF758FD2520FDF714
:1046500023FDA1E70044004000100240300002406A
:104660009C0300202E2E2F436F72652F5372632FF1
:1046700075736172742E630000380140006803494D
:10468000884202D102490120087070470038014079
:1046900000000020FEE700EB8100006E00F0F84013
:1046A00070478068C0F3C00070478068C0F30000A6
:1046B00070478068C0F3800070478068C0F3800056
:1046C0007047042303EAD15310B518444369C1F37A
:1046D000045107248C40A3438A401343436110BD17
:1046E00000EB8100016E21F000411143016670472B
:1046F00030B58BB0002408940994202168460A94B0
:10470000FBF7D2FD20484FF0A041042501604FF493
:104710004031C0E9011485610121C460C0E9044150
:1047200004774177016280F82440C462046380F812
:104730003840C46380F84040FCF738FE18B13A2195
:1047400012A002F03FFA08A90F480894FCF7DAF922
:1047500018B141210DA002F035FA11480090062051
:104760000190032002907F200594CDE9030569465E
:104770000548FCF7A5FA002803D04D2103A002F05C
:1047800021FA0BB030BD0000240000202E2E2F4354
:104790006F72652F5372632F6164632E6300000094
:1047A00004006008194808B5816C41F00401816477
:1047B000816C01F004010091816C41F00101816480
:1047C000806C002200F00100009011460B20FDF7E4
:1047D00095FC0B20FDF760FC002204210C20FDF766
:1047E0008DFC0C20FDF758FC002202210D20FDF766
:1047F00085FC0D20FDF750FC002205210E20FDF761
:104800007DFCBDE808400E20FDF746BC00100240CC
:104810002DE9F04186B014216846FBF745FD344888
:10482000C16C41F02001C164C16C01F0200105910F
:10483000C16C41F04001C164C16C01F040010591BF
:10484000C16C41F00101C164C16C01F0010105912D
:10485000C16C41F00201C164C06C4FF4004600F02D
:1048600002004FF090470590002231463846FDF790
:104870007FFBDFF88080002280214046FDF778FB37
:104880007011032400258DE8310069461A48FDF7B0
:1048900003FA41F670108DE8310069463846FDF79D
:1048A000FBF9012440F20110CDE9000469464046BD
:1048B0000294FDF7F1F9CDE9006469463846CDE987
:1048C0000245FDF7E9F94020CDE90005694602946B
:1048D0004046FDF7E1F98020CDE9000469464046F5
:1048E000CDE90245FDF7D8F906B0BDE8F08100003A
:1048F000001002400004004800180048134810B59A
:10490000114901604FF48271416000214FF4E0626F
:10491000C0E902120122C0E9041252028261082297
:10492000C0E9072107224162C0E90A12016341631D
:10493000FEF708FC18B1312105A002F043F9BDE8EB
:104940001040642002F074B900300140F0000020F3
:104950002E2E2F436F72652F5372632F7370692E43
:10496000630000001CB5684600F0A0FADDE90020F5
:1049700040F6C4114843010C204641F2883361F3EC
:104980001F40994205D9002161F31F404FF6FF7186
:1049900003E049F27A214A43110C61F30F001CBD78
:1049A000FEE77047704700002DE9F04107460B48CD
:1049B00015460E46007808B901F018FBEFF3118494
:1049C000202080F311882A463146384600F008F846
:1049D000E1B281F31188BDE8F0810000BC04002041
:1049E00070B50E46144900EB400001EBC0051446BB
:1049F000E86A183520B101280FD0022805D113E04C
:104A0000284601F027FBA04201D2002411E02246F3
:104A10003146284601F03EFC0BE0284601F01AFB27
:104A2000A042F4D20446F2E73146284601F005FCE4
:104A30000446204670BD0000BC0400200FB408B539
:104A400004A900916A46039900F004F801B05DF8EA
:104A500014FB00002DE9F74F16462DED068B98B09C
:104A600007A80C46029040200390002004909FED80
:104A7000A4AB1E99CDE9050114F8011B002973D0E0
:104A800025290AD002A801F0B9FB05980028F3DA1D
:104A900018B0BDEC068BBDE8FE8F00250121207803
:104AA000232820D02B281BD02D2802D0302808D135
:104AB00002E045F0010501E045F00205641C002913
:104AC000EDD14FF000082078A0F130010A290DD275
:104AD00008EB880100EB4100A0F13008641CF2E70C
:104AE00045F00405EAE745F00805E7E70027C1B20D
:104AF0002E290CD1641C2078A0F130010A2906D29D
:104B000007EB870100EB4107641C303FF3E76C289B
:104B10000DD068280BD066285AD00BDC252852D03F
:104B2000582829D063280ED064281CD110E014F82E
:104B3000010FECE770283AD0732829D0752814D0DB
:104B4000782810D118E03068011D316001783BE011
:104B500030683B46011D31600168CDE900850A22BD
:104B600002A801F082FAB9E0BAE030683B46011DC4
:104B700031600A22016805E030683B46011D316062
:104B800001681022CDE9008502A801F0D1FAA5E064
:104B90003068011D3160056815F8011B002905D03A
:104BA00002A801F02BFB05980028F5DA96E03068A2
:104BB0000022011D316001680820CDE90002034692
:104BC000102202A8E1E7252102A801F017FB85E0E9
:104BD0004FF001094FF00A0A07B902273068C01DDB
:104BE00020F0070000F10801316090ED008B51ECDE
:104BF000180BFBF797FC1790FBF783FC53EC182B73
:104C0000FBF70AFCB0EE4A0AF0EE6A0A41EC180B18
:104C100053EC102BFBF7BEFC0CD251EC180B81F0BF
:104C2000004141EC180B05E00AEB8A0009F101098B
:104C30004FEA400A179890FBFAF00028F4D1824618
:104C40009FED319B09E053EC192B51EC180BFBF74E
:104C5000E6FB41EC180B0AF1010ABA45F3D309EB64
:104C6000070000F1010BD8450FD9E8070DD18246A6
:104C7000A8EB0B00009006E0202102A801F0BEFA8C
:104C800000980AF1010A5045F6D84FF0000ACDE924
:104C9000009A4B460A2202A8179901F0E6F92E2144
:104CA00002A801F0ABFA51EC180BFBF75AFCCDE966
:104CB000007A01463B460A2202A801F039FAD8459B
:104CC0000CD9E8070AD00025A8EB0B0704E0202147
:104CD00002A801F093FA6D1CAF42F8D8641CD4E628
:104CE00000287FF7D5AE049820B1024607A91E9888
:104CF000FFF75AFEDDE9041008440590C8E60000FD
:104D0000000000000000000000000000000024403F
:104D10001C4810B51A4901604FF4E131416000218F
:104D200081600C22C160C0E904128161C16101622D
:104D300041628162FFF764FB18B1732112A001F098
:104D400041FF00210F48FFF7FFF918B178210EA0AD
:104D500001F038FF00210B48FFF77CF918B17C21E6
:104D600009A001F02FFF0748FFF714F9002805D02C
:104D7000BDE81040802104A001F024BF10BD000058
:104D800000380140100300202E2E2F436F72652F34
:104D90005372632F75736172742E630010B50146F0
:104DA00002A001F099FA002010BD00003C3C2D53F8
:104DB00050492D4552524F522D3E3E2053504920CE
:104DC000B5C8B4FDB3ACCAB1216572726F72436FDE
:104DD0006465203D2025640A000000007047FDF74F
:104DE00001B9000010B5A4B038216846FBF75CFAA1
:104DF00014211FA8FBF758FA44210EA8FBF754FA18
:104E00000020FDF709FA0120009000040190022023
:104E10000324CDE907045021CDE909010B900C9042
:104E20000D906846FDF7C8FE18B1ED2113A001F002
:104E3000C9FE0F20CDE91F040024219422940421EF
:104E40001FA82394FDF7DCFC18B1F9210BA001F099
:104E5000B9FE48F20300CDE90E044FF000501D905A
:104E600010940EA8FDF764FA002804D040F2031154
:104E700002A001F0A7FE24B010BD00002E2E2F438B
:104E80006F72652F5372632F6D61696E2E63000020
:104E90000548016841F47001016003494FF000606A
:104EA000803908607047000088ED00E02DE9F0418E
:104EB0004FF480544FF09045E7000646AF627020F3
:104EC00000F052F8AF610820A862A861A861A8614B
:104ED000A86214480AE02146641E0A2906D86FF029
:104EE0007F400021C6E90001BDE8F0810168490664
:104EF000F1D4AF62B02000F037F8002000F014F8D1
:104F00000446AF61012001F093FEAF62C02000F0C3
:104F10002BF8002000F008F8AF61001BC6E9004044
:104F2000E2E700001004004870B50024054626465C
:104F3000C5F3074000F018F82D02641C40EA06266D
:104F4000032CF5DB304670BD70B5002405462646BF
:104F5000280E00F009F82D02641C40EA0626042CF5
:104F6000F6DB304670BD000070B5124A4FF4805435
:104F7000114B146004E01168491E1160491C07D0F0
:104F800099688907F7D50D490D682873146006E004
:104F900000200BE01068401E1060401C05D098688F
:104FA000C007F7D00868C06802E00120FFF7F6FEEE
:104FB000C0B270BD0800002000300140F0000020A9
:104FC0000148FEF793BB0000540100200148FEF7A2
:104FD0008DBB0000EC0100202DE9F0430268234C5A
:104FE000234D244E244B4FF08049A04207D0484522
:104FF00005D0A84203D0B04201D0984203D122F09C
:1050000070074A683A431D4FDFF874C0DFF87480B8
:10501000A0420DD048450BD0A84209D0B04207D0DD
:10502000984205D0B84203D0604501D0404503D135
:1050300022F44075CA682A434D6922F080022A434F
:1050400002608A68C2620A688262A04207D09842FF
:1050500005D0B84203D0604501D0404501D109696F
:10506000016301214161BDE8F0830000002C014093
:1050700000040040000800400034014000400140AE
:10508000004401400048014070B504461E481646E1
:105090000D46844219D0B4F1804F16D01B4884428B
:1050A00013D01B48844210D01A4884420DD01A48AD
:1050B00084420AD01948844207D01948844204D057
:1050C00041F6856117A001F07DFD85B1042D0ED05C
:1050D000082D0CD00C2D0AD0102D08D0142D06D080
:1050E0003C2D04D041F686610EA001F06BFD05F069
:1050F0001F000121226A81408A432262216A864080
:105100003143216270BD0000002C014000040040CA
:1051100000080040003401400040014000440140CC
:10512000004801402E2E2F447269766572732F530A
:10513000544D3332473478785F48414C5F4472694C
:105140007665722F5372632F73746D3332673478C0
:10515000785F68616C5F74696D2E63002DE9F05FA4
:105160000446006A0D4620F001002062216A67684B
:10517000A0692D4AAE6810402A6820F0030042EA78
:10518000000821F00200DFF8A4900643DFF8A0A099
:10519000DFF8A0B04C4509D0544507D05C4505D098
:1051A0002548844202D0254884420ED1E86830B1B7
:1051B000082804D041F6243121A001F003FDE8685D
:1051C00026F00801084320F004064C4509D0544558
:1051D00007D05C4505D01848844202D01748844265
:1051E00019D1A869B0F5007F05D020B141F6313161
:1051F00013A001F0E7FC6869B0F5807F05D020B10D
:1052000041F632310EA001F0DDFC27F440716869EF
:10521000AF69084307436760C4F818806868606333
:105220002662BDE8F09F00008FFFFEFF002C0140CA
:10523000003401400040014000440140004801406A
:105240002E2E2F447269766572732F53544D33326C
:10525000473478785F48414C5F4472697665722FB5
:105260005372632F73746D3332673478785F68617B
:105270006C5F74696D2E63002DE9F0470446006A87
:105280000D4620F010002062216A6768A0692A4A52
:10529000DFF8A89010402A6820F4407040EA022805
:1052A00021F02000A968DFF898A040EA01164C45DB
:1052B00001D054450FD1E86830B1082804D041F638
:1052C0006F3120A001F07EFCE96826F0800040EA02
:1052D000011020F040064C450AD0544508D027481C
:1052E000844205D02648844202D0264884421BD1FD
:1052F000A869B0F5007F05D020B141F67D3111A03D
:1053000001F060FC6869B0F5807F05D020B141F6FE
:105310007E310CA001F056FC696927F4406040EA38
:105320008100A96940EA81076760C4F8188068684D
:10533000A0632662BDE8F087FF8FFFFE002C0140CE
:10534000003401402E2E2F447269766572732F53FC
:10535000544D3332473478785F48414C5F4472692A
:105360007665722F5372632F73746D33326734789E
:10537000785F68616C5F74696D2E63000040014066
:1053800000440140004801402DE9F0470446006A0E
:105390000D4620F480702062216A6768E0692A4A1D
:1053A000DFF8A89010402A6820F0030042EA0008C5
:1053B00021F40070A968DFF898A040EA01264C4566
:1053C00001D054450FD1E86830B1082804D041F627
:1053D000BA3120A001F0F6FBE96826F4006040EA4B
:1053E000012020F480664C450AD0544508D0274857
:1053F000844205D02648844202D0264884421BD1EC
:10540000A869B0F5007F05D020B141F6C73111A0E1
:1054100001F0D8FB6869B0F5807F05D020B141F676
:10542000C8310CA001F0CEFB696927F4405040EA76
:105430000110A96940EA01176760C4F81C80686818
:10544000E0632662BDE8F0878FFFFEFF002C01407D
:10545000003401402E2E2F447269766572732F53EB
:10546000544D3332473478785F48414C5F44726919
:105470007665722F5372632F73746D33326734788D
:10548000785F68616C5F74696D2E63000040014055
:1054900000440140004801402DE9F0470446006AFD
:1054A0000D4620F480502062216A6768E0692A4A2C
:1054B000DFF8A89010402A6820F4407040EA0228E3
:1054C00021F40050A968DFF898A040EA01364C4565
:1054D00001D054450FD1E86830B1082804D041F616
:1054E000054120A001F06EFBE96826F4004040EA87
:1054F000013020F480464C450AD0544508D0274856
:10550000844205D02648844202D0264884421BD1DA
:10551000A869B0F5007F05D020B141F6124111A075
:1055200001F050FB6869B0F5807F05D020B141F6ED
:1055300013410CA001F046FB696927F4404040EAA2
:105540008110A96940EA81176760C4F81C80686807
:1055500020642662BDE8F087FF8FFFFE002C01402B
:10556000003401402E2E2F447269766572732F53DA
:10557000544D3332473478785F48414C5F44726908
:105580007665722F5372632F73746D33326734787C
:10559000785F68616C5F74696D2E63000040014044
:1055A000004401400048014030B5026A22F48032D4
:1055B0000262056A4268036D114C23400C681C436B
:1055C00025F400330D8943EA05430E4DA8420BD064
:1055D0000D4DA84208D00D4DA84205D00C4DA84253
:1055E00002D00C4DA84204D14D6922F4803242EA27
:1055F00005224260046549688164036230BD000091
:105600008FFFFEFF002C01400034014000400140AC
:10561000004401400048014030B5026A22F4801283
:105620000262056A4268036D114C23400C6843EA2C
:10563000042425F400130D8943EA05530D4DA842B7
:105640000BD00D4DA84208D00C4DA84205D00C4DF2
:10565000A84202D00B4DA84204D14D6922F4802209
:1056600042EA8522426004654968C164036230BD34
:10567000FF8FFFFE002C014000340140004001403C
:10568000004401400048014070B500F07DF8114829
:10569000802404604FF47A75284601F0C9FA0D4958
:1056A00010390C60284601F0C3FA0BA000F014FE7C
:1056B000FFF724F90CA000F00FFE10480068016805
:1056C00041F04001016000F025F8BDE870400CA0F9
:1056D00000F002BE280400487464632068617320EF
:1056E00072657365740A00007464632073706920C6
:1056F000696E6974206F6B0A00000000F0000020E2
:105700007464632072657320696E6974206F6B0A1C
:105710000000000070B54FF09045124E4FF4004469
:10572000AC625020FFF720FCAC6100BF00BF00BF9F
:10573000AC628020FFF718FC3046FFF705FCAC6137
:1057400000BF00BF00BFAC62BC20FFF70DFC002013
:10575000FFF70AFC0146AC61BDE87040602202A080
:1057600000F0BABD60245A22636F6E6669672072CA
:1057700065676973743A2030782530327820307844
:10578000253032780A0000002DE9F04186B014215E
:105790006846FAF789FD1E48C16C41F00201C164F8
:1057A000C16C01F002010591C16C41F00101C164BD
:1057B000C06C012400F00100059003200827CDE90A
:1057C0000240CDE900744FF0904669463046FCF740
:1057D00063FA02208025CDE90240CDE90054DFF8CC
:1057E000348069464046FCF757FA4020009000207C
:1057F000CDE9010469464046FCF74EFAE003B0618A
:10580000B76204482830056006B0BDE8F0810000AA
:10581000001002400004004810B5FEF769FF0A209E
:1058200001F006FA7F210648FBF7ECF8002805D0C6
:10583000BDE81040502103A001F0C4B910BD000024
:10584000240000202E2E5C48444C5C6472765F7409
:10585000656D702E630000003FB514A1D1E90021F1
:10586000CDE9002113A1D1E90021CDE90221416E4A
:10587000B9B1026891689268C1F34261520F1DF894
:105880000240E50002ACA25CB5FBF2F2A0F86A208F
:105890001DF80120615CD200B2FBF1F1A0F86810A4
:1058A0003FBD0121A0F86A10F8E7000001010103E3
:1058B00007010000080402040801010170B5044654
:1058C000806AFF2804D940F624416CA001F07AF9DF
:1058D00094F82800C00710D0E06A38B1B0F5003F56
:1058E00004D040F6294165A001F06CF920684168B8
:1058F000E26A21F400311143416094F828008007E6
:1059000010D5206B38B1B0F5803F04D04FF443611F
:105910005AA001F057F920684168226B21F48031C8
:105920001143416094F82800400710D5606B38B1EE
:10593000B0F5802F04D040F6374150A001F042F975
:1059400020684168626B21F480211143416094F822
:105950002800000710D5A06B38B1B0F5004F04D077
:1059600040F63E4145A001F02DF920684168A26B48
:1059700021F400411143416094F82800C00610D57D
:10598000E06B38B1B0F5805F04D040F645413BA0F4
:1059900001F018F920688168E26B21F4805111430D
:1059A000816094F82800800610D5206C38B1B0F5DD
:1059B000005F04D040F64C4130A001F003F92068AC
:1059C0008168226C21F400511143816094F8280011
:1059D00040063DD53849206888420DD03749884275
:1059E0000AD03749884207D03649884204D040F669
:1059F000534122A001F0E6F8606C4FF4801530B1FD
:105A0000A84204D040F654411CA001F0DBF8206805
:105A10004168626C21F4801111434160606CA842BE
:105A200016D1A06C68B1B0F5001F0AD0B0F5800F98
:105A300007D0B0F5C00F04D040F659410FA001F0D7
:105A4000C1F820684168A26C21F4C0011143416093
:105A500094F82800000610D5E06C38B1B0F5002F9E
:105A600004D040F6614105A001F0ACF8206841681F
:105A7000E26C21F400211143416070BD2E2E2F44B1
:105A80007269766572732F53544D33324734787888
:105A90005F48414C5F4472697665722F5372632F81
:105AA00073746D3332673478785F68616C5F7561E9
:105AB00072742E6300000000003801400044004072
:105AC00000480040004C0040F8B500250446C0F8EE
:105AD0008850FCF781FA0746206800686FF07E4620
