:020000040800F2
:10000000E00C0020A1010008B5020008AD020008C4
:10001000B1020008A5020008510800080000000015
:10002000000000000000000000000000850600083D
:10003000A902000800000000E1020008890600088B
:10004000BB010008BB010008BB010008BB010008A0
:10005000BB010008BB010008BB010008BB01000890
:10006000BB010008BB010008BB010008BB01000880
:10007000BB010008BB010008BB010008BB01000870
:10008000BB010008BB010008BB010008BB01000860
:10009000BB010008BB010008BB010008BB01000850
:1000A000BB010008BB010008BB010008BB01000840
:1000B000BB010008BB010008BB010008BB01000830
:1000C000BB010008BB010008BB010008BB01000820
:1000D000BB010008BB010008BB010008BB01000810
:1000E000BB010008BB010008BB010008BB01000800
:1000F000BB010008BB010008BB010008BB010008F0
:1001000000000000BB010008BB010008BB010008A3
:10011000BB010008BB010008BB010008BB010008CF
:10012000BB010008BB010008BB010008BB010008BF
:10013000BB0100080000000000000000BB01000837
:10014000BB010008BB010008BB010008BB0100089F
:10015000BB010008BB010008BB010008BB0100088F
:10016000BB010008BB010008BB010008BB0100087F
:10017000BB010008BB010008BB0100080000000033
:10018000BB010008BB010008DFF810D000F036F812
:10019000004800474D0D0008AFF30080E00C002040
:1001A0000648804706480047FEE7FEE7FEE7FEE711
:1001B000FEE7FEE7FEE7FEE7FEE7FEE79106000842
:1001C0008901000840EA01039B0703D009E008C940
:1001D000121F08C0042AFAD203E011F8013B00F80C
:1001E000013B521EF9D27047034611F8012B00F86B
:1001F000012B002AF9D1184670470000064C074D24
:1002000006E0E06840F0010394E8070098471034E6
:10021000AC42F6D3FFF7BCFFE01200080013000861
:1002200008B500F01BFF012000231A460DA1009025
:10023000184600F057F800BF28230C4A0CA10020F4
:1002400000F00AF90CA20EA1002000F005F913A19C
:10025000002000F001F900BF4FF4E131104800F038
:1002600081FA08BD5254545550000000C5120008D0
:100270002573282564293A00312E302E30000000E5
:1002800052756E205247422041707020566572733D
:10029000696F6E2025730D0A000000000D0A000032
:1002A0000048004000BFFEE700BFFEE700BFFEE7DA
:1002B00000BFFEE700BFFEE710B5002807DA0A0717
:1002C000140E054A00F00F031B1FD45403E00A0765
:1002D000130E024A135410BD18ED00E000E400E0D4
:1002E00000BFFEE72DE9F04704460E461746984644
:1002F000DDF8209000BF2448007808B900F0AAFA81
:1003000000BF21480069A04239D9EFF311810846A6
:10031000202181F3118800BF00BF0CB304EB44021D
:100320001949183141F8326004EB440201EBC20173
:100330004F6004EB44021449183101EBC201C1F8CB
:100340000880002204EB44030F49183101EBC3017C
:100350000A6104EB44030C49183101EBC301CA6084
:1003600004EB44020849183101EBC201C1F81490B2
:10037000C1B281F3118800BF00BF002501E04FF03A
:10038000FF352846BDE8F087240000202DE9F04124
:1003900004460D46164600BF0D48007808B900F027
:1003A00059FA00BFEFF311800746202080F311882F
:1003B00000BF00BF32462946204600F00BF88046B9
:1003C000F8B280F3118800BF00BF4046BDE8F0815D
:1003D000240000202DE9F047074688461646C2460D
:1003E00007EB47011B4800EBC109D9F8140020B105
:1003F000012811D0022826D11EE0484600F062FAFA
:100400000546B54201D2002405E034463246514645
:10041000484600F0ACFB18E0484600F053FA0546A9
:10042000B54201D2284600E03046044622465146F5
:10043000484600F09CFB08E032465146484600F032
:100440005DFB044601E0002400BF00BF2046BDE87C
:10045000F08700003C0000200FB438B5044606A821
:1004600000906A462046059900F007F805460020EE
:100470000090284638BC5DF814FB2DE9F04F99B088
:1004800082460D46144603A8149040201590002083
:100490001690CDF860A0179000BF2E786D1C06B99D
:1004A000DDE0252E79D100274FF0010900BF2E781D
:1004B000232E12D02B2E0CD02D2E02D0302E10D168
:1004C00003E047F001076D1C0EE047F002076D1CCA
:1004D0000AE047F004076D1C06E047F008076D1CB2
:1004E00002E04FF0000900BF00BFB9F1000FDED1FC
:1004F0004FF0000800BF2E78302E01DB392E00DDD2
:1005000007E06D1CA6F1300008EB880100EB410804
:10051000F1E700BF002013902E782E2E12D16D1C13
:1005200000BF2E78302E01DB392E00DD09E06D1C76
:10053000A6F13000139901EB810100EB410013900B
:10054000EFE700BF2E7800BF6C2E01D0682E02D1DD
:100550006D1C2E7800E000E0F6E700BF702E5DD045
:1005600008DC252E6AD0582E35D0632E09D0642E93
:1005700069D113E0732E3CD0752E1DD0782E62D138
:1005800028E02168081D2060D1F8009009F0FF0BD9
:10059000594614A800F090FA56E058E02168081D6A
:1005A0002060D1F80090CDE900870A22494614A8BE
:1005B000139B00F095F947E02168081D2060D1F8F1
:1005C0000090CDE900870A22494614A8139B00F049
:1005D000FDF939E000BF2168081D2060D1F80090C6
:1005E000CDE900871022494614A8139B00F0EEF9CC
:1005F0002AE02168081D2060D1F800B000BF9BF8F8
:1006000000600BF1010B06B906E0314614A800F0BA
:1006100053FA17980028F2DA00BF15E02168081D88
:100620002060D1F80090002008210B461022CDE96F
:100630000010494614A800F0C9F905E0252114A8C6
:1006400000F03AFA00E000BF00BF6D1C03E0314645
:1006500014A800F031FA17980028BFF61EAF00BFAB
:10066000179800280ADD169820B103A95046169A5B
:10067000FFF78CFEDDE9161008441790179819B0A3
:10068000BDE8F08F00BFFEE710B500F0C9FA10BD5D
:1006900008B53048006840F470002E4908602E48C4
:1006A000006840F001002C49086000BF2A4800683B
:1006B00000F002000028F9D000BF27480830006889
:1006C00040F080002449083108600020009002E0DA
:1006D0000098401C009000985028F9D31E4808301C
:1006E000006840F090001C4908310860002000902C
:1006F00002E00098401C009000985028F9D300BFF9
:1007000015480830006820F00300134908310860DC
:1007100011480068114908400F4908600846006800
:1007200020F48020086000200B490831086000BFD9
:1007300009480830006800200028F9D10848064917
:10074000091D0860002004490C31086000F082FC9B
:1007500008BD000088ED00E000380240FFFFF6FE13
:100760001030002470B505460E4600243048284459
:1007700008B900BF00BF00BF2E4931F8140000F0D7
:10078000AFFB2D4931F8140000F0AAFB2B4931F8DA
:10079000140000F0A5FB2A4951F82420294951F8FA
:1007A0002400072100F05AFA274951F8242027494C
:1007B00051F82400072100F051FA214951F8243062
:1007C000204951F824000122022100F076FA1C4948
:1007D00051F824301B4951F824000222002100F076
:1007E00093FA194951F82430184951F8240001228C
:1007F000022100F062FA144951F82430134951F8EB
:1008000024000222002100F07FFA284600F0C6FCF6
:100810003146284600F04AFC0421284600F040FDFD
:100820000821284600F044FD284600F025FD70BD53
:1008300000B8FFBF1C0000201E00002008000020A0
:100840000C000020140000201000002018000020E0
:1008500000BFFEE710B5124C03202061606111A0BB
:10086000A0611349E1614FF4006121620021A1629E
:100870006162E1620BA020660E4961661021A166EB
:1008800000212167E16661670BA1E01DFFF7ACFC69
:100890000AA12046FFF7A8FC2020A07110BD00008F
:1008A000240000205465726D696E616C00000000C8
:1008B000CC000020CC080020525454005345474738
:1008C0004552000010B501460A69CB689A4204D827
:1008D0008C68641EE41AA01801E0D41A601E10BDD2
:1008E0002DE9FC5F06460F4692469846DDE90C4529
:1008F000002F01DA784200E0384683464FF00109C4
:1009000003E09BFBFAFB09F10109D345F9DAC8457D
:1009100000D9C14634B1002F03DB05F004000428E0
:1009200000D1641E05F0020010B1B8F1000F11D023
:1009300005F0010070B96CB108E0641E202130465A
:1009400000F0BAF8F068002800DA02E00CB1A14526
:10095000F3D300BFF068002836DB002F05DA7F42B2
:100960002D21304600F0A8F807E005F00400042827
:1009700003D12B21304600F09FF8F068002823DBDC
:1009800005F00200022814D105F0010088B9B8F181
:10099000000F0ED16CB108E0641E3021304600F02B
:1009A0008BF8F068002800DA02E00CB1A145F3D31F
:1009B00000BFF068002807DB434652463946304600
:1009C000CDE9004500F002F8BDE8FC9F2DE9FC5F91
:1009D0008046894615461E460C9CCDF8049001279A
:1009E000BB4605E00198B0FBF5F001900BF1010B5F
:1009F0000198A842F6D25E4500D9B3460D9800F0A2
:100A00000100D0B9CCB10D9800F00200022803D14A
:100A100016B93020009001E02020009009E0641E0B
:100A20004046009900F048F8D8F80C00002800DA99
:100A300002E00CB1A345F2D300BFD8F80C000028A7
:100A400035DB09E0012E01D9761E04E0B9FBF7FA87
:100A5000AA4500D201E06F43F4E700BF00BFB9FB35
:100A6000F7FA0AFB1799134810F80A10404600F0ED
:100A700023F8D8F80C00002800DA03E0B7FBF5F7FC
:100A8000002FECD100BF0D9800F0010078B174B1D7
:100A900009E0641E2021404600F00EF8D8F80C0052
:100AA000002800DA02E00CB1A345F2D300BFBDE894
:100AB000FC9F0000CE12000870B504460E46A568E3
:100AC000681C6168814206D320684655681CA06096
:100AD000E068401CE060D4E9011088420DD1A268B2
:100AE00021682069FFF752FCA168884203D04FF0CB
:100AF000FF30E06001E00020A06070BD2DE9F0470C
:100B00000446894617464FF0000AE56800BFD4F84E
:100B10001080A84503D9A8EB0500461E04E0A5EB0C
:100B20000800401CA1680E1AA068401BB04201D901
:100B3000304601E0A068401B0646BE4201D2304666
:100B400000E0384606466168481932464946FFF7D4
:100B500039FBB244B144BF1B3544A068A84200D160
:100B60000025E560002FD2D15046BDE8F0872DE981
:100B7000F047044689461546E668A068871BAF42E1
:100B800008D9616888192A464946FFF71BFB701986
:100B9000E06010E0B8466168881942464946FFF7B0
:100BA00011FBA5EB070809EB070142466068FFF758
:100BB00009FBC4F80C80BDE8F0870000014A024937
:100BC00000F013B8390C00082000002002E008C82B
:100BD000121F08C1002AFAD170477047002001E0B7
:100BE00001C1121F002AFBD170472DE9F0411646C2
:100BF0000F460446002503E03946B047641C6D1CCF
:100C000020780028F8D12846BDE8F0810349086023
:100C100000BF024909680029FBD17047000000208D
:100C20000448006820B103480068401E014908607C
:100C3000704700000000002070B504460D46E1B288
:100C4000054800F0A7FA00BF0721034800F019FB90
:100C50000028F9D0204670BD00480040F0B503469A
:100C60001C6A5D6A00200DE00126864016403EB1F8
:100C700087000F26BE40B443860001FA06F63443CF
:100C8000461CB0B20828EFD3082011E001268640A8
:100C900016405EB1A0F10806B7000F26BE40B5436E
:100CA000A0F10806B60001FA06F63543461CB0B2BC
:100CB0001028EBD31C625D62F0BDF0B504460D4612
:100CC00016462168E268002019E0012787401F408E
:100CD0009FB14FEA400C032707FA0CF7B9434700CE
:100CE00005FA07F739434FEA400C032707FA0CF7D8
:100CF000BA43470006FA07F73A43471CB8B2102830
:100D0000E3D32160E260F0BDF0B50C461546012C3E
:100D100003D146681E43466002E046689E43466033
:100D2000826800210DE001268E401E403EB14F003A
:100D30000326BE40B2434E0005FA06F632434E1C6F
:100D4000B1B21029EFD38260F0BD00000024FFF79C
:100D500067FA18E00CA0FFF731FF00BF1E230E4A10
:100D60000EA10020FFF778FB2246641C0DA1002095
:100D7000FFF772FB10A10020FFF76EFB00BF4FF4DE
:100D80007A70FFF743FFE5E748656C6C6F20576F9B
:100D9000726C640D0A000000C0120008257328253B
:100DA00064293A0048656C6C6F20576F726C642040
:100DB00025640D0A000000000D0A00002DE9F04F27
:100DC0008CB0064600200A903EA090E8004CC06817
:100DD000CDE905BECDF810A007900FF2EC0ADAE9D4
:100DE000000ACDE9020A0FF2E00ADAE9000ACDE9C9
:100DF000000A38480068C0F381000B900B9820B1BE
:100E0000012804D0022828D103E0334927E03349E0
:100E100025E03048001F006800F03F072D48001F04
:100E20000068C0F3881C2B48001F0068C0F3014015
:100E3000401C4FEA40092748001F006800F4800862
:100E4000B8F5800F01D1254B00E0234BB3FBF7F041
:100E500000FB0CF0B0FBF9F101E01F4900BF00BF3F
:100E60001C480068C0F3031404A8055D21FA05F2CC
:100E700018480068C0F3822402A8055D22FA05F034
:100E8000099014480068C0F342341DF8045022FA57
:100E900005F0089036B1012E06D0022E06D0032EA2
:100EA0000AD106E00A9108E00A9206E009980A9041
:100EB00003E008980A9000E000BF00BF0A980CB059
:100EC000BDE8F08F000000000000000001020304F4
:100ED00006070809083802400024F40040787D0124
:100EE000074A02EB9011D1F8001800F01F0301220D
:100EF0009A401143024B03EB9012C2F8001870475E
:100F000000300240074A02EB9011D1F8001800F0BF
:100F10001F0301229A409143024B03EB9012C2F847
:100F20000018704700300240074A02EB9011D1F8D8
:100F3000001800F01F0301229A401143024B03EBFB
:100F40009012C2F8001870470030024000200021C3
:100F50003D4A126842F480323B4B1A6000BF401C8D
:100F6000394A126802F4003119B94FF6FF72904203
:100F7000F5D1354A126802F4003232B900BF324A64
:100F8000126802F40032002AF9D02F4A4032126867
:100F900042F080522C4B40331A602C4A126842F4C3
:100FA00040422A4B1A60284A08321268264B0833FE
:100FB0001A601A46126842F400421A601A46126811
:100FC00042F4A0521A60224A1B1F1A601A1F1268AC
:100FD00042F080721B1F1A6000BF1B4A126802F0A9
:100FE0000072002AF9D0194A126842F48032174B75
:100FF0001A6000BF154A526802F48032002AF9D004
:10100000124A126842F40032104B1A6000BF0F4AB5
:10101000526802F40032002AF9D00B4A08321268F2
:1010200022F00302084B08331A601A46126842F095
:1010300002021A6000BF044A0832126802F0080275
:10104000002AF8D0704700000038024000700040CD
:101050001978400A10B5FFF779FF10BD10B5124896
:1010600000684FF47A71B0FBF1F4601EB0F1807F3C
:1010700001D301200FE0601E4FF0E02148610F21F5
:101080004FF0FF30FFF718F900204FF0E0218861A2
:1010900007200861002008B100BFFEE70021481EBC
:1010A000FFF70AF910BD0000040000202DE9F04709
:1010B00004460D460027B846B94600263349601A53
:1010C0008C4235D00CDC32482044E8B1B0F5806F5A
:1010D0001FD0B0F5006F21D0B0F5406F32D122E0C3
:1010E000B0F5806F29D0B0F5184F03D0B0F51C4F84
:1010F00028D104E00320FFF761FE074623E0032028
:10110000FFF75CFE07461EE00220FFF757FE07468A
:1011100019E00220FFF752FE074614E00220FFF715
:101120004DFE07460FE00220FFF748FE07460AE0A3
:101130000220FFF743FE074605E00220FFF73EFED0
:10114000074600E000BF00BFE06800F4004070B157
:10115000780000EB5500B0FBF5F64FF6F07006EAAC
:101160000008C6F3420948EA0900A0600CE007EB5A
:101170005500B0FBF5F64FF6F07006EA000806F0F1
:101180000F0948EA0900A060BDE8F0870078004038
:1011900000BCFFBFC1F308024260704710B50446AF
:1011A0003349601A8C424DD00CDC32482044E0B107
:1011B000B0F5806F22D0B0F5006F31D0B0F5406F40
:1011C00052D136E0B0F5806F45D0B0F5184F03D05E
:1011D000B0F51C4F48D11AE040F60410FFF7A4FE0A
:1011E00040F60410FFF78EFE3FE040F61100FFF7D7
:1011F0009BFE40F61100FFF785FE36E040F6120038
:10120000FFF792FE40F61200FFF77CFE2DE040F65D
:101210000510FFF789FE40F60510FFF773FE24E086
:1012200040F61300FFF780FE40F61300FFF76AFE5A
:101230001BE040F61400FFF777FE40F61400FFF7BE
:1012400061FE12E040F61E00FFF76EFE40F61E0043
:10125000FFF758FE09E040F61F00FFF765FE40F675
:101260001F00FFF74FFE00E000BF00BF10BD0000F1
:101270000078004000BCFFBFC16841F40051C1606C
:10128000704710B5024602EB9110006801F01F0490
:101290000123A340184008B1012010BD0020FCE745
:1012A0000A460021C16821F004011143C160704762
:1012B0000A460021C16821F008011143C16070474E
:1012C0006D61696E004253505F496E697400303140
:1012D00032333435363738394142434445460000CD
:1012E000001300080000002024000000CC0B0008C0
:1012F0002413000824000020BC0C0000DC0B0008B4
:1013000000000000001C4E0E12100000000400003F
:10131000000800000004024000040240010C010C1F
:0413200000000000C9
:040000050800018965
:00000001FF
