:020000040800F2
:10000000C00C0020A1010008AD020008A5020008F4
:10001000A90200089D020008B508000800000000C1
:100020000000000000000000000000007D06000845
:10003000A102000800000000D902000881060008A3
:10004000BB010008BB010008BB010008BB010008A0
:10005000BB010008BB010008BB010008BB01000890
:10006000BB010008BB010008BB010008BB01000880
:10007000BB010008BB010008BB010008BB01000870
:10008000BB010008BB010008BB010008BB01000860
:10009000BB010008BB010008BB010008BB01000850
:1000A000BB010008BB010008BB010008BB01000840
:1000B000BB010008BB0100085D070008BB01000888
:1000C000BB010008BB010008BB010008BB01000820
:1000D000BB010008BB010008BB010008BB01000810
:1000E000BB010008BB010008BB010008BB01000800
:1000F000BB010008BB010008BB010008BB010008F0
:1001000000000000BB010008BB010008BB010008A3
:10011000BB010008BB010008BB010008BB010008CF
:10012000BB010008BB010008BB010008BB010008BF
:10013000BB0100080000000000000000BB01000837
:10014000BB010008BB010008BB010008BB0100089F
:10015000BB010008BB010008BB010008BB0100088F
:10016000BB010008BB010008BB010008BB0100087F
:10017000BB010008BB010008BB0100080000000033
:10018000BB010008BB010008DFF810D000F036F812
:1001900000480047450D0008AFF30080C00C002068
:1001A0000648804706480047FEE7FEE7FEE7FEE711
:1001B000FEE7FEE7FEE7FEE7FEE7FEE7890600084A
:1001C0008901000840EA01039B0703D009E008C940
:1001D000121F08C0042AFAD203E011F8013B00F80C
:1001E000013B521EF9D27047034611F8012B00F86B
:1001F000012B002AF9D1184670470000064C074D24
:1002000006E0E06840F0010394E8070098471034E6
:10021000AC42F6D3FFF7BCFF8C150008AC15000804
:1002200008B500F0EBFE012000231A460CA1009057
:10023000184600F053F800BF26230B4A0BA10020FC
:1002400000F006F90BA20DA1002000F001F912A1A7
:10025000002000F0FDF800BF00F026FB08BD000004
:10026000525454555000000073150008257328257A
:1002700064293A00312E302E3000000052756E2075
:10028000524742204170702056657273696F6E202C
:1002900025730D0A000000000D0A000000BFFEE7F4
:1002A00000BFFEE700BFFEE700BFFEE700BFFEE7BE
:1002B00010B5002807DA0A07140E054A00F00F03EC
:1002C0001B1FD45403E00A07130E024A135410BD37
:1002D00018ED00E000E400E000BFFEE72DE9F04784
:1002E00004460E4617469846DDF8209000BF244885
:1002F000007808B900F0E0FA00BF21480069A04288
:1003000039D9EFF311810846202181F3118800BF0C
:1003100000BF0CB304EB44021949183141F83260B4
:1003200004EB440201EBC2014F6004EB44021449A8
:10033000183101EBC201C1F80880002204EB44032C
:100340000F49183101EBC3010A6104EB44030C4966
:10035000183101EBC301CA6004EB440208491831AB
:1003600001EBC201C1F81490C1B281F3118800BF42
:1003700000BF002501E04FF0FF352846BDE8F087BB
:10038000080000202DE9F04104460D46164600BF46
:100390000D48007808B900F08FFA00BFEFF3118024
:1003A0000746202080F3118800BF00BF324629464F
:1003B000204600F00BF88046F8B280F3118800BFA9
:1003C00000BF4046BDE8F081080000202DE9F0475D
:1003D000074688461646C24607EB47011B4800EB16
:1003E000C109D9F8140020B1012811D0022826D162
:1003F0001EE0484600F098FA0546B54201D20024B6
:1004000005E0344632465146484600F0E2FB18E02B
:10041000484600F089FA0546B54201D2284600E078
:100420003046044622465146484600F0D2FB08E0DA
:1004300032465146484600F093FB044601E0002452
:1004400000BF00BF2046BDE8F0870000200000206C
:100450000FB438B5044606A800906A4620460599B0
:1004600000F007F8054600200090284638BC5DF8EB
:1004700014FB2DE9F04F99B082460D46144603A8AF
:1004800014904020159000201690CDF860A0179091
:1004900000BF2E786D1C06B9DDE0252E79D100272E
:1004A0004FF0010900BF2E78232E12D02B2E0CD036
:1004B0002D2E02D0302E10D103E047F001076D1C25
:1004C0000EE047F002076D1C0AE047F004076D1CC0
:1004D00006E047F008076D1C02E04FF0000900BF7E
:1004E00000BFB9F1000FDED14FF0000800BF2E7839
:1004F000302E01DB392E00DD07E06D1CA6F1300047
:1005000008EB880100EB4108F1E700BF00201390E1
:100510002E782E2E12D16D1C00BF2E78302E01DBCE
:10052000392E00DD09E06D1CA6F13000139901EBB6
:10053000810100EB41001390EFE700BF2E7800BF70
:100540006C2E01D0682E02D16D1C2E7800E000E0E8
:10055000F6E700BF702E5DD008DC252E6AD0582E3D
:1005600035D0632E09D0642E69D113E0732E3CD0B0
:10057000752E1DD0782E62D128E02168081D2060DC
:10058000D1F8009009F0FF0B594614A800F0C6FA04
:1005900056E058E02168081D2060D1F80090CDE9B0
:1005A00000870A22494614A8139B00F0CBF947E0C4
:1005B0002168081D2060D1F80090CDE900870A224B
:1005C000494614A8139B00F033FA39E000BF2168B4
:1005D000081D2060D1F80090CDE90087102249461F
:1005E00014A8139B00F024FA2AE02168081D20605B
:1005F000D1F800B000BF9BF800600BF1010B06B909
:1006000006E0314614A800F089FA17980028F2DABB
:1006100000BF15E02168081D2060D1F8009000207F
:1006200008210B461022CDE90010494614A800F01D
:10063000FFF905E0252114A800F070FA00E000BFE2
:1006400000BF6D1C03E0314614A800F067FA17984C
:100650000028BFF61EAF00BF179800280ADD1698C5
:1006600020B103A95046169AFFF78CFEDDE916105B
:1006700008441790179819B0BDE8F08F00BFFEE747
:1006800010B500F0DBFA10BD08B53048006840F442
:1006900070002E4908602E48006840F001002C4987
:1006A000086000BF2A48006800F002000028F9D066
:1006B00000BF27480830006840F080002449083116
:1006C00008600020009002E00098401C0090009814
:1006D0005028F9D31E480830006840F090001C49AB
:1006E000083108600020009002E00098401C009053
:1006F00000985028F9D300BF15480830006820F052
:100700000300134908310860114800681149084086
:100710000F4908600846006820F480200860002027
:100720000B490831086000BF094808300068002004
:100730000028F9D108480649091D0860002004492D
:100740000C31086000F056FC08BD000088ED00E0A8
:1007500000380240FFFFF6FE1030002410B50121E2
:10076000044800F0F8FE012803D10121014800F0FF
:10077000EFFE10BD0008004010B540F6014000F04B
:100780006DFB082301220221074800F092FA08239A
:1007900002220021044800F0B3FA08220121024895
:1007A00000F058FA10BD00000004024000B587B008
:1007B0004FF4805000F052FB4FF0807000F084FB4B
:1007C0004FF0804000F0ACFD0020ADF80000ADF827
:1007D0000200ADF80400EF2002900020ADF8060002
:1007E0008DF80C0069464FF0804000F061FE00205B
:1007F000ADF814000120ADF810000020ADF816008F
:10080000ADF81200ADF81800ADF81A0004AA0121E5
:10081000880700F021FC01221146900700F03FFDFF
:1008200060220121880700F00DFD002201218807C8
:1008300000F048FD4FF0804000F008FC4FF0804091
:1008400000F030FE41F2020000F008FB154800F015
:1008500067FD1D20ADF800000020ADF80200ADF8E6
:1008600004004FF4C86002900020ADF806008DF837
:100870000C0069460B4800F01BFE002211461E20AA
:1008800000F080FA0121074800F062FE01210548CE
:1008900000F05AFE034800F0D9FB024800F002FEC7
:1008A00007B000BD0008004010B5FFF765FFFFF777
:1008B0007DFF10BD00BFFEE710B5124C0320206184
:1008C000606111A0A0611349E1614FF400612162F0
:1008D0000021A1626162E1620BA020660E4961669F
:1008E0001021A16600212167E16661670BA1E01D6F
:1008F000FFF77AFC0AA12046FFF776FC2020A071C2
:1009000010BD0000080000205465726D696E616CB6
:1009100000000000B0000020B00800205254540035
:10092000534547474552000010B501460A69CB6858
:100930009A4204D88C68641EE41AA01801E0D41A04
:10094000601E10BD2DE9FC5F06460F469246984694
:10095000DDE90C45002F01DA784200E03846834695
:100960004FF0010903E09BFBFAFB09F10109D345B4
:10097000F9DAC84500D9C14634B1002F03DB05F0D0
:100980000400042800D1641E05F0020010B1B8F183
:10099000000F11D005F0010070B96CB108E0641EC1
:1009A0002021304600F0BAF8F068002800DA02E0B2
:1009B0000CB1A145F3D300BFF068002836DB002F4F
:1009C00005DA7F422D21304600F0A8F807E005F057
:1009D0000400042803D12B21304600F09FF8F06872
:1009E000002823DB05F00200022814D105F00100E5
:1009F00088B9B8F1000F0ED16CB108E0641E302147
:100A0000304600F08BF8F068002800DA02E00CB104
:100A1000A145F3D300BFF068002807DB43465246E8
:100A200039463046CDE9004500F002F8BDE8FC9FAC
:100A30002DE9FC5F8046894615461E460C9CCDF884
:100A400004900127BB4605E00198B0FBF5F001904A
:100A50000BF1010B0198A842F6D25E4500D9B346CE
:100A60000D9800F00100D0B9CCB10D9800F0020053
:100A7000022803D116B93020009001E02020009018
:100A800009E0641E4046009900F048F8D8F80C00D0
:100A9000002800DA02E00CB1A345F2D300BFD8F879
:100AA0000C00002835DB09E0012E01D9761E04E098
:100AB000B9FBF7FAAA4500D201E06F43F4E700BFA3
:100AC00000BFB9FBF7FA0AFB1799134810F80A1090
:100AD000404600F023F8D8F80C00002800DA03E0C4
:100AE000B7FBF5F7002FECD100BF0D9800F0010027
:100AF00078B174B109E0641E2021404600F00EF880
:100B0000D8F80C00002800DA02E00CB1A345F2D3BB
:100B100000BFBDE8FC9F00007C15000870B50446CE
:100B20000E46A568681C6168814206D32068465558
:100B3000681CA060E068401CE060D4E901108842B5
:100B40000DD1A26821682069FFF71CFCA1688842CA
:100B500003D04FF0FF30E06001E00020A06070BDE6
:100B60002DE9F0470446894617464FF0000AE5682C
:100B700000BFD4F81080A84503D9A8EB0500461E95
:100B800004E0A5EB0800401CA1680E1AA068401BF9
:100B9000B04201D9304601E0A068401B0646BE4283
:100BA00001D2304600E038460646616848193246B0
:100BB0004946FFF707FBB244B144BF1B3544A06868
:100BC000A84200D10025E560002FD2D15046BDE8F3
:100BD000F0872DE9F047044689461546E668A06887
:100BE000871BAF4208D9616888192A464946FFF732
:100BF000E9FA7019E06010E0B84661688819424669
:100C00004946FFF7DFFAA5EB070809EB0701424663
:100C10006068FFF7D7FAC4F80C80BDE8F08702E0FF
:100C200008C8121F08C1002AFAD170477047002077
:100C300001E001C1121F002AFBD17047044800687F
:100C400020B103480068401E014908607047000059
:100C500000000020F0B503461C6A5D6A00200DE02C
:100C60000126864016403EB187000F26BE40B443A1
:100C7000860001FA06F63443461CB0B20828EFD3CA
:100C8000082011E00126864016405EB1A0F108065A
:100C9000B7000F26BE40B543A0F10806B60001FA22
:100CA00006F63543461CB0B21028EBD31C625D62D9
:100CB000F0BDF0B504460D4616462168E2680020F6
:100CC00019E0012787401F409FB14FEA400C0327DE
:100CD00007FA0CF7B943470005FA07F739434FEA1B
:100CE000400C032707FA0CF7BA43470006FA07F748
:100CF0003A43471CB8B21028E3D32160E260F0BD4C
:100D0000F0B50C461546012C03D146681E434660DB
:100D100002E046689E434660826800210DE001269D
:100D20008E401E403EB14F000326BE40B2434E00EF
:100D300005FA06F632434E1CB1B21029EFD3826099
:100D4000F0BD0000FFF76CFA00BF1C23074A08A1A2
:100D50000020FFF77DFB08A10020FFF779FB08A129
:100D60000020FFF775FB00BF00BFFEE76E1500080F
:100D70002573282564293A0052554E2041505000D1
:100D80000D0A00002DE9F04103460D4616460024E9
:100D90000027A0462A48006800F4E060B0F5E06F44
:100DA00003D100BF4FF0040830E02548006800F48C
:100DB000E060B0F5C06F03D101274FF0030825E0D4
:100DC0001F48006800F4E060B0F5A06F02D1022770
:100DD000B8461BE01A48006800F4E060B0F5806F88
:100DE00003D103274FF0010810E01548006800F414
:100DF000E060B0F5407F03D104274FF0000805E024
:100E00004FF4A06000F020F80227B846C7F10400B4
:100E100005FA00F4C8F104010F20C8403040044333
:100E200024010848C45403F01F01012088405911CF
:100E3000890001F1E021C1F80001BDE8F081000066
:100E40000CED00E000E400E002490143024A1160B9
:100E5000704700000000FA050CED00E0074A02EBC5
:100E60009011D1F8001800F01F0301229A4011439D
:100E7000024B03EB9012C2F800187047003002409A
:100E8000074A02EB9011D1F8001800F01F0301226D
:100E90009A409143024B03EB9012C2F8001870473E
:100EA00000300240074A02EB9011D1F8001800F020
:100EB0001F0301229A401143024B03EB9012C2F828
:100EC00000187047003002406FF08071884205D1F1
:100ED000054909680140044A116004E002490968B3
:100EE0000143014A116070478C3802400020002104
:100EF0003D4A126842F480323B4B1A6000BF401CEE
:100F0000394A126802F4003119B94FF6FF72904263
:100F1000F5D1354A126802F4003232B900BF324AC4
:100F2000126802F40032002AF9D02F4A40321268C7
:100F300042F080522C4B40331A602C4A126842F423
:100F400040422A4B1A60284A08321268264B08335E
:100F50001A601A46126842F400421A601A46126871
:100F600042F4A0521A60224A1B1F1A601A1F12680C
:100F700042F080721B1F1A6000BF1B4A126802F009
:100F80000072002AF9D0194A126842F48032174BD5
:100F90001A6000BF154A526802F48032002AF9D064
:100FA000124A126842F40032104B1A6000BF0F4A16
:100FB000526802F40032002AF9D00B4A0832126853
:100FC00022F00302084B08331A601A46126842F0F6
:100FD00002021A6000BF044A0832126802F00802D6
:100FE000002AF8D07047000000380240007000402E
:100FF0001978400A10B5FFF779FF10BD10B51248F7
:1010000000684FF47A71B0FBF1F4601EB0F1807F9C
:1010100001D301200FE0601E4FF0E02148610F2155
:101020004FF0FF30FFF744F900204FF0E0218861D6
:1010300007200861002008B100BFFEE70021481E1C
:10104000FFF736F910BD000004000020016841F0F0
:10105000800101607047000010B531B101293FD017
:1010600002297DD003297CD1BFE0036A23F001036C
:101070000362836923F003038361036A14882343B3
:101080000362036A23F002030362036A9488234322
:1010900003626A4B984202D0694B98421FD1036A9F
:1010A00023F004030362036A548823430362036A40
:1010B00023F008030362036AD4882343036243686E
:1010C00023F4807343604368148923434360436877
:1010D00023F4007343604368548923434360ABE0C7
:1010E000036A23F010030362836923F4407383616E
:1010F000036A148843EA04130362036A23F020039B
:101100000362036A948843EA041303624B4B9842D8
:1011100002D04B4B984226D1036A23F0400303626E
:10112000036A548843EA04130362036A23F08003CA
:101130000362036AD48843EA04130362436823F416
:10114000806343604368148943EA840343604368CF
:1011500023F4006343604368548943EA840301E055
:1011600002E068E0436067E0036A23F4807303628F
:10117000C36923F00303C361036A148843EA0423A9
:101180000362036A23F400730362036A948843EAE8
:1011900004230362294B984202D0294B984223D161
:1011A000036A23F480630362036A548843EA0423D6
:1011B0000362036A23F400630362036AD48843EA88
:1011C00004230362436823F4805343604368148913
:1011D00043EA04134360436823F4005343604368C5
:1011E000548943EA0413436026E0036A23F48053DE
:1011F0000362C36923F44073C361036A148843EA3A
:1012000004330362036A23F400530362036A94887D
:1012100043EA04330362094B984202D0084B9842D8
:1012200008D1436823F4804343604368148943EA48
:101230008413436000E000BF00BF10BD0000014008
:101240000004014031B101290CD0022913D0032937
:1012500022D118E0836923F070038361836913430B
:1012600083611AE0836923F4E0438361836943EA7D
:101270000223836111E0C36923F07003C361C36972
:101280001343C36109E0C36923F4E043C361C36945
:1012900043EA0223C36100E000BF00BF704731B1E1
:1012A000012906D0022906D0032908D105E04263AE
:1012B00006E0826304E0C26302E0026400E000BF73
:1012C00000BF704731B101290CD0022913D0032986
:1012D00022D118E0836923F00803836183691343F3
:1012E00083611AE0836923F400638361836943EABD
:1012F0000223836111E0C36923F00803C361C3695A
:101300001343C36109E0C36923F40063C361C36984
:1013100043EA0223C36100E000BF00BF7047000042
:1013200010B504465C49601A8C426FD019DC5B49E9
:10133000A4EB01008C424ED009DCB4F1804F2ED0DA
:1013400057482044A0B3B0F5806F72D13AE0B0F5B1
:10135000806F49D0B0F5006F4FD0B0F5406FF4D139
:101360007BE0B0F5923F5BD009DCB0F5806F73D0C5
:10137000B0F5644F0AD0B0F5684F5AD147E0B0F5E8
:10138000943F57D0B0F5963F53D15CE04FF41060D6
:10139000FFF788FD4FF41060FFF772FD79E04FF41E
:1013A0000060FFF77FFD4FF40060FFF769FD70E01C
:1013B000FFE740F60100FFF775FD40F60100FFF77B
:1013C0005FFD66E040F60200FFF76CFD40F60200AC
:1013D000FFF756FD5DE040F60300FFF763FD40F6C2
:1013E0000300FFF74DFD54E040F60400FFF75AFDFF
:1013F00040F60400FFF744FD4BE040F60500FFF720
:1014000051FD40F60500FFF73BFD42E02EE040F6BF
:101410000110FFF747FD40F60110FFF731FD38E0FE
:101420004FF41160FFF73EFD4FF41160FFF728FD08
:101430002FE02DE040F61110FFF734FD40F61110BB
:10144000FFF71EFD25E040F61210FFF72BFD40F6DA
:101450001210FFF715FD1CE011E040F60600FFF743
:1014600021FD40F60600FFF70BFD12E040F60700F5
:10147000FFF718FD40F60700FFF702FD09E040F610
:101480000800FFF70FFD40F60800FFF7F9FC00E049
:1014900000BF00BF10BD0000001C0040000C004059
:1014A00000FCFFBF016841F00101016070470000CE
:1014B0000A8882621D4A90420ED0B0F1804F0BD054
:1014C0001B4A904208D01B4A904205D01A4A9042CB
:1014D00002D01A4A90420BD1026822F070020260D8
:1014E00002684B881A43026002688B881A430260C4
:1014F0008A68C262124A90420AD0124A904207D0C9
:10150000026822F4407202600268CB881A430260CB
:10151000064A904202D0094A904201D10A7B0263F6
:10152000426942F001024261704700000000014040
:101530000004004000080040000C0040000401408E
:101540000010004000140040C2680A43C2607047A7
:10155000CA43026170470246D06800EA010310697D
:10156000084010B10BB1012070470020FCE76D610D
:10157000696E004253505F496E69740030313233F6
:10158000343536373839414243444546AC150008B6
:1015900000000020080000001E0C0008B415000820
:1015A00008000020B80C00002E0C0008000000000D
:0415B000001C4E0EBF
:040000050800018965
:00000001FF
