:020000040800F2
:10000000D01C0020A10100087F0500087B05000826
:100010007D050008F5030008B50800080000000091
:100020000000000000000000000000008305000840
:10003000F703000800000000810500081906000809
:10004000BB010008BB010008BB010008BB010008A0
:10005000BB010008BB010008BB010008BB01000890
:10006000BB010008BB010008BB010008BB01000880
:10007000BB010008BB010008BB010008BB01000870
:10008000BB010008BB010008BB010008BB01000860
:10009000BB010008BB010008BB010008BB01000850
:1000A000BB010008BB010008BB010008BB01000840
:1000B000BB010008BB010008BB010008BB01000830
:1000C000BB010008BB010008BB010008BB01000820
:1000D000BB010008BB010008BB010008BB01000810
:1000E000BB010008BB010008BB010008BB01000800
:1000F000BB010008BB010008BB010008BB010008F0
:1001000000000000BB010008BB010008BB010008A3
:10011000BB010008BB010008BB010008BB010008CF
:10012000BB010008BB010008BB010008BB010008BF
:10013000BB0100080000000000000000BB01000837
:10014000BB010008BB010008BB010008BB0100089F
:10015000BB010008BB010008BB010008BB0100088F
:10016000BB010008BB010008BB010008BB0100087F
:10017000BB010008BB010008BB0100080000000033
:10018000BB010008BB010008DFF810D000F054F8F4
:100190000048004741140008AFF30080D01C002045
:1001A0000648804706480047FEE7FEE7FEE7FEE711
:1001B000FEE7FEE7FEE7FEE7FEE7FEE71D060008B6
:1001C0008901000840EA01039B0703D009E008C940
:1001D000121F08C0042AFAD203E011F8013B00F80C
:1001E000013B521EF9D27047D2B201E000F8012B58
:1001F000491EFBD270470022F6E710B513460A46A7
:1002000004461946FFF7F0FF204610BD30B50B46F7
:10021000014600202022012409E021FA02F59D4236
:1002200005D303FA02F5491B04FA02F52844151E0A
:10023000A2F10102F1DC30BD064C074D06E0E0689A
:1002400040F0010394E8070098471034AC42F6D31D
:10025000FFF79EFF581A0008781A00082DE9F047AA
:10026000A0F590401C4615468946B0F1804F3ED11E
:10027000B5F1FF3F14BF164640F2054601215A4F23
:10028000384600F09DFE20220121384600F0ECFEA9
:1002900032460121384600F047FF0121384600F080
:1002A00098FEDFF848810421404601F0BCFB68B9A4
:1002B000B4F1FF3F04D0641E19D3012000F06CFE9E
:1002C0000421404601F0AFFB0028F1D0404601F088
:1002D00017FB0121384600F02DFF301A84B2B5F12A
:1002E000FF3F08D00121384600F024FF18B14FF03D
:1002F000FF30BDE8F08722463D494846FFF762FFE0
:100300000020BDE8F0872DE9F0470125A0F59040D9
:100310000E461446B0F1804F1CBF4FF0FF30BDE8D1
:10032000F0870121304F384600F04AFE202201219B
:10033000384600F099FE2A460121384600F0F4FEC6
:100340000121384600F045FEDFF8A0900421484620
:1003500001F069FB4FF0FF3870B900BFB4F1FF3F07
:1003600004D0641E16D3012000F016FE0421484676
:1003700001F059FB0028F1D0484601F0C1FA0121F3
:10038000384600F0D7FE281A84B20121384600F022
:10039000D1FE10B14046BDE8F087224614493046F0
:1003A000FFF710FF0020BDE8F08770B51446054642
:1003B00001F0AAFA0721284601F035FB88B900BFF1
:1003C000B4F1FF3F07D0641E02D24FF0FF3070BD82
:1003D000012000F0E1FD0721284601F024FB002860
:1003E000EED0002070BD00000060024000480040D8
:1003F000C9140020FEE770472DE9F001B1F1006F4C
:1004000072D3404A6FF07843128803EB82228A420B
:100410006AD35C1C5F13A3125D1E4FF480464FF439
:100420008038B1F1016F23D2A1F1006C4FEA9C3109
:10043000042906D2F82202EAC10C334604EB8132C9
:1004400026E00422082906D211464FF0200C43462C
:100450002D4A2E4C4EE04FEA5C424FEAC20C111D71
:100460000CF1200C04EB42420CF0F80C541941E062
:10047000A1F1016C4FEA9C321021042A0AD2D30068
:10048000803302F10C0103F0F80C334604EB8232A6
:10049000D4192FE0082A05D24FF0A00C43461C4A7D
:1004A0001C4C27E04FF00164402A0DD24FEA5C4219
:1004B0004FEAC20C02F110010CF1A00C04EB424215
:1004C0000CF0F80C541915E04FEA9C42D30040336D
:1004D00002F1140103F0F80C4FF4802304EB824284
:1004E0005C1E144406E0FFE74FF0FF318C46634684
:1004F0001A4614460461C0E9001CC0E90232BDE896
:10050000F0017047227AFF1F00000108FFFF010879
:1005100000001108FFFF110810B5044600F072FE3C
:10052000D32000F00DFE204600F046FED32000F060
:1005300007FEBDE8104000F009BE00002DE9F041C3
:1005400016460F46054600F05DFED32000F0F8FD8C
:100550000024002E0DD900BF57F82410284600F0C3
:1005600065FED3202D1D00F0EBFD601C84B2A64279
:10057000F2D8BDE8F04100F0E9BDFEE7FEE77047C4
:100580007047704710B508A000F00AFC00F094F91D
:10059000002804DABDE8104012A000F001BCBDE85C
:1005A000104016A000F0FCBB57616974696E6720AB
:1005B000666F72207468652066696C6520746F20B0
:1005C00062652073656E74202E2E2E202870726551
:1005D00073732027612720746F2061626F72742902
:1005E0000A0D000050726F6772616D6D696E672051
:1005F0006572726F72210A0D0000000050726F6701
:1006000072616D6D696E6720436F6D706C657465A6
:10061000642E0A0D0000000000F0C6BC454818B466
:10062000016841F4700101604349086840F001002D
:100630000860086810F0020FFBD04048026842F0E2
:100640008002026000230093009A521C0092502AFC
:10065000FAD3026842F0900202600093009A521CA2
:100660000092502AFAD3026822F0030202600A685C
:1006700022F4102222F080720A600A6822F480229A
:100680000A60036002682F4C2D4A22602E4A1360D4
:100690000B68002243F480330B604FF6FF7C0B683D
:1006A000521C13F4003F01D16245F8D10A6812F4DC
:1006B000003F03D10A6812F4003FFBD0234A1368BD
:1006C00043F080531360224A136843F4404313609D
:1006D00003680360036843F400430360036843F462
:1006E000A05303601B4B23600B6843F080730B60C7
:1006F0000B6813F0007FFBD0116841F4803111606A
:10070000516811F4803FFBD0116841F40031116051
:10071000516811F4003FFBD0016821F00301016032
:10072000016841F002010160016811F0080FFBD07F
:1007300018BC704788ED00E00038024008380240DD
:1007400010300024043802400C3802404038024087
:10075000007000401978400A10B58AB040F6154084
:1007600001F032F8214C0121204600F04FFC00211D
:100770001F48CDE90201201507901E480691009000
:10078000012001904FF44030049108906A46012105
:10079000204600F086FC0121204600F02EFC0422B9
:1007A0000121204600F01EFC0121204600F011FC32
:1007B0000321204600F02AFC402006900E480290BB
:1007C000092007906A460321204600F06AFC0321B5
:1007D000204600F012FC04220321204600F002FC17
:1007E0000321204600F0F5FB0AB010BD0060024076
:1007F000C914002004480040340000202DE9F047CF
:10080000814628488846008800F0DEFF2648008898
:1008100000F0DAFF2548008800F0D6FF244C0721BD
:1008200004F108052268286800F036FD261D04F151
:100830000C0732680721386800F02EFD236801227A
:100840000221286800F0ACFD2368022200212868FC
:1008500000F0D0FD336801220221386800F0A0FDCD
:10086000336802220021386800F0C4FD484601F0D8
:100870004FF84146484600F0F7FF0421484601F092
:10088000DEF80821484601F0E0F88021484601F0F2
:10089000BBF84021484601F0ADF84846BDE8F047B6
:1008A00001F0BCB81E000020200000201C00002029
:1008B00024000020FEE700002DE9F04F89B0002160
:1008C0000F460691089141F2210B07914FF47A707F
:1008D000FA4CFB4D002603460090721E2146284626
:1008E000FFF7BCFC0028C0F2D0812078182800F067
:1008F000C28108DC01280DD002287BD0042800F03A
:100900009E8100F0C2B9412818BF612840F0BD8126
:1009100000F0E5B9EB484FF08001C1606178A27842
:100920008E4682F0FF02914240F0AF81D0F80C90E9
:1009300004F1030A00221146B9F1000F88BF4FF6F7
:10094000FF7C14D91AF8013092B2082012F4004F3B
:100950000CEA420202EBD31292B218BF82EA0B02F7
:100960005B061B0E401EF1D1491C4945EAD390B2EB
:1009700000210822DC464FF6FF7300BF10F4004F41
:1009800003EA400000EBD11080B218BF80EA0C00EF
:100990004906090E521EF1D1002180B25FF0080213
:1009A00010F4004F03EA400000EBD11080B218BFF2
:1009B00080EA0C004906090E521EF1D1DFF80493BB
:1009C000D9F80C1021440A79D9F80C102144C978BF
:1009D00042EA0121814240F058815FEA0E007DD158
:1009E000E078002800F024811AF80600D046741C34
:1009F00050B100E02CE0802C80F0478118F8040012
:100A0000611CCCB20028F4D1621E4146AE48FFF70B
:100A1000D9FB002308EB040219466FF02F0C09E004
:100A2000A0F130040A2C0CD203EB83030CEB43033C
:100A30000344491C505C002818BF2028F0D1A1486D
:100A40000360D9F80000B0F5F02F7DD800F0E4B8CD
:100A50009C494FF48060C8606078A278864682F036
:100A6000FF02904240F01181084604F1030AD0F8D9
:100A70000C9000221146B9F1000F88BF4FF6FF78A5
:100A800015D91AF8013092B25FF0080012F4004F45
:100A900008EA420202EBD31292B218BF82EA0B02BA
:100AA0005B061B0E401EF1D1491C4945E9D390B2AB
:100AB00000210822DC464FF6FF7300BF10F4004F00
:100AC00003EA400000EBD11080B218BF80EA0C00AE
:100AD0004906090E521EF1D180B200E021E000214A
:100AE0005FF0080210F4004F03EA400000EBD11061
:100AF00080B218BF80EA0C004906090E521EF1D1DF
:100B0000DFF8C081D8F80C10D8F80C2021440979FE
:100B10002244D27841EA022181427BD15FEA0E0071
:100B20003CD0684C5146E068684E87B260683A46EF
:100B30003044FFF747FB6068384460606068B0F598
:100B4000805F24D3606800E05AE00005000D06D005
:100B5000C0F580516068FF223044FFF745FBA16873
:100B600001A8FFF749FC029E2069B04203D030463D
:100B7000FFF7D2FC26614FF480625449A068FFF76A
:100B8000DDFCA06800F58050A060002060600621B8
:100B90002846009AFFF709FC0320ABE0E078D0B3C9
:100BA0001AF80600D146741C38B1802C6DD219F8A1
:100BB0000400611CCCB20028F7D1621E49464248AD
:100BC000FFF700FB002309EB040219466FF02F0C1E
:100BD0000AE000BFA0F130040A2C0CD203EB83031F
:100BE0000CEB43030344491C505C002818BF202829
:100BF000F0D134480360D8F80000B0F5F02F0BD9DD
:100C000018212846009AFFF7D0FB18212846009AA1
:100C1000FFF7CBFB39E00BE006212846009AFFF7EF
:100C2000C4FB43212846009AFFF7BFFB012061E087
:100C300006212846009AFFF7B8FB02205AE015214A
:100C40002846009AFFF7B1FB611C2846009AFFF77F
:100C50005AFB002804BF6078042816D14FF0060123
:100C60002846009AFFF7A1FB43212846009AFFF788
:100C70009CFB04203EE0611C2846009AFFF743FBE2
:100C8000002804BF6078182822D0079800283ADD91
:100C90007F1C0A2F7FF61AAE094C4FF47A72182186
:100CA0002046FFF782FB4FF47A7218212046FFF7A7
:100CB0007CFB4FF0FF3009B0BDE8F08FC41000207E
:100CC000004800400000002044000020C400002034
:100CD00006212846009AFFF768FB05200AE0182144
:100CE0002846009AFFF761FB18212846009AFFF773
:100CF0005CFB06200027072822D2DFE800F0210B4A
:100D0000250B1C1F1F004FF47A7243212846FFF762
:100D10004CFBDBE51F4841780698814206D04FF432
:100D20007A7206212846FFF740FBCFE5401C06906B
:100D300001200790CAE500200690C7E50020BAE729
:100D4000089800283FF4C2AD134C60680005000D00
:100D500007D0C0F58051114862681044FF22FFF7A8
:100D600043FAA1686846FFF747FB019D2069A84246
:100D700003D02846FFF7D0FB25614FF48062074976
:100D8000A068FFF7DBFBA06800F58050A0600020A2
:100D9000606090E7C410002000000020C400002024
:100DA0000FB4054B10B503A9044A029800F018F8D7
:100DB00010BC5DF814FB0000751200084000002014
:100DC00002E008C8121F08C1002AFAD17047704714
:100DD000002001E001C1121F002AFBD17047000072
:100DE0002DE9FF4F8BB09A460F460546002606E0D8
:100DF00025280BD052460D9990476D1C761C2878FB
:100E00000028F5D10FB03046BDE8F08F0024A04691
:100E10000122604900E0044315F8013F203B02FA3B
:100E200003F00842F7D128782E2817D115F8010FC2
:100E300044F004042A280ED06FF02F022878A0F185
:100E4000300109290AD808EB880102EB410100EBC7
:100E500001086D1CF2E757F8048B6D1C287869288F
:100E60003ED006DC0028CDD063280BD0642804D106
:100E700036E0732810D075284BD052460D99904714
:100E8000761C85E017F8040B8DF8000000208DF823
:100E90000100E946012003E057F8049B4FF0FF30C2
:100EA00061074FF0000401D40AE0641C44450DDAE8
:100EB0008442FADB19F804100029F6D106E0641C1C
:100EC0008442FCDB19F804100029F8D1264404E020
:100ED00019F8010B52460D999047641EF8D257E05D
:100EE00001CF4FF00A0B002802DA40422D2102E028
:100EF000210504D52B218DF82410012103E0E10701
:100F000005D02021F7E70DF1200908910CE0002120
:100F1000F9E701CF4FF00A0BF9E75946FFF776F9E9
:100F200001F1300209F8012D0028F6D1ADEB0900DE
:100F300000F1200B600701D44FF00108D84502DD15
:100F4000A8EB0B0000E000208046002406E009A882
:100F50005246005D0D999047641C761C08988442A7
:100F6000F5DB04E0302052460D999047761CB8F12D
:100F70000001A8F10108F5DC05E019F8010B524663
:100F80000D999047761CBBF10001ABF1010BF4DC2D
:100F90006D1C34E709280100024908600868002830
:100FA000FCD170471800002004480168002908BFE0
:100FB00070470168491E016070470000180000205A
:100FC00001EB410100EBC100016921F00101016168
:100FD000704701EB410100EBC100016941F00101E3
:100FE0000161704701EB410100EBC100016921F093
:100FF000606141EA42610161704701EB410100EB30
:10100000C100016921F480710161704701EB410267
:1010100000EBC202136923F0010313610023136183
:1010200053619361D3611362212353623D220429EA
:101030000CD201EB41035B00C1F3400103EB8101E2
:1010400002FA01F18268114381607047091F01EBC8
:1010500041035B00C1F3400103EB810102FA01F19E
:10106000C2681143C160704704290CD201EB4103EF
:101070005B00C1F3400103EB810102FA01F18268D8
:10108000114381607047091F01EB41035B00C1F30D
:10109000400103EB810102FA01F1C2681143C16012
:1010A000704701EB410110B400EBC100416A21F02F
:1010B00004014162116881619168C161D169416136
:1010C0000169D2F820C01369946943EA0C0C21F439
:1010D000635144EA830321F450314CEA030319437A
:1010E00001615168D9B1012901690CBF21F4007176
:1010F00041F400410161D168002901690CBF41F44C
:10110000806121F4806101615169002901690CBF8E
:1011100041F4807121F48071016110BC7047016954
:1011200041F400710161E6E701EB410100EBC10010
:101130004261704701EB410100EBC100406970471B
:1011400001490860704700000C3C024002480168F9
:1011500041F0004101607047103C0240154B0246CF
:101160000020196811F4803F18BF012017D111F435
:10117000807F18BF022012D111F0800F18BF03200A
:101180000DD111F0400F18BF042008D111F0100F3D
:1011900018BF052003D111F0020F18BF0620521E00
:1011A000012804D0002A18BF704707207047002A82
:1011B000D6D1FAE70C3C024030B505466FF030401E
:1011C000FFF7CCFF002818BF30BD0D4C206820F081
:1011D000F8002060206845F0020108432060206884
:1011E00040F4803020606FF03040FFF7B7FF216897
:1011F00021F002012160216821F0F801216030BD59
:10120000103C02400548006810F0004F08BF7047CE
:10121000034904480160044901607047103C0240E2
:1012200023016745043C0240AB89EFCD70B506460B
:101230000D466FF03040FFF791FF002818BF70BDDA
:101240000B4C206820F440702060206840F400704F
:101250002060206840F00100206035606FF0304071
:10126000FFF77CFF216821F00101216070BD0000C3
:10127000103C024070B5074D0446C1B2284600F04C
:1012800043FB0721284600F0CEFB0028F9D020467A
:1012900070BD0000004800402DE9F00F036AD0F84F
:1012A00024C012F0010F1CBF23F00F030B4312F0F8
:1012B000020F4FEA011A1CBF23F0F0034AEA0303AE
:1012C00012F0040F4FEA01291CBF23F4706349EAAE
:1012D000030312F0080F4FEA01381CBF23F47043D8
:1012E00048EA030312F0100F4FEA01471CBF23F432
:1012F00070233B4312F0200F4FEA01561CBF23F42A
:101300007003334312F0400F4FEA01651CBF23F016
:1013100070632B4312F0800F4FEA01741CBF23F05F
:101320007043234312F4807F1CBF2CF00F0C41EA62
:101330000C0C12F4007F1CBF2CF0F0014AEA010CE7
:1013400012F4806F1CBF2CF4706149EA010C12F496
:10135000006F1CBF2CF4704148EA010C12F4805F4E
:101360001CBF2CF4702147EA010C12F4005F1CBF73
:101370002CF4700146EA010C12F4804F1CBF2CF0D3
:10138000706145EA010C12F4004F1CBF2CF0704153
:1013900044EA010C0362C0F824C0BDE8F00F7047B6
:1013A0002DE9F00F0568C6684FF0000C10244FF0CF
:1013B000010A4FF0030800BF0AFA0CF71F420ED0D3
:1013C0004FEA4C0708FA07F901FA07FB25EA090575
:1013D00026EA090602FA07F74BEA05053E43641EB2
:1013E00024040CF1010C240CE6D10560C660BDE8B4
:1013F000F00F70472DE9F001012941680CBF194336
:1014000099434160D0F808C0002110240126032729
:1014100006FA01F51D4208D04D0007FA05F82CEA3E
:10142000080C02FA05F545EA0C0C491C641E24045C
:10143000240CEDD1C0F808C0BDE8F00170470000F1
:1014400082B000208DF800008DF8040062B600F034
:10145000EDF9FFF781F9484E4FF4E1313046FFF7DF
:10146000CDF946A147A0FFF79BFC4DA0FFF798FCE4
:101470004FF4FA6269463046FEF745FF534D544C2F
:1014800088B154A0FFF78CFC6420FFF785FD20682D
:101490002840B0F1005F18BF53A000F0648000BF87
:1014A000FFF77EFCFEE79DF80010202903D056A030
:1014B000FFF776FCE8E759A0FFF772FC5CA0FFF7A6
:1014C0006FFC5FA0FFF76CFC62A0FFF769FC4FF0B8
:1014D000FF3201A93046FEF716FF0028D4D19DF84F
:1014E0000400312806D0322813D0332818BF5DA05D
:1014F0002AD026E020682840B0F1005F18BF3AA04B
:101500001FD172B66068216881F30888804759A0AE
:1015100017E06148FFF744FCFFF7CEF90028B4BF9D
:101520005E485F48FFF73CFC6420FFF735FD5D49EE
:101530005DA0FFF735FC6048016860A0FFF730FC54
:1015400016A0FFF72DFC9FE7012080F31388BFF35F
:101550004F8F5E4801685E4A01F4E061114301600B
:10156000BFF34F8FFEE772B66068216881F3088889
:10157000804740A094E7000000480040312E302E04
:101580003000000052756E204344333320426F6FA9
:10159000742056657273696F6E2025730D0A000002
:1015A000506C65617365207072657373202773706A
:1015B00061636527206B657920696E746F206D65A6
:1015C0006E7520696E203273210D0A000000FE2F17
:1015D00000000108496E7075742074696D656F753F
:1015E00074210D0A000000004E6F20757365722093
:1015F0006170706C69636174696F6E20746F2072C2
:10160000756E210D0A000000496E707574206572B8
:10161000726F72202564210D0A000000506C656114
:10162000736520736C656365743A200D0A000000D1
:10163000313A2072756E20617070200D0A00000032
:10164000323A2075706461746520617070200D0AF3
:1016500000000000333A207265626F6F74200D0A3B
:101660000000000053656C656374206572726F72D0
:10167000210D0A0045727220746F2072756E696EBA
:10168000672075736572206170706C69636174693D
:101690006F6E210D0A000000A8050008E40500088F
:1016A000FC0500084400002066696C65206E616DD1
:1016B000652025730D0A00000000002066696C6536
:1016C0002073697A652025640D0A00000CED00E0A6
:1016D0000400FA05F0B4044688B000200FF2C80CEC
:1016E0009CE80E108DE80E1030A2D2E90012CDE970
:1016F00004122EA2D2E90012CDE906122E4A116878
:10170000C1F381032D493BB1DFF8B4C0012B08BF01
:10171000614601D0022B2ED01368D2F800C0C3F36B
:1017200003131DF8033021FA03F3CCF3822C04AD2C
:10173000126815F80CC023FA0CFCC2F3423206AD55
:10174000AA5C23FA02F2002C01BF084608B0F0BCE4
:101750007047012C01BF184608B0F0BC7047022C3E
:1017600001BF604608B0F0BC7047032C08BF1046AC
:1017700008B0F0BC7047134B1D6805F03F071D68AB
:10178000C5F388161D681B68C5F301456D1C6D0007
:1017900003F48003B3F5800F08BF6146B1FBF7F196
:1017A0007143B1FBF5F1B7E7000000000000000055
:1017B0000102030406070809083802400024F40067
:1017C00040787D0104380240810901F1804101F532
:1017D0000C31D1F8002800F01F00012303FA00F0BB
:1017E0001043C1F800087047810901F1804101F5FB
:1017F0000C31D1F8002800F01F00012303FA00F09B
:1018000022EA0000C1F800087047810901F1804117
:1018100001F50C31D1F8002800F01F00012303FA74
:1018200000F01043C1F80008704700000C484FF466
:101830007A710068B0FBF1F0411EB1F1807F0DD2EA
:101840004FF0E02041610749F02281F8142D002279
:1018500082610723036181F8142D7047FEE70000C1
:10186000140000200FE000E070B50446234A0D4646
:101870000020A11A94421DD00FDCA4F18041B1F5E3
:10188000884108BF022012D0B1F5806F1CBFB1F5AE
:10189000006FB1F5406F0DD00FE0B1F5806F09D04A
:1018A000B1F5184F14BFB1F51C4F032005D1FFF758
:1018B00011FF02E00220FFF70DFFE16811F4004F75
:1018C0004FF6F0710DD04FEA400000EB5500B0FB31
:1018D000F5F000EA0101C0F3420041EA0000A06017
:1018E00070BD00EB5500B0FBF5F000EA010100F01F
:1018F0000F0041EA0000A06070BD000000780040C9
:101900004068C0F308007047C1F3080141607047A8
:10191000374A10B5811A904255D018DCA0F588409E
:10192000B0F1804031D0B0F5806F38D0B0F5006FA5
:101930003FD0B0F5406F18BF10BD40F61400FFF760
:1019400064FFBDE8104040F61400FFF74DBFB1F54D
:10195000806F42D0B1F5184F0DD0B1F51C4F18BFB4
:1019600010BD40F60510FFF750FFBDE8104040F6EF
:101970000510FFF739BF40F60410FFF746FFBDE83A
:10198000104040F60410FFF72FBF40F61100FFF79C
:101990003CFFBDE8104040F61100FFF725BF40F6C0
:1019A0001200FFF732FFBDE8104040F61200FFF7CB
:1019B0001BBF40F61300FFF728FFBDE8104040F6BC
:1019C0001300FFF711BF40F61E00FFF71EFFBDE832
:1019D000104040F61E00FFF707BF40F61F00FFF75C
:1019E00014FFBDE8104040F61F00FFF7FDBE0000E9
:1019F00000780040426922F040024261426901F0F1
:101A00004001114341617047426922F08002426106
:101A1000426901F08001114341617047C16841F49E
:101A20000051C160704700EB9110006801F01F0188
:101A3000012202FA01F1084018BF01207047C26874
:101A400022F004021143C1607047C26822F008020C
:101A50001143C16070470000781A000800000020A0
:101A600044000000C00D0008BC1A0008440000201B
:101A70008C1C0000D00D00080000000000000000D9
:101A80000000010800000000FFFFFFFF001C4E0ED9
:101A9000000000001210010C010C00000004000006
:101AA00000080000000402400004024052756E204D
:0C1AB0004150500D0A0000000000000032
:040000050800018965
:00000001FF
