:020000040800F2
:10000000400400200501000869230008890C00084D
:10001000750F0008A9080008C330000800000000A0
:100020000000000000000000000000004D2B000850
:10003000E10800080000000039240008392C0008FD
:100040001F0100081F0100081F0100081F01000810
:100050001F0100081F0100081F0100082D090008EA
:10006000510900081F0100081F0100081F010008B6
:100070001F0100081F0100081F0100081F010008E0
:100080001F0100081F0100081F0100081F010008D0
:100090001F0100081F0100081F0100081F010008C0
:1000A0001F0100081F0100081F0100081F010008B0
:1000B000B52C00081F0100081F0100081F010008DF
:1000C0001F0100081F0100081F0100081F01000890
:1000D0001F010008D92E00081F0100081F01000899
:1000E0001F0100081F0100081F010008DFF810D0E1
:1000F00000F03AFB00480047F1390008AFF30080F8
:10010000400400200648804706480047FEE7FEE717
:10011000FEE7FEE7FEE7FEE7FEE7FEE7FEE7FEE7B7
:100120003D2C0008ED000008F0B480EA0102D40F75
:100130004200B2EB410F02D20246084611464A0085
:1001400042D0C30DDDB2C1F3C752AD1A202D35DA4E
:10015000C1F3160141F4000204B15242C5F1200678
:1001600002FA06F12A411044B3EBD05F23D0C4B1A8
:10017000012DA0EBC35009DCF0BC4FF0004202EAB5
:10018000C352DBB200F5000000F007B9400000F1F7
:10019000807000EBC350A0F1807040EAD17049003C
:1001A00009E0490841EAC071A0EBC35000F5000026
:1001B000400800EBC350F0BC00F0E6B861420122F9
:1001C00002EB4101001BF6E7F0BC704781F00041F3
:1001D000AAE780F00040A7E780EA010210B502F02C
:1001E0000043400022D04A001FD0010E01EB1261F3
:1001F000C0F35600C2F3560240F4000042F400027D
:10020000A0FB022000047F39140400D0401C50EAF7
:10021000124001D44000491EC2B20C0604EBD010BB
:10022000401C4008802A02D003E0002010BD20F0CE
:100230000100002900DA0020184310BD30B480EA24
:10024000010202F0004530F0004221F0004013D0DE
:1002500090B1C30DD40DC2F31601C0F31600E41A19
:1002600041F4000140F400027D34914201D3641C4A
:1002700000E04900002C02DA30BC002070474FF447
:1002800000000023914201D3891A034340084FEA3A
:100290004101F7D151B1914202D14FF0004105E047
:1002A00002D24FF0010101E06FF0010103EBC450F5
:1002B000284430BC00F068B8C10F80EAE070084400
:1002C000CA079623002100F068B896230022114641
:1002D00000F063B800F0004230F000400AD0C10DD9
:1002E00001F56071C0F3160042EA0151C2084007EF
:1002F0001143704700200146704730B50B46014658
:1003000000202022012409E021FA02F59D4205D3B4
:1003100003FA02F5491B04FA02F52844151EA2F15E
:100320000102F1DC30BD2DE9F05F05460020924668
:100330009B4688460646814640241BE028464146A7
:100340004746224600F031FA53465A46C01A9141B8
:1003500010D311461846224600F018FA2D1A67EB02
:1003600001084F4622460120002100F00FFA17EB4A
:1003700000094E41201EA4F10104DFDC484631464D
:100380002A464346BDE8F09F0029A8BF7047401C9D
:10039000490008BF20F00100704710B4B0FA80FC9B
:1003A00000FA0CF050EA010404BF10BC704749B1D8
:1003B000CCF1200421FA04F411FA0CF118BF012148
:1003C00021430843A3EB0C01CB1D4FEA00614FEA28
:1003D000102042BF002010BC704700EBC3501044F7
:1003E0000029A4BF10BC7047401C490008BF20F082
:1003F000010010BC70472DE9FE4F804681EA0300E2
:10040000C00F0C46009021F0004123F00045B8EBEE
:100410000200A94105D24046214690461C460B46A3
:10042000024623F00040104347D0270DC7F30A00CF
:10043000C3F30A510290401A019040286BDAC3F3CB
:10044000130040F4801B0098924620B10023D2EBA9
:10045000030A63EB0B0B01985946C0F1400250466A
:1004600000F094F906460D4650465946019A00F0B0
:10047000ACF910EB08006141002487EA115284EACC
:10048000E7731A4340D0009A62B3019A012A4FEAF7
:10049000075215DC001B61EB02014FF0004202EA3B
:1004A0000752CDE90042001C41F5801132462B462F
:1004B00000F0ACF903B0BDE8F08F40462146F9E703
:1004C000001B61EB0201001C41F5801300185B4129
:1004D0002018A2F5001747EB030140EAD570B619C2
:1004E0006D4111E06D084FEA360645EAC0754FEAE6
:1004F0000752001B61EB0201001C41F58011490805
:100500004FEA30000019514132462B4603B0BDE896
:10051000F04F00F06CB90098012240000023D0EBAE
:10052000020263EBE073009821464FEAE074B8EBF7
:10053000000061EB0401E9E783F000435BE781F031
:10054000004158E72DE9FE4F81EA030404F000441E
:1005500021F0004100944FF0000B23F0004350EADB
:1005600001045ED052EA03045BD0C3F30A54C1F322
:100570000A552C44A4F2F3340194A0FB0254C1F3B5
:10058000130141F48011C3F3130343F4801301FBFF
:10059000024400FB034E840A970A44EA815447EA66
:1005A0008357A4FB076802958D0A05FB07854FEA70
:1005B000932C04FB0C542705029D4FEA065847EA8A
:1005C0001637B5EB08056EEB070C870E920E47EA5F
:1005D000811742EA8312A7FB0201B6EB0B0164EB21
:1005E00000042B0D43EA0C335E1844EB1C50DA4632
:1005F0005146E7FB0201C5F313044FEA0B3343EA0C
:1006000014534FEA0432019C43EA0603A4F10C049C
:100610000294009CCDE900B400F0F8F803B0BDE806
:10062000F08F00200146F9E72DE9F04D81EA03043F
:1006300004F0004B21F0004514464FF0000A23F06F
:10064000004150EA050220D054EA01021DD0C5F352
:100650000A570246C5F31303C1F31300C1F30A5648
:1006600040F4801543F48013A7EB0608101BD64610
:1006700008F2FD3873EB050002D308F1010801E030
:1006800092185B41B8F1000F03DA00200146BDE883
:10069000F08D00204FF48011064684460EE0171BB3
:1006A00073EB050705D3121B63EB050306434CEA06
:1006B000010C49084FEA300092185B4150EA0107EB
:1006C000EDD152EA030012D082EA040083EA050168
:1006D000084305D0101BAB4106D20122002306E0DF
:1006E00000224FF0004302E06FF0010253101AEBBA
:1006F00006004CEB085110EB0A0041EB0B01BDE882
:10070000F04D00F074B8C1F30A52C1F3130140F286
:10071000FF3341F480119A4202DA0020014670470B
:1007200040F233439A42A2F2334202DC524200F0DA
:100730003CB800F02BB8000030B5041E71F1000485
:1007400004DB4FF00044404264EB0101141E73F1DE
:10075000000405DB1C464FF00043524263EB0403E8
:10076000994208BF904230BD064C074D06E0E06854
:1007700040F0010394E8070098471034AC42F6D3E8
:10078000FFF7B8FC503A0008703A0008202A04DB52
:10079000203A00FA02F1002070479140C2F1200394
:1007A00020FA03F3194390407047202A04DB203AD3
:1007B00021FA02F00021704721FA02F3D040C2F181
:1007C00020029140084319467047202A06DBCB17C8
:1007D000203A41FA02F043EAE07306E041FA02F3FC
:1007E000D040C2F12002914008431946704710B52D
:1007F000141E73F1000408DA401C41F10001921844
:100800005B411A4301D120F0010010BD2DE9F04DEC
:1008100092469B4611B1B1FA81F202E0B0FA80F241
:1008200020329046FFF7B2FF04460F4640EA0A0026
:1008300041EA0B0153465A46084313D0114653EA86
:10084000010019D0C8F140025046FFF7AEFF05463F
:100850000E46504659464246FFF798FF084305D0DA
:10086000012004E020463946BDE8F08D0020054314
:1008700046EAE0762C4337430A986305E40AA0EB86
:1008800008000022FD0A44EA47540A3002D500203D
:100890000146E9E7010510196941DDE9084500193C
:1008A0006941BDE8F04DA2E700BFFEE710B580202A
:1008B00002F01AFC022000F0E9FA3A2000F0E6FA11
:1008C000602000F0E3FA102000F0E0FA1021034865
:1008D00000F077F9702002F0F7FB10BD000801402E
:1008E000704700000021044A116000BF02490968F6
:1008F0008142FBD3704700001C00002000EBC001C8
:10090000C9004FF0E0225161002191610521116180
:1009100000BF4FF0E021096901F480310029F8D0CF
:1009200004214FF0E02211617047000010B5022051
:1009300000F022F840B1022000F018F8002003492E
:1009400008700846007810BD00BFFCE718000020C2
:1009500010B5042000F010F828B1042000F006F8CB
:1009600001200149087010BD1900002001490860EC
:100970007047000014040140014600200022074B8C
:100980001B6803EA0102054B14331B680B4013B1CB
:100990000AB1012000E0002070470000000401407F
:1009A000002123498279002A3AD00A461268036856
:1009B0009A430B461A600A1D126803689A430B1D7E
:1009C0001A60027911440A6803681A430A60184AD7
:1009D0000832126803689A43154B08331A601A1DCF
:1009E000126803689A43124B0C331A604279102A3A
:1009F0000ED11A1F126803681A430D4B08331A6090
:100A00001A1D126803681A43094B0C331A600DE073
:100A10000749427911440A6803681A430A6005E0ED
:100A2000027911440A6803689A430A60704700001B
:100A3000000401400549096821F01001034A1160D2
:100A40001146096801431160704700000020024010
:100A500001460020034A106800F038000843106087
:100A6000704700000020024030B500228B071C0FA9
:100A70000F2303FA04F20B4B8C1053F824309343EA
:100A8000084C8D1044F8253023468C1053F8243040
:100A90008C07240F00FA04F42343024C8D1044F811
:100AA000253030BD080001402DE9F0410246002507
:100AB0000026002000230024002791F803C00CF03A
:100AC0000F0591F803C00CF0100CBCF1000F03D01F
:100AD00091F802C04CEA050591F800C0BCF1000F86
:100AE00031D0146800202BE04FF0010C0CFA00F319
:100AF000B1F800C00CEA03069E4220D183004FF0FB
:100B00000F0C0CFA03F7BC4305FA03FC4CEA04048F
:100B100091F803C0BCF1280F06D14FF0010C0CFA7C
:100B200000FCC2F814C00AE091F803C0BCF1480F01
:100B300005D14FF0010C0CFA00FCC2F810C0401CAB
:100B40000828D1D31460B1F800C0BCF1FF0F34DD28
:100B5000546800202EE000F1080C4FF0010808FA5C
:100B60000CF3B1F800C00CEA03069E4221D18300C9
:100B70004FF00F0C0CFA03F7BC4305FA03FC4CEAE8
:100B8000040491F803C0BCF1280F05D100F1080C52
:100B900008FA0CF8C2F8148091F803C0BCF1480FB1
:100BA00007D100F1080C4FF0010808FA0CF8C2F860
:100BB0001080401C0828CED35460BDE8F08141610C
:100BC0007047016170472DE9FC5F81460D4616466E
:100BD0004FF00008C246C346002001904FF4803712
:100BE0004846FFF772FB0190082416E006F001006A
:100BF000FFF762FB82463846FFF767FB014600902D
:100C00005046FFF71BFB834659464046FFF78CFAD8
:100C1000804676107F08601EC4B2002CE6DC0824F3
:100C200016E005F00100FFF747FB82463846FFF764
:100C30004CFB014600905046FFF700FB83465946A7
:100C40004046FFF771FA80466D107F08601EC4B2FF
:100C5000002CE6DC41460198FFF766FA80464046E4
:100C6000BDE8FC9F2DE9F04105460C4616460027DD
:100C7000B846290401EB04218819FFF71DFB8046C3
:100C800047463846BDE8F08100BFFEE7014603E075
:100C9000491E09B901207047024800780128F7D0A1
:100CA0000020F8E7180000200EB5012141F20D00E8
:100CB00001F0D4FB0120ADF808008DF80A001020E7
:100CC0008DF80B0002A95248FFF7EEFE01215048B3
:100CD000FFF775FF4FF48050ADF8080001208DF844
:100CE0000A0010208DF80B0002A94A48FFF7DCFE2D
:100CF0004FF480514748FFF762FF4FF40060ADF8B2
:100D0000080001208DF80A0010208DF80B0002A9C0
:100D10004048FFF7C9FE4FF400613E48FFF74FFF20
:100D20004FF48070ADF8080001208DF80A00102003
:100D30008DF80B0002A93748FFF7B6FE4FF480711B
:100D40003448FFF73EFF4FF40040ADF808000320A1
:100D50008DF80A0018208DF80B0002A92C48FFF727
:100D6000A3FE4FF400412A48FFF72BFF0220ADF805
:100D7000080003208DF80A0004208DF80B0002A95A
:100D80002348FFF791FE0420ADF8080003208DF8FA
:100D90000A0004208DF80B0002A91E48FFF784FE0C
:100DA0004FF40050ADF8080003208DF80A00182019
:100DB0008DF80B0002A91648FFF776FE4FF400519C
:100DC0001348FFF7FEFE01210846FFF74DFE022102
:100DD0000020FFF749FE0220009000208DF804005B
:100DE0000C208DF8050001208DF806006846FFF7FD
:100DF000D7FD0420009000208DF804000C208DF811
:100E0000050001208DF806006846FFF7C9FD0EBDFC
:100E1000000C01400008014010B501210748FFF710
:100E2000CEFE4FF4FA70FFF75DFD01210348FFF796
:100E3000C8FEC820FFF756FD10BD0000000C0140A1
:100E400010B5FFF7E9FF502002F03EF910BD08B5DC
:100E500007208DF8000000208DF8010001208DF89A
:100E600002008DF80300684601F09AFA08208DF818
:100E7000000000208DF8010001208DF802008DF89F
:100E80000300684601F08CFA08BD000010B5044666
:100E90002146054801F03AFE00BF0221024801F058
:100EA00029FE0028F9D010BD0030014000B587B000
:100EB000012141F2050001F0D1FAE020ADF818005F
:100EC00003208DF81A0018208DF81B0006A91D4874
:100ED000FFF7EAFDE0211B48FFF773FE1020ADF895
:100EE000180003208DF81A0010208DF81B0006A9A9
:100EF0001448FFF7D9FD10211248FFF762FE0020C9
:100F0000ADF804004FF48270ADF806000020ADF893
:100F10000800ADF80A000120ADF80C004002ADF861
:100F20000E000820ADF810000020ADF8120001A955
:100F3000054801F0EDFD0121034801F0CFFD07B0A8
:100F400000BD000000080140003001404FF4006087
:100F500002490860091D0860704700001008014040
:100F60004FF4805002490860091D08607047000076
:100F70001008014000BFFEE7802002F0B5F80B200A
:100F8000FFF784FF3A20FFF781FF4020FFF77EFF45
:100F90006020FFF77BFF10213348FFF712FE01208E
:100FA000324908705EE0012030490870702002F07C
:100FB0008BF8042002F088F841F28830FFF766FED3
:100FC00018B9BB2001F080FC0646702002F07CF8C6
:100FD000FFF7BCFF0120FFF791FCFFF7C1FF0020E6
:100FE0002349087041F28830FFF750FE002833D1C2
:100FF00020A002F085F8B02001F066FC8046BD20FC
:1010000001F062FC074601F0B7FC1EA002F078F880
:101010003846FFF75FF9044622460B461CA002F053
:101020006FF81DA002F06CF83046FFF753F9044644
:1010300022460B4616A002F063F819A002F060F8F1
:101040004046FFF747F9044622460B4610A002F03F
:1010500057F816A002F054F805480078012801D18D
:1010600000F088F99FE70000000801401800002008
:10107000190000206665696A69616F7A68756E3A61
:101080000000000020202073746174653A000000A5
:10109000252E306C6600000020202043414C3A0091
:1010A000202020726567303A000000000D0A000021
:1010B00086B0802002F018F80B20FFF7E7FE3A20F8
:1010C000FFF7E4FE4020FFF7E1FE6020FFF7DEFEC1
:1010D00010218448FFF775FD012083490870FFE067
:1010E000012081490870702001F0EEFF042001F01A
:1010F000EBFF41F28830FFF7C9FD18B9BB2001F0C2
:10110000E3FB0646702001F0DFFFFFF71FFFFFF74C
:1011100027FFFFF725FFFFF723FFFFF721FFFFF76B
:101120001FFFFFF71DFFFFF71BFFFFF719FFFFF77B
:1011300017FFFFF715FF00206C49087041F2883057
:10114000FFF7A4FD00287DD169A001F0D9FFB020F0
:1011500001F0BAFB8046B12001F0B6FB8146B22017
:1011600001F0B2FB8246B32001F0AEFB8346B4200F
:1011700001F0AAFB0590B52001F0A6FB0490B62073
:1011800001F0A2FB0390B72001F09EFB0290B82073
:1011900001F09AFB0190B92001F096FB0090BD2070
:1011A00001F092FB074601F0E7FB55A001F0A8FF14
:1011B0003846FFF78FF8044622460B4653A001F04D
:1011C0009FFF54A001F09CFF3046FFF783F80446D0
:1011D00022460B464DA001F093FF50A001F090FF76
:1011E0004046FFF777F8044622460B4647A001F039
:1011F00087FF4DA001F084FF4846FFF76BF80446D7
:1012000022460B4641A001F07BFF49A001F078FF88
:101210005046FFF75FF8044622460B463BA001F01C
:101220006FFF45A001F06CFF5846FFF753F80446E6
:1012300022460B4635A001F063FF41A001F060FF9C
:10124000059800E046E0FFF745F8044622460B46C5
:101250002EA001F055FF3CA001F052FF0498FFF7CB
:1012600039F8044622460B4628A001F049FF38A071
:1012700001F046FF0398FFF72DF8044622460B467F
:1012800022A001F03DFF34A001F03AFF0298FFF7E1
:1012900021F8044622460B461CA001F031FF30A085
:1012A00001F02EFF0198FFF715F8044622460B4681
:1012B00016A001F025FF2CA001F022FF0098FFF7F7
:1012C00009F8044622460B4610A001F019FF28A099
:1012D00001F016FF05480078012801D1FFF74CFE08
:1012E000FEE6000000080140180000201900002060
:1012F0006665696A69616F7A68756E3A0000000018
:1013000020202073746174653A000000252E306C33
:101310006600000020202043414C3A00202020722B
:101320006567303A000000002020726567313A009E
:101330002020726567323A002020726567333A00D8
:101340002020726567343A002020726567353A00C4
:101350002020726567363A002020726567373A00B0
:101360002020726567383A002020726567393A009C
:101370000D0A0000802001F0B7FE0B20FFF786FD6C
:101380003A20FFF783FD4020FFF780FD6020FFF744
:101390007DFD10213D48FFF714FC01203C490870F9
:1013A00073E001203A490870702001F08DFE04209E
:1013B00001F08AFE41F28830FFF768FC18B9BB20C3
:1013C00001F082FA0646702001F07EFEFFF7BEFDB6
:1013D0000120FFF793FAFFF7C3FD0120FFF78EFA14
:1013E000FFF7BEFD00202B4908704FF4FA70FFF79D
:1013F0004DFC002843D128A001F082FEB02001F06E
:1014000063FA8046BD2001F05FFA0746B12001F083
:101410005BFA814601F0B0FA23A001F071FE384674
:10142000FEF758FF044622460B4622A001F068FE54
:1014300022A001F065FE3046FEF74CFF044622462E
:101440000B461CA001F05CFE1EA001F059FE4046B8
:10145000FEF740FF044622460B4616A001F050FE60
:101460001BA001F04DFE4846FEF734FF044622461D
:101470000B4610A001F044FE17A001F041FE054804
:101480000078012801D100F029F88AE7000801401E
:1014900018000020190000206665696A69616F7A8A
:1014A00068756E3A00000000202020737461746536
:1014B0003A000000252E306C6600000020202043FA
:1014C000414C3A00202020726567303A000000004D
:1014D0002020726567313A000D0A0000802001F07B
:1014E00003FE0B20FFF7D2FC3A20FFF7CFFC402091
:1014F000FFF7CCFC6020FFF7C9FC10214848FFF73C
:1015000060FB01204749087088E0012045490870C8
:10151000702001F0D9FD042001F0D6FD41F28830A1
:10152000FFF7B4FB18B9BB2001F0CEF906467020D6
:1015300001F0CAFDFFF70AFD0520FFF7DFF9FFF70D
:101540000FFD0520FFF7DAF9FFF70AFD0520FFF789
:10155000D5F9FFF705FD0020334908704FF4FA7004
:10156000FFF794FB002853D130A001F0C9FDB02053
:1015700001F0AAF98046B12001F0A6F98146B22017
:1015800001F0A2F98246BD2001F09EF9074601F064
:10159000F3F92AA001F0B4FD3846FEF79BFE04469D
:1015A00022460B4628A001F0ABFD29A001F0A8FDC2
:1015B0003046FEF78FFE044622460B4622A001F07D
:1015C0009FFD25A001F09CFD4046FEF783FE0446EA
:1015D00022460B461CA001F093FD22A001F090FDD5
:1015E0004846FEF777FE044622460B4616A001F059
:1015F00087FD1EA001F084FD5046FEF76BFE0446F9
:1016000022460B4610A001F07BFD1AA001F078FDE8
:1016100005480078012801D100F02EF875E7000098
:101620000008014018000020190000206665696A62
:1016300069616F7A68756E3A00000000202020739F
:10164000746174653A000000252E306C660000005D
:1016500020202043414C3A00202020726567303A18
:10166000000000002020726567313A00202072657A
:1016700067323A000D0A0000802001F035FD0B2092
:10168000FFF704FC3A20FFF701FC4020FFF7FEFBC8
:101690006020FFF7FBFB10214C48FFF792FA012076
:1016A0004B49087091E0012049490870702001F011
:1016B0000BFD042001F008FD41F28830FFF7E6FA47
:1016C00018B9BB2001F000F90646702001F0FCFCBF
:1016D000FFF73CFCFFF744FCFFF742FCFFF740FC40
:1016E000FFF73EFC00203B4908704FF4FA70FFF70B
:1016F000CDFA002863D138A001F002FDB02001F03E
:10170000E3F88046B12001F0DFF88146B22001F015
:10171000DBF88246B32001F0D7F88346BD2001F004
:10172000D3F8074601F028F92FA001F0E9FC38466C
:10173000FEF7D0FD044622460B462EA001F0E0FC49
:101740002EA001F0DDFC3046FEF7C4FD0446224623
:101750000B4628A001F0D4FC2AA001F0D1FC4046A1
:10176000FEF7B8FD044622460B4622A001F0C8FC55
:1017700027A001F0C5FC4846FEF7ACFD0446224612
:101780000B461CA001F0BCFC23A001F0B9FC5046A4
:10179000FEF7A0FD044622460B4616A001F0B0FC61
:1017A0001FA001F0ADFC5846FEF794FD044622460A
:1017B0000B4610A001F0A4FC1BA001F0A1FC054801
:1017C0000078012801D100F031F86CE700080140F1
:1017D00018000020190000206665696A69616F7A47
:1017E00068756E3A000000002020207374617465F3
:1017F0003A000000252E306C6600000020202043B7
:10180000414C3A00202020726567303A0000000009
:101810002020726567313A002020726567323A00F5
:101820002020726567333A000D0A000008B5802059
:1018300001F05AFC0B20FFF729FB3A20FFF726FBAB
:101840004020FFF723FB6020FFF720FB10215648C4
:10185000FFF7B7F9012055490870A3E0012053496B
:101860000870702001F030FC042001F02DFC41F2E2
:101870008830FFF70BFA18B9BB2001F025F80646AF
:10188000702001F021FCFFF761FBFFF769FBFFF718
:1018900067FBFFF765FBFFF763FBFFF761FB0020CA
:1018A000434908704FF4FA70FFF7F0F9002873D13C
:1018B00040A001F025FCB02001F006F88046B120E0
:1018C00001F002F88146B22000F0FEFF8246B3200C
:1018D00000F0FAFF8346B42000F0F6FF0090BD2030
:1018E00000F0F2FF074601F047F836A001F008FCCF
:1018F0003846FEF7EFFC044622460B4634A001F0C2
:10190000FFFB35A001F0FCFB3046FEF7E3FC04468C
:1019100022460B462EA001F0F3FB31A001F0F0FBB4
:101920004046FEF7D7FC044622460B4628A001F0AD
:10193000E7FB2EA001F0E4FB4846FEF7CBFC044693
:1019400022460B4622A001F0DBFB2AA001F0D8FBC7
:101950005046FEF7BFFC044622460B461CA001F091
:10196000CFFB26A001F0CCFB5846FEF7B3FC0446A3
:1019700022460B4616A001F0C3FB22A001F0C0FBDB
:101980000098FEF7A7FC044622460B4610A001F083
:10199000B7FB1EA001F0B4FB05480078012801D177
:1019A00000F036F85AE70000000801401800002057
:1019B000190000206665696A69616F7A68756E3A18
:1019C0000000000020202073746174653A0000005C
:1019D000252E306C6600000020202043414C3A0048
:1019E000202020726567303A0000000020207265D8
:1019F00067313A002020726567323A002020726514
:101A000067333A002020726567343A000D0A0000FF
:101A10001CB5802001F068FB0B20FFF737FA3A2055
:101A2000FFF734FA4020FFF731FA6020FFF72EFA73
:101A300010216048FFF7C5F801205F490870B7E042
:101A400001205D490870702001F03EFB042001F088
:101A50003BFB41F28830FFF719F918B9BB2000F0C1
:101A600033FF0646702001F02FFBFFF76FFAFFF7F8
:101A700077FAFFF775FAFFF773FAFFF771FAFFF7D6
:101A80006FFAFFF76DFA00204C4908704FF4FA70B6
:101A9000FFF7FCF800287DD149A001F031FBB02010
:101AA00000F012FF8046B12000F00EFF8146B22008
:101AB00000F00AFF8246B32000F006FF8346B42000
:101AC00000F002FF0190B52000F0FEFE0090BD2066
:101AD00000F0FAFE074600F04FFF3DA001F010FBBA
:101AE0003846FEF7F7FB044622460B463BA001F0C2
:101AF00007FB3CA001F004FB3046FEF7EBFB04467D
:101B000022460B4635A001F0FBFA38A001F0F8FAA6
:101B10004046FEF7DFFB044622460B462FA001F0AD
:101B2000EFFA35A001F0ECFA4846FEF7D3FB044685
:101B300022460B4629A001F0E3FA31A001F0E0FAB9
:101B40005046FEF7C7FB044622460B4623A001F091
:101B5000D7FA2DA001F0D4FA5846FEF7BBFB044695
:101B600022460B461DA001F0CBFA29A001F0C8FACD
:101B70000198FEF7AFFB044622460B4617A001F082
:101B8000BFFA25A001F0BCFA0098FEF7A3FB0446BB
:101B9000224600E006E00B4610A001F0B1FA20A0BA
:101BA00001F0AEFA05480078012801D100F03AF8BA
:101BB00046E700000008014018000020190000203E
:101BC0006665696A69616F7A68756E3A000000003F
:101BD00020202073746174653A000000252E306C5B
:101BE0006600000020202043414C3A002020207253
:101BF0006567303A000000002020726567313A00C6
:101C00002020726567323A002020726567333A00FF
:101C10002020726567343A002020726567353A00EB
:101C20000D0A00000EB5802001F05EFA0B20FFF7D0
:101C30002DF93A20FFF72AF94020FFF727F9602015
:101C4000FFF724F910216948FEF7BBFF012068491E
:101C50000870C9E0012066490870702001F034FA6C
:101C6000042001F031FA41F28830FFF70FF818B97B
:101C7000BB2000F029FE0646702001F025FAFFF790
:101C800065F9FFF76DF9FFF76BF9FFF769F9FFF7F2
:101C900067F9FFF765F9FFF763F9FFF761F90020CE
:101CA000544908704FF4FA70FEF7F0FF00287DD118
:101CB00051A001F025FAB02000F006FE8046B120C8
:101CC00000F002FE8146B22000F0FEFD8246B32005
:101CD00000F0FAFD8346B42000F0F6FD0290B52036
:101CE00000F0F2FD0190B62000F0EEFD0090BD2066
:101CF00000F0EAFD074600F03FFE43A001F000FAC5
:101D00003846FEF7E7FA044622460B4641A001F0AA
:101D1000F7F942A001F0F4F93046FEF7DBFA044689
:101D200022460B463BA001F0EBF93EA001F0E8F99A
:101D30004046FEF7CFFA044622460B4635A001F096
:101D4000DFF93BA001F0DCF94846FEF7C3FA044690
:101D500022460B462FA001F0D3F937A001F0D0F9AD
:101D60005046FEF7B7FA044622460B4629A001F07A
:101D7000C7F933A001F0C4F95846FEF7ABFA0446A0
:101D800022460B4623A001F0BBF92FA001F0B8F9C1
:101D90000298FEF79FFA044622460B461DA001F06A
:101DA000AFF92BA001F0ACF9019800E016E0FEF7C6
:101DB00091FA044622460B4616A001F0A1F926A08E
:101DC00001F09EF90098FEF785FA044622460B467C
:101DD00010A001F095F922A001F092F905480078D1
:101DE000012801D100F03EF834E70000000801406E
:101DF00018000020190000206665696A69616F7A21
:101E000068756E3A000000002020207374617465CC
:101E10003A000000252E306C660000002020204390
:101E2000414C3A00202020726567303A00000000E3
:101E30002020726567313A002020726567323A00CF
:101E40002020726567333A002020726567343A00BB
:101E50002020726567353A002020726567363A00A7
:101E60000D0A00001FB5802001F03EF90B20FFF79E
:101E70000DF83A20FFF70AF84020FFF707F8602036
:101E8000FFF704F810217248FEF79BFE012071490C
:101E90000870DBE001206F490870702001F014F930
:101EA000042001F011F941F28830FEF7EFFE18B975
:101EB000BB2000F009FD0646702001F005F9FFF790
:101EC00045F8FFF74DF8FFF74BF8FFF749F8FFF734
:101ED00047F8FFF745F8FFF743F8FFF741F8FFF73A
:101EE0003FF800205C4908704FF4FA70FEF7CEFE10
:101EF00000287DD159A001F003F9B02000F0E4FCE6
:101F00008046B12000F0E0FC8146B22000F0DCFC0D
:101F10008246B32000F0D8FC8346B42000F0D4FC05
:101F20000390B52000F0D0FC0290B62000F0CCFC6D
:101F30000190B72000F0C8FC0090BD2000F0C4FC68
:101F4000074600F019FD49A001F0DAF83846FEF71F
:101F5000C1F9044622460B4647A001F0D1F848A03B
:101F600001F0CEF83046FEF7B5F9044622460B469E
:101F700041A001F0C5F844A001F0C2F84046FEF7C8
:101F8000A9F9044622460B463BA001F0B9F841A04E
:101F900001F0B6F84846FEF79DF9044622460B4686
:101FA00035A001F0ADF83DA001F0AAF85046FEF7CB
:101FB00091F9044622460B462FA001F0A1F839A062
:101FC00001F09EF85846FEF785F9044622460B4676
:101FD00029A001F095F835A001F092F80398FEF7DA
:101FE00079F9044622460B4623A001F089F800E067
:101FF00026E030A001F084F80298FEF76BF9044661
:1020000022460B461CA001F07BF82CA001F078F8CA
:102010000198FEF75FF9044622460B4616A001F030
:102020006FF828A001F06CF80098FEF753F9044609
:1020300022460B4610A001F063F824A001F060F8DE
:1020400005480078012801D100F042F822E700009D
:102050000008014018000020190000206665696A28
:1020600069616F7A68756E3A000000002020207365
:10207000746174653A000000252E306C6600000023
:1020800020202043414C3A00202020726567303ADE
:10209000000000002020726567313A002020726540
:1020A00067323A002020726567333A00202072655B
:1020B00067343A002020726567353A002020726547
:1020C00067363A002020726567373A000D0A000033
:1020D00086B0802001F008F80B20FEF7D7FE3A20EA
:1020E000FEF7D4FE4020FEF7D1FE6020FEF7CEFEC4
:1020F00010217B48FEF765FD01207A490870EDE06C
:10210000012078490870702000F0DEFF042000F004
:10211000DBFF41F28830FEF7B9FD18B9BB2000F0B3
:10212000D3FB0646702000F0CFFFFEF70FFFFEF74F
:1021300017FFFEF715FFFEF713FFFEF711FFFEF77F
:102140000FFFFEF70DFFFEF70BFFFEF709FFFEF78F
:1021500007FF0020644908704FF4FA70FEF796FDFF
:1021600000287DD161A000F0CBFFB02000F0ACFBD7
:102170008046B12000F0A8FB8146B22000F0A4FB0D
:102180008246B32000F0A0FB8346B42000F09CFB05
:102190000590B52000F098FB0490B62000F094FB69
:1021A0000390B72000F090FB0290B82000F08CFB69
:1021B0000190BD2000F088FB074600F0DDFB4FA03A
:1021C00000F09EFF3846FEF785F8044622460B468F
:1021D0004DA000F095FF4EA000F092FF3046FEF7B4
:1021E00079F8044622460B4647A000F089FF4AA032
:1021F00000F086FF4046FEF76DF8044622460B4687
:1022000041A000F07DFF47A000F07AFF4846FEF7AE
:1022100061F8044622460B463BA000F071FF43A044
:1022200000F06EFF5046FEF755F8044622460B4676
:1022300035A000F065FF3FA000F062FF5846FEF7B2
:1022400049F8044622460B462FA000F059FF3BA058
:1022500000F056FF0598FEF73DF80446224600E0E0
:1022600036E00B4628A000F04BFF36A000F048FFF8
:102270000498FEF72FF8044622460B4622A000F0F1
:102280003FFF32A000F03CFF0398FEF723F804461E
:1022900022460B461CA000F033FF2EA000F030FFBA
:1022A0000298FEF717F8044622460B4616A000F0E7
:1022B00027FF2AA000F024FF0198FEF70BF8044640
:1022C00022460B4610A000F01BFF26A000F018FFCE
:1022D00005480078012801D1FEF7EAFE10E700006A
:1022E0000008014018000020190000206665696A96
:1022F00069616F7A68756E3A0000000020202073D3
:10230000746174653A000000252E306C6600000090
:1023100020202043414C3A00202020726567303A4B
:10232000000000002020726567313A0020207265AD
:1023300067323A002020726567333A0020207265C8
:1023400067343A002020726567353A0020207265B4
:1023500067363A002020726567373A0020207265A0
:1023600067383A000D0A0000704708B500214FF0A9
:10237000006000F057F84FF4C06000F049F81C20EE
:102380008DF8000003208DF801008DF80200012077
:102390008DF80300684600F003F8FEF758FD08BD0D
:1023A00070B5002100230F22C47804B3154C2468B3
:1023B00004F4E064C4F5E064210AC1F10403CA40F6
:1023C000447804FA03F184781440214309010E4C47
:1023D0000678A155047804F01F050124AC40057867
:1023E0006D11AD0005F1E025C5F8004109E0047864
:1023F00004F01F050124AC40044D0678761145F821
:10240000264070BD0CED00E000E400E080E100E05B
:1024100002490143024A1160704700000000FA05BA
:102420000CED00E0024A0A400243024B1A6070477A
:1024300080FFFF1F08ED00E07047000029B1064A49
:10244000D2690243044BDA6104E0034AD269824351
:10245000014BDA61704700000010024029B1064AC2
:1024600092690243044B9A6104E0034A92698243F1
:10247000014B9A6170470000001002400149C86496
:10248000704700000000424210B500F03BF84FF4E6
:10249000803000F0F9F800F055F90446012C2FD1F6
:1024A0001020FEF7C7FA0220FEF7D2FA002000F053
:1024B000DFF8002000F01AF9A00200F00BF94FF449
:1024C000E011200400F024F9012000F01BF900BF06
:1024D000392000F0A7F80028FAD0022000F026F9F1
:1024E00000BF00F0BDF80828FBD10120FFF7C6FFB0
:1024F00001210846FFF7A2FF01213D20FFF7AEFFB3
:1025000010BD00000F48006840F001000D49086050
:10251000084640680C4908400A4948600846006877
:102520000A490840074908600846006820F48020EE
:1025300008600846406820F4FE0048604FF41F0021
:1025400088607047001002400000FFF8FFFFF6FEB1
:1025500030B500210022002400232D4D6D6805F0C8
:102560000C0121B1042905D0082923D105E0294D0A
:10257000056022E0274D05601FE0254D6D6805F4DC
:102580007012234D6D6805F48034022505EB9242EC
:102590001CB9214D554305600BE01D4D6D6805F4D8
:1025A00000351DB11C4D5543056002E0194D5543E2
:1025B000056002E0174D056000BF00BF144D6D6857
:1025C00005F0F0010909154D6B5C0568DD404560BB
:1025D0000F4D6D6805F4E061090A104D6B5C4568AC
:1025E000DD4085600A4D6D6805F46051C90A0B4DE8
:1025F0006B5C4568DD40C560054D6D6805F4404184
:10260000890B074D6B5CC568B5FBF3F5056130BD03
:102610000010024000127A0000093D002C0000204A
:102620003C00002010B501460022002300204A1182
:10263000012A02D1094C236806E0022A02D1074C84
:10264000236A01E0054C636A01F01F0201249440F3
:102650001C400CB1012000E0002010BD0010024021
:102660000248406800F00C00704700000010024073
:1026700001460020034A506820F0F00008435060F3
:1026800070470000001002401149096821F48031B0
:102690000F4A11601146096821F480211160B0F5DC
:1026A000803F03D0B0F5802F0ED106E008490968BD
:1026B00041F48031064A116007E00549096841F498
:1026C000A021034A116000E000BF00BF7047000076
:1026D0000010024001460020034A506820F4E060E8
:1026E000084350607047000000100240014600207F
:1026F000034A506820F4605040EAC10050607047BF
:102700000010024001490866704700000000424284
:1027100002460020044B586820F47C1042EA010372
:102720001843014B586070470010024001460020DA
:10273000034A506820F003000843506070470000CF
:102740000010024038B5002000900024002500BF92
:102750003120FFF767FF05460098401C0090009865
:10276000B0F5A06F01D0002DF2D03120FFF75AFF55
:1027700008B1012400E00024204638BD2DE9F041D5
:102780003220FEF783FA00282DD118A000F0B8FC03
:10279000B02000F049F805461749FDF71DFD044635
:1027A000BD2000F091F8074600F0E6F8804613A03F
:1027B00000F0A6FC3846FDF78DFD05462A460B467F
:1027C00011A000F09DFC12A000F09AFC2046FDF73D
:1027D00081FD05462A460B4610A000F091FC11A091
:1027E00000F08EFC00BFBDE8F08100006A69616FF7
:1027F0007A68756E3A00000000007A442020207349
:10280000746174653A000000252E306C660000008B
:10281000202020726567303A00000000252E326CBF
:10282000660000000D0A000010B50446204600F0C6
:102830005BFC1F4880891F4908700020FEF726FBBB
:1028400000BF1B48008900F001000028F9D018489B
:102850008089184908700020FEF718FB00BF144853
:10286000008900F001000028F9D011488089124940
:1028700008700020FEF70AFB00BF0D48008900F039
:1028800001000028F9D00A4880890C4908701021FD
:102890000B48FEF796F90948027807480178054881
:1028A0000078FEF790F9074908600846006810BDF7
:1028B0000030014004000020050000200600002038
:1028C000000801401400002010B50446204600F026
:1028D0000BFC23488089234908700020FEF7D6FAB4
:1028E00000BF1F48008900F001000028F9D01C48F3
:1028F00080891C4908700020FEF7C8FA00BF1848FC
:10290000008900F001000028F9D015488089164997
:1029100008700020FEF7BAFA00BF1148008900F0E5
:1029200001000028F9D00E48808910490870102154
:102930000F48FEF746F90D4802780B480178094820
:102940000078FEF78FF90B490860002005490870F0
:1029500005490870054908700648006810BD000068
:102960000030014004000020050000200600002087
:10297000000801401400002070B5BD2000F0B4FB39
:102980004B4800F0C0F84B4908700020FEF77EFA73
:1029900000BF4748008900F001000028F9D04448F2
:1029A0008089444908700020FEF770FA00BF404853
:1029B000008900F001000028F9D03D4880893E4997
:1029C00008700020FEF762FA00BF3948008900F065
:1029D00001000028F9D03648808938490870084637
:1029E000007800F00F00087010213548FEF7E9F874
:1029F0003248027800210846FEF734F93149086070
:102A000031A000F07DFB2F480068FDF763FC054610
:102A10002A460B462EA000F073FB2FA000F070FB9F
:102A200026480078032802D1B120044670BD23480F
:102A30000078022802D1B0200446F7E71F4800784A
:102A4000042802D1B2200446F0E71C48007805288B
:102A500002D1B3200446E9E718480078062802D1DD
:102A6000B4200446E2E715480078072802D1B520D3
:102A70000446DBE711480078082802D1B620044656
:102A8000D4E70E480078092802D1B7200446CDE7E4
:102A90000A4800780A2802D1B8200446C6E7074849
:102AA00000780B2802D1B9200446BFE700BFBDE77C
:102AB0000030014004000020050000200600002036
:102AC000000801401400002020506C7573653A0026
:102AD000252E306C660000002000000021B1028825
:102AE00042F04002028004E002884FF6BF731A40B1
:102AF000028070470246002013890B400BB1012071
:102B000000E0002070470146888970478181704746
:102B100010B50022028802F441520B884C882343EE
:102B20008C882343CC8823430C8923434C8923433B
:102B30008C892343CC8923431A430280838B4FF231
:102B4000FF74234083830B8A038210BD704710B546
:102B500000F002F810BD00000CB5002001900090BC
:102B60003348006840F480303149086000BF304885
:102B7000006800F4003000900198401C019000981B
:102B800018B90198B0F5A06FF1D12948006800F498
:102B9000003010B10120009001E00020009000986A
:102BA000012843D12348006840F010002149086003
:102BB0000846006820F0030008600846006840F0FE
:102BC000020008601A484068194948600846406891
:102BD00048600846406840F48060486008464068A5
:102BE00020F47C1048600846406840F4E8104860D3
:102BF0000846006840F08070086000BF0C4800681C
:102C000000F000700028F9D00948406820F0030067
:102C1000074948600846406840F00200486000BF2D
:102C20000348406800F00C000828F9D10CBD0000F2
:102C300000100240002002407047000010B5134809
:102C4000006840F0010011490860084640681049DA
:102C500008400E494860084600680E4908400B4984
:102C600008600846006820F4802008600846406834
:102C700020F4FE0048604FF41F008860FFF767FFF4
:102C80004FF000600449086010BD000000100240D1
:102C90000000FFF8FFFFF6FE08ED00E010B5FFF7BB
:102CA000F3FBFFF762FBFEF701F900F099F8FDF77F
:102CB000FBFF10BD10B50121880700F024F80128A2
:102CC0000DD10121800700F00FF805480068401C75
:102CD0000349086003480068401C0249086010BDB1
:102CE0001C00002020000020CA430282704721B14E
:102CF000028842F00102028004E002884FF6FE736F
:102D00001A400280704730B502460020002300249C
:102D1000158A05EA0103958905EA010413B10CB18E
:102D2000012000E0002030BD1AB183890B4383816C
:102D300002E083898B438381704700000022028870
:102D40001D4B98420ED01D4B98420BD0B0F1804FD6
:102D500008D01B4B984205D01A4B984202D01A4B10
:102D6000984204D14FF68F731A404B881A43174B81
:102D7000984207D0164B984204D04FF6FF431A40B2
:102D8000CB881A4302808B8883850B8803850A4B86
:102D900098420BD0094B984208D00E4B984205D070
:102DA0000D4B984202D00D4B984201D10B7A03860D
:102DB0000123838270470000002C01400034014051
:102DC0000004004000080040000C004000100040DB
:102DD0000014004000400140004401400048014010
:102DE0000EB501210846FFF729FB0920ADF80400C4
:102DF00041F61F40ADF800000020ADF80600ADF828
:102E0000020069464FF08040FFF798FF012211460B
:102E10009007FFF789FF01218807FFF768FF0EBDC4
:102E200000B587B001218803FFF718FB01210420BA
:102E3000FFF714FB01210820FFF710FB4FF400708F
:102E4000ADF8180003208DF81A0018208DF81B002B
:102E500006A91F48FDF728FE4FF48060ADF8180062
:102E600003208DF81A0004208DF81B0006A91848CD
:102E7000FDF71AFE4FF4E13002900020ADF80C008F
:102E8000ADF80E00ADF81000ADF814000C20ADF850
:102E9000120002A90F4800F09FF825208DF80400C9
:102EA00000208DF805008DF8060001208DF8070040
:102EB000012240F22551074800F069F801A8FFF708
:102EC0006FFA0121034800F02CF807B000BD0000A4
:102ED000000801400038014010B540F225510A4871
:102EE00000F02BF850B1012008490870064800F0A6
:102EF000DFF8C4B22146044800F0DFF840F2255163
:102F0000014800F005F810BD003801402500002000
:102F100001F40072B2F5007F00D100BFCA43028005
:102F2000704721B1828942F40052828104E0828993
:102F30004DF6FF731A408281704770B50246002437
:102F400000230025002040F66A16B14200D100BFE0
:102F5000C1F3421501F01F03012606FA03F3012D08
:102F600002D19689334006E0022D02D1168A334001
:102F700001E0968A33400C12012606FA04F4168802
:102F8000344013B10CB1012000E0002070BDF0B559
:102F90000346002400260025002040F66A17B942A7
:102FA00000D100BF1846C1F3421401F01F060127EB
:102FB00007FA06F5012C01D10C3004E0022C01D1F6
:102FC000103000E014301AB107682F43076002E0A8
:102FD0000768AF430760F0BD2DE9F04786B00546AE
:102FE0000E460024A24600BFA1460027B08900B1CA
:102FF00000BF2F462C8A4CF6FF700440F088044333
:103000002C82AC894EF6F3100440B0883189084315
:10301000718908430443AC81AC8A4FF6FF400440F9
:10302000B0890443AC8201A8FFF792FA1F48874297
:1030300002D1DDF810A001E0DDF80CA0A88900F4B1
:10304000004040B10AEBCA0000EB0A1031684900A9
:10305000B0FBF1F807E00AEBCA0000EB0A10316898
:103060008900B0FBF1F86420B8FBF0F004012009FE
:10307000642101FB1089A88900F4004040B132208E
:1030800000EBC900B0FBF1F000F00700044308E0DA
:10309000322000EB09106421B0FBF1F000F00F00CA
:1030A00004432C8106B0BDE8F087000000380140E1
:1030B00001468888C0F308007047C1F30802828087
:1030C000704700BFFEE7000010B504461021054818
:1030D000FDF775FD2046FDF7D9FE10210148FDF7EB
:1030E00070FD10BD0008014010B5044610210348D2
:1030F000FDF765FD2046FDF7C9FE10BD0008014043
:103100000FB4054B10B503A9044A029800F0DAF891
:1031100010BC5DF814FB0000CD3900082800002029
:1031200002E008C8121F08C1002AFAD17047704790
:10313000002001E001C1121F002AFBD170470000EE
:103140002DE9FF5F82B00021DDE90430020DDDF8DA
:1031500040B0034318D044F61050A2F2FF3242436D
:103160001514119801281FD0A5EB0B00401C5FEA35
:10317000000A4FF000064E4FDFF83891B046504637
:1031800015D5CAF1000413E0119801244AA30128BF
:1031900001D16FEA0B010298119AC0E90031C0E930
:1031A000024206B0BDE8F09FCBF10000DFE7044625
:1031B0000021404A491842EB0450CDE9001012E0CA
:1031C000E00707D032463B4640464946FDF7BAF98C
:1031D0008046894632463B4610461946FDF7B2F90D
:1031E00006460F466410002CEAD1DDE90401DDE952
:1031F0000023BAF1000F06DAFDF7A4F942464B4668
:10320000FDF7A0F905E0FDF70FFA42464B46FDF742
:103210000BFA04460E460022284BFDF78DFA03D820
:103220004FF0FF30014607E00022254B2046314693
:10323000FDF7E1F8FDF767FA102409E0002C0ADB3E
:103240000A220023FDF76FF8039B30321A55641EE3
:1032500050EA0102F2D1641C039AC4F11103144430
:10326000119A012A03D0012208430DD10AE0084334
:1032700004D000204FF0110B119072E7A3EB0B0567
:103280006D1E0DE05B4504DD4FF0000205F1010508
:1032900004E003DA4FF00002A5F10105002AECD0AA
:1032A00002981199C0E90231C0E9004579E70000B0
:1032B000000014400000F03F300000000000F04328
:1032C0000000E03F2DE9FF4F95B09A46884606463C
:1032D0000025EEE1252877D100242746F94A01216F
:1032E000039400E0044316F8013F203B01FA03F089
:1032F0001042F7D130782A2811D06FF02F033078A0
:10330000A0F13002092A16D8039A44F0020402EB15
:10331000820203EB42021044761C0390EFE758F858
:10332000042B0392002A03DA504244F40054039021
:1033300044F00204761C30782E2816D116F8010FBE
:1033400044F004042A280DD06FF02F023078A0F149
:103350003003092B09D807EB870302EB4303C71897
:10336000761CF3E758F8047B761C30786C280FD075
:1033700006DC4C2817D068280DD06A2814D104E048
:10338000742810D07A280FD10DE044F400140AE01C
:1033900044F4801401E044F440147278824202D173
:1033A00004F58014761C761C307866280BD013DC6C
:1033B000582877D009DC002875D04528F6D0462853
:1033C000F4D047281AD193E118E0632835D0642857
:1033D00079D0652812D18BE1702873D008DC67287A
:1033E000F1D069286FD06E280DD06F2806D1ACE0DF
:1033F00073282CD0752874D0782853D0524617994A
:1034000090476D1C54E1C4F30250022809D00328F0
:103410000DD0D8F8001004280DD00D6008F1040874
:1034200046E1D8F80010EA17C1E90052F6E7D8F8EB
:1034300000100D80F2E70D70F0E718F8041B8DF80E
:10344000001000208DF80100EB46012003E058F841
:1034500004BB4FF0FF3061074FF0000102D40DE0D4
:1034600009F101018946B9420FDA8145F8DB1BF801
:1034700009100029F4D108E009F1010189468142CF
:10348000FADB1BF809100029F6D103985346A0EB8C
:10349000090721463846179A00F080FA284400EBC5
:1034A000090507E044E008E10DE01BF8010B524676
:1034B00017999047B9F10109F7D25346214638468A
:1034C000179AF2E039E00A21C4F302524FF0000BE0
:1034D0000091022A06D058F8040BC117032A09D01C
:1034E0000AE023E008F1070020F00702F2E80201F9
:1034F000904605E000B2C117042A01D140B2C117BD
:10350000002906DA0A460021404261EB02012D2221
:1035100002E0220504D52B228DF80420012203E0CD
:10352000E20701D02022F7E7914657E00A2100E0A8
:1035300010214FF0000B00910BE010214FF0000B19
:1035400044F004040827009103E008204FF0000B2A
:103550000090C4F30252022A05D058F8040B00214F
:10356000032A08D008E008F1070020F00702F2E87B
:103570000201904603E080B2042A00D1C0B24FF0AD
:10358000000922072AD53278702A07D0DDF800C05A
:103590008CF0100C5CEA0B0C05D00EE040228DF88C
:1035A0000420012208E050EA010306D030238DF800
:1035B00004308DF8052002229146009B83F0080319
:1035C00053EA0B030AD150EA010201D1620705D583
:1035D00030228DF804204FF001097F1E3278582ADE
:1035E00004D039A20C920CAA02920BE03BA2F9E79C
:1035F0005B46009AFCF797FE0C9B9B5C029A521E5E
:103600000292137050EA0102F2D1029804A9081A3A
:1036100000F1200B600702D524F4803400E001277C
:103620005F4502DDA7EB0B0000E0002000EB0B0183
:10363000009003984944401A0390E00306D453468F
:103640002146179A039800F0A9F90544002706E0DF
:1036500001A85246C05D179990476D1C7F1C4F45CD
:10366000F6DBE0030CD553462146179A039800F089
:1036700095F9054404E030205246179990476D1C97
:103680000099481E00900029F5DC08E00298029994
:1036900052460078491C0291179990476D1CBBF166
:1036A0000001ABF1010BF1DC5BE100F065F90544D1
:1036B000761C307800287FF40DAE19B02846BDE89E
:1036C000F08F0000092801003031323334353637AD
:1036D000383961626364656600000000303132335E
:1036E00034353637383941424344454600000000FE
:1036F000600700D4062708F1070020F00700F0E873
:103700000223804603F0004C5FEA0C0001D097A032
:1037100009E0200501D596A005E0E00701D095A0BD
:1037200001E0AFF24C001390307823F0004365289D
:103730000CD006DC452809D046281DD047287FD16B
:103740003BE0662818D067287AD136E00021112F97
:1037500001DB112000E0781CCDE9000104A90CA8D0
:10376000FFF7EEFCDDE90D010C9A4FF0000B07F1BD
:103770000109109200914EE04FF000400097CDE912
:10378000011004A90CA8FFF7DBFCDDE90D020C9B7E
:103790000F994FF0000B91461093009211B9791CCC
:1037A00000EB0109B7EB090003D4C0F1FF3B07F1BF
:1037B0000109A9EB0700019042E0012F00DA01277F
:1037C0000021112F01DD112000E03846CDE9000174
:1037D00004A90CA8FFF7B4FCDDE90D010C9A0091D7
:1037E0004FF0000BB946109221070FD4009A4A45BA
:1037F00003DA914601E0A9F10109B9F1010F05DDF4
:10380000109AA9F10101515C3029F4D0B84202DAD2
:1038100010F1040F03DA0121CDE9011010E00028B6
:1038200003DC8344A9EB000102E0411C494500DDB3
:103830008946A0EB0B00401C01904FF00040029025
:10384000200705D40198484502DB4FF0FF30019076
:1038500000208DF84B0002980DF14B07B0F1004F9E
:1038600025D002200C902B200D90029800280CDA15
:10387000404202902D200D9007E00A210298FCF7AB
:103880003CFD3031029007F8011D0C99481E0C9048
:103890000029F2DC02980028EFD1791E0D980870FB
:1038A000307800F0200040F0450007F8020D11A824
:1038B000C01BC01D02901398007800B1012000EBDE
:1038C0000901019801EBE071029801440398401A44
:1038D000401E0390E00306D453462146179A0398EE
:1038E00000F05CF805441398007818B15246179917
:1038F00090476D1CE00323D553462146179A039841
:1039000000F04CF805441BE0BBF1000F07DB00980A
:10391000584504DD1098179910F80B0001E017992D
:1039200030205246904701980BF1010B401E05F1E3
:103930000105019004D12E205246179990476D1C25
:10394000B9F10001A9F10109DEDC05E017F8010B6E
:103950005246179990476D1C0299481E0290002903
:10396000F4DC53462146179A03989EE62D0000008A
:103970002B000000200000002DE9F0410446002546
:103980001E461746880404D405E039462020B04777
:103990006D1C641EF9D52846BDE8F0812DE9F04183
:1039A000044600251E469046C80301D5302700E096
:1039B0002027880404D505E041463846B0476D1CF1
:1039C000641EF9D52846BDE8F081000070B50446B4
:1039D0000D4600BF0548008800F080000028F9D09F
:1039E000E1B20248FFF769FB204670BD0038014094
:1039F00010B5FFF753F9FFF713FAFDF721FA10A0FE
:103A0000FFF77EFB1048006800F4004048B107E073
:103A10000E480078012803D1FCF748FFFEF7AEFE00
:103A2000F6E70948006800F4005038B105E007489F
:103A30000078012801D1FDF79FFAF8E7002010BDBA
:103A40006767670D0A000000080C0140190000209C
:103A5000703A0008000000204000000020310008FB
:103A6000B03A000840000020000400003031000897
:103A70000000000000000000000000000000000046
:103A80000000000000000000000000000000000036
:103A90000000000000000000000000000000000026
:103AA00001020304010203040607080902040608D0
:04000005080000ED02
:00000001FF
