:020000040800F2
:1000000098110020F10100082F3C00087937000802
:100010002D3C0008AD0900085D54000800000000F8
:10002000000000000000000000000000694200081D
:10003000450A000800000000313C00086B4200083F
:100040000B0200080B0200080B0200080B0200085C
:100050000B0200080B0200080B0200080B0200084C
:100060000B0200080B0200080B020008B10900088F
:10007000BD090008C9090008D50900080B020008DD
:100080000B020008000000000B0200080B02000831
:100090000B0200080B0200080B0200080B0200080C
:1000A000694400080B020008754400080B020008B0
:1000B0000B0200080B0200080B0200080B020008EC
:1000C0000B0200080B0200080B0200080B020008DC
:1000D0000B020008515400080B0200080B02000834
:1000E0000B0200080B0200080B0200080B020008BC
:1000F0000B0200080B0200080B02000800000000C1
:10010000000000000B020008000000000B020008C5
:100110000B020008000000000B0200080B020008A0
:100120000B0200080B0200080B0200080B0200087B
:100130000B02000800000000000000000B02000895
:100140000B0200080B020008000000000000000085
:10015000000000000000000000000000000000009F
:100160000000000000000000000000000B0200087A
:100170000B0200080000000000000000000000006A
:10018000000000000B02000800000000000000005A
:10019000000000000000000000000000000000005F
:1001A00000000000000000000B0200080B02000825
:1001B0000B0200080B0200080B0200080000000000
:1001C000000000000B02000800000000000000001A
:1001D0000B0200080B020008DFF810D000F08CFBC7
:1001E000004800474D620008AFF3008098110020DE
:1001F0000648804706480047FEE7FEE7FEE7FEE7C1
:10020000FEE7FEE7FEE7FEE7FEE7FEE72143000824
:10021000D90100082DE9F05F0546002092469B4673
:1002200088460646814640241BE02846414647460C
:10023000224600F042FA53465A46C01A914110D362
:1002400011461846224600F029FA2D1A67EB0108DC
:100250004F4622460120002100F020FA17EB00094A
:100260004E41201EA4F10104DFDC484631462A46F7
:100270004346BDE8F09F2DE9FE4399461546884662
:10028000074601AC022942D3002D40D00020029045
:10029000A8F101004FF0FF36009022E000FB05724C
:1002A00001FB057011464A469047002805DC54F8CA
:1002B0002600304444F8260013E060682A4600FB1C
:1002C000057154F8040C00FB057007E00B7890F8FA
:1002D00000C001F801CB00F8013B521E002AF5D105
:1002E000764254F8040C61688842D7DC4B462A46B3
:1002F0003846FFF7C0FF54F8040C4B46A8EB00014A
:10030000401C00FB05702A46491EFFF7B4FFBDE8FC
:10031000FE8340EA01039B0703D009E008C9121FCE
:1003200008C0042AFAD203E011F8013B00F8013BAF
:10033000521EF9D27047D2B201E000F8012B491EDB
:10034000FBD270470022F6E710B513460A46044672
:100350001946FFF7F0FF204610BD421C10F8011BA4
:100360000029FBD1801A7047034611F8012B00F8D1
:10037000012B002AF9D1184670472DE9FE4F80461F
:1003800081EA0300C00F0C46009021F0004123F0E9
:100390000045B8EB0200A94105D2404621469046EF
:1003A0001C460B46024623F00040104347D0270D61
:1003B000C7F30A00C3F30A510290401A0190402883
:1003C0006BDAC3F3130040F4801B0098924620B10F
:1003D0000023D2EB030A63EB0B0B01985946C0F1E3
:1003E0004002504600F05AF906460D46504659461E
:1003F000019A00F072F910EB08006141002487EACD
:10040000115284EAE7731A4340D0009A62B3019A0A
:10041000012A4FEA075215DC001B61EB02014FF085
:10042000004202EA0752CDE90042001C41F580116A
:1004300032462B4600F072F903B0BDE8F08F40461B
:100440002146F9E7001B61EB0201001C41F5801316
:1004500000185B412018A2F5001747EB030140EAA2
:10046000D570B6196D4111E06D084FEA360645EAC0
:10047000C0754FEA0752001B61EB0201001C41F5F9
:10048000801149084FEA30000019514132462B468D
:1004900003B0BDE8F04F00F032B9009801224000EF
:1004A0000023D0EB020263EBE073009821464FEA91
:1004B000E074B8EB000061EB0401E9E783F000436E
:1004C0005BE781F0004158E72DE9FE4F81EA030424
:1004D00004F0004421F0004100944FF0000B23F0A1
:1004E000004350EA01045ED052EA03045BD0C3F338
:1004F0000A54C1F30A552C44A4F2F3340194A0FB2E
:100500000254C1F3130141F48011C3F3130343F404
:10051000801301FB024400FB034E840A970A44EA5D
:10052000815447EA8357A4FB076802958D0A05FBAF
:1005300007854FEA932C04FB0C542705029D4FEAD4
:10054000065847EA1637B5EB08056EEB070C870E21
:10055000920E47EA811742EA8312A7FB0201B6EB2B
:100560000B0164EB00042B0D43EA0C335E1844EBE3
:100570001C50DA465146E7FB0201C5F313044FEA6B
:100580000B3343EA14534FEA0432019C43EA060357
:10059000A4F10C040294009CCDE900B400F0BEF874
:1005A00003B0BDE8F08F00200146F9E70EB5C10F9A
:1005B00080EAE0700844CA07002140F233438DE826
:1005C0000E000A460B4600F0A9F803B000BD70B556
:1005D000C1F30A5201F000450024C1F3130140F2B7
:1005E000FF3341F480119A4201DA002070BD40F2DD
:1005F00033439A42A2F2334203DC524200F05DF8E8
:1006000000E090402C43F1D0404270BDC1F30A524B
:1006100010B5C1F3130140F2FF3341F480119A4247
:1006200001DA002010BD40F233439A42A2F2334275
:1006300003DC524200F041F810BD904010BD0000B4
:1006400030B5041E71F1000404DB4FF00044404259
:1006500064EB0101141E73F1000405DB1C464FF02E
:100660000043524263EB04038B4208BF824230BD19
:1006700030B50B46014600202022012409E021FA72
:1006800002F59D4205D303FA02F5491B04FA02F56F
:100690002844151EA2F10102F1DC30BD202A04DB42
:1006A000203A00FA02F1002070479140C2F1200385
:1006B00020FA03F3194390407047202A04DB203AC4
:1006C00021FA02F00021704721FA02F3D040C2F172
:1006D00020029140084319467047202A06DBCB17B9
:1006E000203A41FA02F043EAE07306E041FA02F3ED
:1006F000D040C2F12002914008431946704710B51E
:10070000141E73F1000408DA401C41F10001921834
:100710005B411A4301D120F0010010BD2DE9F04DDD
:1007200092469B4611B1B1FA81F202E0B0FA80F232
:1007300020329046FFF7B2FF04460F4640EA0A0017
:1007400041EA0B0153465A46084313D0114653EA77
:10075000010019D0C8F140025046FFF7AEFF054630
:100760000E46504659464246FFF798FF084305D0CB
:10077000012004E020463946BDE8F08D0020054305
:1007800046EAE0762C4337430A986305E40AA0EB77
:1007900008000022FD0A44EA47540A3002D500202E
:1007A0000146E9E7010510196941DDE9084500192D
:1007B0006941BDE8F04DA2E72DE9F04D81EA03045F
:1007C00004F0004B21F0004514464FF0000A23F0DE
:1007D000004150EA050220D054EA01021DD0C5F3C1
:1007E0000A570246C5F31303C1F31300C1F30A56B7
:1007F00040F4801543F48013A7EB0608101BD6467F
:1008000008F2FD3873EB050002D308F1010801E09E
:1008100092185B41B8F1000F03DA00200146BDE8F1
:10082000F08D00204FF48011064684460EE0171B21
:1008300073EB050705D3121B63EB050306434CEA74
:10084000010C49084FEA300092185B4150EA010759
:10085000EDD152EA030012D082EA040083EA0501D6
:10086000084305D0101BAB4106D20122002306E04D
:1008700000224FF0004302E06FF0010253101AEB28
:1008800006004CEB085110EB0A0041EB0B01BDE8F0
:10089000F04DFFF734BFC1F30A52C1F3130140F228
:1008A000FF3341F480119A4202DA0020014670477A
:1008B00040F233439A42A2F2334202DC5242FFF743
:1008C000FCBEFFF7EBBE000030B5041E71F1000462
:1008D00004DB4FF00044404264EB0101141E73F14D
:1008E000000405DB1C464FF00043524263EB040357
:1008F000994208BF904230BD064C074D06E0E068C3
:1009000040F0010394E8070098471034AC42F6D356
:10091000FFF766FC4463000864630008F0B58BB021
:1009200000240E4607461546079408941C21684685
:100930000994FFF707FD17484FF080410160C0E9B7
:100940000164C0E90374846102F0E8F918B12F2151
:1009500011A005F001FC079407A90E48099401F0C5
:1009600053FE18B134210CA005F0F6FB6020009076
:10097000CDE90154002269460648049402F064F867
:1009800018B13C2104A005F0E7FB024802F01EF874
:100990000BB0F0BD5C0200202E2E2F436F72652F2E
:1009A0005372632F74696D2E63000000FEE7000030
:1009B000014800F084B8000020040020014800F045
:1009C0007EB8000080040020014800F078B80000E4
:1009D000C0030020014800F072B80000B4000020FD
:1009E0000D4902688A4201D20C4901E00B492031CD
:1009F000D2B21423083AB2FBF3F2436C02F01F02A6
:100A000023F003031944816404498031C164012146
:100A10009140016570470000080402400008024050
:100A20000179074A02EB81024265054A4432491EB8
:100A3000826501F01F0201219140C16570470000ED
:100A4000FC080240704770B590F825100024012280
:100A50002346022907D00421C16380F8252080F8AD
:100A60002430012429E001680D6825F00E050D6091
:100A700001680D6825F001050D60816C0D6825F495
:100A800080750D6090F84410154601F01F018A40F2
:100A9000016C4A60D0E913124A60416D31B10A68B5
:100AA00022F480720A60D0E916124A6080F825505C
:100AB00080F82430816B01B18847204670BDF0B4C6
:100AC000016C0B6801680A6890F84440042504F042
:100AD0001F0405FA04F61E4211D056070FD50A6806
:100AE000920603D40A6822F004020A6090F84410C7
:100AF00001F01F018D40016C4D60016B1DE002266D
:100B000006FA04F71F424FF0000C4FF0010518D011
:100B1000970716D50A68920605D40A6822F00A02D9
:100B20000A6080F8255090F8441001F01F018E40B3
:100B3000016C4E6080F824C0C16A00291AD0F0BC54
:100B400008470826A6401E4214D0120712D50A688C
:100B500022F00E020A6090F84410026C01F01F01AE
:100B600005FA01F15160C56380F8255080F824C072
:100B7000416BE2E7F0BC704770B504007ED06E496F
:100B800020686E4D88422DD06B491431884229D09F
:100B900069492831884225D067493C31884221D0B3
:100BA0006549503188421DD063496431884219D06B
:100BB000A84217D061491431884213D05F492831C7
:100BC00088420FD05D493C3188420BD05B4950319F
:100BD000884207D059496431884203D0A32158A0E4
:100BE00005F0BAFAA0684FF4804638B1102805D055
:100BF000B04203D0A42152A005F0AEFAE06840282C
:100C000004D018B1A5214EA005F0A6FA20698028CD
:100C100004D018B1A6214AA005F09EFA606948B137
:100C2000B0F5807F06D0B0F5007F03D0A72144A0A7
:100C300005F092FAA06948B1B0F5806F06D0B0F522
:100C4000006F03D0A8213EA005F086FAE06928B124
:100C5000202803D0A9213AA005F07EFA206A60B1CD
:100C6000B0F5805F09D0B0F5005F06D0B0F5405F09
:100C700003D0AA2132A005F06FFA00E014E060680A
:100C8000732803D9AC212EA005F066FA2068142140
:100C9000A8420BD2284A52420244B2FBF1F1890029
:100CA0006164254908390AE0012070BD234A524297
:100CB0000244B2FBF1F189006164204908392164E2
:100CC000022184F82510016847F6F0729143D4E9B7
:100CD00002231A43D4E904352B431A43A3691A4368
:100CE000E3691A43236A1A430A4302602046FFF766
:100CF00077FEA0680025B04200D16560A16C207924
:100D00000860D4E9130141606068401E032808D8D8
:100D10002046FFF785FE606D0560D4E9160141604D
:100D200002E06565A565E565E563012084F82500B9
:100D300084F82450002070BD0800024008040240DE
:100D40002E2E2F447269766572732F53544D3332B1
:100D5000473478785F48414C5F4472697665722FFA
:100D60005372632F73746D3332673478785F6861C0
:100D70006C5F646D612E63002DE9F84F0026DFF88B
:100D800058A2DFF858B20D460446B0F1904F13D088
:100D9000544511D05C450FD0914884420CD0914805
:100DA000844209D09048844206D09048844203D0BF
:100DB000B1218FA005F0D0F928680104090C01D0F9
:100DC000000C03D0B2218AA005F0C6F96868F8B11A
:100DD00001281DD011281BD0022819D0122817D0A5
:100DE0009249884214D09249884211D09149884250
:100DF0000ED0914988420BD09049884208D0904942
:100E0000884205D0032803D0B32179A005F0A4F9C6
:100E1000A868002807D00128FCD00228FAD0B42105
:100E200073A005F099F9CFE0012000FA06F817EA5F
:100E300008077DD06868012805D0022803D0112852
:100E400001D012281DD1E86848B1012807D0022836
:100E500005D0032803D0C42165A005F07DF9A16861
:100E60007000032282409143EA6882400A43A260F4
:100E70006068297920EA0800C1F30011B1400143FC
:100E80006160E2687000032101FA00F8A9688146F8
:100E900022EA080201FA09F11143E16068680228B8
:100EA00001D012282AD1B4F1904F13D0544511D05B
:100EB0005C450FD04A4884420CD04A48844209D04D
:100EC0004948844206D04948844203D0DC2148A0E6
:100ED00005F042F928690F2803D9DD2144A005F067
:100EE0003BF9F00804EB8000026A7107C90E0F237A
:100EF0008B409A432B698B40134303622068297906
:100F000020EA080001F0030101FA09F10143216020
:100F10006868C00057D54B48016E41F00101016679
:100F2000006E26F0030100F001000090464800E04A
:100F300049E001448B68B007020F0F2090408343C3
:100F4000B4F1904F03D0544503D1012015E00020A7
:100F500013E05C4501D102200FE02148844201D119
:100F600003200AE01F48844201D1042005E01E4806
:100F7000844201D1052000E006209040184388609B
:100F8000324908686A68B843D20300D5384308601C
:100F90002E49091D08686A68B843920300D5384392
:100FA00008602A49083108686A68B843D20200D547
:100FB0003843086025490C3108686A68B8439202D2
:100FC00000D538430860761C2F6837FA06F07FF4A6
:100FD0002BAFBDE8F88F000000040048000800486F
:100FE000000C004800100048001400480018004899
:100FF0002E2E2F447269766572732F53544D3332FF
:10100000473478785F48414C5F4472697665722F47
:101010005372632F73746D3332673478785F68610D
:101020006C5F6770696F2E63000000000000111094
:1010300000002110000031100000121000002210EA
:101040000000321000100240000001400004014086
:1010500070B515460C00064604D140F29D1107A05C
:1010600005F07AF845B1012D04D04FF4CF7103A0FB
:1010700005F072F8B46170BDB46270BD2E2E2F44BD
:101080007269766572732F53544D333247347878D2
:101090005F48414C5F4472697665722F5372632FCB
:1010A00073746D3332673478785F68616C5F677032
:1010B000696F2E63000000000148806870470000DF
:1010C0002400002002488168426811448160704712
:1010D0002400002010B50024032000F0CDF80020EB
:1010E00000F008F808B1012401E000F025F82046DE
:1010F00010BD000070B50E4E05460024706898B112
:101100004FF47A71B1FBF0F00A490968B1FBF0F0D5
:1011100001F060FA40B9102D06D200222946501E77
:1011200000F05CF8356000E00124204670BD00004E
:1011300024000020300000200E4882B0016E41F0F3
:1011400001010166016E01F001010091816D41F024
:1011500080518165816D01F080510091816D41F078
:1011600080518165806D00F08050009002B000F0E9
:1011700047B900000010024010B5040003D5D32188
:1011800007A004F0E9FF002C09DB04F01F01012097
:1011900088406109890001F1E021C1F8000110BD1A
:1011A0002E2E2F447269766572732F53544D33324D
:1011B000473478785F48414C5F4472697665722F96
:1011C0005372632F73746D3332673478785F68615C
:1011D0006C5F636F727465782E63000070B514469F
:1011E0000D460646102A03D3BF2113A004F0B4FF16
:1011F000102D03D3C02110A004F0AEFF1D480068DD
:10120000C0F30223C3F10700042800D90420191DEC
:10121000072901D2002300E0DB1E012202FA00F1BF
:10122000491E294099409A40521E22403046BDE84E
:101230007040114304F0C4BA2E2E2F4472697665B3
:1012400072732F53544D3332473478785F48414C92
:101250005F4472697665722F5372632F73746D33B6
:1012600032673478785F68616C5F636F7274657839
:101270002E6300000CED00E010B5044607280BD0EB
:10128000062C09D0052C07D0042C05D0032C03D044
:10129000A72108A004F060FF154A04F007011068B8
:1012A0004FF6FF03184040EA01201249084310603E
:1012B00010BD00002E2E2F447269766572732F5375
:1012C000544D3332473478785F48414C5F447269FB
:1012D0007665722F5372632F73746D33326734786F
:1012E000785F68616C5F636F727465782E6300006D
:1012F0000CED00E00000FA052F4910B509682F4AEF
:1013000032232F4C594378B1B0F5007F31D0B0F57E
:10131000806F03D09E212BA004F01EFF206820F4D4
:10132000C06040F480602DE02068C0F341200228B6
:1013300004D054F8800F20F4807023E0D4F88000AB
:1013400020F48070C4F88000206820F4C06040F46D
:1013500000702060B1FBF2F0401C00E0401E6169AB
:10136000490501D50028F9D1606940050BD5032056
:1013700010BD2068C0F34120022806D054F8800F29
:1013800040F480702060002010BDD4F8800040F44C
:101390008070C4F88000206820F4C06040F40070C1
:1013A0002060B1FBF2F0401C00E0401E616949057D
:1013B000DAD50028F9D1D7E73000002040420F00ED
:1013C000007000402E2E2F447269766572732F5381
:1013D000544D3332473478785F48414C5F447269EA
:1013E0007665722F5372632F73746D33326734785E
:1013F000785F68616C5F7077725F65782E6300005C
:101400000248816841F4804181607047007000406B
:101410002DE9F84F044600260068FF4D3746C10706
:1014200021D181071FD441071DD401071BD4810698
:1014300019D4410617D4010615D4C10513D481056A
:1014400011D441050FD401050DD4C1040BD481047E
:1014500009D4410407D4010405D4000306D485212E
:10146000EEA004F079FE206800036CD5206C4FF0EC
:10147000000960B1B0F5807F09D0B0F5007F06D0DB
:10148000B0F5407F03D08D21E4A004F065FEA86D87
:10149000C00009D4A86D40F08050A865A86D4FF039
:1014A000010900F080500090DFF8ACA3DAF80010DA
:1014B00041F48071CAF80010FFF7FEFD804607E096
:1014C000FFF7FAFDA0EB0800022801D9032632E05D
:1014D000DAF80000C005F3D56EBBD5F8900010F423
:1014E000407014D0216C814211D0D5F89000D5F80D
:1014F000901020F4407041F48031C5F89010D5F878
:10150000901021F48031C5F89010C5F89000C00704
:101510007ED0FFF7D1FD804641F2883A05E0FFF723
:10152000CBFDA0EB08015145D0D8D5F8900080073D
:10153000F5D5002EECD03746B9F1000F03D0A86DD9
:1015400020F08050A8652078C00713D0606848B1AB
:10155000012807D0032805D0022803D0E221AFA03C
:1015600004F0FAFDD5F88800616820F00300084314
:10157000C5F888002078800713D5A06848B10428F2
:1015800007D00C2805D0082803D0EC21A3A004F034
:10159000E3FDD5F88800A16820F00C000843C5F8E9
:1015A00088002078400713D5E06848B1102807D09C
:1015B000302805D0202803D0F62198A004F0CCFDD7
:1015C000D5F88800E16820F030000843C5F88800AD
:1015D0002078000714D5206950B1402808D0C028D1
:1015E00006D0802804D040F201118CA004F0B4FD94
:1015F000D5F88800216920F0C0000843C5F88800AC
:101600002078800619D5606978B1B0F5806F00E068
:101610005DE10AD0B0F5406F07D0B0F5006F04D09F
:101620004FF48D717DA004F097FDD5F888006169B5
:1016300020F440600843C5F888002078400614D59F
:10164000A06950B1B0F5805F07D0B0F5005F04D05D
:101650004FF4927171A004F07FFDD5F88800A16964
:1016600020F440500843C5F888002078000614D5BF
:10167000E06950B1B0F5804F07D0B0F5004F04D00D
:101680004FF4977165A004F067FDD5F88800E16913
:1016900020F440400843C5F888002088C00514D5D0
:1016A000206A50B1B0F5803F07D0B0F5003F04D0BC
:1016B0004FF49C7159A004F04FFDD5F88800216AC1
:1016C00020F440300843C5F888002088800517D5ED
:1016D000606A68B1B0F5802F0AD0B0F5002F07D04E
:1016E000B0F5402F04D04FF4A8714CA004F034FDA5
:1016F000D5F88800616A20F440200843C5F88800C6
:10170000208840051FD5A06A4FF4801660B1B04212
:101710000AD0B0F5001F07D0B0F5401F04D04FF439
:10172000AD713EA004F018FDD5F88800A16A20F440
:1017300040100843C5F88800A06AB04203D1E868A9
:1017400040F48010E860208800051FD5E06A4FF45F
:10175000800660B1B0420AD0B0F5000F07D0B0F5F6
:10176000400F04D04FF4B5712CA004F0F5FCD5F86F
:101770008800E16A20F440000843C5F88800E06A68
:10178000B04203D1E86840F48010E8602088C004CB
:101790001CD5206B4FF0807648B1B04207D0B0F135
:1017A000007F04D040F27B111CA004F0D5FCD5F8DA
:1017B0008800216B20F040700843C5F88800206B3A
:1017C000B04203D1E86840F48010E86020884FF010
:1017D0000066800417D5606B30B1B04204D040F28F
:1017E0008D110EA004F0B8FCD5F88800616B20F0D4
:1017F00040600843C5F88800606BB04203D1E868D8
:1018000040F48010E860208840043CD5A06B10B103
:10181000B04229D022E027E0001002402E2E2F44B3
:101820007269766572732F53544D3332473478782A
:101830005F48414C5F4472697665722F5372632F23
:1018400073746D3332673478785F68616C5F72638C
:10185000635F65782E630000007000404FF4CE7126
:10186000AFF2480004F078FCD5F88800A16B20F0B6
:1018700040600843C5F88800A06BB04203D1E86817
:1018800040F48010E860208800041DD5E06B4FF024
:10189000805650B1B04208D0B0F1005F05D04FF48F
:1018A000D571AFF2880004F057FCD5F88800E16BE1
:1018B00020F040500843C5F88800E06BB04203D1E7
:1018C000E86840F48030E8603846BDE8F88FD5F825
:1018D0009000216C20F440700843C5F890002BE67E
:1018E0002DE9F0470C4605004FF000075FD028684F
:1018F000010701D0000904D040F20A31A3A004F08E
:101900002BFC14B3012C20D0022C1ED0032C1CD095
:10191000042C1AD0052C18D0062C16D0072C14D065
:10192000082C12D0092C10D00A2C0ED00B2C0CD065
:101930000C2C0AD00D2C08D00E2C06D00F2C04D065
:1019400040F20B3191A004F007FCDFF87892D9F84F
:10195000000000F00F00A0420CD2D9F8001021F0D6
:101960000F012143C9F80010D9F8000000F00F0062
:10197000A0421CD12878944EC00741F2883A66D024
:101980006868DFF8488201280DD002283AD0032881
:1019900010D040F222317DA004F0DEFB68680328FD
:1019A00008D002282ED03068400500282DDB012009
:1019B000BDE8F08730688001F9D5F06800F00301D8
:1019C000F068C0F30310401C032919D08049B1FB13
:1019D000F0F0F168C1F306214843F168C1F34161B9
:1019E000491C4900B0FBF1F0404519D9B06810F02E
:1019F000F00F0ED02878800712D5A86848B10FE004
:101A00007449E4E730688003CFE700F00FF9404500
:101A100006D9B06820F0F00040F08000B060802768
:101A2000B068696820F003000843B060FFF744FB2A
:101A3000804605E0FFF740FBA0EB0801514552D876
:101A4000B068696800F00C00B0EB810FF2D1286833
:101A500081072BD5400703D5B06840F4E060B06043
:101A60002878000705D5B06820F4605040F4E060A5
:101A7000B060A868A0B1802812D0902810D0A0280B
:101A80000ED0B0280CD0C0280AD0D02808D0E0282A
:101A900006D0F02804D040F279313CA004F05CFB81
:101AA000B068A96820F0F000084304E0802F03D15B
:101AB000B06820F0F000B060D9F80010484601F09E
:101AC0000F01A14217D90168C84621F00F01214337
:101AD0000160FFF7F1FA0746D14606E0FFF7ECFA9E
:101AE000C11B494501D9032062E7D8F8000000F086
:101AF0000F00A042F2D128784FF4806440074FF4E1
:101B0000A0674FF4C0684FF4E06914D5E86860B18D
:101B1000A0420AD0B84208D0404506D0484504D07B
:101B200040F29B3119A004F017FBB068E96820F47B
:101B3000E0600843B0602878000715D5286960B1D7
:101B4000A0420AD0B84208D0404506D0484504D04B
:101B500040F2A2310DA004F0FFFAB068296920F428
:101B6000605040EAC100B06000F060F8B1681A4A05
:101B7000C1F30311515C01F01F01C840174908600F
:101B800017480068BDE8F047FFF7B4BA2E2E2F447F
:101B90007269766572732F53544D333247347878B7
:101BA0005F48414C5F4472697665722F5372632FB0
:101BB00073746D3332673478785F68616C5F726319
:101BC000632E6300002002400010024000B4C404F1
:101BD0000024F40000127A001C630008300000208A
:101BE000240000200548064900688968054AC1F3B9
:101BF0000221515C01F01F01C840704730000020F5
:101C0000001002402C6300080548064900688968F6
:101C1000054AC1F3C221515C01F01F01C840704761
:101C200030000020001002402C630008184A10B554
:101C30009068C0F38101174801290BD091684410C6
:101C4000C1F38101022906D09168C1F38101032902
:101C500003D0002010BD204610BDD16801F0030361
:101C6000D168C1F30311491C032B02D0B0FBF1F082
:101C700001E0B4FBF1F0D168C1F306214843D1681B
:101C8000C1F34161491C4900B0FBF1F010BD0000F7
:101C9000001002400024F4002DE9F84304007DD038
:101CA000FE4D206870B1C1070FD1810763D4810652
:101CB00075D4010774D4400773D440F24311F8A0DF
:101CC00004F04AFA2078C00752D060684FF480369A
:101CD0004FF4A02740B1B04206D0B84204D040F241
:101CE0004911EFA004F038FAA868E96800F00C0088
:101CF00001F003010C2802D0082809D001E00329D3
:101D000006D06068B0420AD1286840F4803013E001
:101D1000286880032CD560680028C0D028E0B8422D
:101D2000286803D140F480202860EDE720F480305B
:101D30002860286820F480202860606860B1FFF780
:101D4000BBF9064604E0FFF7B7F9801B64287CD88E
:101D500028688003F7D50BE0FFF7AEF9064604E0EC
:101D6000FFF7AAF9801B6428F1D828688003F7D40C
:101D70002078800761D5E06838B1B0F5807F04D065
:101D80004FF4BF71C6A004F0E7F920697F2804D999
:101D900040F27F11C2A004F0DFF903E0ACE04CE0B8
:101DA0004EE084E0A868E96800F00C0001F003014F
:101DB0000C2802D004280DD001E002290AD0E068E6
:101DC000002828682AD040F480702860FFF774F952
:101DD000064618E02868400502D5E06800289CD037
:101DE0006868217C20F0FE4040EA01606860BA48E3
:101DF0000068FFF77FF900287ED11EE0FFF75CF94D
:101E0000801B0228A3D828684005F7D56868217C84
:101E100020F0FE4040EA016068600EE020F480702F
:101E20002860FFF749F9064604E0FFF745F9801BF3
:101E300002288CD828684005F7D42078000733D5CD
:101E40006069F0B1012808D000E0AFE14FF4E37120
:101E500093A004F081F9606998B1D5F8940040F03E
:101E60000100C5F89400FFF727F9064604E0FFF7E4
:101E700023F9801B0228C5D8D5F894008007F6D531
:101E800012E0D5F8940020F00100C5F89400FFF7A7
:101E900013F9064604E0FFF70FF9801B0228B1D8BA
:101EA000D5F894008007F6D4207840076DD5A06857
:101EB000002740B1012806D0052804D04FF4F9715D
:101EC00077A004F049F9A86DC00008D4A86D40F0CF
:101ED0008050A865A86D012700F0805000907F48D1
:101EE0000168C90512D40168804641F4807101601F
:101EF000FFF7E2F8064605E08EE1FFF7DDF8801B0C
:101F0000022896D8D8F80000C005F6D5A0680128A8
:101F100015D00528D5F8900016D020F00100C5F89E
:101F20009000D5F8900020F00400C5F89000A0685B
:101F300041F28838B8B1FFF7BFF806460EE0D5F891
:101F4000900040F00100F0E740F00400C5F8900078
:101F5000F5E7FFF7B1F8811B41458CD8D5F8900023
:101F60008007F6D50CE0FFF7A7F8064604E0FFF778
:101F7000A3F8811B414592D8D5F890008007F6D48C
:101F80001FB1A86D20F08050A8652078800631D55B
:101F9000A069E0B1012806D040F2392140A004F048
:101FA000DBF8A06998B1D5F8980040F00100C5F8B9
:101FB0009800FFF781F8064604E0FFF77DF8801BE4
:101FC00002289ED8D5F898008007F6D512E0D5F8FB
:101FD000980020F00100C5F89800FFF76DF806465C
:101FE00004E0FFF769F8801B02288AD8D5F898002A
:101FF0008007F6D4E069002874D0012809D00228AF
:1020000007D040F2622126A004F0A6F8E06900287B
:10201000F2D0A868C0F381000328E0697DD00228CF
:102020000FD0286820F080702860E86820F0030056
:10203000E860E8682A490840E860FFF73DF8044690
:10204000B7E0206A40B1022806D0032804D04FF43C
:102050001B7113A004F080F8606A401E0F2804D999
:1020600040F26D210EA004F077F8A06A08387728B6
:1020700004D940F26E210AA004F06EF8E06A801ED6
:102080001D2804D940F26F2105A004F065F8206BEB
:10209000022831D004282FD0062824E00010024066
:1020A0002E2E2F447269766572732F53544D33323E
:1020B000473478785F48414C5F4472697665722F87
:1020C0005372632F73746D3332673478785F68614D
:1020D0006C5F7263632E6300240000200070004078
:1020E000FFFFEEFE9AE007D0082805D04FF41C71E0
:1020F000AFF2540004F030F8606B02280BD00428D3
:1021000009D0062807D0082805D040F27121AFF287
:10211000700004F021F8286800E04EE020F08070A4
:102120002860FEF7C9FF064604E0FEF7C5FF801BE6
:1021300002283BD828688001F7D4F4E908016FF041
:102140000F0202EB01110843218A5204490802EBF5
:102150004151A26841EA02210843217D4FF07E42AD
:10216000490802EB41610843217B40EAC160E9680C
:102170002B4A11400843E860286840F080702860CE
:10218000E86840F08070E860FEF796FF044604E0DF
:10219000FEF792FF001B022808D828688001F7D5B7
:1021A0003CE0FEF789FF001B022802D90320BDE8AE
:1021B000F88328688001F4D430E00128F7D0E8687B
:1021C000226A00F00301914226D1616A00F0F00218
:1021D0000901103991421FD1A26A00F4FE41B1EB0E
:1021E000022F19D194F82C2000F07841B1EBC26F86
:1021F00012D1218E00F4C00249084905A1F5001151
:10220000914209D194F8341000F0C06049084906A1
:10221000A1F10071814201D00120C8E70020C6E78A
:102220000C809F012DE9F04104007CD0A149206879
:1022300088420AD0A049884207D0A049884204D0E9
:1022400040F247119EA003F087FF60684FF482764A
:1022500030B1B04204D04FF4A47199A003F07CFFD8
:10226000A0684FF4806748B1B84207D0B0F5004F7E
:1022700004D040F2491192A003F06EFFE0684FF4E1
:1022800070684FF4E065404526D0B0F5606F23D00C
:10229000B0F5506F20D0B0F5406F1DD0B0F5306F65
:1022A0001AD0B0F5206F17D0B0F5106F14D0B0F57C
:1022B000006F11D0A8420FD0B0F5C06F0CD0B0F5B0
:1022C000A06F09D0B84207D0B0F5407F04D04FF4DA
:1022D000A5717BA003F040FFA069B0F5007F08D096
:1022E00038B1B0F5802F04D040F24B1174A003F048
:1022F00033FF606B082805D020B14FF4A67170A0A1
:1023000003F02AFFE069A0B1082812D0102810D0ED
:1023100018280ED020280CD028280AD0302808D021
:10232000382806D000E036E040F24D1164A003F0FA
:1023300013FF206A30B1802804D04FF4A77160A049
:1023400003F00AFF606A002740B3102806D040F26D
:102350004F115BA003F000FF606AF8B1E06990B133
:10236000082810D010280ED018280CD020280AD009
:10237000282808D0302806D0382804D040F261112F
:102380004FA003F0E9FE27616761A76294F85D0042
:10239000002831D035E00120BDE8F081206930B15E
:1023A000022804D04FF4A97145A003F0D5FE60695E
:1023B00030B1012804D040F2531141A003F0CCFE0B
:1023C0006068B04216D1E0690028DED00828DCD071
:1023D0001028DAD01828D8D02028D6D02828D4D051
:1023E0003028D2D03828D0D040F2571134A003F092
:1023F000B3FECAE7E761C8E784F85C70204600F0E6
:102400007BF8022084F85D002068016821F040011B
:102410000160E068A84203D90021404502D104E0F0
:102420004FF48051A84200D0A762A088228900F40E
:10243000827002F404421043227C02F00202104334
:10244000227D02F001021043228B02F4007210433D
:10245000227F02F03802104394F8202002F080021C
:102460001043228D02F40052104322681060A069CC
:10247000042202EA104094F8242001F4805102F072
:102480001002104394F8342002F008021043A2898D
:1024900002F4706210430843216848602068C169F3
:1024A00021F40061C1612766012084F85D000020ED
:1024B00072E700000030014000380040003C00405E
:1024C0002E2E2F447269766572732F53544D33321A
:1024D000473478785F48414C5F4472697665722F63
:1024E0005372632F73746D3332673478785F686129
:1024F0006C5F7370692E63002DE9F04186B004466D
:1025000014216846FDF71EFF16492068884226D12F
:102510001548016E41F480510166016E01F480514D
:102520000591C16C41F00201C164C06C052400F04A
:1025300002000590182002250126032704948DE847
:10254000E100DFF8288069464046FEF715FC2020B0
:1025500004948DE8E10069464046FEF70DFC06B0A4
:10256000BDE8F08100300140001002400004004846
:1025700010B54FF0E02404280AD020B14FF4C27106
:1025800005A003F0E9FD206920F00400206110BDE2
:10259000206940F00400F9E72E2E2F447269766519
:1025A00072732F53544D3332473478785F48414C1F
:1025B0005F4472697665722F5372632F73746D3343
:1025C00032673478785F68616C5F636F72746578C6
:1025D0002E63000010B5401EB0F1807F01D30120B2
:1025E00010BD4FF0E02460610F21601703F0E8F8A0
:1025F0000020A06107202061002010BD70477047B7
:1026000070477047704770472DE9F05F04460068D7
:10261000DFF85C91DFF85CB1574F0D46484517D0A5
:10262000B0F1804F14D0584512D0544988420FD091
:10263000534988420CD05349884209D0B84207D048
:102640005149884204D040F6360150A003F084FD81
:102650002868A8B1102813D0202811D030280FD016
:1026600040280DD050280BD0602809D0702807D002
:10267000B0F1007F04D040F6370144A003F06CFDB8
:10268000A868802805D020B140F638013FA003F0AB
:1026900063FD94F83C00012868D04FF0010A84F8EB
:1026A0003CA0022084F83D0020684668D0F80880ED
:1026B000484501D0B84237D1686888B3B0F5801F6B
:1026C0002ED0B0F5001F2BD0B0F5401F28D0B0F5AC
:1026D000800F25D0B0F5A00F22D0B0F5C00F1FD0CD
:1026E000B0F5E00F1CD0B0F5000F19D0B0F5100F09
:1026F00016D0B0F5200F13D0B0F5300F10D0B0F5D4
:10270000400F0DD0B0F5500F0AD0B0F5600F07D0D4
:10271000B0F5700F04D040F64A011CA003F01CFD78
:1027200026F470006E680643274821680640286832
:1027300030434860206848450CD0B0F1804F09D044
:10274000584507D00D49884204D0B84202D00E49FE
:10275000884204D1AA6828F080010A43826084F884
:102760003DA0002084F83C00BDE8F09F0220FBE77C
:10277000002C0140000400400034014000080040EB
:102780000010004000140040004001402E2E2F4455
:102790007269766572732F53544D333247347878AB
:1027A0005F48414C5F4472697665722F5372632FA4
:1027B00073746D3332673478785F68616C5F746905
:1027C0006D5F65782E6300008FFFFFFD70477047D7
:1027D00070B50446006801694FF00005C9438907D8
:1027E00015D4C168C943890711D4E91E01610120CC
:1027F0002077206880698007204602D0FFF7E7FF36
:1028000004E000F01FF9204600F042FB2577206825
:102810000169C943490717D4C168C943490713D49B
:102820006FF004010161022020772068806910F4B4
:10283000407F204602D0FFF7CAFF04E000F002F913
:10284000204600F025FB257720680169C943090768
:1028500016D4C168C943090712D46FF00801016199
:10286000042020772068C0698007204602D0FFF747
:10287000AEFF04E000F0E6F8204600F009FB257703
:1028800020680169C943C90617D4C168C943C9068C
:1028900013D46FF010010161082020772068C0690F
:1028A00010F4407F204602D0FFF791FF04E000F0D3
:1028B000C9F8204600F0ECFA257720680169C94381
:1028C000C90708D1C168C943C90704D1891E01617C
:1028D000204600F0CFFB20680169C943090609D4EE
:1028E000C168C943090605D46FF080010161204623
:1028F000FFF785FE20680169C943C90509D4C1688D
:10290000C943090605D46FF4807101612046FFF7C1
:1029100075FE20680169C943490609D4C168C943E5
:10292000490605D46FF040010161204600F0A3FB89
:1029300020680169C943890609D4C168C943890669
:1029400005D46FF0200101612046FFF759FE206891
:102950000169C943C90209D4C168C943C90205D480
:102960006FF4801101612046FFF74CFE2068016979
:10297000C943890209D4C168C943890205D46FF4E7
:10298000001101612046FFF73CFE20680169C94340
:10299000490209D4C168C943490205D46FF48001D2
:1029A00001612046FFF72FFE20680169C943090233
:1029B0000BD4C168C943090207D46FF40001016157
:1029C0002046BDE87040FFF701BF70BD10B586B06E
:1029D000044614216846FDF7B5FC2068B0F1804F2D
:1029E00021D11249C86C40F00100C864C86C0021B4
:1029F00000F001000590202000900220CDE90101A7
:102A00000120CDE9031069464FF09040FEF7B4F97C
:102A10000021204600F03EFA002804D04FF48671D1
:102A200003A003F099FB06B010BD000000100240A7
:102A30002E2E2F436F72652F5372632F74696D2E84
:102A400063000000704700002DE9F04116000D46BC
:102A5000044610D0042E0ED0082E0CD00C2E0AD016
:102A6000102E08D0142E06D03C2E04D041F26C015A
:102A700095A003F071FB2868602816D0702814D048
:102A8000A0F58031403910D0A0F5803150390CD0FC
:102A9000A0F58031603908D0A0F58031703904D0BC
:102AA00041F26D0188A003F057FBA86830B10228FD
:102AB00004D041F26E0184A003F04EFB286930B1CE
:102AC000042804D041F26F017FA003F045FB94F885
:102AD0003C00012813D0012089498A4B8A4F8B4A38
:102AE00084F83C004FF0804C0C2E7DD00ADCDFF8DF
:102AF00020E266B1042E35D0082E59D159E00220CB
:102B0000BDE8F081102E70D0142EF6D1B9E0206807
:102B1000884214D0604512D0984210D0B8420ED0EE
:102B200090420CD070450AD07A49884207D07A4941
:102B3000884204D041F2790163A003F00DFB2946DD
:102B4000206801F05FFD2068816941F00801816122
:102B50002068816921F004018161206881692A6906
:102B6000114324E0206888420ED060450CD0984282
:102B70000AD0B84208D0904206D0704504D041F245
:102B80008A0151A003F0E8FA2946206801F0C8FD47
:102B90002068816941F4006181612068816921F4C4
:102BA00080618161206881692A6941EA022181612D
:102BB00085E0206888420CD060450AD0984208D051
:102BC000B84206D0904204D041F29B013EA003F0EF
:102BD000C3FA2946206801F02BFE2068C16941F044
:102BE0000801C161206801E009E02DE0C16921F020
:102BF0000401C1612068C1692A69114322E020688B
:102C000088420CD060450AD0984208D0B84206D01D
:102C1000904204D041F2AC012BA003F09DFA29466A
:102C2000206801F08DFE2068C16941F40061C16136
:102C30002068C16921F48061C1612068C1692A6985
:102C400041EA0221C1613AE02068884206D0904200
:102C500004D041F2BD011CA003F07EFA2946206891
:102C600001F0F6FE2068016D41F008010165206861
:102C7000016D21F0040101652068016D2A6911438D
:102C80001CE02068884206D0904204D041F2CE0178
:102C90000DA003F061FA2946206801F011FF2068B9
:102CA000016D41F4006101652068016D21F48061CE
:102CB00001652068016D2A6941EA02210165002051
:102CC00084F83C001CE700002E2E2F4472697665C4
:102CD00072732F53544D3332473478785F48414CE8
:102CE0005F4472697665722F5372632F73746D330C
:102CF00032673478785F68616C5F74696D2E630049
:102D0000002C014000040040000800400034014055
:102D100000400140004401400048014010B504005B
:102D20004CD03B49206888421FD0B0F1804F1CD066
:102D30003849884219D03849884216D037498842E4
:102D400013D03749884210D0364988420DD03649D1
:102D500088420AD03549884207D03549884204D094
:102D600040F2165133A003F0F7F9A06860B11028C3
:102D70000AD0202808D0402806D0602804D040F28D
:102D800017512CA003F0E8F9206950B1B0F5807F0D
:102D900007D0B0F5007F04D04FF4A36125A003F065
:102DA000DBF9A06930B1802804D040F2195121A08C
:102DB00003F0D2F994F83D0010B107E0012010BDF6
:102DC000002084F83C00204600F050F8022084F8EF
:102DD0003D00211D206801F053FB012084F84800CC
:102DE00084F83E0084F83F0084F8400084F84100F5
:102DF00084F8420084F8430084F8440084F84500D5
:102E000084F8460084F8470084F83D00002010BD97
:102E1000002C014000040040000800400010004069
:102E200000140040003401400040014000440140D3
:102E3000004801402E2E2F447269766572732F531D
:102E4000544D3332473478785F48414C5F4472695F
:102E50007665722F5372632F73746D3332673478D3
:102E6000785F68616C5F74696D2E630008B50068F7
:102E7000B0F1804F08D10548816D41F001018165B5
:102E8000806D00F00100009008BD000000100240BD
:102E9000704700002DE9F05F05460068DFF87C818F
:102EA000DFF87CA1DFF87CB1DFF87C915F4E604FEA
:102EB0000C4640450BD1002C57D0042C58D0082C80
:102EC00059D00C2C4ED0102C58D0142C3BD0B0F133
:102ED000804F40D0504506D1E4B3042C48D0082C94
:102EE00049D00C2C3ED05349884206D194B3042CCF
:102EF0003ED0082C3FD00C2C34D0B0420AD14CB379
:102F0000042C35D0082C36D00C2C2BD0102C35D0DE
:102F1000142C18D0B84202D1E4B1042C28D0584562
:102F200000D1BCB1484500D1A4B140F29E5142A0AD
:102F300003F012F974B1042C1AD0082C1BD00C2CFD
:102F400010D0102C1AD095F84300012819D0012078
:102F5000BDE8F09F09E044B1042C09D0082C0AD048
:102F60000C2CE2D195F84100EFE795F83E00ECE734
:102F700095F83F00E9E795F84000E6E795F842004C
:102F8000E3E70220D4B3042C3CD0082C3DD00C2C19
:102F90003ED0102C3FD085F84300012221462868FE
:102FA00001F0C6FA2868404507D0B04205D0B842C3
:102FB00003D0584501D0484503D1426C42F4004249
:102FC0004264286840450BD0B0F1804F08D050458E
:102FD00006D01849884203D0B04201D0B84207D188
:102FE0008168234A1140062906D0B1F5803F03D0FD
:102FF000016841F0010101600020A9E7FFE785F8C1
:103000003E00CAE785F83F00C7E785F84000C4E7FF
:1030100085F84100C1E785F84200BEE7002C014079
:1030200000040040004401400048014000340140D9
:1030300000400140000800402E2E2F447269766542
:1030400072732F53544D3332473478785F48414C74
:103050005F4472697665722F5372632F73746D3398
:1030600032673478785F68616C5F74696D2E6300D5
:10307000070001007047704710B504460068194901
:10308000884210D0184988420DD0184988420AD089
:103090001749884207D01749884204D040F21121CD
:1030A00015A003F059F894F87C00012818D00120ED
:1030B00084F87C002420C4F8800054F8600B016878
:1030C000026822F00102026021F0005000216160DC
:1030D00054F8602C1060202020622177084610BD33
:1030E000022010BD0038014000440040004800406C
:1030F000004C0040008000402E2E2F4472697665FF
:1031000072732F53544D3332473478785F48414CB3
:103110005F4472697665722F5372632F73746D33D7
:1031200032673478785F68616C5F756172745F656F
:10313000782E63007047000070B50D4604460068A5
:103140002649884210D0264988420DD02549884218
:103150000AD02549884207D02449884204D04FF438
:103160001C7123A002F0F8FF9DB1B5F1007F10D0D3
:10317000B5F1806F0DD0B5F1C06F0AD0B5F1006F19
:1031800007D0B5F1206F04D040F2712118A002F0F1
:10319000E3FF94F87C0001281DD0012084F87C0016
:1031A0002420C4F8800020680668016821F001012D
:1031B00001602068816821F06061294381602046B8
:1031C00001F084FD206806602020C4F88000002003
:1031D00084F87C0070BD022070BD00000038014002
:1031E0000044004000480040004C00400080004087
:1031F0002E2E2F447269766572732F53544D3332DD
:10320000473478785F48414C5F4472697665722F25
:103210005372632F73746D3332673478785F6861EB
:103220006C5F756172745F65782E630070B50D46D2
:10323000044600682649884210D0264988420DD0AD
:10324000254988420AD02549884207D02449884226
:1032500004D040F23F2123A002F07EFF9DB1B5F1E2
:10326000005F10D0B5F1804F0DD0B5F1C04F0AD03E
:10327000B5F1004F07D0B5F1204F04D04FF41071D5
:1032800018A002F069FF94F87C0001281DD00120ED
:1032900084F87C002420C4F8800020680668016857
:1032A00021F0010101602068816821F0604129431B
:1032B0008160204601F00AFD206806602020C4F8E5
:1032C0008000002084F87C0070BD022070BD0000EA
:1032D000003801400044004000480040004C0040DD
:1032E000008000402E2E2F447269766572732F5332
:1032F000544D3332473478785F48414C5F447269AB
:103300007665722F5372632F73746D33326734781E
:10331000785F68616C5F756172745F65782E6300B9
:1033200070477047704700002DE9F041026804467D
:10333000D0691168936840F60F0528424FF00005E8
:1033400007D1C6067ED5CE067CD510201062E16E70
:103350009DE0614E614F1E400F40374372D0C7075A
:1033600009D0CF0507D501271762D4F8882042F08D
:103370000102C4F8882082070AD5DA0708D0276836
:1033800002223A62D4F8882042F00402C4F888206D
:1033900042070AD5DA0708D0276804223A62D4F82F
:1033A000882042F00202C4F8882002070CD501F000
:1033B0002002324308D0266808223262D4F88820DE
:1033C00042F00802C4F8882002050BD54A0109D54D
:1033D00026684FF400623262D4F8882042F020025E
:1033E000C4F88820D4F88820002A33D0800609D574
:1033F00001F0200003F08051084303D0E16E09B1D1
:1034000020468847D4F8880021688968490602D494
:1034100010F0280F20D0204601F0CAFD20688168F6
:10342000490614D5816821F040018160A06F70B118
:103430002B498163A06FFDF706FB00280AD0A06F1F
:10344000816B01E00EE02046BDE8F04108472046D0
:10345000FFF768FFBDE8F0812046FFF763FFC4F87F
:103460008850F7E7C60209D55E0207D54FF48010F1
:1034700010622046BDE8F041FFF753BF060609D5AC
:1034800001F0800603F400031E4303D0216F0029DE
:10349000D9D1DFE743060DD54B060BD51168204681
:1034A00021F0400111602021C4F88010256700F050
:1034B00057F9CFE7020206D54A0004D52046BDE8F9
:1034C000F041FFF72DBFC001C4D50029C2DA204664
:1034D000BDE8F041FFF72EBE0100001020010004FE
:1034E0009B4F000870B5040015D0A0692A49002838
:1034F0002A4A2B4B2B4D2C4E20680ED088421BD0D5
:10350000904219D0984217D0A84215D0B04213D09B
:1035100040F235110DE0012070BD88420CD0904280
:103520000AD0984208D0A84206D0B04204D04FF446
:103530009D711EA002F010FED4F8800028B9002072
:1035400084F87C00204600F04FF82420C4F8800066
:103550002068016821F001010160204601F03AFD78
:103560000128D9D0A06A10B1204601F0E1FB206803
:10357000416821F4904141602068816821F02A016E
:1035800081602068016841F0010101602046BDE8CA
:10359000704001F0D3BC00000038014000440040FE
:1035A00000480040004C0040008000402E2E2F4478
:1035B0007269766572732F53544D3332473478787D
:1035C0005F48414C5F4472697665722F5372632F76
:1035D00073746D3332673478785F68616C5F7561DE
:1035E00072742E63000000002DE9F04387B004469A
:1035F00014216846FCF7A6FE4F4A21684F4807266B
:10360000102700254FF0020C4FF001084FF09043B7
:103610004FF08009914234D1816D41F400318165D0
:10362000816D01F400310591C16C41F00101C1646B
:10363000C06CCDF8088000F0010005900C20CDE9A9
:10364000000CCDE9035669461846FDF795FB3D4E43
:103650003B4830601B207060C6E90275C6E90495DE
:103660003802B561C6E907503046FDF785FA18B152
:10367000A22135A002F070FD6667B46207B0BDE814
:10368000F083364A9142F9D1016E41F480410166DE
:10369000016E01F480410591C16C41F00101C164EA
:1036A000C06CCDF8088000F0010005904FF4C060B8
:1036B000CDE9000CCDE9035669461846FDF75CFBE1
:1036C000204E1F48C036143830601920C6E9010763
:1036D000C6E903597561B561F5614F4630463562FB
:1036E000FDF74AFA18B1C82117A002F035FD666748
:1036F000B462144E12486036283830601820C6E98B
:103700000105C6E9035720207561C6E9065000028D
:1037100030623046FDF730FA18B1D8210AA002F025
:103720001BFDA667002211462520B462FDF756FD59
:103730002520FDF721FDA1E70044004000100240D4
:1037400030000240C00300202E2E2F436F72652FE1
:103750005372632F75736172742E630000380140D9
:1037600000680349884202D102490120087070476D
:103770000038014000000020FEE70000194808B5AD
:10378000816C41F004018164816C01F004010091BD
:10379000816C41F001018164806C002200F0010025
:1037A000009011460B20FDF719FD0B20FDF7E4FCFE
:1037B000002204210C20FDF711FD0C20FDF7DCFC9C
:1037C000002202210D20FDF709FD0D20FDF7D4FC9C
:1037D000002205210E20FDF701FDBDE808400E2066
:1037E000FDF7CABC001002402DE9F04387B0142158
:1037F0006846FCF7A7FD3948C16C41F02001C1645F
:10380000C16C01F020010591C16C41F04001C1641F
:10381000C16C01F040010591C16C41F00101C1642E
:10382000C16C01F001010591C16C41F00201C1645C
:10383000C06C4FF4004700F002004FF09048059034
:10384000002239464046FDF703FCDFF89490002241
:1038500080214846FDF7FCFB78110326CDE90006E0
:103860000025694602951F48FDF786FA4FF4176058
:10387000CDE90006694602954046FDF77DFA012430
:1038800040F20110CDE90004CDE902466946484600
:10389000FDF772FA2003CDE9000469464046029420
:1038A000FDF76AFACDE9007469464046CDE9024564
:1038B000FDF762FA4020CDE90005694602944846CA
:1038C000FDF75AFA8020CDE9000469464846CDE963
:1038D0000245FDF751FA07B0BDE8F0830010024041
:1038E0000004004800180048134810B51149016051
:1038F0004FF48271416000214FF4E062C0E902128E
:103900000122C0E90412520282610822C0E90721A3
:1039100007224162C0E90A1201634163FEF782FC9B
:1039200018B1302105A002F017FCBDE8104064205A
:1039300002F04CBC00300140140100202E2E2F4319
:103940006F72652F5372632F7370692E63000000CE
:103950002DE9FE4F834644F62060834500D9834617
:1039600000200746804605464FF0FF3A814606464E
:1039700017E000F057F884B2224618A1002000F0AA
:10398000A1FAA4F57F40FF380AD014EB080847F1EC
:1039900000076D1C544500D2A2464C4500D9A146F3
:1039A000761C5E45E5D39DB12A4600234046394644
:1039B000FCF730FC75B149465246CDE90002029150
:1039C0002B465A4607A1002000F07CFABDE8FE8F86
:1039D0000020EFE700210A46EFE7000025640D0A0A
:1039E0000000000052657065617453696D706C650C
:1039F0003A207265713D256C752C2076616C696486
:103A00003D256C752C206D65616E3D256C752C20F7
:103A10006D696E3D256C752C206D61783D256C754A
:103A20000D0A00002DE9FC4102F0EAFB194F7C6809
:103A3000684600F083FC9DED010ADFED170A00984F
:103A4000B8EE400A49F269214843000C20EE200AF2
:103A5000DFED120A60F30F0511A620EE200ABCEE7E
:103A6000C00A10EE100A60F31F457868124A041B62
:103A700010481268A4FB00010023FCF7CBFB009068
:103A8000234632460DA1002000F01CFA2846BDE86E
:103A9000FC810000001000E00000803700401C4561
:103AA0004D6561735F53696E676C65506F696E74C5
:103AB0000000000040420F003000002025733A2033
:103AC000256C75206379636C65732C20256C7520DB
:103AD00075730D0A000000002DE9F35F0026834690
:103AE0003546344602F08CFB274FD7F80490DFF8B8
:103AF0009CA0D7F80480FFF795FF7868A0EB080139
:103B00008E19786845F10005DAF80010A0EB09007D
:103B1000641C8842EDD3BBF1000F01D0CBF800400C
:103B2000019880B164B32246002330462946FCF751
:103B300071FB17490023A0FB0101DAF80020FCF714
:103B400069FB01990860ECB1224600233046294602
:103B5000FCF760FB0E4A0023A0FB025601FB02614A
:103B600000FB03112846DAF80020FCF753FB02B0F3
:103B70002246BDE8F05F034606A1002000F0A2B98E
:103B80000020D6E70020F2E7001000E0300000201F
:103B900040420F004D6561735F53746174735F3110
:103BA000733A20636F756E743D256C752C206176B9
:103BB000673D256C752075730D0A000000210846CD
:103BC000FFF78ABF30B5E5B01049002000F07AF960
:103BD00000246D46FFF726FF83B205EB840125F82C
:103BE0002430000C4880224609A1002000F06AF928
:103BF0000A2002F0DDFA641CA4B2642CEAD33C2251
:103C00006421684602F04CFA65B030BD903C000873
:103C100073616D706C652025642020206469737465
:103C2000616E63653A2025640A000000FEE7704774
:103C30007047000010B5312809D0322822D033282F
:103C400024D1BDE8104041F28830FFF781BE10A1B9
:103C5000002000F037F9FFF7B5FF124CA0F57F41C7
:103C6000FF39208012D010A1002000F02BF922880B
:103C700017A1002000F026F9BDE810400AA100209D
:103C800000F020B9BDE81040FFF798BF10BD00005C
:103C90004D6561737572656D656E742053746172E4
:103CA000740D0A00040000201B5B323B33326D3D73
:103CB0003D3D3D3D3D3D3D3D3D3D3D3D3D3D3D3D34
:103CC0003D3D3D3D3D3D3D3D3D3D3D3D0D0A000001
:103CD0001B5B323B33326D41766572616765204410
:103CE000697374616E63653A2025640D0A000000F3
:103CF00010B5EFF31184202383F3118800F004F84A
:103D0000E1B281F3118810BD2DE9F0471B4D044647
:103D1000164628780F4608B901F0A2FB04EB4400D0
:103D200005EBC005B846D5E91B94002760354C4526
:103D300011D9A868071BB74200D3374668683A46CE
:103D400001194046FCF7E5FAA868F61B3C44B84464
:103D5000A04200D10024A9EB0400B04200D20646E4
:103D60003EB16868324601194046FCF7D2FA374442
:103D7000344407B12C613846BDE8F087E0040020E8
:103D80002DE9F05F824628488B46007808B901F09B
:103D900067FB4FF0FF37BAF1100F40D2DFF8889081
:103DA000584609F11809FCF7D8FA0546EFF31188CF
:103DB000202080F31188484601F086FB044699F8DC
:103DC00014001A4E10F0030004D0012807D0022876
:103DD00007D11FE0281D84421CD2002415E0042CCA
:103DE00001D23C4611E05146484601F079FB201FC4
:103DF000854200D305462A465946484601F067FCED
:103E000004463178484601F06BFB08F0FF0080F370
:103E1000118805E05146484601F062FBEBE73C465D
:103E20002046BDE8F09F0000E004002034000020A0
:103E30002DE9F04107460B4815460E46007808B9B3
:103E400001F00EFBEFF31184202080F311882A4645
:103E50003146384600F008F8E1B281F31188BDE838
:103E6000F0810000E004002070B50E46144900EB1C
:103E7000400001EBC0051446E86A183520B101285E
:103E80000FD0022805D113E0284601F01DFBA04207
:103E900001D2002411E022463146284601F044FCBC
:103EA0000BE0284601F010FBA042F4D20446F2E7F2
:103EB0003146284601F00BFC0446204670BD000048
:103EC000E00400200FB408B504A900916A460399E4
:103ED00000F004F801B05DF814FB00002DE9F74F85
:103EE00016462DED068B98B007A80C460290402090
:103EF0000390002004909FEDA4AB1E99CDE905012D
:103F000014F8011B002973D025290AD002A801F05A
:103F1000BFFB05980028F3DA18B0BDEC068BBDE8AE
:103F2000FE8F002501212078232820D02B281BD0AC
:103F30002D2802D0302808D102E045F0010501E02B
:103F400045F00205641C0029EDD14FF000082078EF
:103F5000A0F130010A290DD208EB880100EB4100E5
:103F6000A0F13008641CF2E745F00405EAE745F0EB
:103F70000805E7E70027C1B22E290CD1641C207880
:103F8000A0F130010A2906D207EB870100EB4107B7
:103F9000641C303FF3E76C280DD068280BD06628EE
:103FA0005AD00BDC252852D0582829D063280ED0AF
:103FB00064281CD110E014F8010FECE770283AD007
:103FC000732829D0752814D0782810D118E03068CB
:103FD000011D316001783BE030683B46011D3160D6
:103FE0000168CDE900850A2202A801F089FAB9E04A
:103FF000BAE030683B46011D31600A22016805E0E5
:1040000030683B46011D316001681022CDE9008512
:1040100002A801F0D7FAA5E03068011D31600568FB
:1040200015F8011B002905D002A801F031FB059805
:104030000028F5DA96E030680022011D3160016841
:104040000820CDE900020346102202A8E1E725215D
:1040500002A801F01DFB85E04FF001094FF00A0AAC
:1040600007B902273068C01D20F0070000F10801E1
:10407000316090ED008B51EC180BFCF7A8FA17900B
:10408000FCF794FA53EC182BFCF71BFAB0EE4A0A33
:10409000F0EE6A0A41EC180B53EC102BFCF7D0FA47
:1040A0000CD251EC180B81F0004141EC180B05E0EB
:1040B0000AEB8A0009F101094FEA400A179890FBC0
:1040C000FAF00028F4D182469FED319B09E053ECD1
:1040D000192B51EC180BFCF7F7F941EC180B0AF10E
:1040E000010ABA45F3D309EB070000F1010BD845EB
:1040F0000FD9E8070DD18246A8EB0B00009006E02F
:10410000202102A801F0C4FA00980AF1010A5045E2
:10411000F6D84FF0000ACDE9009A4B460A2202A8D1
:10412000179901F0EDF92E2102A801F0B1FA51EC36
:10413000180BFCF76BFACDE9007A01463B460A22E0
:1041400002A801F03FFAD8450CD9E8070AD00025AB
:10415000A8EB0B0704E0202102A801F099FA6D1CDE
:10416000AF42F8D8641CD4E600287FF7D5AE049897
:1041700020B1024607A91E98FFF75AFEDDE9041098
:1041800008440590C8E600000000000000000000A0
:1041900000000000000024401C4810B51A490160CE
:1041A0004FF4E1314160002181600C22C160C0E91F
:1041B00004128161C161016241628162FFF792F97B
:1041C00018B16D2112A001F0C7FF00210F48FFF7C1
:1041D0002DF818B171210EA001F0BEFF00210B488F
:1041E000FEF7AAFF18B1742109A001F0B5FF074836
:1041F000FEF742FF002805D0BDE81040772104A05B
:1042000001F0AABF10BD00000038014034030020B7
:104210002E2E2F436F72652F5372632F7573617249
:10422000742E630010B5014602A001F09FFA002031
:1042300010BD00003C3C2D5350492D4552524F5269
:104240002D3E3E2053504920E7AD89E5BE85E8B6B6
:1042500085E697B6216572726F72436F6465203D83
:104260002025640A000000007047FCF72BBF000007
:1042700010B5A4B038216846FCF764F814211FA8D3
:10428000FCF760F844210EA8FCF75CF80020FDF76D
:1042900033F8012000900004019002200324CDE9AE
:1042A00007045021CDE909010B900C900D90684650
:1042B000FDF7F2FC20B140F2391114A001F04CFFDF
:1042C0000F20CDE91F0400242194229404211FA86B
:1042D0002394FDF705FB20B14FF4A2710BA001F070
:1042E0003BFF48F20300CDE90E044FF000501D9053
:1042F00010940EA8FDF78CF8002804D040F24D1160
:1043000002A001F029FF24B010BD00002E2E2F4383
:104310006F72652F5372632F6D61696E2E6300009B
:104320000548016841F47001016003494FF00060E5
:10433000803908607047000088ED00E02DE9F04109
:104340004FF400544FF09045A7000646AF6270202E
:1043500000F05EF8AF610820A862A861A861A862B9
:104360001A480AE02146641E0A2906D86FF07F40E9
:104370000021C6E90001BDE8F08101684906F1D4D9
:10438000AF62BB2000F044F8002000F021F8AF61DC
:104390000A2001F01BFFAF62B02000F039F80020C6
:1043A00000F016F80446AF6100BF00BF00BFAF6267
:1043B000C02000F02DF8002000F00AF8AF6100BF27
:1043C00000BF00BF001BC6E90040D4E7100400484E
:1043D00070B5002405462646C5F3074000F018F8DE
:1043E0002D02641C40EA0626032CF5DB304670BD26
:1043F00070B5002405462646280E00F009F82D0267
:10440000641C40EA0626042CF6DB304670BD000032
:1044100070B5124A4FF48054114B146004E01168D7
:10442000491E1160491C07D099688907F7D50D49C5
:104430000D682873146006E000200BE01068401E31
:104440001060401C05D09868C007F7D00868C068A5
:1044500002E00120FFF7E6FEC0B270BD14000020AC
:1044600000300140140100200148FEF7B1B90000FE
:10447000780100200148FEF7ABB9000010020020CF
:104480002DE9F0430268234C234D244E244B4FF07A
:104490008049A04207D0484505D0A84203D0B04289
:1044A00001D0984203D122F070074A683A431D4F69
:1044B000DFF874C0DFF87480A0420DD048450BD0FF
:1044C000A84209D0B04207D0984205D0B84203D0E4
:1044D000604501D0404503D122F44075CA682A43A3
:1044E0004D6922F080022A4302608A68C2620A682B
:1044F0008262A04207D0984205D0B84203D06045FE
:1045000001D0404501D10969016301214161BDE844
:10451000F0830000002C014000040040000800402F
:104520000034014000400140004401400048014087
:1045300070B504461E4816460D46844219D0B4F1A3
:10454000804F16D01B48844213D01B48844210D0A1
:104550001A4884420DD01A4884420AD0194884422D
:1045600007D01948844204D041F6856117A001F0B4
:10457000F3FD85B1042D0ED0082D0CD00C2D0AD0E2
:10458000102D08D0142D06D03C2D04D041F68661A4
:104590000EA001F0E1FD05F01F000121226A81401B
:1045A0008A432262216A86403143216270BD000045
:1045B000002C01400004004000080040003401408D
:1045C0000040014000440140004801402E2E2F448D
:1045D0007269766572732F53544D3332473478784D
:1045E0005F48414C5F4472697665722F5372632F46
:1045F00073746D3332673478785F68616C5F7469A7
:104600006D2E63002DE9F05F0446006A0D4620F030
:1046100001002062216A6768A0692D4AAE681040D7
:104620002A6820F0030042EA000821F00200DFF8C7
:10463000A4900643DFF8A0A0DFF8A0B04C4509D055
:10464000544507D05C4505D02548844202D0254812
:1046500084420ED1E86830B1082804D041F62431F4
:1046600021A001F079FDE86826F00801084320F058
:1046700004064C4509D0544507D05C4505D0184880
:10468000844202D01748844219D1A869B0F5007F4E
:1046900005D020B141F6313113A001F05DFD68690C
:1046A000B0F5807F05D020B141F632310EA001F087
:1046B00053FD27F440716869AF6908430743676099
:1046C000C4F81880686860632662BDE8F09F000047
:1046D0008FFFFEFF002C01400034014000400140EC
:1046E00000440140004801402E2E2F447269766537
:1046F00072732F53544D3332473478785F48414CAE
:104700005F4472697665722F5372632F73746D33D1
:1047100032673478785F68616C5F74696D2E63000E
:104720002DE9F0470446006A0D4620F01000206293
:10473000216A6768A0692A4ADFF8A89010402A68B1
:1047400020F4407040EA022821F02000A968DFF838
:1047500098A040EA01164C4501D054450FD1E868B5
:1047600030B1082804D041F66F3120A001F0F4FCEC
:10477000E96826F0800040EA011020F040064C4530
:104780000AD0544508D02748844205D026488442A0
:1047900002D0264884421BD1A869B0F5007F05D01D
:1047A00020B141F67D3111A001F0D6FC6869B0F569
:1047B000807F05D020B141F67E310CA001F0CCFC09
:1047C000696927F4406040EA8100A96940EA8107ED
:1047D0006760C4F818806868A0632662BDE8F08747
:1047E000FF8FFFFE002C0140003401402E2E2F448D
:1047F0007269766572732F53544D3332473478782B
:104800005F48414C5F4472697665722F5372632F23
:1048100073746D3332673478785F68616C5F746984
:104820006D2E6300004001400044014000480140FB
:104830002DE9F0470446006A0D4620F4807020629E
:10484000216A6768E0692A4ADFF8A89010402A6860
:1048500020F0030042EA000821F40070A968DFF8A4
:1048600098A040EA01264C4501D054450FD1E86894
:1048700030B1082804D041F6BA3120A001F06CFC18
:10488000E96826F4006040EA012020F480664C4587
:104890000AD0544508D02748844205D0264884428F
:1048A00002D0264884421BD1A869B0F5007F05D00C
:1048B00020B141F6C73111A001F04EFC6869B0F596
:1048C000807F05D020B141F6C8310CA001F044FC36
:1048D000696927F4405040EA0110A96940EA0117CC
:1048E0006760C4F81C806868E0632662BDE8F087F2
:1048F0008FFFFEFF002C0140003401402E2E2F447C
:104900007269766572732F53544D33324734787819
:104910005F48414C5F4472697665722F5372632F12
:1049200073746D3332673478785F68616C5F746973
:104930006D2E6300004001400044014000480140EA
:104940002DE9F0470446006A0D4620F480502062AD
:10495000216A6768E0692A4ADFF8A89010402A684F
:1049600020F4407040EA022821F40050A968DFF8E2
:1049700098A040EA01364C4501D054450FD1E86873
:1049800030B1082804D041F6054120A001F0E4FB35
:10499000E96826F4004040EA013020F480464C45A6
:1049A0000AD0544508D02748844205D0264884427E
:1049B00002D0264884421BD1A869B0F5007F05D0FB
:1049C00020B141F6124111A001F0C6FB6869B0F5B3
:1049D000807F05D020B141F613410CA001F0BCFB53
:1049E000696927F4404040EA8110A96940EA8117CB
:1049F0006760C4F81C80686820642662BDE8F087A0
:104A0000FF8FFFFE002C0140003401402E2E2F446A
:104A10007269766572732F53544D33324734787808
:104A20005F48414C5F4472697665722F5372632F01
:104A300073746D3332673478785F68616C5F746962
:104A40006D2E6300004001400044014000480140D9
:104A500030B5026A22F480320262056A4268036D50
:104A6000114C23400C681C4325F400330D8943EAA4
:104A700005430E4DA8420BD00D4DA84208D00D4D58
:104A8000A84205D00C4DA84202D00C4DA84204D13A
:104A90004D6922F4803242EA052242600465496889
:104AA0008164036230BD00008FFFFEFF002C0140D7
:104AB00000340140004001400044014000480140F2
:104AC00030B5026A22F480120262056A4268036D00
:104AD000114C23400C6843EA042425F400130D898B
:104AE00043EA05530D4DA8420BD00D4DA84208D006
:104AF0000C4DA84205D00C4DA84202D00B4DA84247
:104B000004D14D6922F4802242EA85224260046584
:104B10004968C164036230BDFF8FFFFE002C014075
:104B20000034014000400140004401400048014081
:104B300070B500F083F81148802404604FF47A7552
:104B4000284601F043FB0D4910390C60284601F05E
:104B50003DFB0BA000F00AFEFEF7C6FE0CA000F025
:104B600005FE10480068016841F04001016000F056
:104B700025F8BDE870400CA000F0F8BD28040048FE
:104B8000746463206861732072657365740A000041
:104B90007464632073706920696E6974206F6B0A96
:104BA000000000001401002074646320726573200B
:104BB000696E6974206F6B0A0000000070B54FF0D9
:104BC0009045154E4FF40044AC625020FFF720FC96
:104BD000AC6100BF00BF00BFAC628020FFF718FCD3
:104BE0003046FFF705FCAC6100BF00BF00BFAC6200
:104BF0007020FFF70DFCAC61AC62BC20FFF708FC35
:104C00000020FFF705FC0146AC61BDE870401022B2
:104C100002A000F0ABBD000010245822636F6E6646
:104C20006967207265676973743A2030782530327D
:104C300078203078253032780A0000002DE9F041E4
:104C400086B014216846FBF77DFB1E48C16C41F01D
:104C50000201C164C16C01F002010591C16C41F017
:104C60000101C164C06C012400F001000590032023
:104C70000827CDE90240CDE900744FF0904669461F
:104C80003046FCF779F802208025CDE90240CDE9D5
:104C90000054DFF8348069464046FCF76DF8402048
:104CA00000900020CDE9010469464046FCF764F815
:104CB000E003B061B76204482830056006B0BDE883
:104CC000F081000000100240000400483FB514A12C
:104CD000D1E90021CDE9002113A1D1E90021CDE9DD
:104CE0000221416EB9B1026891689268C1F34261D4
:104CF000520F1DF80240E50002ACA25CB5FBF2F2D7
:104D0000A0F86A201DF80120615CD200B2FBF1F12D
:104D1000A0F868103FBD0121A0F86A10F8E7000074
:104D20000101010307010000080402040801010158
:104D300070B50446806AFF2804D940F624416CA06F
:104D400001F00AFA94F82800C00710D0E06A38B1E0
:104D5000B0F5003F04D040F6294165A001F0FCF910
:104D600020684168E26A21F400311143416094F8FF
:104D70002800800710D5206B38B1B0F5803F04D0F3
:104D80004FF443615AA001F0E7F920684168226BB3
:104D900021F480311143416094F82800400710D578
:104DA000606B38B1B0F5802F04D040F6374150A089
:104DB00001F0D2F920684168626B21F4802111432F
:104DC000416094F82800000710D5A06B38B1B0F509
:104DD000004F04D040F63E4145A001F0BDF92068E7
:104DE0004168A26B21F400411143416094F828000E
:104DF000C00610D5E06B38B1B0F5805F04D040F646
:104E000045413BA001F0A8F920688168E26B21F4DC
:104E100080511143816094F82800800610D5206CE1
:104E200038B1B0F5005F04D040F64C4130A001F03D
:104E300093F920688168226C21F40051114381604C
:104E400094F8280040063DD53849206888420DD0A6
:104E5000374988420AD03749884207D036498842C4
:104E600004D040F6534122A001F076F9606C4FF473
:104E7000801530B1A84204D040F654411CA001F086
:104E80006BF920684168626C21F480111143416024
:104E9000606CA84216D1A06C68B1B0F5001F0AD0B2
:104EA000B0F5800F07D0B0F5C00F04D040F65941DF
:104EB0000FA001F051F920684168A26C21F4C001F3
:104EC0001143416094F82800000610D5E06C38B119
:104ED000B0F5002F04D040F6614105A001F03CF987
:104EE00020684168E26C21F400211143416070BDEB
:104EF0002E2E2F447269766572732F53544D3332C0
:104F0000473478785F48414C5F4472697665722F08
:104F10005372632F73746D3332673478785F6861CE
:104F20006C5F756172742E630000000000380140F0
:104F30000044004000480040004C0040F8B5002507
:104F40000446C0F88850FCF7B7F8074620680068A8
:104F50006FF07E46000708D53B4600224FF4001153
:104F60002046009600F024FA60B9206800684007E7
:104F70000AD53B4600224FF480012046009600F0FF
:104F800017FA08B10320F8BD2020C4F88000C4F847
:104F9000840084F87C500020F8BD10B5806A0021A0
:104FA000A0F85E10A0F85610FEF7BCF910BD000086
:104FB00001680A6822F490720A6001688A68044BEA
:104FC0001A408A602021C0F884100021C166704711
:104FD000FEFFFFEF2DE9F04704464068D949002560
:104FE000884204D340F65231D7A001F0B5F8A0684A
:104FF0004FF48056B0F1805F07D030B1B04204D09A
:1050000040F65331D0A001F0A7F8DFF8788320688C
:105010004FF400514045E0684FF4006906D1002884
:105020001AD0884218D040F6563112E0B0420AD069
:1050300048B1B0F5405F06D0884204D040F65A31FE
:10504000C1A001F089F8206A30B1484504D040F68B
:105050005B31BDA001F080F820694FF4806648B153
:10506000B04207D0B0F5C06F04D040F65E31B6A0B4
:1050700001F072F8606930F00C0100D120B940F6FF
:105080005F31B1A001F068F8A06968B1B0F5807F28
:105090000AD0B0F5007F07D0B0F5407F04D04FF4C0
:1050A0003661A9A001F058F8E0694FF4004730B12B
:1050B000B84204D040F66131A3A001F04DF8606A17
:1050C000D0B1012818D0022816D0032814D0042803
:1050D00012D0052810D006280ED007280CD008289A
:1050E0000AD0092808D00A2806D00B2804D040F698
:1050F000623195A001F030F82169A068E2690843A7
:10510000616911430843616E0143206802689E4B48
:105110001A400A43026020684168E26821F4405165
:10512000114341602168A069414501D0226A1043C2
:105130008A68964B1A4002438A602068C16A626A94
:1051400021F00F011143C162914A216891489142B7
:105150000DD1D0F8880010F0030006D0012852D0FD
:10516000022840D003283DD14FE001203BE08A4A8D
:1051700091420BD1D0F8880010F00C0033D00428F5
:1051800031D008283DD00C282CD13EE0834A9142F2
:105190000BD1D0F8880010F0300024D0102832D085
:1051A00020282ED030281DD12FE07D4A91420BD1EE
:1051B000D0F8880010F0C00015D0402823D08028F7
:1051C0001FD0C0280ED120E041450BD1D0F8880077
:1051D00010F4406007D0B04215D0484511D0B0F56A
:1051E000406F12D010206F4A6F4E4FF000094145BA
:1051F0003BD160B102280DD004280DD0082831D150
:1052000031E00220EFE70420EDE70820EBE7FCF7B0
:10521000E9FC03E0104602E0FCF708FDB0B3616A68
:1052200036F811206668B0FBF2F106EB46038B42BC
:1052300073D8B1EB063F70D80023C8461946FAF779
:10524000E9FF090241EA106102027008101841EBFF
:10525000080132460023FAF7DDFF544AA0F54071F9
:10526000914260D959E03846D9E7E1694FF6EF78C5
:10527000B9422FD1092850D2DFE800F005090C4FC0
:105280000E4F4F4F2A00FCF7ADFC07E046E0FCF75D
:10529000BBFC03E0104602E0FCF7C8FCF0B3616A17
:1052A00036F81110B0FBF1F04100606801EB5001DD
:1052B000B1FBF0F080B2A0F1100141452DD84FF6BE
:1052C000F0710140C0F3420001432068C1602CE04E
:1052D0003846E4E7092820D2DFE800F005080B1F74
:1052E0000D1F1F1F2300FCF77DFC06E0FCF78CFC64
:1052F00003E0104602E0FCF799FC78B1616A36F8E9
:105300001110B0FBF1F1606801EB5001B1FBF0F05E
:1053100080B2A0F11001414505D900E005E001256A
:1053200003E03846EAE72168C8600120A4F86A0073
:1053300024F8680F2846C4F80490C4F80890BDE823
:10534000F0870000311A1E012E2E2F4472697665F7
:1053500072732F53544D3332473478785F48414C41
:105360005F4472697665722F5372632F73746D3365
:1053700032673478785F68616C5F756172742E6330
:105380000000000000800040F369FFCFFFF4FF1130
:105390000038014000100240004400400048004036
:1053A000004C00400024F40004630008FFFC0F00E0
:1053B0002DE9F0471F4690460E4604464FF0000A7E
:1053C0004FF02009089D37E0681C35D0FBF774FECC
:1053D000C01BA84221D805B32068016849072BD516
:1053E000C069C043000527D421684FF400600862FB
:1053F0002068016821F4D07101602068816821F083
:1054000001018160C4F88090C4F88490C4F8889049
:1054100084F87CA00320BDE8F0872068016821F4AF
:10542000D07101602068816821F001018160C4F8B9
:105430008090C4F88490EBE72068C06936EA0000E9
:1054400004D000204045BFD00020E4E70120F9E768
:105450000148FDF769BF000034030020FEE70000AB
:1054600010B5124C032000212061606110A0A061E2
:1054700004F1A800E0614FF40060A1622062616263
:105480000BA0E162206604F6A80060661020216788
:10549000C4E91A01616709A1E01DFAF765FF08A1D7
:1054A0002046FAF761FF2020A07110BDE004002023
:1054B0005465726D696E616C0000000052545400B6
:1054C00053454747455200000269C1688A4203D8E4
:1054D0008068401A104400E0501A401E70470000D7
:1054E00008B5FF228DF80020044A515C8DF80110A8
:1054F0000222694600F0EBF808BD000035000020EC
:105500002DE9FC5F0E008046DDE90C47C6F1000086
:1055100099469246834600D40846012502E090FB56
:10552000FAF06D1C5045FADAA94500D94D4624B170
:10553000002E01DB780700D5641EB80702D5B9F14B
:10554000000F0FD0F8070DD164B1A5420AD2202177
:105550004046641E00F09CF8D8F80C000028F3DAEE
:10556000BDE8FC9FD8F80C000028F9DB002E02DA19
:105570005E462D2102E0780707D52B21404600F03A
:1055800087F8D8F80C000028EADB07F003000228AF
:105590000FD1B9F1000F0CD15CB1A54209D2302175
:1055A0004046641E00F074F8D8F80C000028F3DAC6
:1055B000D6E7CDE900474B4652463146404600F01B
:1055C00001F8CDE72DE9F84F8246DDE90A4B0125C8
:1055D00099461746884608462E4602E0B0FBF7F08B
:1055E000761CB842FAD2B14500D94E465FEACB707C
:1055F00017D1B4B15FEA8B7002D5B9F1000F02D0B8
:10560000202000900BE03020FBE75046641E0099FC
:1056100000F03EF8DAF80C00002835DB0CB1A642A9
:10562000F3D3DAF80C0000282EDBB9F1010F02D910
:10563000A9F1010903E0B8FBF5F0B84201D37D43BD
:10564000F3E7DFF84890B8FBF5F000FB158819F890
:105650000010504600F01CF8DAF80C00002803DBBC
:10566000B5FBF7F5002DEED15FEACB700CD0002C26
:105670000AD0A64208D220215046641E00F008F845
:10568000DAF80C000028F2DABDE8F88F346300087D
:1056900010B50446D4E90130421C934205D3236877
:1056A0001954A260E068401CE060D4E90102824223
:1056B00009D121682069FEF7BBFBA168884203D0AD
:1056C0004FF0FF30E06010BD0020A06010BD2DE95C
:1056D000F047C4681746894605464FF00008286918
:1056E000A04201D9061B02E0A968201A0E1AA86878
:1056F000761E001BB04200D80646BE4200D33E468E
:105700006868324620444946FAF703FEA868BF1B82
:105710003444B044B144A04200D10024EC60002FD6
:10572000DDD14046BDE8F0872DE9F04104468846CA
:10573000D4E90207C51BE168606816460844B54213
:1057400006D94146FAF7E5FDB819E060BDE8F081F9
:105750002A464146FAF7DDFD761B08EB0501324685
:105760006068FAF7D6FDE660F0E700000FB4054B7D
:1057700010B503A9044A029800F004F910BC5DF8C2
:1057800014FB000035620008100000200FB47CB547
:105790000C0009AD01D0611E00E00021CDE900013F
:1057A000064B6A462946089800F0ECF8002C02D017
:1057B000009A002111707CBC5DF814FB8B6000081E
:1057C0000907090E002804DB00F1E02080F800142E
:1057D000704700F00F0000F1E02080F8141D7047C2
:1057E00002E008C8121F08C1002AFAD170477047AA
:1057F000002001E001C1121F002AFBD17047000008
:105800002DE9FF5F82B00021DDE90430020DDDF8F3
:1058100040B0034318D044F61050A2F2FF32424386
:105820001514119801281FD0A5EB0B00401C5FEA4E
:10583000000A4FF000064E4FDFF83891B046504650
:1058400015D5CAF1000413E0119801244AA30128D8
:1058500001D16FEA0B010298119AC0E90031C0E949
:10586000024206B0BDE8F09FCBF10000DFE704463E
:105870000021404A491842EB0450CDE9001012E0E3
:10588000E00707D032463B4640464946FAF71CFE41
:105890008046894632463B4610461946FAF714FEC2
:1058A00006460F466410002CEAD1DDE90401DDE96B
:1058B0000023BAF1000F06DAFAF706FE42464B461D
:1058C000FAF702FE05E0FAF777FF42464B46FAF791
:1058D00073FF04460E460022284BFAF7F5FF03D863
:1058E0004FF0FF30014607E00022254B20463146AD
:1058F000FAF743FDFAF7CFFF102409E0002C0ADB8A
:105900000A220023FAF786FC039B30321A55641EE4
:1059100050EA0102F2D1641C039AC4F11103144449
:10592000119A012A03D0012208430DD10AE008434D
:1059300004D000204FF0110B119072E7A3EB0B0580
:105940006D1E0DE05B4504DD4FF0000205F1010521
:1059500004E003DA4FF00002A5F10105002AECD0C3
:1059600002981199C0E90231C0E9004579E70000C9
:10597000000014400000F03F300000000000F04341
:105980000000E03F2DE9FF4F95B09A468846064655
:105990000025EEE1252877D100242746F94A012188
:1059A000039400E0044316F8013F203B01FA03F0A2
:1059B0001042F7D130782A2811D06FF02F033078B9
:1059C000A0F13002092A16D8039A44F0020402EB2F
:1059D000820203EB42021044761C0390EFE758F872
:1059E000042B0392002A03DA504244F4005403903B
:1059F00044F00204761C30782E2816D116F8010FD8
:105A000044F004042A280DD06FF02F023078A0F162
:105A10003003092B09D807EB870302EB4303C718B0
:105A2000761CF3E758F8047B761C30786C280FD08E
:105A300006DC4C2817D068280DD06A2814D104E061
:105A4000742810D07A280FD10DE044F400140AE035
:105A500044F4801401E044F440147278824202D18C
:105A600004F58014761C761C307866280BD013DC85
:105A7000582877D009DC002875D04528F6D046286C
:105A8000F4D047281AD193E118E0632835D0642870
:105A900079D0652812D18BE1702873D008DC672893
:105AA000F1D069286FD06E280DD06F2806D1ACE0F8
:105AB00073282CD0752874D0782853D05246179963
:105AC00090476D1C54E1C4F30250022809D003280A
:105AD0000DD0D8F8001004280DD00D6008F104088E
