:020000040800F2
:10000000C80C0020A1010008C9020008C1020008B4
:10001000C50200089D020008150900080000000044
:10002000000000000000000000000000350800088B
:10003000A102000800000000F502000839080008CD
:10004000BB010008BB010008BB010008BB010008A0
:10005000BB010008BB010008BB010008BB01000890
:10006000BB010008BB010008BB010008BB01000880
:10007000BB010008BB010008BB010008BB01000870
:10008000BB010008BB010008BB010008BB01000860
:10009000BB010008BB010008BB010008BB01000850
:1000A000BB010008BB010008BB010008BB01000840
:1000B000BB010008BB010008BB010008BB01000830
:1000C000BB010008BB010008BB010008BB01000820
:1000D000BB010008BB010008BB010008BB01000810
:1000E000BB010008BB010008BB010008BB01000800
:1000F000BB010008BB010008BB010008BB010008F0
:1001000000000000BB010008BB010008BB010008A3
:10011000BB010008BB010008BB010008BB010008CF
:10012000BB010008BB010008BB010008BB010008BF
:10013000BB0100080000000000000000BB01000837
:10014000BB010008BB010008BB010008BB0100089F
:10015000BB010008BB010008BB010008BB0100088F
:10016000BB010008BB010008BB010008BB0100087F
:10017000BB010008BB010008BB0100080000000033
:10018000BB010008BB010008DFF810D000F036F812
:10019000004800476D100008AFF30080C80C002035
:1001A0000648804706480047FEE7FEE7FEE7FEE711
:1001B000FEE7FEE7FEE7FEE7FEE7FEE74108000890
:1001C0008901000840EA01039B0703D009E008C940
:1001D000121F08C0042AFAD203E011F8013B00F80C
:1001E000013B521EF9D27047034611F8012B00F86B
:1001F000012B002AF9D1184670470000064C074D24
:1002000006E0E06840F0010394E8070098471034E6
:10021000AC42F6D3FFF7BCFF00140008201400081E
:1002200008B501F0B5F8012000231A460CA1009092
:10023000184600F061F800BF39230B4A0BA10020DB
:1002400000F014F90BA20DA1002000F00FF912A18B
:10025000002000F00BF900BF00F0B2FA08BD00006A
:100260005254545550000000E5130008257328250A
:1002700064293A00312E302E3000000052756E2075
:10028000524742204170702056657273696F6E202C
:1002900025730D0A000000000D0A000000BFFEE7F4
:1002A00000BFFEE720B94FF40041044A116004E0AA
:1002B0004FF40041014A103A11607047280C024087
:1002C00000BFFEE700BFFEE700BFFEE710B5002855
:1002D00007DA0A07140E054A00F00F031B1FD45457
:1002E00003E00A07130E024A135410BD18ED00E094
:1002F00000E400E000BFFEE72DE9F04704460E46AB
:1003000017469846DDF8209000BF2448007808B9C9
:1003100000F002FB00BF21480069A04239D9EFF389
:1003200011810846202181F3118800BF00BF0CB362
:1003300004EB44021949183141F8326004EB4402DD
:1003400001EBC2014F6004EB44021449183101EB88
:10035000C201C1F80880002204EB44030F491831A0
:1003600001EBC3010A6104EB44030C49183101EBB2
:10037000C301CA6004EB44020849183101EBC20111
:10038000C1F81490C1B281F3118800BF00BF0025ED
:1003900001E04FF0FF352846BDE8F0870C00002053
:1003A0002DE9F04104460D46164600BF0D48007881
:1003B00008B900F0B1FA00BFEFF311800746202022
:1003C00080F3118800BF00BF32462946204600F066
:1003D0000BF88046F8B280F3118800BF00BF40469A
:1003E000BDE8F0810C0000202DE9F0470746884663
:1003F0001646C24607EB47011B4800EBC109D9F876
:10040000140020B1012811D0022826D11EE0484650
:1004100000F0BAFA0546B54201D2002405E03446A0
:1004200032465146484600F004FC18E0484600F0C9
:10043000ABFA0546B54201D2284600E030460446F4
:1004400022465146484600F0F4FB08E03246514649
:10045000484600F0B5FB044601E0002400BF00BFA1
:100460002046BDE8F0870000240000200FB438B516
:10047000044606A800906A462046059900F007F851
:10048000054600200090284638BC5DF814FB2DE995
:10049000F04F99B082460D46144603A814904020B0
:1004A000159000201690CDF860A0179000BF2E7810
:1004B0006D1C06B9DDE0252E79D100274FF001092A
:1004C00000BF2E78232E12D02B2E0CD02D2E02D032
:1004D000302E10D103E047F001076D1C0EE047F00D
:1004E00002076D1C0AE047F004076D1C06E047F0A8
:1004F00008076D1C02E04FF0000900BF00BFB9F112
:10050000000FDED14FF0000800BF2E78302E01DB47
:10051000392E00DD07E06D1CA6F1300008EB8801E4
:1005200000EB4108F1E700BF002013902E782E2E3B
:1005300012D16D1C00BF2E78302E01DB392E00DD6C
:1005400009E06D1CA6F13000139901EB810100EB6D
:1005500041001390EFE700BF2E7800BF6C2E01D052
:10056000682E02D16D1C2E7800E000E0F6E700BF97
:10057000702E5DD008DC252E6AD0582E35D0632E23
:1005800009D0642E69D113E0732E3CD0752E1DD096
:10059000782E62D128E02168081D2060D1F80090F3
:1005A00009F0FF0B594614A800F0E8FA56E058E0AD
:1005B0002168081D2060D1F80090CDE900870A224B
:1005C000494614A8139B00F0EDF947E02168081D87
:1005D0002060D1F80090CDE900870A22494614A88E
:1005E000139B00F055FA39E000BF2168081D206018
:1005F000D1F80090CDE900871022494614A8139B3A
:1006000000F046FA2AE02168081D2060D1F800B009
:1006100000BF9BF800600BF1010B06B906E0314604
:1006200014A800F0ABFA17980028F2DA00BF15E022
:100630002168081D2060D1F80090002008210B4699
:100640001022CDE90010494614A800F021FA05E077
:10065000252114A800F092FA00E000BF00BF6D1C35
:1006600003E0314614A800F089FA17980028BFF675
:100670001EAF00BF179800280ADD169820B103A905
:100680005046169AFFF78CFEDDE9161008441790C5
:10069000179819B0BDE8F08F00B589B00521104852
:1006A00000F045FB0F4800900F4802904020069054
:1006B0000020049008900320079001200190002062
:1006C0000390012005906A460521054800F0A2FB31
:1006D00000220521024800F017FB09B000BD000010
:1006E000006002400C3C00400800002010B54FF4B0
:1006F000E05422460621114800F040FC2346002227
:1007000002210E4800F069FC2346022200210B481A
:1007100000F08AFC4FF4006300220121084800F039
:100720005CFC4FF4006302220021054800F07CFCD1
:100730004FF400600249886110BD000000080240CB
:100740000000024010B540F6024000F0DBFC40F62D
:10075000154000F0D7FC41F20F0000F0D3FC4FF43D
:10076000406000F0CFFC10BD00B587B0124800F02B
:100770000FFD684600F07BFD002001904FF4827071
:10078000009000200290012005904002039010206C
:100790000690002004906946074800F04FFD064887
:1007A00000F0F1FC0521054800F09EFA0021024806
:1007B00000F0DEFC07B000BD003C004000600240DD
:1007C00010B5FFF7BFFFFFF791FFFFF765FFFFF7DA
:1007D000CBFF10BD01B54FF40060134988629DF84E
:1007E0000100124948709DF80000887005211048EA
:1007F00000F06AFA202205210D4800F0EBFA0322EE
:1008000005210B4800F0B2FB0521094800F06CFA05
:10081000002001E000BF401C9C28FBDB4FF400607F
:100820000149886108BD0000000002400800002066
:100830000060024000BFFEE710B500F039FA10BDBD
:1008400008B53048006840F470002E4908602E4812
:10085000006840F001002C49086000BF2A48006889
:1008600000F002000028F9D000BF274808300068D7
:1008700040F080002449083108600020009002E028
:100880000098401C009000985028F9D31E4808306A
:10089000006840F090001C4908310860002000907A
:1008A00002E00098401C009000985028F9D300BF47
:1008B00015480830006820F003001349083108602B
:1008C00011480068114908400F490860084600684F
:1008D00020F48020086000200B490831086000BF28
:1008E00009480830006800200028F9D10848064966
:1008F000091D0860002004490C31086000F044FD27
:1009000008BD000088ED00E000380240FFFFF6FE61
:100910001030002400BFFEE710B5124C0320206108
:10092000606111A0A0611349E1614FF4006121628F
:100930000021A1626162E1620BA020660E4961663E
:100940001021A16600212167E16661670BA1E01D0E
:10095000FFF74AFC0AA12046FFF746FC2020A071C1
:1009600010BD00000C0000205465726D696E616C52
:1009700000000000B4000020B408002052545400CD
:10098000534547474552000010B501460A69CB68F8
:100990009A4204D88C68641EE41AA01801E0D41AA4
:1009A000601E10BD2DE9FC5F06460F469246984634
:1009B000DDE90C45002F01DA784200E03846834635
:1009C0004FF0010903E09BFBFAFB09F10109D34554
:1009D000F9DAC84500D9C14634B1002F03DB05F070
:1009E0000400042800D1641E05F0020010B1B8F123
:1009F000000F11D005F0010070B96CB108E0641E61
:100A00002021304600F0BAF8F068002800DA02E051
:100A10000CB1A145F3D300BFF068002836DB002FEE
:100A200005DA7F422D21304600F0A8F807E005F0F6
:100A30000400042803D12B21304600F09FF8F06811
:100A4000002823DB05F00200022814D105F0010084
:100A500088B9B8F1000F0ED16CB108E0641E3021E6
:100A6000304600F08BF8F068002800DA02E00CB1A4
:100A7000A145F3D300BFF068002807DB4346524688
:100A800039463046CDE9004500F002F8BDE8FC9F4C
:100A90002DE9FC5F8046894615461E460C9CCDF824
:100AA00004900127BB4605E00198B0FBF5F00190EA
:100AB0000BF1010B0198A842F6D25E4500D9B3466E
:100AC0000D9800F00100D0B9CCB10D9800F00200F3
:100AD000022803D116B93020009001E020200090B8
:100AE00009E0641E4046009900F048F8D8F80C0070
:100AF000002800DA02E00CB1A345F2D300BFD8F819
:100B00000C00002835DB09E0012E01D9761E04E037
:100B1000B9FBF7FAAA4500D201E06F43F4E700BF42
:100B200000BFB9FBF7FA0AFB1799134810F80A102F
:100B3000404600F023F8D8F80C00002800DA03E063
:100B4000B7FBF5F7002FECD100BF0D9800F00100C6
:100B500078B174B109E0641E2021404600F00EF81F
:100B6000D8F80C00002800DA02E00CB1A345F2D35B
:100B700000BFBDE8FC9F0000EE13000870B50446FE
:100B80000E46A568681C6168814206D320684655F8
:100B9000681CA060E068401CE060D4E90110884255
:100BA0000DD1A26821682069FFF7FAFBA16888428D
:100BB00003D04FF0FF30E06001E00020A06070BD86
:100BC0002DE9F0470446894617464FF0000AE568CC
:100BD00000BFD4F81080A84503D9A8EB0500461E35
:100BE00004E0A5EB0800401CA1680E1AA068401B99
:100BF000B04201D9304601E0A068401B0646BE4223
:100C000001D2304600E0384606466168481932464F
:100C10004946FFF7D7FAB244B144BF1B3544A06838
:100C2000A84200D10025E560002FD2D15046BDE892
:100C3000F0872DE9F047044689461546E668A06826
:100C4000871BAF4208D9616888192A464946FFF7D1
:100C5000B9FA7019E06010E0B84661688819424638
:100C60004946FFF7AFFAA5EB070809EB0701424633
:100C70006068FFF7A7FAC4F80C80BDE8F08702E0CF
:100C800008C8121F08C1002AFAD170477047002017
:100C900001E001C1121F002AFBD17047034908601F
:100CA00000BF024909680029FBD1704700000020FD
:100CB0000448006820B103480068401E01490860EC
:100CC000704700000000002010B501EB4102D30086
:100CD00000F11002D25822F0010301EB4102D400CE
:100CE00000F11002135110BD10B501EB4102D30009
:100CF00000F11002D25842F0010301EB4102D4008E
:100D000000F11002135110BD30B5134601EB410440
:100D1000E50000F11004625922F0606242EA436289
:100D200001EB4104E50000F11004625130BD10B543
:100D300001EB4102D30000F11002D25822F001036E
:100D400001EB4102D40000F110021351002301EB2A
:100D50004102D40000F11002135101EB4102D40012
:100D600000F11402135101EB4102D40000F118020A
:100D7000135101EB4102D40000F11C02135101EBAD
:100D80004102D40000F120021351212301EB410262
:100D9000D40000F12402135104290CDA01EB4102C2
:100DA0005300C1F3400203EB82033D229A40836863
:100DB0001A4382600DE00A1FD1B201EB41025300D9
:100DC000C1F3400203EB82033D229A40C3681A43F9
:100DD000C26010BD10B504290CDA01EB41035C00C0
:100DE000C1F3400304EB830302FA03F38468234353
:100DF00083600DE00B1FD9B201EB41035C00C1F32E
:100E0000400304EB830302FA03F3C4682343C36083
:100E100010BD000070B501EB4104E50000F12404B1
:100E2000645924F0040501EB4104E60000F12404B8
:100E3000A55101EB4104E60000F118041568A55125
:100E400001EB4104E60000F11C049568A55101EB9B
:100E50004104E60000F11404D569A55101EB4104F9
:100E6000E50000F1100463593F4C2340146944EA43
:100E70008404156A2C4395692C43234301EB4104F8
:100E8000E50000F110046351546874B901EB4104AA
:100E9000E50000F11004645944F4007501EB4104CD
:100EA000E60000F11004A5511FE05468012C0ED19A
:100EB00001EB4104E50000F11004645924F40075CD
:100EC00001EB4104E60000F11004A5510DE001EB37
:100ED0004104E50000F11004645944F4004501EBBD
:100EE0004104E60000F11004A551D46874B901EB87
:100EF0004104E50000F11004645944F4806501EBFD
:100F00004104E60000F11004A5510DE001EB41049D
:100F1000E50000F11004645924F4806501EB4104FC
:100F2000E60000F11004A551546974B901EB4104C5
:100F3000E50000F11004645944F4807501EB4104AC
:100F4000E60000F11004A5510DE001EB4104E500BD
:100F500000F11004645924F4807501EB4104E600AB
:100F600000F11004A55170BD3F87FCFF10B501EBE7
:100F70004103DC0000F114031A5110BDF0B5034623
:100F80001C6A5D6A00200DE00126864016403EB1D5
:100F900087000F26BE40B443860001FA06F63443AC
:100FA000461CB0B20828EFD3082011E00126864085
:100FB00016405EB1A0F10806B7000F26BE40B5434B
:100FC000A0F10806B60001FA06F63543461CB0B299
:100FD0001028EBD31C625D62F0BDF0B504460D46EF
:100FE00016462168E268002019E0012787401F406B
:100FF0009FB14FEA400C032707FA0CF7B9434700AB
:1010000005FA07F739434FEA400C032707FA0CF7B4
:10101000BA43470006FA07F73A43471CB8B210280C
:10102000E3D32160E260F0BDF0B50C461546012C1B
:1010300003D146681E43466002E046689E43466010
:10104000826800210DE001268E401E403EB14F0017
:101050000326BE40B2434E0005FA06F632434E1C4C
:10106000B1B21029EFD38260F0BD000008B5FFF7E0
:10107000D7F8002000900120FFF714F931E04FF479
:10108000FA60FFF70BFE0098FFF7A4FB00BF2B23CD
:10109000144A15A10020FFF7E9F9BDF8000042F25B
:1010A000107148434FF6FF7190FBF1F4BDF800203A
:1010B00023460FA10020FFF7D9F911A10020FFF767
:1010C000D5F900BFBDF8000041F28831084480B274
:1010D0000090BDF800004FF6FF71884201DB002050
:1010E0000090CCE7E01300082573282564293A0016
:1010F00025303564202D3E202564206D760D0A00B4
:101100000D0A0000074A02EB9011D1F8001800F018
:101110001F0301229A401143024B03EB9012C2F8C5
:101120000018704700300240074A02EB9011D1F8D6
:10113000001800F01F0301229A409143024B03EB79
:101140009012C2F80018704700300240074A02EBC4
:101150009011D1F8001800F01F0301229A401143AA
:10116000024B03EB9012C2F80018704700300240A7
:1011700021B9426842F00202426003E0426842F054
:10118000010242607047016841F040010160704710
:1011900010B504462749601A8C422CD009DC264839
:1011A0002044B0B1B0F5806F1CD0B0F5784F3DD180
:1011B00006E0B0F5E05F27D0B0F5005F36D12CE057
:1011C00040F60C10FFF7C2FF40F60C10FFF7ACFF23
:1011D0002DE040F60E00FFF7B9FF40F60E00FFF7D6
:1011E000A3FF24E040F60F00FFF7B0FF40F60F002A
:1011F000FFF79AFF1BE040F60D10FFF7A7FF40F640
:101200000D10FFF791FF12E040F61410FFF79EFF5C
:1012100040F61410FFF788FF09E040F61510FFF7BD
:1012200095FF40F61510FFF77FFF00E000BF00BFFD
:1012300010BD00000034014000C8FFBF024600207E
:10124000106800F441500B6818434B6818438B68D2
:101250001843CB6818430B6918434B6918438B69D3
:1012600018431060D36923F40063D36170470021F1
:10127000016041608160C1604161816101617047CD
:10128000002000213D4A126842F480323B4B1A6034
:1012900000BF401C394A126802F4003119B94FF6F8
:1012A000FF729042F5D1354A126802F4003232B929
:1012B00000BF324A126802F40032002AF9D02F4AE5
:1012C0004032126842F080522C4B40331A602C4A54
:1012D000126842F440422A4B1A60284A08321268C7
:1012E000264B08331A601A46126842F400421A600C
:1012F0001A46126842F4A0521A60224A1B1F1A6052
:101300001A1F126842F080721B1F1A6000BF1B4A2E
:10131000126802F00072002AF9D0194A126842F4E9
:101320008032174B1A6000BF154A526802F48032AF
:10133000002AF9D0124A126842F40032104B1A60A7
:1013400000BF0F4A526802F40032002AF9D00B4A5B
:101350000832126822F00302084B08331A601A465A
:10136000126842F002021A6000BF044A0832126892
:1013700002F00802002AF8D070470000003802404E
:10138000007000401978400A10B5FFF779FF10BDD2
:1013900010B5124800684FF47A71B0FBF1F4601E8A
:1013A000B0F1807F01D301200FE0601E4FF0E021FB
:1013B00048610F214FF0FF30FEF788FF00204FF00B
:1013C000E021886107200861002008B100BFFEE726
:1013D0000021481EFEF77AFF10BD00000400002027
:1013E0006D61696E004253505F496E69740030311F
:1013F00032333435363738394142434445460000AC
:1014000020140008000000200C0000007E0C0008E2
:101410002C1400080C000020BC0C00008E0C0008EE
:0C14200000000000001C4E0EFC0000004C
:040000050800018965
:00000001FF
