:020000040800F2
:10000000400400200501000809360008511F0008BF
:100010003D220008A9080008B742000800000000BF
:10002000000000000000000000000000413D00084A
:10003000D91B000800000000D93600082D3E00083A
:100040001F0100081F0100081F0100081F01000810
:100050001F0100081F0100081F010008F51B000810
:10006000191C00081F0100081F0100081F010008DB
:100070001F0100081F0100081F0100081F010008E0
:100080001F0100081F0100081F0100081F010008D0
:100090001F0100081F0100081F0100081F010008C0
:1000A0001F0100081F0100081F0100081F010008B0
:1000B000A93E00081F0100081F0100081F010008D9
:1000C0001F0100081F0100081F0100081F01000890
:1000D0001F010008CD4000081F0100081F01000893
:1000E0001F0100081F0100081F010008DFF810D0E1
:1000F00000F03AFB00480047E54B0008AFF30080F2
:10010000400400200648804706480047FEE7FEE717
:10011000FEE7FEE7FEE7FEE7FEE7FEE7FEE7FEE7B7
:10012000313E0008ED000008F0B480EA0102D40F6F
:100130004200B2EB410F02D20246084611464A0085
:1001400042D0C30DDDB2C1F3C752AD1A202D35DA4E
:10015000C1F3160141F4000204B15242C5F1200678
:1001600002FA06F12A411044B3EBD05F23D0C4B1A8
:10017000012DA0EBC35009DCF0BC4FF0004202EAB5
:10018000C352DBB200F5000000F007B9400000F1F7
:10019000807000EBC350A0F1807040EAD17049003C
:1001A00009E0490841EAC071A0EBC35000F5000026
:1001B000400800EBC350F0BC00F0E6B861420122F9
:1001C00002EB4101001BF6E7F0BC704781F00041F3
:1001D000AAE780F00040A7E780EA010210B502F02C
:1001E0000043400022D04A001FD0010E01EB1261F3
:1001F000C0F35600C2F3560240F4000042F400027D
:10020000A0FB022000047F39140400D0401C50EAF7
:10021000124001D44000491EC2B20C0604EBD010BB
:10022000401C4008802A02D003E0002010BD20F0CE
:100230000100002900DA0020184310BD30B480EA24
:10024000010202F0004530F0004221F0004013D0DE
:1002500090B1C30DD40DC2F31601C0F31600E41A19
:1002600041F4000140F400027D34914201D3641C4A
:1002700000E04900002C02DA30BC002070474FF447
:1002800000000023914201D3891A034340084FEA3A
:100290004101F7D151B1914202D14FF0004105E047
:1002A00002D24FF0010101E06FF0010103EBC450F5
:1002B000284430BC00F068B8C10F80EAE070084400
:1002C000CA079623002100F068B896230022114641
:1002D00000F063B800F0004230F000400AD0C10DD9
:1002E00001F56071C0F3160042EA0151C2084007EF
:1002F0001143704700200146704730B50B46014658
:1003000000202022012409E021FA02F59D4205D3B4
:1003100003FA02F5491B04FA02F52844151EA2F15E
:100320000102F1DC30BD2DE9F05F05460020924668
:100330009B4688460646814640241BE028464146A7
:100340004746224600F031FA53465A46C01A9141B8
:1003500010D311461846224600F018FA2D1A67EB02
:1003600001084F4622460120002100F00FFA17EB4A
:1003700000094E41201EA4F10104DFDC484631464D
:100380002A464346BDE8F09F0029A8BF7047401C9D
:10039000490008BF20F00100704710B4B0FA80FC9B
:1003A00000FA0CF050EA010404BF10BC704749B1D8
:1003B000CCF1200421FA04F411FA0CF118BF012148
:1003C00021430843A3EB0C01CB1D4FEA00614FEA28
:1003D000102042BF002010BC704700EBC3501044F7
:1003E0000029A4BF10BC7047401C490008BF20F082
:1003F000010010BC70472DE9FE4F804681EA0300E2
:10040000C00F0C46009021F0004123F00045B8EBEE
:100410000200A94105D24046214690461C460B46A3
:10042000024623F00040104347D0270DC7F30A00CF
:10043000C3F30A510290401A019040286BDAC3F3CB
:10044000130040F4801B0098924620B10023D2EBA9
:10045000030A63EB0B0B01985946C0F1400250466A
:1004600000F094F906460D4650465946019A00F0B0
:10047000ACF910EB08006141002487EA115284EACC
:10048000E7731A4340D0009A62B3019A012A4FEAF7
:10049000075215DC001B61EB02014FF0004202EA3B
:1004A0000752CDE90042001C41F5801132462B462F
:1004B00000F0ACF903B0BDE8F08F40462146F9E703
:1004C000001B61EB0201001C41F5801300185B4129
:1004D0002018A2F5001747EB030140EAD570B619C2
:1004E0006D4111E06D084FEA360645EAC0754FEAE6
:1004F0000752001B61EB0201001C41F58011490805
:100500004FEA30000019514132462B4603B0BDE896
:10051000F04F00F06CB90098012240000023D0EBAE
:10052000020263EBE073009821464FEAE074B8EBF7
:10053000000061EB0401E9E783F000435BE781F031
:10054000004158E72DE9FE4F81EA030404F000441E
:1005500021F0004100944FF0000B23F0004350EADB
:1005600001045ED052EA03045BD0C3F30A54C1F322
:100570000A552C44A4F2F3340194A0FB0254C1F3B5
:10058000130141F48011C3F3130343F4801301FBFF
:10059000024400FB034E840A970A44EA815447EA66
:1005A0008357A4FB076802958D0A05FB07854FEA70
:1005B000932C04FB0C542705029D4FEA065847EA8A
:1005C0001637B5EB08056EEB070C870E920E47EA5F
:1005D000811742EA8312A7FB0201B6EB0B0164EB21
:1005E00000042B0D43EA0C335E1844EB1C50DA4632
:1005F0005146E7FB0201C5F313044FEA0B3343EA0C
:1006000014534FEA0432019C43EA0603A4F10C049C
:100610000294009CCDE900B400F0F8F803B0BDE806
:10062000F08F00200146F9E72DE9F04D81EA03043F
:1006300004F0004B21F0004514464FF0000A23F06F
:10064000004150EA050220D054EA01021DD0C5F352
:100650000A570246C5F31303C1F31300C1F30A5648
:1006600040F4801543F48013A7EB0608101BD64610
:1006700008F2FD3873EB050002D308F1010801E030
:1006800092185B41B8F1000F03DA00200146BDE883
:10069000F08D00204FF48011064684460EE0171BB3
:1006A00073EB050705D3121B63EB050306434CEA06
:1006B000010C49084FEA300092185B4150EA0107EB
:1006C000EDD152EA030012D082EA040083EA050168
:1006D000084305D0101BAB4106D20122002306E0DF
:1006E00000224FF0004302E06FF0010253101AEBBA
:1006F00006004CEB085110EB0A0041EB0B01BDE882
:10070000F04D00F074B8C1F30A52C1F3130140F286
:10071000FF3341F480119A4202DA0020014670470B
:1007200040F233439A42A2F2334202DC524200F0DA
:100730003CB800F02BB8000030B5041E71F1000485
:1007400004DB4FF00044404264EB0101141E73F1DE
:10075000000405DB1C464FF00043524263EB0403E8
:10076000994208BF904230BD064C074D06E0E06854
:1007700040F0010394E8070098471034AC42F6D3E8
:10078000FFF7B8FC344C0008544C0008202A04DB66
:10079000203A00FA02F1002070479140C2F1200394
:1007A00020FA03F3194390407047202A04DB203AD3
:1007B00021FA02F00021704721FA02F3D040C2F181
:1007C00020029140084319467047202A06DBCB17C8
:1007D000203A41FA02F043EAE07306E041FA02F3FC
:1007E000D040C2F12002914008431946704710B52D
:1007F000141E73F1000408DA401C41F10001921844
:100800005B411A4301D120F0010010BD2DE9F04DEC
:1008100092469B4611B1B1FA81F202E0B0FA80F241
:1008200020329046FFF7B2FF04460F4640EA0A0026
:1008300041EA0B0153465A46084313D0114653EA86
:10084000010019D0C8F140025046FFF7AEFF05463F
:100850000E46504659464246FFF798FF084305D0DA
:10086000012004E020463946BDE8F08D0020054314
:1008700046EAE0762C4337430A986305E40AA0EB86
:1008800008000022FD0A44EA47540A3002D500203D
:100890000146E9E7010510196941DDE9084500193C
:1008A0006941BDE8F04DA2E700BFFEE7802003F0FC
:1008B00015FD022001F04EFC3A2001F04BFC6020B7
:1008C00001F048FC102001F045FC1021244801F003
:1008D000DCFA01202349087041E001202149087019
:1008E000702003F0EBFC01F095FC01F09DFC002072
:1008F0001D490870322001F02DFB002829D11BA0D2
:1009000003F0F8FCB02003F089F805461A49FFF718
:1009100063FC0446BD2003F0D1F8074617A003F09E
:10092000E9FC3846FFF7D6FC05462A460B4616A0DA
:1009300003F0E0FC16A003F0DDFC2046FFF7CAFC44
:1009400005462A460B4615A003F0D4FC15A003F07B
:10095000D1FC05480078012801D100F093F9BCE7EB
:100960000008014018000020190000206A69616F2A
:100970007A68756E3A00000000007A4420202073E7
:10098000746174653A000000252E306C660000002A
:10099000202020726567303A00000000252E326C5E
:1009A000660000000D0A000086B0802003F096FC6F
:1009B0000B2001F0CFFB3A2001F0CCFB602001F0CE
:1009C000C9FB112001F0C6FB10218A4801F05DFA35
:1009D0000120894908700CE10120874908707020C6
:1009E00003F06CFC01F016FC01F01EFC01F01CFC95
:1009F00001F01AFC01F018FC01F016FC00207F4900
:100A00000870642001F0A6FA00287DD17CA003F0D4
:100A100071FCB02003F002F87C490190FFF7DCFB89
:100A20000446B12002F0FAFF78490190FFF7D4FBA9
:100A30000546B22002F0F2FF74490190FFF7CCFBAB
:100A40000646B32002F0EAFF70490190FFF7C4FBAD
:100A50000746B42002F0E2FF6C490190FFF7BCFBAF
:100A60008046B52002F0DAFF68490190FFF7B4FB39
:100A70008146B62002F0D2FF64490190FFF7ACFB3B
:100A80008246B72002F0CAFF60490190FFF7A4FB3D
:100A90008346B82002F0C2FF5C490190FFF79CFB3F
:100AA0000390B92002F0BAFF58490190FFF794FB78
:100AB0000290BD2003F002F8049003F057F854A010
:100AC00003F018FC0498FFF705FC02460B46CDE93D
:100AD000000152A003F00EFC52A003F00BFC2046D4
:100AE000FFF7F8FB02460B46CDE9000150A003F0EA
:100AF00001FC51A003F0FEFB2846FFF7EBFB02468A
:100B00000B46CDE9000100E06DE049A003F0F2FBE7
:100B10004BA003F0EFFB3046FFF7DCFB02460B4631
:100B2000CDE9000142A003F0E5FB47A003F0E2FBA2
:100B30003846FFF7CFFB02460B46CDE900013CA04B
:100B400003F0D8FB42A003F0D5FB4046FFF7C2FB01
:100B500002460B46CDE9000135A003F0CBFB3EA0D9
:100B600003F0C8FB4846FFF7B5FB02460B46CDE94C
:100B700000012FA003F0BEFB39A003F0BBFB5046E1
:100B8000FFF7A8FB02460B46CDE9000128A003F0C1
:100B9000B1FB35A003F0AEFB5846FFF79BFB0246C6
:100BA0000B46CDE9000122A003F0A4FB30A003F026
:100BB000A1FB0398FFF78EFB02460B46CDE900012F
:100BC0001BA003F097FB2CA003F094FB0298FFF707
:100BD00081FB02460B46CDE9000115A003F08AFB1C
:100BE00027A003F087FB05480078012801D1FFF713
:100BF0005DFEF1E600080140180000201900002009
:100C00006A69616F7A68756E3A00000000007A4484
:100C100020202073746174653A000000252E306C2A
:100C200066000000202020726567303A0000000056
:100C3000252E326C660000002020726567313A0074
:100C40002020726567323A002020726567333A00CF
:100C50002020726567343A002020726567353A00BB
:100C60002020726567363A002020726567373A00A7
:100C70002020726567383A002020726567393A0093
:100C80000D0A0000802003F029FB032001F062FA26
:100C90003A2001F05FFA602001F05CFA112001F0C7
:100CA00059FA10212F4801F0F0F801202E49087060
:100CB00057E001202C490870702003F0FFFA01F082
:100CC000A9FA01F0B1FA002028490870322001F099
:100CD00041F900283FD126A003F00CFBB02002F020
:100CE0009DFE06462549FFF777FA0446B12002F03B
:100CF00095FE06462149FFF76FFA0546BD2002F032
:100D0000DDFE804602F032FF1DA003F0F3FA4046FC
:100D1000FFF7E0FA064632460B461CA003F0EAFA5B
:100D20001CA003F0E7FA2046FFF7D4FA0646324645
:100D30000B461BA003F0DEFA1BA003F0DBFA2846EB
:100D4000FFF7C8FA064632460B4615A003F0D2FA62
:100D500017A003F0CFFA05480078012801D100F070
:100D600029F8A6E70008014018000020190000201B
:100D70006A69616F7A68756E3A00000000007A4413
:100D800020202073746174653A000000252E306CB9
:100D900066000000202020726567303A00000000E5
:100DA000252E326C660000002020726567313A0003
:100DB0000D0A0000802003F091FA042001F0CAF926
:100DC0003A2001F0C7F9602001F0C4F9112001F0C8
:100DD000C1F910213A4801F058F80120394908704A
:100DE0006DE0012037490870702003F067FA01F0C8
:100DF00011FA01F019FA01F017FA002032490870CF
:100E0000322001F0A7F8002853D130A003F072FA85
:100E1000B02002F003FE07462F49FFF7DDF9044634
:100E2000B12002F0FBFD07462B49FFF7D5F9054637
:100E3000B22002F0F3FD07462749FFF7CDF9064639
:100E4000BD2002F03BFE814602F090FE23A003F09D
:100E500051FA4846FFF73EFA07463A460B4622A0AB
:100E600003F048FA22A003F045FA2046FFF732FAD1
:100E700007463A460B4621A003F03CFA21A003F0B6
:100E800039FA2846FFF726FA07463A460B461BA0D2
:100E900003F030FA1DA003F02DFA3046FFF71AFADE
:100EA00007463A460B4615A003F024FA19A003F0B2
:100EB00021FA05480078012801D100F02DF890E7CB
:100EC0000008014018000020190000206A69616FC5
:100ED0007A68756E3A00000000007A442020207382
:100EE000746174653A000000252E306C66000000C5
:100EF000202020726567303A00000000252E326CF9
:100F0000660000002020726567313A00202072657B
:100F100067323A000D0A0000802003F0DFF9052057
:100F200001F018F93A2001F015F9602001F012F9EA
:100F3000112001F00FF91021444800F0A6FF012014
:100F40004349087081E0012041490870702003F096
:100F5000B5F901F05FF901F067F901F065F90020DA
:100F60003C490870322000F0F5FF002867D13AA014
:100F700003F0C0F9B02002F051FD07463949FFF7F0
:100F80002BF90446B12002F049FD07463549FFF729
:100F900023F90546B22002F041FD07463149FFF72B
:100FA0001BF90646B32002F039FD07462D49FFF72D
:100FB00013F98146BD2002F081FD824602F0D6FD84
:100FC00029A003F097F95046FFF784F907463A46FF
:100FD0000B4628A003F08EF928A003F08BF92046D9
:100FE000FFF778F907463A460B4627A003F082F947
:100FF00027A003F07FF92846FFF76CF907463A4629
:101000000B4621A003F076F923A003F073F93046D4
:10101000FFF760F907463A460B461BA003F06AF952
:101020001FA003F067F94846FFF754F907463A4610
:101030000B4615A003F05EF91BA003F05BF9054811
:101040000078012801D100F031F87CE70008014068
:1010500018000020190000206A69616F7A68756EB7
:101060003A00000000007A44202020737461746507
:101070003A000000252E306C66000000202020720F
:101080006567303A00000000252E326C66000000D3
:101090002020726567313A002020726567323A007D
:1010A0002020726567333A000D0A0000802003F0AB
:1010B00015F9062001F04EF83A2001F04BF86020B7
:1010C00001F048F8112001F045F810214F4800F0D8
:1010D000DCFE01204E49087097E001204C49087061
:1010E000702003F0EBF801F095F801F09DF801F0A5
:1010F0009BF801F099F8002046490870322000F072
:1011000029FF00287BD144A003F0F4F8B02002F0BE
:1011100085FC07464349FFF75FF80446B12002F01B
:101120007DFC07463F49FFF757F80546B22002F01D
:1011300075FC07463B49FFF74FF80646B32002F01F
:101140006DFC07463749FFF747F88146B42002F0A7
:1011500065FC07463349FFF73FF88246BD2002F0A1
:10116000ADFC834602F002FD2FA003F0C3F8584601
:10117000FFF7B0F807463A460B462EA003F0BAF840
:101180002EA003F0B7F82046FFF7A4F807463A462A
:101190000B462DA003F0AEF82DA003F0ABF82846C7
:1011A000FFF798F807463A460B4627A003F0A2F847
:1011B00029A003F09FF83046FFF78CF807463A461F
:1011C0000B4621A003F096F825A003F093F84846BB
:1011D000FFF780F807463A460B461BA003F08AF853
:1011E00021A003F087F85046FFF774F807463A4607
:1011F0000B4615A003F07EF81DA003F07BF8054810
:101200000078012801D100F035F866E700080140B8
:1012100018000020190000206A69616F7A68756EF5
:101220003A00000000007A44202020737461746545
:101230003A000000252E306C66000000202020724D
:101240006567303A00000000252E326C6600000011
:101250002020726567313A002020726567323A00BB
:101260002020726567333A002020726567343A00A7
:101270000D0A000008B5802003F030F8072000F0C8
:1012800069FF3A2000F066FF602000F063FF112044
:1012900000F060FF10215B4800F0F7FD01205A4983
:1012A0000870ADE0012058490870702003F006F87E
:1012B00000F0B0FF00F0B8FF00F0B6FF00F0B4FFA0
:1012C000002052490870322000F044FE00287DD1F1
:1012D0004FA003F00FF8B02002F0A0FB07464F49E3
:1012E000FEF77AFF0446B12002F098FB07464B490F
:1012F000FEF772FF0546B22002F090FB0746474911
:10130000FEF76AFF0646B32002F088FB0746434912
:10131000FEF762FF8146B42002F080FB07463F499A
:10132000FEF75AFF8246B52002F078FB07463B499C
:10133000FEF752FF8346BD2002F0C0FB009002F092
:1013400015FC37A002F0D6FF0098FEF7C3FF074652
:101350003A460B4635A002F0CDFF36A002F0CAFF98
:101360002046FEF7B7FF07463A460B4634A002F088
:10137000C1FF35A002F0BEFF2846FEF7ABFF0746CF
:101380003A460B462EA002F0B5FF31A002F0B2FFA4
:101390003046FEF79FFF07463A460B4628A002F06C
:1013A000A9FF2DA002F0A6FF4846FEF793FF0746CF
:1013B0003A460B4622A002F09DFF29A002F09AFFB8
:1013C0005046FEF787FF07463A4600E012E00B461C
:1013D0001BA002F08FFF24A002F08CFF5846FEF7FE
:1013E00079FF07463A460B4615A002F083FF20A07E
:1013F00002F080FF05480078012801D100F03AF89A
:1014000050E70000000801401800002019000020EB
:101410006A69616F7A68756E3A00000000007A446C
:1014200020202073746174653A000000252E306C12
:1014300066000000202020726567303A000000003E
:10144000252E326C660000002020726567313A005C
:101450002020726567323A002020726567333A00B7
:101460002020726567343A002020726567353A00A3
:101470000D0A00001CB5802002F030FF082000F0AB
:1014800069FE3A2000F066FE602000F063FE112045
:1014900000F060FE10216A4800F0F7FC0120694965
:1014A0000870CBE0012067490870702002F006FF49
:1014B00000F0B0FE00F0B8FE00F0B6FE00F0B4FEA2
:1014C00000F0B2FE002060490870642000F042FD88
:1014D00000287DD15DA002F00DFFB02002F09EFA41
:1014E0005D490190FEF778FE0446B12002F096FABD
:1014F00059490190FEF770FE0546B22002F08EFABF
:1015000055490190FEF768FE0646B32002F086FAC0
:1015100051490190FEF760FE0746B42002F07EFAC2
:101520004D490190FEF758FE8046B52002F076FA4C
:1015300049490190FEF750FE8146B62002F06EFA4E
:1015400045490190FEF748FE8246BD2002F0B6FAFA
:10155000834602F00BFB41A002F0CCFE5846FEF79A
:10156000B9FE02460B46CDE900013FA002F0C2FEE3
:101570003FA002F0BFFE2046FEF7ACFE02460B463F
:10158000CDE900013DA002F0B5FE3EA002F0B2FEA2
:101590002846FEF79FFE02460B46CDE9000137A024
:1015A00002F0A8FE39A002F0A5FE3046FEF792FE3A
:1015B00002460B46CDE9000130A002F09BFE35A0AB
:1015C00002F098FE3846FEF785FE02460B4600E024
:1015D0002EE0CDE9000129A002F08CFE2FA002F040
:1015E00089FE4046FEF776FE02460B46CDE9000135
:1015F00022A002F07FFE2BA002F07CFE4846FEF700
:1016000069FE02460B46CDE900011CA002F072FE05
:1016100026A002F06FFE5046FEF75CFE02460B4627
:10162000CDE9000115A002F065FE22A002F062FEE5
:1016300005480078012801D100F03EF832E70000AB
:101640000008014018000020190000206A69616F3D
:101650007A68756E3A00000000007A4420202073FA
:10166000746174653A000000252E306C660000003D
:10167000202020726567303A00000000252E326C71
:10168000660000002020726567313A0020207265F4
:1016900067323A002020726567333A002020726575
:1016A00067343A002020726567353A002020726561
:1016B00067363A000D0A00000EB5802002F00EFEDB
:1016C000092000F047FD3A2000F044FD602000F0C2
:1016D00041FD112000F03EFD1021744800F0D5FBC3
:1016E000012073490870E0E0012071490870702002
:1016F00002F0E4FD00F08EFD00F096FD00F094FD98
:1017000000F092FD00F090FD00206A49087064200E
:1017100000F020FC00287DD167A002F0EBFDB02096
:1017200002F07CF967490190FEF756FD0446B120AE
:1017300002F074F963490190FEF74EFD0546B220B0
:1017400002F06CF95F490190FEF746FD0646B320B2
:1017500002F064F95B490190FEF73EFD0746B420B4
:1017600002F05CF957490190FEF736FD8046B5203E
:1017700002F054F953490190FEF72EFD8146B62040
:1017800002F04CF94F490190FEF726FD8246B72042
:1017900002F044F94B490190FEF71EFD8346BD203F
:1017A00002F08CF9029002F0E1F947A002F0A2FDEC
:1017B0000298FEF78FFD02460B46CDE9000145A0D9
:1017C00002F098FD45A002F095FD2046FEF782FD4F
:1017D00002460B46CDE9000143A002F08BFD44A078
:1017E00002F088FD2846FEF775FD02460B46CDE95E
:1017F00000013DA002F07EFD3FA002F07BFD3046DF
:10180000FEF768FD02460B46CDE9000136A002F066
:1018100071FD00E043E03AA002F06CFD3846FEF7AF
:1018200059FD02460B46CDE900012FA002F062FDF2
:1018300035A002F05FFD4046FEF74CFD02460B4628
:10184000CDE9000128A002F055FD31A002F052FDC3
:101850004846FEF73FFD02460B46CDE9000122A0B7
:1018600002F048FD2CA002F045FD5046FEF732FD87
:1018700002460B46CDE900011BA002F03BFD28A06B
:1018800002F038FD5846FEF725FD02460B46CDE92D
:10189000000115A002F02EFD23A002F02BFD05484B
:1018A0000078012801D100F041F81DE7000801404F
:1018B00018000020190000206A69616F7A68756E4F
:1018C0003A00000000007A4420202073746174659F
:1018D0003A000000252E306C6600000020202072A7
:1018E0006567303A00000000252E326C660000006B
:1018F0002020726567313A002020726567323A0015
:101900002020726567333A002020726567343A0000
:101910002020726567353A002020726567363A00EC
:101920002020726567373A000D0A00001FB580203D
:1019300002F0D4FC0A2000F00DFC3A2000F00AFC72
:10194000602000F007FC112000F004FC102180480A
:1019500000F09BFA01207F490870F7E001207D49E3
:101960000870702002F0AAFC00F054FC00F05CFC4F
:1019700000F05AFC00F058FC00F056FC00F054FC5B
:10198000002075490870642000F0E4FA00287CD13A
:1019900072A002F0AFFCB02002F040F87249019052
:1019A000FEF71AFC0446B12002F038F86E490190A7
:1019B000FEF712FC0546B22002F030F86A490190A9
:1019C000FEF70AFC0646B32002F028F866490190AB
:1019D000FEF702FC0746B42002F020F862490190AD
:1019E000FEF7FAFB8046B52002F018F85E49019038
:1019F000FEF7F2FB8146B62002F010F85A4901903A
:101A0000FEF7EAFB8246B72002F008F8564901903B
:101A1000FEF7E2FB8346B82002F000F8524901903D
:101A2000FEF7DAFB0290BD2002F048F8039002F0C6
:101A30009DF84EA002F05EFC0398FEF74BFC0246B8
:101A40000B46CDE900014CA002F054FC4CA002F082
:101A500051FC2046FEF73EFC02460B46CDE9000154
:101A60004AA002F047FC4BA002F044FC2846FEF7D7
:101A700031FC02460B46CDE9000144A002F03AFCDD
:101A800046A002F037FC304600E059E0FEF722FCA9
:101A900002460B46CDE900013CA002F02BFC41A020
:101AA00002F028FC3846FEF715FC02460B46CDE94D
:101AB000000136A002F01EFC3CA002F01BFC4046D8
:101AC000FEF708FC02460B46CDE900012FA002F00C
:101AD00011FC38A002F00EFC4846FEF7FBFB024664
:101AE0000B46CDE9000129A002F004FC33A002F06E
:101AF00001FC5046FEF7EEFB02460B46CDE9000125
:101B000022A002F0F7FB2FA002F0F4FB5846FEF7EC
:101B1000E1FB02460B46CDE900011CA002F0EAFB06
:101B20002AA002F0E7FB0298FEF7D4FB02460B4620
:101B3000CDE9000115A002F0DDFB26A002F0DAFBE2
:101B400005480078012801D1FEF72EFF06E70000C6
:101B50000008014018000020190000206A69616F28
:101B60007A68756E3A00000000007A4420202073E5
:101B7000746174653A000000252E306C6600000028
:101B8000202020726567303A00000000252E326C5C
:101B9000660000002020726567313A0020207265DF
:101BA00067323A002020726567333A002020726560
:101BB00067343A002020726567353A00202072654C
:101BC00067363A002020726567373A002020726538
:101BD00067383A000D0A0000704700000021044AEF
:101BE000116000BF024909688142FBD370470000C1
:101BF0001C00002010B5022000F022F840B10220A5
:101C000000F018F80020034908700846007810BD5D
:101C100000BFFCE71800002010B5042000F010F809
:101C200028B1042000F006F801200149087010BD19
:101C300019000020014908607047000014040140A9
:101C4000014600200022074B1B6803EA0102054BF6
:101C500014331B680B4013B10AB1012000E00020CF
:101C60007047000000040140002123498279002AC6
:101C70003AD00A46126803689A430B461A600A1D56
:101C8000126803689A430B1D1A60027911440A68AE
:101C900003681A430A60184A0832126803689A43B4
:101CA000154B08331A601A1D126803689A43124BC9
:101CB0000C331A604279102A0ED11A1F1268036879
:101CC0001A430D4B08331A601A1D126803681A4331
:101CD000094B0C331A600DE00749427911440A6838
:101CE00003681A430A6005E0027911440A68036830
:101CF0009A430A60704700000004014005490968E2
:101D000021F01001034A1160114609680143116076
:101D1000704700000020024001460020034A10687E
:101D200000F03800084310607047000000200240B7
:101D300030B500228B071C0F0F2303FA04F20B4B64
:101D40008C1053F824309343084C8D1044F8253000
:101D500023468C1053F824308C07240F00FA04F427
:101D60002343024C8D1044F8253030BD080001405B
:101D70002DE9F04102460025002600200023002422
:101D8000002791F803C00CF00F0591F803C00CF088
:101D9000100CBCF1000F03D091F802C04CEA05050D
:101DA00091F800C0BCF1000F31D0146800202BE086
:101DB0004FF0010C0CFA00F3B1F800C00CEA030676
:101DC0009E4220D183004FF00F0C0CFA03F7BC4366
:101DD00005FA03FC4CEA040491F803C0BCF1280F97
:101DE00006D14FF0010C0CFA00FCC2F814C00AE056
:101DF00091F803C0BCF1480F05D14FF0010C0CFA6B
:101E000000FCC2F810C0401C0828D1D31460B1F8FF
:101E100000C0BCF1FF0F34DD546800202EE000F15B
:101E2000080C4FF0010808FA0CF3B1F800C00CEAF6
:101E300003069E4221D183004FF00F0C0CFA03F7EA
:101E4000BC4305FA03FC4CEA040491F803C0BCF15E
:101E5000280F05D100F1080C08FA0CF8C2F814801C
:101E600091F803C0BCF1480F07D100F1080C4FF006
:101E7000010808FA0CF8C2F81080401C0828CED3DC
:101E80005460BDE8F08141617047016170472DE900
:101E9000FC5F81460D4616464FF00008C246C34619
:101EA000002001904FF480374846FEF70EFA01906B
:101EB000082416E006F00100FEF7FEF982463846D7
:101EC000FEF703FA014600905046FEF7B7F9834645
:101ED00059464046FEF728F9804676107F08601E76
:101EE000C4B2002CE6DC082416E005F00100FEF781
:101EF000E3F982463846FEF7E8F90146009050467D
:101F0000FEF79CF9834659464046FEF70DF9804698
:101F10006D107F08601EC4B2002CE6DC41460198BB
:101F2000FEF702F980464046BDE8FC9F2DE9F041EE
:101F300005460C4616460027B846290401EB042145
:101F40008819FEF7B9F9804647463846BDE8F08162
:101F500000BFFEE7014603E0491E09B901207047B2
:101F6000024800780128F7D00020F8E71800002088
:101F70000EB5012141F20D0001F0C0FB0120ADF8CA
:101F800008008DF80A0010208DF80B0002A95248B5
:101F9000FFF7EEFE01215048FFF775FF4FF4805028
:101FA000ADF8080001208DF80A0010208DF80B0014
:101FB00002A94A48FFF7DCFE4FF480514748FFF77B
:101FC00062FF4FF40060ADF8080001208DF80A00B0
:101FD00010208DF80B0002A94048FFF7C9FE4FF40E
:101FE00000613E48FFF74FFF4FF48070ADF80800E6
:101FF00001208DF80A0010208DF80B0002A9374847
:10200000FFF7B6FE4FF480713448FFF73EFF4FF400
:102010000040ADF8080003208DF80A0018208DF864
:102020000B0002A92C48FFF7A3FE4FF400412A48F9
:10203000FFF72BFF0220ADF8080003208DF80A00FF
:1020400004208DF80B0002A92348FFF791FE04201D
:10205000ADF8080003208DF80A0004208DF80B006D
:1020600002A91E48FFF784FE4FF40050ADF80800A7
:1020700003208DF80A0018208DF80B0002A91648DD
:10208000FFF776FE4FF400511348FFF7FEFE0121E3
:102090000846FFF74DFE02210020FFF749FE02200F
:1020A000009000208DF804000C208DF80500012020
:1020B0008DF806006846FFF7D7FD04200090002049
:1020C0008DF804000C208DF8050001208DF8060025
:1020D0006846FFF7C9FD0EBD000C01400008014035
:1020E00010B501210748FFF7CEFE4FF4FA70FFF755
:1020F00075FD01210348FFF7C8FEC820FFF76EFDFC
:1021000010BD0000000C014010B5FFF7E9FF5020A2
:1021100002F0D4F810BD08B507208DF800000020AB
:102120008DF8010001208DF802008DF8030068464B
:1021300001F086FA08208DF8000000208DF80100DB
:1021400001208DF802008DF80300684601F078FA4E
:1021500008BD000010B504462146054801F0D0FD39
:1021600000BF0221024801F0BFFD0028F9D010BDD8
:102170000030014000B587B0012141F2050001F0B7
:10218000BDFAE020ADF8180003208DF81A001820E1
:102190008DF81B0006A91D48FFF7EAFDE0211B484A
:1021A000FFF773FE1020ADF8180003208DF81A0019
:1021B00010208DF81B0006A91448FFF7D9FD102147
:1021C0001248FFF762FE0020ADF804004FF4827061
:1021D000ADF806000020ADF80800ADF80A000120B7
:1021E000ADF80C004002ADF80E000820ADF810006C
:1021F0000020ADF8120001A9054801F083FD01217E
:10220000034801F065FD07B000BD00000008014073
:10221000003001404FF4006002490860091D086069
:1022200070470000100801404FF4805002490860D8
:10223000091D0860704700001008014000BFFEE75C
:10224000802002F04BF80B20FFF784FF3A20FFF7C5
:1022500081FF4020FFF77EFF6020FFF77BFF10210A
:102260003148FFF712FE0120304908705BE0012081
:102270002E490870702002F021F8042002F01EF8A8
:1022800041F28830FFF766FE18B9BB2001F016FC5A
:102290000646702002F012F8FFF7BCFFFFF7C4FFFC
:1022A00000202349087041F28830FFF753FE0028D0
:1022B00033D120A002F01EF8B02001F0FFFB8046D1
:1022C000BD2001F0FBFB074601F050FC1DA002F011
:1022D00011F83846FDF7FEFF044622460B461CA0C7
:1022E00002F008F81CA002F005F83046FDF7F2FFF6
:1022F000044622460B4616A001F0FCFF18A001F090
:10230000F9FF4046FDF7E6FF044622460B4610A0C3
:1023100001F0F0FF15A001F0EDFF0548007801285D
:1023200001D100F087F9A2E7000801401800002061
:10233000190000206665696A69616F7A68756E3A8E
:102340000000000020202073746174653A000000D2
:10235000252E306C6600000020202043414C3A00BE
:10236000202020726567303A000000000D0A00004E
:1023700086B0802001F0B2FF0B20FFF7EBFE3A2081
:10238000FFF7E8FE4020FFF7E5FE6020FFF7E2FEE2
:1023900010218448FFF779FD012083490870FFE090
:1023A000012081490870702001F088FF042001F0AD
:1023B00085FF41F28830FFF7CDFD18B9BB2001F051
:1023C0007DFB0646702001F079FFFFF723FFFFF742
:1023D0002BFFFFF729FFFFF727FFFFF725FFFFF789
:1023E00023FFFFF721FFFFF71FFFFFF71DFFFFF799
:1023F0001BFFFFF719FF00206C49087041F288307D
:10240000FFF7A8FD00287DD169A001F073FFB0207F
:1024100001F054FB8046B12001F050FB8146B22010
:1024200001F04CFB8246B32001F048FB8346B42008
:1024300001F044FB0590B52001F040FB0490B6206C
:1024400001F03CFB0390B72001F038FB0290B8206C
:1024500001F034FB0190B92001F030FB0090BD2069
:1024600001F02CFB074601F081FB55A001F042FF73
:102470003846FDF72FFF044622460B4653A001F0D5
:1024800039FF54A001F036FF3046FDF723FF044624
:1024900022460B464DA001F02DFF50A001F02AFF6F
:1024A0004046FDF717FF044622460B4647A001F0C1
:1024B00021FF4DA001F01EFF4846FDF70BFF04462B
:1024C00022460B4641A001F015FF49A001F012FF82
:1024D0005046FDF7FFFE044622460B463BA001F0A6
:1024E00009FF45A001F006FF5846FDF7F3FE04463C
:1024F00022460B4635A001F0FDFE41A001F0FAFE98
:10250000059800E046E0FDF7E5FE044622460B464E
:102510002EA001F0EFFE3CA001F0ECFE0498FDF7C8
:10252000D9FE044622460B4628A001F0E3FE38A05F
:1025300001F0E0FE0398FDF7CDFE044622460B466F
:1025400022A001F0D7FE34A001F0D4FE0298FDF7DE
:10255000C1FE044622460B461CA001F0CBFE30A073
:1025600001F0C8FE0198FDF7B5FE044622460B4671
:1025700016A001F0BFFE2CA001F0BCFE0098FDF7F4
:10258000A9FE044622460B4610A001F0B3FE28A087
:1025900001F0B0FE05480078012801D1FFF750FE98
:1025A000FEE600000008014018000020190000208D
:1025B0006665696A69616F7A68756E3A0000000045
:1025C00020202073746174653A000000252E306C61
:1025D0006600000020202043414C3A002020207259
:1025E0006567303A000000002020726567313A00CC
:1025F0002020726567323A002020726567333A0006
:102600002020726567343A002020726567353A00F1
:102610002020726567363A002020726567373A00DD
:102620002020726567383A002020726567393A00C9
:102630000D0A0000802001F051FE0B20FFF78AFDFB
:102640003A20FFF787FD4020FFF784FD6020FFF769
:1026500081FD10213A48FFF718FC01203949087024
:102660006DE0012037490870702001F027FE04203A
:1026700001F024FE41F28830FFF76CFC18B9BB2052
:1026800001F01CFA0646702001F018FEFFF7C2FDAB
:10269000FFF7CAFDFFF7C8FD00202B4908704FF473
:1026A000FA70FFF757FC002843D128A001F022FE62
:1026B000B02001F003FA8046BD2001F0FFF9074683
:1026C000B12001F0FBF9814601F050FA23A001F09E
:1026D00011FE3846FDF7FEFD044622460B4622A0B9
:1026E00001F008FE22A001F005FE3046FDF7F2FDE4
:1026F000044622460B461CA001F0FCFD1EA001F082
:10270000F9FD4046FDF7E6FD044622460B4616A0BD
:1027100001F0F0FD1BA001F0EDFD4846FDF7DAFDEC
:10272000044622460B4610A001F0E4FD17A001F07C
:10273000E1FD05480078012801D100F029F890E773
:102740000008014018000020190000206665696A31
:1027500069616F7A68756E3A00000000202020736E
:10276000746174653A000000252E306C660000002C
:1027700020202043414C3A00202020726567303AE7
:10278000000000002020726567313A000D0A000049
:10279000802001F0A3FD0B20FFF7DCFC3A20FFF7BF
:1027A000D9FC4020FFF7D6FC6020FFF7D3FC1021B6
:1027B0004348FFF76AFB0120424908707FE001208F
:1027C00040490870702001F079FD042001F076FD89
:1027D00041F28830FFF7BEFB18B9BB2001F06EF95B
:1027E0000646702001F06AFDFFF714FDFFF71CFD9F
:1027F000FFF71AFDFFF718FD0020334908704FF46A
:10280000FA70FFF7A7FB002853D130A001F072FD4A
:10281000B02001F053F98046B12001F04FF9814614
:10282000B22001F04BF98246BD2001F047F907467E
:1028300001F09CF929A001F05DFD3846FDF74AFD45
:10284000044622460B4628A001F054FD28A001F0C2
:1028500051FD3046FDF73EFD044622460B4622A0C0
:1028600001F048FD24A001F045FD4046FDF732FD92
:10287000044622460B461CA001F03CFD21A001F0BD
:1028800039FD4846FDF726FD044622460B4616A0B4
:1028900001F030FD1DA001F02DFD5046FDF71AFDA1
:1028A000044622460B4610A001F024FD19A001F0B9
:1028B00021FD05480078012801D100F02DF87EE7C0
:1028C0000008014018000020190000206665696AB0
:1028D00069616F7A68756E3A0000000020202073ED
:1028E000746174653A000000252E306C66000000AB
:1028F00020202043414C3A00202020726567303A66
:10290000000000002020726567313A0020207265C7
:1029100067323A000D0A0000802001F0DFFC0B2036
:10292000FFF718FC3A20FFF715FC4020FFF712FCD8
:102930006020FFF70FFC10214C48FFF7A6FA01209A
:102940004B49087091E0012049490870702001F05E
:10295000B5FC042001F0B2FC41F28830FFF7FAFA2E
:1029600018B9BB2001F0AAF80646702001F0A6FCB9
:10297000FFF750FCFFF758FCFFF756FCFFF754FC3D
:10298000FFF752FC00203B4908704FF4FA70FFF744
:10299000E1FA002863D138A001F0ACFCB02001F0CE
:1029A0008DF88046B12001F089F88146B22001F00F
:1029B00085F88246B32001F081F88346BD2001F0FE
:1029C0007DF8074601F0D2F82FA001F093FC3846BD
:1029D000FDF780FC044622460B462EA001F08AFC3F
:1029E0002EA001F087FC3046FDF774FC0446224619
:1029F0000B4628A001F07EFC2AA001F07BFC40469B
:102A0000FDF768FC044622460B4622A001F072FC4A
:102A100027A001F06FFC4846FDF75CFC0446224607
:102A20000B461CA001F066FC23A001F063FC50469D
:102A3000FDF750FC044622460B4616A001F05AFC56
:102A40001FA001F057FC5846FDF744FC04462246FF
:102A50000B4610A001F04EFC1BA001F04BFC0548FA
:102A60000078012801D100F031F86CE7000801403E
:102A700018000020190000206665696A69616F7A94
:102A800068756E3A00000000202020737461746540
:102A90003A000000252E306C660000002020204304
:102AA000414C3A00202020726567303A0000000057
:102AB0002020726567313A002020726567323A0043
:102AC0002020726567333A000D0A000008B58020A7
:102AD00001F004FC0B20FFF73DFB3A20FFF73AFB27
:102AE0004020FFF737FB6020FFF734FB10215648EA
:102AF000FFF7CBF9012055490870A3E001205349A5
:102B00000870702001F0DAFB042001F0D7FB41F2DD
:102B10008830FFF71FFA18B9BB2000F0CFFF064638
:102B2000702001F0CBFBFFF775FBFFF77DFBFFF794
:102B30007BFBFFF779FBFFF777FBFFF775FB0020C7
:102B4000434908704FF4FA70FFF704FA002873D174
:102B500040A001F0CFFBB02000F0B0FF8046B120D4
:102B600000F0ACFF8146B22000F0A8FF8246B320FF
:102B700000F0A4FF8346B42000F0A0FF0090BD2029
:102B800000F09CFF074600F0F1FF36A001F0B2FB19
:102B90003846FDF79FFB044622460B4634A001F061
:102BA000A9FB35A001F0A6FB3046FDF793FB0446D8
:102BB00022460B462EA001F09DFB31A001F09AFBAE
:102BC0004046FDF787FB044622460B4628A001F04D
:102BD00091FB2EA001F08EFB4846FDF77BFB0446DF
:102BE00022460B4622A001F085FB2AA001F082FBC1
:102BF0005046FDF76FFB044622460B461CA001F031
:102C000079FB26A001F076FB5846FDF763FB0446EE
:102C100022460B4616A001F06DFB22A001F06AFBD4
:102C20000098FDF757FB044622460B4610A001F022
:102C300061FB1EA001F05EFB05480078012801D170
:102C400000F036F85AE700000008014018000020A4
:102C5000190000206665696A69616F7A68756E3A65
:102C60000000000020202073746174653A000000A9
:102C7000252E306C6600000020202043414C3A0095
:102C8000202020726567303A000000002020726525
:102C900067313A002020726567323A002020726561
:102CA00067333A002020726567343A000D0A00004D
:102CB0001CB5802001F012FB0B20FFF74BFA3A20E5
:102CC000FFF748FA4020FFF745FA6020FFF742FA85
:102CD00010216048FFF7D9F801205F490870B7E07C
:102CE00001205D490870702001F0E8FA042001F02D
:102CF000E5FA41F28830FFF72DF918B9BB2000F052
:102D0000DDFE0646702001F0D9FAFFF783FAFFF7DF
:102D10008BFAFFF789FAFFF787FAFFF785FAFFF7D3
:102D200083FAFFF781FA00204C4908704FF4FA70DB
:102D3000FFF710F900287DD149A001F0DBFAB0209F
:102D400000F0BCFE8046B12000F0B8FE8146B22003
:102D500000F0B4FE8246B32000F0B0FE8346B420FB
:102D600000F0ACFE0190B52000F0A8FE0090BD2060
:102D700000F0A4FE074600F0F9FE3DA001F0BAFA0B
:102D80003846FDF7A7FA044622460B463BA001F061
:102D9000B1FA3CA001F0AEFA3046FDF79BFA0446CA
:102DA00022460B4635A001F0A5FA38A001F0A2FAA0
:102DB0004046FDF78FFA044622460B462FA001F04D
:102DC00099FA35A001F096FA4846FDF783FA0446D1
:102DD00022460B4629A001F08DFA31A001F08AFAB3
:102DE0005046FDF777FA044622460B4623A001F031
:102DF00081FA2DA001F07EFA5846FDF76BFA0446E1
:102E000022460B461DA001F075FA29A001F072FAC6
:102E10000198FDF75FFA044622460B4617A001F021
:102E200069FA25A001F066FA0098FDF753FA044606
:102E3000224600E006E00B4610A001F05BFA20A05D
:102E400001F058FA05480078012801D100F03AF85D
:102E500046E700000008014018000020190000208B
:102E60006665696A69616F7A68756E3A000000008C
:102E700020202073746174653A000000252E306CA8
:102E80006600000020202043414C3A0020202072A0
:102E90006567303A000000002020726567313A0013
:102EA0002020726567323A002020726567333A004D
:102EB0002020726567343A002020726567353A0039
:102EC0000D0A00000EB5802001F008FA0B20FFF774
:102ED00041F93A20FFF73EF94020FFF73BF9602027
:102EE000FFF738F910216948FEF7CFFF0120684944
:102EF0000870C9E0012066490870702001F0DEF911
:102F0000042001F0DBF941F28830FFF723F818B90B
:102F1000BB2000F0D3FD0646702001F0CFF9FFF78B
:102F200079F9FFF781F9FFF77FF9FFF77DF9FFF7EF
:102F30007BF9FFF779F9FFF777F9FFF775F90020CB
:102F4000544908704FF4FA70FFF704F800287DD157
:102F500051A001F0CFF9B02000F0B0FD8046B120C3
:102F600000F0ACFD8146B22000F0A8FD8246B320FF
:102F700000F0A4FD8346B42000F0A0FD0290B5202F
:102F800000F09CFD0190B62000F098FD0090BD205F
:102F900000F094FD074600F0E9FD43A001F0AAF916
:102FA0003846FDF797F9044622460B4641A001F04A
:102FB000A1F942A001F09EF93046FDF78BF90446D5
:102FC00022460B463BA001F095F93EA001F092F994
:102FD0004046FDF77FF9044622460B4635A001F036
:102FE00089F93BA001F086F94846FDF773F90446DC
:102FF00022460B462FA001F07DF937A001F07AF9A7
:103000005046FDF767F9044622460B4629A001F019
:1030100071F933A001F06EF95846FDF75BF90446EB
:1030200022460B4623A001F065F92FA001F062F9BA
:103030000298FDF74FF9044622460B461DA001F009
:1030400059F92BA001F056F9019800E016E0FDF7C0
:1030500041F9044622460B4616A001F04BF926A082
:1030600001F048F90098FDF735F9044622460B4671
:1030700010A001F03FF922A001F03CF905480078CA
:10308000012801D100F03EF834E7000000080140BB
:1030900018000020190000206665696A69616F7A6E
:1030A00068756E3A0000000020202073746174651A
:1030B0003A000000252E306C6600000020202043DE
:1030C000414C3A00202020726567303A0000000031
:1030D0002020726567313A002020726567323A001D
:1030E0002020726567333A002020726567343A0009
:1030F0002020726567353A002020726567363A00F5
:103100000D0A00001FB5802001F0E8F80B20FFF742
:1031100021F83A20FFF71EF84020FFF71BF8602047
:10312000FFF718F810217248FEF7AFFE0120714931
:103130000870DBE001206F490870702001F0BEF8D4
:10314000042001F0BBF841F28830FEF703FF18B904
:10315000BB2000F0B3FC0646702001F0AFF8FFF78B
:1031600059F8FFF761F8FFF75FF8FFF75DF8FFF731
:103170005BF8FFF759F8FFF757F8FFF755F8FFF737
:1031800053F800205C4908704FF4FA70FEF7E2FE35
:1031900000287DD159A001F0ADF8B02000F08EFCE0
:1031A0008046B12000F08AFC8146B22000F086FC07
:1031B0008246B32000F082FC8346B42000F07EFCFF
:1031C0000390B52000F07AFC0290B62000F076FC67
:1031D0000190B72000F072FC0090BD2000F06EFC62
:1031E000074600F0C3FC49A001F084F83846FDF71B
:1031F00071F8044622460B4647A001F07BF848A030
:1032000001F078F83046FDF765F8044622460B4693
:1032100041A001F06FF844A001F06CF84046FDF7C2
:1032200059F8044622460B463BA001F063F841A042
:1032300001F060F84846FDF74DF8044622460B467B
:1032400035A001F057F83DA001F054F85046FDF7C5
:1032500041F8044622460B462FA001F04BF839A056
:1032600001F048F85846FDF735F8044622460B466B
:1032700029A001F03FF835A001F03CF80398FDF7D4
:1032800029F8044622460B4623A001F033F800E05B
:1032900026E030A001F02EF80298FDF71BF8044656
:1032A00022460B461CA001F025F82CA001F022F8C4
:1032B0000198FDF70FF8044622460B4616A001F0D0
:1032C00019F828A001F016F80098FDF703F8044655
:1032D00022460B4610A001F00DF824A001F00AF8D8
:1032E00005480078012801D100F042F822E70000EB
:1032F0000008014018000020190000206665696A76
:1033000069616F7A68756E3A0000000020202073B2
:10331000746174653A000000252E306C6600000070
:1033200020202043414C3A00202020726567303A2B
:10333000000000002020726567313A00202072658D
:1033400067323A002020726567333A0020207265A8
:1033500067343A002020726567353A002020726594
:1033600067363A002020726567373A000D0A000080
:1033700086B0802000F0B2FF0B20FEF7EBFE3A2073
:10338000FEF7E8FE4020FEF7E5FE6020FEF7E2FED5
:1033900010217B48FEF779FD01207A490870EDE0A5
:1033A000012078490870702000F088FF042000F0A8
:1033B00085FF41F28830FEF7CDFD18B9BB2000F043
:1033C0007DFB0646702000F079FFFEF723FFFEF735
:1033D0002BFFFEF729FFFEF727FFFEF725FFFEF77D
:1033E00023FFFEF721FFFEF71FFFFEF71DFFFEF78D
:1033F0001BFF0020644908704FF4FA70FEF7AAFD25
:1034000000287DD161A000F075FFB02000F056FBD0
:103410008046B12000F052FB8146B22000F04EFB06
:103420008246B32000F04AFB8346B42000F046FBFE
:103430000590B52000F042FB0490B62000F03EFB62
:103440000390B72000F03AFB0290B82000F036FB62
:103450000190BD2000F032FB074600F087FB4FA033
:1034600000F048FF3846FCF735FF044622460B467D
:103470004DA000F03FFF4EA000F03CFF3046FCF7AF
:1034800029FF044622460B4647A000F033FF4AA01E
:1034900000F030FF4046FCF71DFF044622460B4675
:1034A00041A000F027FF47A000F024FF4846FCF7AA
:1034B00011FF044622460B463BA000F01BFF43A031
:1034C00000F018FF5046FCF705FF044622460B4665
:1034D00035A000F00FFF3FA000F00CFF5846FCF7AE
:1034E000F9FE044622460B462FA000F003FF3BA046
:1034F00000F000FF0598FCF7EDFE0446224600E0D0
:1035000036E00B4628A000F0F5FE36A000F0F2FEF3
:103510000498FCF7DFFE044622460B4622A000F08A
:10352000E9FE32A000F0E6FE0398FCF7D3FE044665
:1035300022460B461CA000F0DDFE2EA000F0DAFEB5
:103540000298FCF7C7FE044622460B4616A000F080
:10355000D1FE2AA000F0CEFE0198FCF7BBFE044687
:1035600022460B4610A000F0C5FE26A000F0C2FEC9
:1035700005480078012801D1FEF7FAFE10E70000A7
:103580000008014018000020190000206665696AE3
:1035900069616F7A68756E3A000000002020207320
:1035A000746174653A000000252E306C66000000DE
:1035B00020202043414C3A00202020726567303A99
:1035C000000000002020726567313A0020207265FB
:1035D00067323A002020726567333A002020726516
:1035E00067343A002020726567353A002020726502
:1035F00067363A002020726567373A0020207265EE
:1036000067383A000D0A0000704708B500214FF0F6
:10361000006000F057F84FF4C06000F049F81C203B
:103620008DF8000003208DF801008DF802000120C4
:103630008DF80300684600F003F8FEF76CFD08BD46
:1036400070B5002100230F22C47804B3154C246800
:1036500004F4E064C4F5E064210AC1F10403CA4043
:10366000447804FA03F184781440214309010E4C94
:103670000678A155047804F01F050124AC400578B4
:103680006D11AD0005F1E025C5F8004109E00478B1
:1036900004F01F050124AC40044D0678761145F86E
:1036A000264070BD0CED00E000E400E080E100E0A9
:1036B00002490143024A1160704700000000FA0508
:1036C0000CED00E0024A0A400243024B1A607047C8
:1036D00080FFFF1F08ED00E07047000029B1064A97
:1036E000D2690243044BDA6104E0034AD26982439F
:1036F000014BDA61704700000010024029B1064A10
:1037000092690243044B9A6104E0034A926982433E
:10371000014B9A6170470000001002400149C864E3
:10372000704700000000424210B500F03BF84FF433
:10373000803000F0F9F800F055F90446012C2FD143
:103740001020FEF7DBFA0220FEF7E6FA002000F078
:10375000DFF8002000F01AF9A00200F00BF94FF496
:10376000E011200400F024F9012000F01BF900BF53
:10377000392000F0A7F80028FAD0022000F026F93E
:1037800000BF00F0BDF80828FBD10120FFF7C6FFFD
:1037900001210846FFF7A2FF01213D20FFF7AEFF00
:1037A00010BD00000F48006840F001000D4908609E
:1037B000084640680C4908400A49486008460068C5
:1037C0000A490840074908600846006820F480203C
:1037D00008600846406820F4FE0048604FF41F006F
:1037E00088607047001002400000FFF8FFFFF6FEFF
:1037F00030B500210022002400232D4D6D6805F016
:103800000C0121B1042905D0082923D105E0294D57
:10381000056022E0274D05601FE0254D6D6805F429
:103820007012234D6D6805F48034022505EB924239
:103830001CB9214D554305600BE01D4D6D6805F425
:1038400000351DB11C4D5543056002E0194D55432F
:10385000056002E0174D056000BF00BF144D6D68A4
:1038600005F0F0010909154D6B5C0568DD40456008
:103870000F4D6D6805F4E061090A104D6B5C4568F9
:10388000DD4085600A4D6D6805F46051C90A0B4D35
:103890006B5C4568DD40C560054D6D6805F44041D1
:1038A000890B074D6B5CC568B5FBF3F5056130BD51
:1038B0000010024000127A0000093D002C00002098
:1038C0003C00002010B501460022002300204A11D0
:1038D000012A02D1094C236806E0022A02D1074CD2
:1038E000236A01E0054C636A01F01F020124944041
:1038F0001C400CB1012000E0002010BD001002406F
:103900000248406800F00C007047000000100240C0
:1039100001460020034A506820F0F0000843506040
:1039200070470000001002401149096821F48031FD
:103930000F4A11601146096821F480211160B0F529
:10394000803F03D0B0F5802F0ED106E0084909680A
:1039500041F48031064A116007E00549096841F4E5
:10396000A021034A116000E000BF00BF70470000C3
:103970000010024001460020034A506820F4E06035
:1039800008435060704700000010024001460020CC
:10399000034A506820F4605040EAC100506070470C
:1039A00000100240014908667047000000004242D2
:1039B00002460020044B586820F47C1042EA0103C0
:1039C0001843014B58607047001002400146002028
:1039D000034A506820F0030008435060704700001D
:1039E0000010024038B5002000900024002500BFE0
:1039F0003120FFF767FF05460098401C00900098B3
:103A0000B0F5A06F01D0002DF2D03120FFF75AFFA2
:103A100008B1012400E00024204638BD10B504465A
:103A2000204600F05BFC1F4880891F490870002079
:103A3000FEF790FB00BF1B48008900F00100002842
:103A4000F9D018488089184908700020FEF782FBD9
:103A500000BF1448008900F001000028F9D0114887
:103A60008089124908700020FEF774FB00BF0D48E2
:103A7000008900F001000028F9D00A4880890C492B
:103A8000087010210B48FEF700FA09480278074831
:103A9000017805480078FEF7FAF9074908600846FA
:103AA000006810BD00300140040000200500002027
:103AB00006000020000801401400002010B5044654
:103AC000204600F00BFC2348808923490870002021
:103AD000FEF740FB00BF1F48008900F001000028EE
:103AE000F9D01C4880891C4908700020FEF732FB81
:103AF00000BF1848008900F001000028F9D01548DF
:103B00008089164908700020FEF724FB00BF114889
:103B1000008900F001000028F9D00E488089104982
:103B2000087010210F48FEF7B0F90D4802780B48D5
:103B3000017809480078FEF7F9F90B490860002080
:103B4000054908700549087005490870064800686D
:103B500010BD0000003001400400002005000020DE
:103B600006000020000801401400002070B5BD20B0
:103B700000F0B4FB4B4800F0C0F84B49087000203F
:103B8000FEF7E8FA00BF4748008900F0010000286E
:103B9000F9D044488089444908700020FEF7DAFAD9
:103BA00000BF4048008900F001000028F9D03D48DE
:103BB00080893E4908700020FEF7CCFA00BF3948E2
:103BC000008900F001000028F9D036488089384982
:103BD00008700846007800F00F0008701021354882
:103BE000FEF753F93248027800210846FEF79EF9A5
:103BF0003149086031A000F07DFB2F480068FCF7D8
:103C000069FB05462A460B462EA000F073FB2FA049
:103C100000F070FB26480078032802D1B12004464A
:103C200070BD23480078022802D1B0200446F7E78F
:103C30001F480078042802D1B2200446F0E71C484F
:103C40000078052802D1B3200446E9E71848007837
:103C5000062802D1B4200446E2E715480078072878
:103C600002D1B5200446DBE711480078082802D1CC
:103C7000B6200446D4E70E480078092802D1B720C0
:103C80000446CDE70A4800780A2802D1B820044645
:103C9000C6E7074800780B2802D1B9200446BFE7E1
:103CA00000BFBDE7003001400400002005000020F7
:103CB00006000020000801401400002020506C7510
:103CC00073653A00252E306C66000000200000006D
:103CD00021B1028842F04002028004E002884FF6DF
:103CE000BF731A40028070470246002013890B40C0
:103CF0000BB1012000E00020704701468889704721
:103D00008181704710B50022028802F441520B886D
:103D10004C8823438C882343CC8823430C8923433A
:103D20004C8923438C892343CC8923431A43028043
:103D3000838B4FF2FF74234083830B8A038210BD71
:103D4000704710B500F002F810BD00000CB500205F
:103D5000019000903348006840F480303149086099
:103D600000BF3048006800F4003000900198401C0B
:103D70000190009818B90198B0F5A06FF1D12948C9
:103D8000006800F4003010B10120009001E0002034
:103D900000900098012843D12348006840F01000AB
:103DA000214908600846006820F0030008600846C2
:103DB000006840F0020008601A48406819494860ED
:103DC0000846406848600846406840F480604860A3
:103DD0000846406820F47C1048600846406840F47B
:103DE000E81048600846006840F08070086000BF36
:103DF0000C48006800F000700028F9D009484068BD
:103E000020F00300074948600846406840F002007F
:103E1000486000BF0348406800F00C000828F9D152
:103E20000CBD00000010024000200240704700005E
:103E300010B51348006840F00100114908600846B9
:103E40004068104908400E494860084600680E491D
:103E500008400B4908600846006820F4802008608C
:103E60000846406820F4FE0048604FF41F00886058
:103E7000FFF767FF4FF000600449086010BD0000C5
:103E8000001002400000FFF8FFFFF6FE08ED00E022
:103E900010B5FFF749FCFFF7B8FBFEF76BF900F030
:103EA00099F8FEF765F810BD10B50121880700F0FC
:103EB00024F801280DD10121800700F00FF80548F2
:103EC0000068401C0349086003480068401C024920
:103ED000086010BD1C00002020000020CA430282A0
:103EE000704721B1028842F00102028004E002889A
:103EF0004FF6FE731A400280704730B5024600202C
:103F000000230024158A05EA0103958905EA0104C6
:103F100013B10CB1012000E0002030BD1AB183893B
:103F20000B43838102E083898B43838170470000C8
:103F3000002202881D4B98420ED01D4B98420BD098
:103F4000B0F1804F08D01B4B984205D01A4B9842D5
:103F500002D01A4B984204D14FF68F731A404B8807
:103F60001A43174B984207D0164B984204D04FF68D
:103F7000FF431A40CB881A4302808B8883850B88C5
:103F800003850A4B98420BD0094B984208D00E4B40
:103F9000984205D00D4B984202D00D4B984201D16A
:103FA0000B7A03860123838270470000002C0140B6
:103FB000003401400004004000080040000C0040B4
:103FC0000010004000140040004001400044014047
:103FD000004801400EB501210846FFF77FFB09208C
:103FE000ADF8040041F61F40ADF800000020ADF828
:103FF0000600ADF8020069464FF08040FFF798FFD9
:10400000012211469007FFF789FF01218807FFF77A
:1040100068FF0EBD00B587B001218803FFF76EFB76
:1040200001210420FFF76AFB01210820FFF766FB4E
:104030004FF40070ADF8180003208DF81A00182016
:104040008DF81B0006A91F48FDF792FE4FF4806013
:10405000ADF8180003208DF81A0004208DF81B001D
:1040600006A91848FDF784FE4FF4E13002900020C5
:10407000ADF80C00ADF80E00ADF81000ADF814006E
:104080000C20ADF8120002A90F4800F09FF825207F
:104090008DF8040000208DF805008DF80600012041
:1040A0008DF80700012240F22551074800F069F819
:1040B00001A8FFF7C5FA0121034800F02CF807B06A
:1040C00000BD0000000801400038014010B540F27A
:1040D00025510A4800F02BF850B10120084908701A
:1040E000064800F0DFF8C4B22146044800F0DFF8CB
:1040F00040F22551014800F005F810BD003801409C
:104100002500002001F40072B2F5007F00D100BF4D
:10411000CA430280704721B1828942F400528281F1
:1041200004E082894DF6FF731A408281704770B5B2
:104130000246002400230025002040F66A16B14202
:1041400000D100BFC1F3421501F01F03012606FA9A
:1041500003F3012D02D19689334006E0022D02D1EE
:10416000168A334001E0968A33400C12012606FA83
:1041700004F41688344013B10CB1012000E0002093
:1041800070BDF0B50346002400260025002040F64F
:104190006A17B94200D100BF1846C1F3421401F0BA
:1041A0001F06012707FA06F5012C01D10C3004E0A7
:1041B000022C01D1103000E014301AB107682F43EF
:1041C000076002E00768AF430760F0BD2DE9F047E4
:1041D00086B005460E460024A24600BFA146002731
:1041E000B08900B100BF2F462C8A4CF6FF70044006
:1041F000F08804432C82AC894EF6F3100440B0885A
:1042000031890843718908430443AC81AC8A4FF675
:10421000FF400440B0890443AC8201A8FFF7E8FAEC
:104220001F48874202D1DDF810A001E0DDF80CA0A4
:10423000A88900F4004040B10AEBCA0000EB0A1064
:1042400031684900B0FBF1F807E00AEBCA0000EB67
:104250000A1031688900B0FBF1F86420B8FBF0F077
:1042600004012009642101FB1089A88900F40040A1
:1042700040B1322000EBC900B0FBF1F000F00700C4
:10428000044308E0322000EB09106421B0FBF1F098
:1042900000F00F0004432C8106B0BDE8F087000059
:1042A0000038014001468888C0F308007047C1F318
:1042B00008028280704700BFFEE7000010B5044688
:1042C00010210548FDF7DFFD2046FDF743FF1021D3
:1042D0000148FDF7DAFD10BD0008014010B50446A5
:1042E00010210348FDF7CFFD2046FDF733FF10BD39
:1042F000000801400FB4054B10B503A9044A029809
:1043000000F0DAF810BC5DF814FB0000C14B0008A7
:104310002800002002E008C8121F08C1002AFAD1B4
:1043200070477047002001E001C1121F002AFBD135
:10433000704700002DE9FF5F82B00021DDE9043005
:10434000020DDDF840B0034318D044F61050A2F23D
:10435000FF3242431514119801281FD0A5EB0B0022
:10436000401C5FEA000A4FF000064E4FDFF838911C
:10437000B046504615D5CAF1000413E01198012447
:104380004AA3012801D16FEA0B010298119AC0E9F2
:104390000031C0E9024206B0BDE8F09FCBF1000059
:1043A000DFE704460021404A491842EB0450CDE9BA
:1043B000001012E0E00707D032463B46404649462F
:1043C000FCF7C0F88046894632463B4610461946FF
:1043D000FCF7B8F806460F466410002CEAD1DDE978
:1043E0000401DDE90023BAF1000F06DAFCF7AAF8B0
:1043F00042464B46FCF7A6F805E0FCF715F94246A5
:104400004B46FCF711F904460E460022284BFCF7F8
:1044100093F903D84FF0FF30014607E00022254B07
:1044200020463146FBF7E7FFFCF76DF9102409E061
:10443000002C0ADB0A220023FBF775FF039B3032B6
:104440001A55641E50EA0102F2D1641C039AC4F1A9
:1044500011031444119A012A03D0012208430DD1FB
:104460000AE0084304D000204FF0110B119072E7CE
:10447000A3EB0B056D1E0DE05B4504DD4FF0000264
:1044800005F1010504E003DA4FF00002A5F1010592
:10449000002AECD002981199C0E90231C0E9004528
:1044A00079E70000000014400000F03F30000000F9
:1044B0000000F0430000E03F2DE9FF4F95B09A4621
:1044C000884606460025EEE1252877D100242746B8
:1044D000F94A0121039400E0044316F8013F203B10
:1044E00001FA03F01042F7D130782A2811D06FF08A
:1044F0002F033078A0F13002092A16D8039A44F02D
:10450000020402EB820203EB42021044761C039089
:10451000EFE758F8042B0392002A03DA504244F4E0
:104520000054039044F00204761C30782E2816D1F3
:1045300016F8010F44F004042A280DD06FF02F0262
:104540003078A0F13003092B09D807EB870302EB81
:104550004303C718761CF3E758F8047B761C3078C1
:104560006C280FD006DC4C2817D068280DD06A289C
:1045700014D104E0742810D07A280FD10DE044F44F
:1045800000140AE044F4801401E044F4401472780A
:10459000824202D104F58014761C761C307866289D
:1045A0000BD013DC582877D009DC002875D04528BB
:1045B000F6D04628F4D047281AD193E118E06328B2
:1045C00035D0642879D0652812D18BE1702873D05A
:1045D00008DC6728F1D069286FD06E280DD06F28CD
:1045E00006D1ACE073282CD0752874D0782853D02D
:1045F0005246179990476D1C54E1C4F302500228AB
:1046000009D003280DD0D8F8001004280DD00D6073
:1046100008F1040846E1D8F80010EA17C1E9005291
:10462000F6E7D8F800100D80F2E70D70F0E718F803
:10463000041B8DF8001000208DF80100EB460120CE
:1046400003E058F804BB4FF0FF3061074FF0000162
:1046500002D40DE009F101018946B9420FDA814522
:10466000F8DB1BF809100029F4D108E009F1010179
:1046700089468142FADB1BF809100029F6D103981C
:104680005346A0EB090721463846179A00F080FAF6
:10469000284400EB090507E044E008E10DE01BF8C1
:1046A000010B524617999047B9F10109F7D25346C9
:1046B00021463846179AF2E039E00A21C4F3025243
:1046C0004FF0000B0091022A06D058F8040BC117D6
:1046D000032A09D00AE023E008F1070020F00702CE
:1046E000F2E80201904605E000B2C117042A01D1A8
:1046F00040B2C117002906DA0A460021404261EBA8
:1047000002012D2202E0220504D52B228DF804207F
:10471000012203E0E20701D02022F7E7914657E0AB
:104720000A2100E010214FF0000B00910BE0102156
:104730004FF0000B44F004040827009103E0082028
:104740004FF0000B0090C4F30252022A05D058F833
:10475000040B0021032A08D008E008F1070020F02C
:104760000702F2E80201904603E080B2042A00D179
:10477000C0B24FF0000922072AD53278702A07D03C
:10478000DDF800C08CF0100C5CEA0B0C05D00EE0DC
:1047900040228DF80420012208E050EA010306D0EF
:1047A00030238DF804308DF8052002229146009BBD
:1047B00083F0080353EA0B030AD150EA010201D146
:1047C000620705D530228DF804204FF001097F1EC5
:1047D0003278582A04D039A20C920CAA02920BE02B
:1047E0003BA2F9E75B46009AFBF79DFD0C9B9B5CA7
:1047F000029A521E0292137050EA0102F2D10298FC
:1048000004A9081A00F1200B600702D524F48034B3
:1048100000E001275F4502DDA7EB0B0000E0002070
:1048200000EB0B01009003984944401A0390E00309
:1048300006D453462146179A039800F0A9F9054477
:10484000002706E001A85246C05D179990476D1CED
:104850007F1C4F45F6DBE0030CD553462146179AE3
:10486000039800F095F9054404E03020524617996A
:1048700090476D1C0099481E00900029F5DC08E067
:104880000298029952460078491C02911799904764
:104890006D1CBBF10001ABF1010BF1DC5BE100F041
:1048A00065F90544761C307800287FF40DAE19B008
:1048B0002846BDE8F08F000009280100303132336E
:1048C000343536373839616263646566000000004C
:1048D0003031323334353637383941424344454636
:1048E00000000000600700D4062708F1070020F050
:1048F0000700F0E80223804603F0004C5FEA0C005A
:1049000001D097A009E0200501D596A005E0E007B9
:1049100001D095A001E0AFF24C001390307823F065
:10492000004365280CD006DC452809D046281DD058
:1049300047287FD13BE0662818D067287AD136E037
:104940000021112F01DB112000E0781CCDE90001CE
:1049500004A90CA8FFF7EEFCDDE90D010C9A4FF05D
:10496000000B07F10109109200914EE04FF000405A
:104970000097CDE9011004A90CA8FFF7DBFCDDE9E5
:104980000D020C9B0F994FF0000B91461093009273
:1049900011B9791C00EB0109B7EB090003D4C0F190
:1049A000FF3B07F10109A9EB0700019042E0012F4D
:1049B00000DA01270021112F01DD112000E0384627
:1049C000CDE9000104A90CA8FFF7B4FCDDE90D0155
:1049D0000C9A00914FF0000BB946109221070FD4AA
:1049E000009A4A4503DA914601E0A9F10109B9F1BB
:1049F000010F05DD109AA9F10101515C3029F4D0B5
:104A0000B84202DA10F1040F03DA0121CDE90110F6
:104A100010E0002803DC8344A9EB000102E0411C04
:104A2000494500DD8946A0EB0B00401C01904FF08A
:104A300000400290200705D40198484502DB4FF062
:104A4000FF30019000208DF84B0002980DF14B07CC
:104A5000B0F1004F25D002200C902B200D90029831
:104A600000280CDA404202902D200D9007E00A2128
:104A70000298FBF742FC3031029007F8011D0C99B7
:104A8000481E0C900029F2DC02980028EFD1791E14
:104A90000D980870307800F0200040F0450007F8CD
:104AA000020D11A8C01BC01D02901398007800B120
:104AB000012000EB0901019801EBE071029801442B
:104AC0000398401A401E0390E00306D45346214643
:104AD000179A039800F05CF805441398007818B111
:104AE0005246179990476D1CE00323D55346214643
:104AF000179A039800F04CF805441BE0BBF1000F37
:104B000007DB0098584504DD1098179910F80B0042
:104B100001E0179930205246904701980BF1010BA4
:104B2000401E05F10105019004D12E20524617992F
:104B300090476D1CB9F10001A9F10109DEDC05E027
:104B400017F8010B5246179990476D1C0299481EA1
:104B500002900029F4DC53462146179A03989EE6FA
:104B60002D0000002B000000200000002DE9F04186
:104B7000044600251E461746880404D405E039463D
:104B80002020B0476D1C641EF9D52846BDE8F08191
:104B90002DE9F041044600251E469046C80301D584
:104BA000302700E02027880404D505E04146384638
:104BB000B0476D1C641EF9D52846BDE8F0810000A1
:104BC00070B504460D4600BF0548008800F080001F
:104BD0000028F9D0E1B20248FFF769FB204670BD1A
:104BE0000038014010B5FFF753F9FFF713FAFDF74E
:104BF0008BFA0E48006800F4004038B105E00C481C
:104C00000078012801D1FBF751FEF8E7074800685A
:104C100000F4005038B105E005480078012801D1C2
:104C2000FDF70EFBF8E7002010BD0000080C014066
:104C300019000020544C0008000000204000000033
:104C400014430008944C00084000002000040000B9
:104C500024430008000000000000000000000000E5
:104C60000000000000000000000000000000000044
:104C70000000000000000000000000000000000034
:104C800000000000010203040102030406070809F2
:044C9000020406080C
:04000005080000ED02
:00000001FF
